:020000040000FA
:100000000C94D30F0C94FB0F0C94FB0F0C94FB0F70
:100010000C94FB0F0C94FB0F0C94FB0F0C94FB0F38
:100020000C94FB0F0C94FB0F0C94FB0F0C94FB0F28
:100030000C94FB0F0C94FB0F0C94FB0F0C94FB0F18
:100040000C949D110C94FB0F0C940D120C94E71161
:100050000C94FB0F0C94FB0F0C94FB0F0C94FB0FF8
:100060000C94FB0F0C94FB0F07634236B79BD8A789
:100070001A39685618AEBAAB558C1D3CB7CC5763CD
:10008000BD6DEDFD753EF6177231BF000000803F7B
:100090001EFF45BD611CDCBC23A0C2BCAE9E133D4F
:1000A0000CAD4E3D54FE75BD037B0C3EACAAB73D76
:1000B0003DEF86BD842E21BDB3CD8D3D4BCDFEBD24
:1000C00026AA773DDC7E19BEA1F5303D755AD7BD15
:1000D00029931A3ED89C83BCB53201BEF10EF0BC08
:1000E00076A816BE99477EBBE59BED3DB51AB2BD1D
:1000F000A5F78D3C43C9C43D4B20853D618D03BEB2
:100100002D073A3DCFF3273C39EE14BD5B61BABDF4
:100110005725B1BD008B7C3CF96786BC55DAE2BD42
:100120001807F73D0EDB963CE19950BD2635743D2E
:10013000C40BE2BD4E42C93D22A5593D9B3899BD35
:100140006B49173E95D31EBC562AC8BD38BA8ABD26
:100150002BA13B3B29961BBEE8A30CBE7CEFCFBD79
:10016000A3C985BDF0DC1B3E7CBAFABD48E00FBDDB
:100170006EA381BD3F70D5BD0950D33C07D2A53DCC
:1001800053CEF73DA3CD01BE6AF8963D0552E2BDC0
:10019000DD5C1C3EC346993DA31E223C00370BBDCF
:1001A000FC8B20BC23F50EBE6BD28DBDB5A764BC05
:1001B000CB48BD3CE718103E5B95C43D74D4D13CA0
:1001C000B091A4BC5E6658BCE7C3F3BDD7F80CBDC4
:1001D0008A8F0FBD637A02BE8DB3C9BD240E59B993
:1001E0002DCFC3BDE57B16BED6FE4EBD1F6ADBBB61
:1001F000B342113E8998923D2F52883D5F406FBDBA
:1002000080B8EBBD336ECA3D9206373D2025B63D22
:1002100083147CBD959A7D3D46425B3D1F4AB4BD2B
:10022000C3480F3E8B1A0C3D19E684BC725218BDB0
:10023000E17DD5BCC101CDBD0CE68FBDC0CE3D3E3C
:100240001AA5CBBCAA7DFA3D070CD2BD03B1ECBD0B
:100250004FEA0B3E43AE04BE64756B3D12BFE2BD78
:10026000410CB43DEBC7863DCF4ADABD0A3197BC9D
:1002700049654ABEF0C2D6BC13D3E53D6F7EC3BD0F
:1002800029AF953B6AC10BBCD4F1983DA038983E8C
:100290003CA32DBC6C43AD3EFEB928BD323D613D53
:1002A0009CFD81BBB3D06EBE289E33BDAD86443D60
:1002B000C6BFEFBDFB3D713E4510473E3B1924BF15
:1002C0006CE9313EE4316BBF94F89CBDEB01433ED9
:1002D000371AC0BDB7D5ACBCD32D7B3D151CC6BEEF
:1002E000D47C153CE0BE1ABFDD981EBC4FAE193E53
:1002F000047289BC2FBF333E0F9CD33D265335BEBD
:10030000DB8A7DBDB379BCBD4B5906BCA051BA3C5C
:100310008AAE4B3D2843053E1020C3BDC7F20E3EBA
:100320000B4304BE0A2BD53D50C3B7BC9928E2BD90
:10033000A3733EBD685AE23CC6A7A03D3ECA08BDB5
:100340002A7032BD0667B03D6A153DBDF914003E06
:1003500027F5153E9FCCFF3DB8CC89BDF46B1BBE85
:100360008E07FB3D2635943DE961E83CB3CE08BEDF
:1003700091F01DBEEAB4CE3D5A80D6BDB28475BDA3
:100380008FA6FABC9EF0923D5C3A26BDF71DA33DB8
:1003900011FDFABD728CE4BD23A16D3DB4C8F6BC5D
:1003A0006ABDDF3C2652FABDB94FCEBD567E193E1E
:1003B000C7D809BE25CF95BDEFC71D3E6C231EBC17
:1003C000D3840D3E9DB89CBCB4E5FCBD0E14383DF5
:1003D000297A203D3EB40F3E6ABDBFBD56660ABEB7
:1003E000150063BCF184FE3DA9DD0F3E6534D23DAE
:1003F000F4A7EDBD18D0AB3DC1AD0BBE3AB01CBDEE
:1004000092960ABE2636BFBDDE201ABE82A9263DC0
:10041000FB93783BDB360CBD87C47DBDF180B2BC5D
:10042000508A063EE679F03D2D7B12BE1426ACBD07
:100430001FD8F1BC9032A2BD7A19053E8466073EF2
:10044000B0AC043E7A1CE6BD1E18103E18B49038BD
:10045000077E943D90D80EBE3ECDE9BDE76EB73D18
:100460000A9F6DBD7A71A2BD8CBD573D994819BEDA
:100470007C2BB2BDCAFC233CBBF0E3BDD330DCBD5A
:100480001C5CDABD0AF8B5BDB667B6BD65C5F03C03
:100490009754EDBC9DD92EBC6477813CE014D63DC9
:1004A000DF5018BE672C1ABCE0F2F8BD4CA7B5BDF2
:1004B0002AAC143E1A6E803D2F331CBE3B37CD3D17
:1004C0002251C83D34A1893D38BEF6BB680912BE31
:1004D0003FE302BE56629E3D33A40ABCE3DEFC3B12
:1004E0009EECE63DE78FA9BD9E95B4BC3CF8E93D86
:1004F000EC3412BDFDD9EFBD3E75ACBC14EA69BC4D
:10050000BD36DB3D2FFB353DA4AAC9BDB7B244BD06
:10051000892826BDA7B313BDB2F5CC3D147586BDA1
:10052000EE0A9D3DA7CDD83DA80183BDEBE48CBC70
:10053000B98C5B3D54C39E3DA56A1BBE46990D3EDA
:100540001FBD01BE78978BBA38BA4A3D024908BE32
:10055000204412BE7A170FBE67EF8CBB0ED9C03D88
:1005600043584D3D2639C0BD1CF079BC2122B53C15
:1005700048FB9F3C683DFCBCE3C2A1BDDD0B4C3D8C
:1005800039D615BE6555C4BD890AD53D5B78DE3DBB
:10059000B27FFE3DA0DECCBD098DE03C174890BD8A
:1005A0003A1E933D1572E53D1F6A5BBCFDF9B63DF1
:1005B0002099AE3D642390BC9E5CD33C24610FBE69
:1005C000545653BC45D4043DEC32FC3CD462F03A62
:1005D000BD3871BC4EF1F83D5B095DBCF5F59CBDC5
:1005E00027A5A03CEE41883C382F8EBD70B5CE3D8E
:1005F0002F85C7BDCA32C4BD7924FE3D4D660CBEF1
:100600003C16BBBDE6076EBD5A46EA3CAAF4D33D94
:100610008270053EEFE714BE5DA83CBDFF59F3BDF7
:100620007FFA0FBDD61A8ABD795DBFB909E1D13D08
:10063000124E1BBEDD28F2BDF3ADAFBD6118903D7B
:10064000F8182CBD967B413D61AAB93DC840FEBD5E
:10065000639BB43DD82B8C3D48C018BE1CB4B7BDBD
:10066000990E5DBD22A6A4BDC1C8CB3CA2EDD83D6C
:1006700065A6F4BD30A112BE7E54E33D01DF8DBD01
:10068000C66BBEBD635FB23C0B9A963AE7C70F3E9E
:10069000014EAF3DA46CF13DBEBD2BBDFB40923D74
:1006A0005FECBD3BECF9FA3DAE9B92BD42B1D5BDCE
:1006B000DBF9FEBC5EA0A43AAF26AFBD9085283D15
:1006C00093E3EEBD6A4E5E3D9739DD3C15ACB1BD9E
:1006D000CC6177BC28D3C83D4A792DBD05C0F8BD93
:1006E000E2AE9E3D4B8FC63D4A42A2BD5AB9073E7F
:1006F0007B327FBCDD3FF6BD365B79BD8D4789BD62
:10070000F6462DBA7041B6BBED29B93DA9688CBD3E
:100710003FAA893ED6AA1D3D21CE233E34DB45BEED
:100720004CE056BDC91F4CBD0B5F2FBEB8AF33BEEA
:1007300039809E3D6F2D03BEB81D0ABE90F8053E60
:10074000ADF9713DCC7A413E2E030E3DA92EC0BDC0
:10075000AD18AE3BAE8343BD82AEFDBD36720D3EDD
:10076000D386433D8368AD3D429936BEDA572EBEEF
:10077000BCAFCABCE03061BE1407603E4C8A8FBE7D
:10078000029AE83DCBB9943D3BFC95BD7B4D87BEBD
:100790000742223EE2CD7ABE809E563E774A97BE01
:1007A0000519813D9889E2BD3DD3AB3D4E991BBCF7
:1007B000506F463E86AC2EBD836B6E3B68AE03BE6B
:1007C000DC4A6FBE91ED9CBD51C0763E310997BDAC
:1007D000F931363E158FEBBD97E26A3E11540D3E5E
:1007E000F0DA653DC72ED13D90F5543D71ACEBBDBF
:1007F000A5A2213E93AB183D855DD43D56808F3D2B
:1008000084F3A93DCD05CE3D483401BDA698C3BDB6
:10081000FA087CBD0EF5BBBB562B03BEC66C493D2A
:10082000C70ECABD8291173DF722DA3BB8CE3FBC56
:1008300060B07BBE88D60A3D547183BE93569C3D02
:100840007B3287BE4487C03C4242D4BDAF2429BE20
:1008500009C4EB3D481600BE5C39BB3DCD7790BD69
:1008600062F3913DAF0793BD84BB033E09E066BDD3
:1008700037FF1FBE23DC64BD9BAE27BD92CBDF3D9F
:1008800075CB4E3DF6D1A93D404E583DBC94BA3D86
:100890003C4AA53D3B7129BE6615D63DBB0E953D34
:1008A000687833BC53CDCC3D317CE4BDA0C6BD3CA3
:1008B0004CAAB63C01889BBD8A39A8BD4E7FF6BCC8
:1008C000D44720BEF1634CBCF984ACBDE42DF73DA8
:1008D000E8F923BE0C239DBD5839B43DB61490BC35
:1008E000C9012BBE0DE2033E1C78B5BD14B3FE3D1D
:1008F00073F6CE3C8464A13D183F8D3DEF71863D7B
:100900000F0F01BE38BB35BD6C5DEA3C3AE91DBE38
:1009100017EF87BDFB76F2BDD5260EBDE31673BD7E
:10092000639708BE2C2BED3D19903D3C04E3E0BDE0
:10093000543BE3BD8577993DC72E91BDCD569E3D75
:10094000CA1B00BEA08DDCBCEE401DBC963FFFBDA7
:100950001476B13D5D3379BD8B33E63D4D1095BDC9
:10096000B9379FBDD3840DBE6AA2CFBC35B3163C48
:10097000A3EA173D69519FBB62D8E1BC4069A83D1D
:100980007176EB3CA7C9CC3D13BB363C494814BE3D
:10099000C1A7993D99F2A1BCA1BC0FBCFD8609BCC1
:1009A0008925253D46D359BCF511983D0708663B7E
:1009B0007DB222BE4297D0BD35B481BCB647CF3D93
:1009C0006D3741BDF0301DBE355EFABD70B0D7BD8C
:1009D000BCAE9FBD7231E6BDCB2B173E6E85B0BB62
:1009E000E71CDCBDADA62B3D8E76FCBDCF681BBEE3
:1009F0006FD78B3DB68090BD4DD9A93DCFA1ECBD41
:100A00004EB6E13DE1B460BD7592CDBD95EF993C28
:100A100088D8C03DB116DF3DAF5E153ED097FEBD14
:100A200084D4EDBB295CEF3DE2578C3D670D5EBD84
:100A3000C7BB833D0038B6BD0B260EBE9FAC08BEBB
:100A4000D7670EBE4D841DBE4DF5E43D99812ABE8B
:100A50000437423E4032BDBD6DC6093E691A44BEF0
:100A6000A9DD9F3E58C701BE24B8913C5705CA3D39
:100A70001F65C43C6A187E3E5E4ADD3C7D042E3E06
:100A8000DFE1763DDDD0B43D8865B33DFD67ADBDAA
:100A9000A67E5E3D302CBF3DD7FB8D3BB7D52CBC31
:100AA00089D008BDDC8300BE624AA43C61C1FDBDA3
:100AB000E86BB6BD26DFAC3D48A5D83CC39ED63D0D
:100AC000D09C75BCF8E1003EF90FA9BD371C9EBE55
:100AD000603B28BEAB5F29BE1232D0BDFBE503BE32
:100AE000B18776BC1E88EC3DC555653DC4CDA93B9C
:100AF0003C5027BD405159BBEF20F6BC8BDEA9BC52
:100B0000662E30BD44BE8B3DDD0C17BE3868AF3B52
:100B10000A9F2DBEDD42973D53B387BD679DB13D12
:100B20004D6717BE15566ABD5F7A7B3CD7FAA2BDEA
:100B3000A7E75DBBC808A83D4356B73CF969DC3C54
:100B4000B265093E1D91FFBEE50EDBBD6F4B28BFB0
:100B5000096F8FBC90A484BD98A1F1BC4CDE103EFF
:100B6000058C0E3E19E3433C6D1FF23BB4C8263E94
:100B70006CCE313E0EF711BC711FB93C8A5503BAD9
:100B8000B876A23B42D0D1BC780AB93B9545E13C4E
:100B9000EF1C8ABDB70D233C6C3E6EBD0F0D8BBDA7
:100BA000919BC1BD5E9EAE3D6B66AD3CC80C543D95
:100BB00091BA0DBE852689BCD5B2753DB4E4B1BDF0
:100BC000D76DD0BD00AAB8BDA6B43EBDBE4B29BDF1
:100BD000543BC3BDCFD807BE834DBD3D0664AF3D7A
:100BE00087C2A73D71AE21BDCE5408BC4A08B6BD30
:100BF0004297B0BD10C9103E4A99D4BB680516BED5
:100C00004AEF0BBE2313B0BD548D0E3E59FD91BC6F
:100C10007A6C1B3E8BA809BD5F5E00BD38F8A23D13
:100C2000EBA7BF3D8105D03D4B01193E36725DBC3F
:100C3000DE778CBCBCCAFABD21CB423EB3ECA93DE9
:100C400051A3503DB004923DDF51E33D0C40233EA3
:100C500026FB173E5A48E03DB08C7D3E1349643E6A
:100C6000529D3EBEDBA307BE9417193B12FB443DC9
:100C700015527EBEFEBA533D579678BEA664B13E6D
:100C8000BF0B4BBE55FBB4BD2959AEBD8B3401BE65
:100C9000651902BE2845A3BE9DA0EDBDB685F7BE71
:100CA00026E4833D707756BDCE8B133DB741CDBD55
:100CB000207E3E3D312788BD459BC3BDC13B79BBEE
:100CC000172BCABDE1B7013E624B0FBC8D44883D76
:100CD0002FA58E3DB9710B3DC250C73DE82FF4BA28
:100CE00055FAE9BD09513EBCB2135E3DC95A03BE77
:100CF00040FB113D98F8C3BDFE9C42BD5DA9E73C99
:100D0000AB3F423B2A72E83D27C2863C7A6CCBBDA2
:100D1000D027D23D27699EBD75018F3D276AE9BC6A
:100D200083F715BE6CB0D03D6D3957BDFE286ABB48
:100D30007097FDBB83A5BABC176320BD2C2AC2BD2A
:100D40000BB3903D69A97C3D80D591BDAA0B78BDC0
:100D500048C1F33D537B11BD4547B2BD5D33B93D3D
:100D60001BD7BFBDB4E9883C5A2C45BD5ABAA23D39
:100D70004208A8BD705CE6BDA69B04BE143F06BE3B
:100D80007F6A7CBD40DEABBC9B5AF63DAD1412BE03
:100D900041BA583CCEC309BD80F3E23D52460CBE79
:100DA000E5B5D2BD81B1FE3DB30C31BDCAA406BECE
:100DB000BD73C8BD919BA13D4F5AB83DF6D40ABE44
:100DC000800D08BCF65C86BDED118A3D6C425A3D33
:100DD0008A00C7BD2C820FBE835119BE8D7F1FBDF7
:100DE0004CC546BB486F18BEF35A49BDB77E3ABDE5
:100DF000F930BBBD020F4CBD1B49123EA45056BD7D
:100E0000CB10C7BBFB7818BEA1F6BBBD5B3FBDBD19
:100E1000E6952B3D9AD0043EAC8FA7BDF48C3DBD2A
:100E20000E828E3CB29CC4BD06D41BBC992E843D60
:100E30009486DABDB7EE66BD47E40BBEB2D8A6BC59
:100E40005393203D15C52B3BC9914EBBA69CEFBDCE
:100E50007EFEFBBD5ED9153E2AE01E3D037B8CBDA8
:100E600055DEAE3DB1DEA83C59F70FBD18B5DB3DF0
:100E700074986FBDA721AABA6C5D8A3D8962B2BD24
:100E8000C782423BEEB4B5BD4870833D8BE215BED0
:100E9000BA4A97BDD2360E3E8E7446BDDEE522BDFF
:100EA0005E6959BD6494E73CD3DCAA3D8C86CCBD19
:100EB0008C2C09BE018986BD68E649BD193795BDF0
:100EC000AC52FABC53758FBC492FCA3D93567C3D3A
:100ED000543BE3BDC841A93DED9F273C0211A23D13
:100EE000BC76293DA0DFD73DB4B007BE75AF033E49
:100EF0008E5B4CBD87C5A8BC95D594BEDE3C853EB7
:100F00000C590D3E914304BEAFCFDC3D72DD943DE4
:100F1000992B83BC4167F2BD793EA3BD87A64CBE29
:100F200093E5243D34855EBE2159C0BC4E9D27BE4D
:100F3000037AE13DCC24EA3C67F1623D42D29FBE98
:100F400003E9623D444E1F3DB48E4A3E5055A13CDC
:100F5000AD87CF3D4293443E628335BE5DA3853D60
:100F60005AD4E73DEB723ABEF52EDE3D6CB587BD37
:100F7000F7580ABE65C28F3DD28EFBBD47AF463ED5
:100F80004F04313DE1ED01BEDD40813CB7B4DA3DB7
:100F90005A2CC53DB85AA73D1E8D033DCF12E43DE6
:100FA00035F10E3EBDFE243D5989F9BCB342913D59
:100FB000C51CC4BD98F718BE3B8CC9BD8BC26E3D25
:100FC000D73384BC91D101BD029E94BDB4E431BD40
:100FD00043FF44BDFB20ABBD7D9607BEB30A1B3D5E
:100FE0003178183CE2ACC83D8D08C63D63D2FF3D68
:100FF00059E0CBBDE1D407BD992C0EBEFE2B2BBE14
:10100000E23E323D52D60F3E0393DBBDB9ABB73D56
:1010100014EDEABDE735063EB61490BCF52F89BD48
:10102000E19885BD0C3AA1BC6DA8D83D1E33F03DBA
:101030004E9C5C3D49649F3CF8C6103D92AF443ED7
:10104000E0DA81BEA60B313D71CB57BEAA7F103DC1
:10105000FE0A993D9947FE3A1631EC3D6D1E47BD9B
:10106000C1C780BDEF38C5BC98C2A3BD09C5D6BDF8
:10107000C4B55A3D6FD5F53DAA7F903DE17C8A3DD0
:1010800009366E3D8EB143BE246094BD967850BE45
:10109000ADFC623E882DBDBCDF319C3DA12ED23D12
:1010A00065C4C5BDA19D13BD4CDFCB3D2BBEA13C8E
:1010B000D82BACBCC4421DBE6EC0E73CC4784D3CCE
:1010C0006AA5D0BD077AA8BD4EF1B8BA740CC8BDE8
:1010D000A5DB923C4F3EDDBD049270BDA85489BC97
:1010E000A1BCAFBD300E0EBED23553BD7713BCBD13
:1010F000D388B9BD7A8FD3BDC78242BB045864BDC3
:1011000017D7083E9888B73D13F3CCBDC53B80BDCB
:101110009CBF89BDFD6898BDAE6291BDFE4706BE0D
:101120009E610ABE6BD8CFBD0132943DA33AFD3D0E
:101130009565A83DF816163E4A0ACC3D6F9EEA3AE0
:1011400009E0063E8D5E8D3DC61682BDD9E9A73DFC
:101150000F9ABD3D00E2AEBC0D50BABD7B841A3E75
:10116000F12E97BC69FFA3BDA930D6BD4087B9BD9C
:10117000D74F0FBE09A715BEFE7F9C3B8909AABDAC
:101180002880623D8674F8BD3486B9BCDC4AAF3D28
:101190000E6A7F3E280BBF3D091AA33E30BA0CBE33
:1011A0009FAD43BE138275BE695365BEFA0BDDBDAC
:1011B0001288573D16A6EFBC5D4EC9BDAE0E00BEEF
:1011C0006F6509BD6CB030BD422182BD97C409BEB8
:1011D000F772FFBD75C9783DFF4039BDFA7E8A3D83
:1011E0001F1494BCD3F4593CF6EB4E3D34D93FBDAB
:1011F00072FA3ABD8508B83CE50D003E8B54083EB6
:101200009414F8BD7BC00C3EC05EE1BC1F9EA5BD22
:10121000D314C13DED45643E3CA3953EA38F293ECA
:1012200082FE123E7EC7F03CDD7807BEBF0D913DC9
:101230000BD5CDBD622C133DAB78A33C47E49B3D61
:10124000520FB13D65171CBE3DF11CBC2CD5053DB0
:1012500088BA4F3DB6BF333CC9C603BD363E133DC9
:10126000E541FABD0EBF9B3C5186AA3A8C67903D82
:10127000F4FB9E3DBD1AC0BD47748FBD5B26C33DC8
:101280002EAC9BBD4FEB363DC5571BBE1D58EE3DEA
:1012900091D20CBEAA10AF3D22FAB53D08E6883DBA
:1012A0001D39523C22FA15BE3DB9A63C338AE5BD34
:1012B000997FD4BD9D12903D7E8BAE3D51A41BBE47
:1012C000C2C2E9BDBD37C63DDF15413D1FA2D13DBC
:1012D0006C92FF3DE5B69D3D1C9686BD8F1A133D71
:1012E000401236BE2921283E1AC18EBE45F2153E57
:1012F000C03F65BDC4B043BDD350E33DB22EAE3D4B
:1013000036065DBD290979BE3D7F5A3D834F03BE38
:1013100042EE223DF3ACE4BD2AE48ABDF4E199BD7E
:10132000C9E96B3CBCAF8ABDC10042BCD525133EA8
:10133000BADC003ED9066E3B78EFC8BD910B4EBDBE
:1013400043E3893A541C07BEF9BF233DAA626ABD34
:101350007A89113E2C0DFC3D8200193D5F0C253E23
:101360000917F2BBA1F6DBBC7A53013EB7F0FC3D96
:10137000CCD23EBE919D07BEF43345BE4C6B53BBF1
:10138000755BC23D7234C7BD7EFEFB3D0F4747BE55
:10139000B9C1103DAAB726BE4030073D2CBB303E38
:1013A000D4635B3D9CC50B3ECB2BB73D1CB211BE3D
:1013B0002714A2BCCF9FD6BE501729BEDF8B8F3D0E
:1013C000327602BDFEB80D3E6C5D3A3EF0A7E6BD3A
:1013D0004E0AF33C959D3E3D0ADC5ABE9E0CCE3D26
:1013E000F982B6BDBEC04C3EC53B10BE882BAF3E99
:1013F0000D6C253ECAFBE03EB8CA133D67EEA13D29
:10140000E10C1EBEC501F43D3DBA91BC7C44EC3DEF
:101410006D7278BDD9CD7C3EFD101BBD55DF193EE8
:1014200070B112BED95F36BD946CB53DB43B043E7D
:10143000001A05BE6B630C3E3FACB7BC2D5D41BDD1
:10144000C973FDBC8C860CBDFE9BB73DFAD1D0BDE7
:10145000CA87A0BB2F338CBDD89A8DBD13F1F63D42
:101460002A72E8BD76C58C3BCC7C873CB39682BDA6
:101470008F19683DA79417BD3CDB033E04AC95BDB6
:101480009A0A113E501CA03D9207A2BDC6A51ABEE5
:101490006951DF3D8DF006BE0589ADBDA9C089BD8E
:1014A00076E00CBEDACA1B3ECD0619BE0F46CCBD97
:1014B000D34FB83C57B38E3D7AFCBEBDCF4BE5BD94
:1014C000925812BD28B9C33CC79BBCBDBC0512BD18
:1014D000ECD993BDADC389BE45A0BA3D6F9E6ABA33
:1014E0000116793E8732B4BEC55886BDB0AF553EB1
:1014F000728A0E3E1894693D6972B1BC221C733D1C
:10150000BC5B493EC85B1EBECF686B3DAB5BBD3C60
:101510005CAEFE3D90C05F3E85B2B0BD0742623E0C
:1015200092963A3E66A0D2BE0BED1CBDCF85113E11
:10153000C328083D643A143E9FCD2ABCC555253EBC
:101540007EE1F5BD7AAB0EBEF67FCEBD0E87A5BDA2
:1015500011A678BE3336F4BC3291B2BD19E2083E12
:1015600087883BBED4484B3DD0F1B1BD7D3E1A3E8D
:10157000EBA8CA3D992EA4BD9565A8BDD7A5A6BD6B
:10158000E92C93BDC0B3DD3DFC8EE13C456583BDD8
:101590006C4305BE8143E8BDE258973CAD186EBD73
:1015A00057B223BDAA2B0F3E3FE0013C58CBDDBD17
:1015B000FB0701BE7DECEEBD25CE0A3B3D4423BDBD
:1015C000753BFB3D6572EABD622D0EBE28B6C23D7D
:1015D000981976BD26C45CBD861C5BBD198F02BE02
:1015E0007AFFFF3D16BEBE3BDD9773BDB0747E3DF6
:1015F000AB06013ECC26E03D4F3DD23B971B1CBEC7
:101600007AC2923CC3D3AB3CBCCCD0BDDBFDEA3D3F
:101610003EB239BEE529EBBD0324FA3D4ED5BDBD32
:10162000AE6271BCCDB051BDE738F7BDAC8EBCBD6C
:101630000B631BBECEFA543D50FEEE3C2506013E28
:1016400031445EBE55FA493D0CAD6EBE98A3E7BD70
:101650007EC6C53D815F83BD874D34BE8EAC9C3D4B
:10166000E064DB3DA08B06BD77D8843DAA803B3D7E
:101670005A452F3E42B2E03D50C54D3E0723163E2F
:101680008E75D1BD8560153E240CA33D50ABE8BDE1
:101690001DC87A3DF6D129BC14D004BD91608ABD25
:1016A00065562FBDF5833ABB0DA6C13DBA2E7CBD54
:1016B000FCFCD7BD72C0EEBDB2D4DA3D81782DBE40
:1016C000163041BED87D073E906717BD97FFD03DCD
:1016D000D3F805BCC5570BBE8672A23C0D17B9BD29
:1016E000D6E4A9BC8E5B1C3EDC6795BC2E7500BEA3
:1016F00014928CBD740947BD42258E3E89B3C2BD8C
:10170000CD3CB93C39B95F3CF706DF3D1D3E69BBB6
:101710008D42123E40A291BE4D2FF13D00C548BD05
:1017200031CFEA3DB94F8EBBC630273DDAA939BC6F
:10173000865928BD00E58FBD58FFE7BD917B3ABDB6
:101740007383213DE6CDE1BD3E3C5B3E24D5773D34
:10175000CD3B0E3E8883143E7E71A9BBD60005BEEC
:10176000831527BDCFF3C73D986DE73D0CAF243DF2
:101770005183C9BD618EB6BEADA23FBD6287D1BDEA
:10178000A86D133EEDF057BCEF2026BECFF668BC27
:10179000AE9A173EDB6FEDBDA12DE7BB5D6B2F3E13
:1017A000DC63E93D26556BBE0D8B91BDBDAC09BD1B
:1017B000FB07013E034190BEB2D911BDE083573C07
:1017C000D1AE423D96CC71BD645C913E1ADFB7BD8F
:1017D000F32118BE6C5EF53DFD9F9BBE53EBBD3DF6
:1017E000E60518BD4776E53D9A447DBDD32E16BE6D
:1017F000DF886EBDC009053DEACAA73D13B910BE1A
:1018000057ED1ABD37FD593C3ACE0DBEFB3DD1BD5B
:101810005CAA52BCF41584BD030A753C7F34BC3D00
:10182000EF7211BE1B68BEBC238417BE25EBB03D12
:1018300086011B3E8B34313EF9DC093E9F8F32BD61
:10184000A14C83BE310927BE01F73C3DF16522BBA7
:10185000274C983CB0E72BBEEF8C16BE187B8FBD93
:10186000B0FE0F3E1555BFBCA59E853DBF10F2BD15
:101870002E8ECA3DD50938BE5F0C653BBA852E3D1C
:1018800078CF113E18B4003EECF6B9BD1F4CAABD8E
:10189000B0AFD5BD10EC983DE8A04BBD8C6700BE45
:1018A000213EB0BC6B9B82BDEACB52BC8CA10CBE6E
:1018B00001FB283E8BA44DBEB6F8143D61E1843D8A
:1018C000B2D866BE2F14903DC2FC153DBF9D443D6D
:1018D000E12904BEF699D33D25EC5BBC2B353BBD1D
:1018E000B265D93D3DBA91BD65A9153E7B82443CA8
:1018F0004CC3203E8620A7BDC85F2A3E8EE5FDBDB5
:101900008CDAFD3B535994BC8A3BDEBCFAEE163DA3
:10191000B61024BE48FAB43B42E8003E5DC3ACBDFD
:1019200026A61B3EF67B323E82A8FBB7A9BD083E29
:1019300030116FBD84F494BD40A249BD91D6983D4D
:101940007DE90DBEEB71FFBDD7DF62BE00E6DA3C7C
:10195000BDFEA4BCAFED6DBD728A0EBE8BDEA93993
:101960001A364ABCAC57113C1825A83DBA32C83DBE
:101970008482D2BC541E2D3E069EFB3CF7397EBDB0
:10198000EA92113E079819BE8D97EEBC3337DFBA45
:10199000ADF901BE39B5F3BD1BD9153C77BD34BDDA
:1019A00055A1813AF4C0873DB9E04CBDF5D7ABBC39
:1019B00062F4DC3D07973EBED68D97BDFD15923D86
:1019C000A86E3EBEC24B90BD8603D1BEF050D43D42
:1019D00042B06ABDAED413BE971FB83BF47002BECE
:1019E000768B003E503906BECE8BB3BD3E5C323E98
:1019F000B9C150BD83DBDABC8047F43D7DEC2EBE1F
:101A0000D8B7933A56110E3E215C41BDC4966EBEC6
:101A100069E5BE3D596D7EBDEF92083EFA0A22BED1
:101A2000581FAFBDC766C7BCDA70083EB9374FBE96
:101A3000643CEA3D297604BE130AF1BD1DC9C53DCB
:101A4000A98467BE0B62203D9BAA7BBE02BA1F3EE3
:101A500017BB2DBE61A98EBD71E7423B5BB3B53D9F
:101A600010212EBE164C7CBC02B8093EBD3405BE0A
:101A7000BF48283DDF347DBD096D29BE336D9F3DD4
:101A8000BEC02C3AE08327BE124B0A3D5F4546BDDF
:101A9000902DCBBD2F50B23DD7DA9BBD7232B1BD78
:101AA00048DF343E4606393D30F01CBED6A807BE9E
:101AB0009B1DE9BD61C2C8BD2FBF03BE676034BEB8
:101AC00035276FBDA86E0EBEAC56263D7AE3A43B0B
:101AD00032E6AE3CBB25F93D431FCCBD6D1EA7BD14
:101AE000101F183DEA25A6BDD235933C12BF22BE79
:101AF0007618F33DC5E3A2BD2B353B3D26181E3EAF
:101B0000CF14DABDA036AA3D1F9F20BE6F2D93BD16
:101B10007B82C4BBA9D898BCB9FB0C3E3A59EABD3C
:101B20005D6FDBBD49B97B3DE4115C3B07799DBD31
:101B300089EC33BE60CD01BDAD15ED3C027F18BE12
:101B4000AC1B6FBD0245CCBD7D5A35BE920376BD40
:101B50008F8C95BD846702BD389E7FBE950F21BED8
:101B60001B2F1DBD11E0F4BB48DD8E3D919C1CBEBA
:101B7000014CF9BD2C65B9BD6E6A88BE3A3B99BD72
:101B80009CE186BC2CD8063E34BB86BE603FC43B7D
:101B9000384BE9BD3F00993EEB3B0FBE7495AE3D1F
:101BA00054AC9A3C0803CF3C1A8BE6BDDBBFB23C79
:101BB000A1A10FBE30F4383E0F280BBE38F38B3D89
:101BC000C5E44D3D5F46313E9F59F2BD5C8F023EFC
:101BD0003E92523D9276E33D9D9CA13C57B2233DFF
:101BE000728A4E3DC02104BEB3EF8ABA020CCBBC50
:101BF00059FA203EB9E1973DC615173E567F14BEEF
:101C000063EC043EDD2446BD9CA35E3E1B830E3D7B
:101C1000F698E8BDF2CE31BE2CF5ACBCBF10D23D7B
:101C2000166D1E3ED6FF393DA2D5C93D77D68E3DF5
:101C300041D4DDBD6403E9BC78618B3DCEDD8EBD52
:101C40004068BD3CF4E0AE3D85CF563DE65713BE3F
:101C50003C8471BD4E61653D929404BE74D22BBE2E
:101C60005262973DCC46E73D31D21B3EEF20F63C19
:101C70009BC9273E6EF7B2BD2FC2143DE7A8033EB5
:101C8000E542C5BD08E7133D16C2CA3D0228A63D80
:101C90000116F9BC0D6FF63DDD989EBDA378B53DEC
:101CA0009C30E13DF2CF4CBDD8F54B3D111A99BEA9
:101CB000AD89053DCF48643EFA0E1E3E79934FBE76
:101CC00058E1963C4CFDBCBCCC99ED3B24624ABD2E
:101CD0001FF517BE73D6073E03078CBE1537EE3DC2
:101CE00081CE343E93C89EBD64E6A23DC251023E01
:101CF0009B72A53DAC3CA1BD158B5FBDAD6813BE0D
:101D0000D6719C3D7E011DBE4AD2B53D2E3A59BDCD
:101D10007D91D0BD261A44BE92080D3EE3502F3E61
:101D200005E00F3E3D99BF3D63991EBE1A178E3CDC
:101D30008524B3BC68E724BEDC800F3DBA679DBD37
:101D400083BFBFBDDACB36BCDE924C3E922488BD49
:101D50002639603DDFFB1B3E3202EABD4EEF123EEC
:101D6000AAD6A2BDA472133E84F1533D8B32FBBDB3
:101D7000363CBD3C4EB3403D4F4033BED2A9EBBDD7
:101D80009415A33D9BC676BC3DD35BBEA4E0093E43
:101D90002BDB87BC8D0A1CBBC2A1373D25E9FA3D70
:101DA000EAAFF7BD1C266ABE93351ABED1B113BE89
:101DB0008B70133E3080F0BCB115F4BDCC99EDBBF7
:101DC000B5545E3CB79A15BE44A7673C6F0E27BE5C
:101DD000B64B2BBEB56B023E28D2BDBD957DF73DFF
:101DE000CBF2F5BDEACC2D3EB459D53D50E3DEBD76
:101DF000FFB2FB3DAF21B83C6B80AA3E36E41F3EEC
:101E0000A35A043D713D8ABCE5B7E83C083B45BC9C
:101E10008CF50D3D70946CBE3FC69CBD6FD4AABDC1
:101E20009E5DBE3D7D40203CC1AB85BD8F89943C0D
:101E3000B9A8163E6612F5BD62BB3BBDD53F88BB57
:101E4000833122BD6EF7D2BD2B6EDC3CE883C5BD6D
:101E5000DCD834BFAE492FBF56470040D107E73F1B
:101E6000014E1BC00BF1A8BDF67F8E3C9E09CD3DF7
:101E7000AC5385BD381248BE1ABF703DC022BF3B6F
:101E800021C801BEF6432CBDB893083DEE2111BE1A
:101E9000CD95013E88B9243E682111BEB0C5CEBDA6
:101EA0004278B4BD6057F3BE2CD71BBDC5E7CE3E0C
:101EB000C8955ABE2506613EDCB9203E48A332BE15
:101EC000D0B830BDA4C604BDA4C2183D5DDE8CBE32
:101ED00086C6B33D3C2D5FBE331883BDBDC7F93DFB
:101EE000CD91B5BD336D7F3CD8D499BEF54C6F3DD7
:101EF000698BEB3CE5D1ADBD2BDB07BD32C687BDA1
:101F0000CA8CF7BDB9C1503E62301FBE12A0B6BE2A
:101F1000A56B563E5BCE25BEC7A1BE3D0E67FE3CFF
:101F2000BF6358BED0D0BFBC677CDFBDCC26103E9F
:101F3000B93589BDC748F63C48DCC33DC23060BEF8
:101F4000990D32BE32C948BCE690443E9F1D90BDFB
:101F50005C3B91BD1CEF4EBDF9848CBE2578033DE2
:101F60002924293E6E5251BE908392BCE3FE433E2B
:101F70003466923C8B5117BD035FB13D7DB00CBD03
:101F80008E3C90BCA16753BE560E6DBD45B974BE64
:101F90007863A13D685A22BD80D8223EAE4A82BDF8
:101FA000E124ED3DE61711241FBECFEFD8E0DEBFE0
:101FB000CDBF11E0A0E0B1E0E2E9F7E302C0059097
:101FC0000D92AA32B107D9F724E0AAE2B1E001C02C
:101FD0001D92A634B207E1F71FE0C3EDDFE004C0B5
:101FE0002197FE010E94AB1BC23DD107C9F70E9499
:101FF0003F120C94C71B0C9400003FB7F8948091DB
:10200000A1039091A203A091A303B091A40326B5CC
:10201000A89B05C02F3F19F00196A11DB11D3FBF20
:10202000BA2FA92F982F8827BC01CD01620F711DEF
:10203000811D911D42E0660F771F881F991F4A95E9
:10204000D1F70895AF92BF92CF92DF92EF92FF92B5
:102050000F931F93CF93DF936C017B018B01040FD0
:10206000151FEB015E01AE18BF08C017D10759F06C
:102070006991D601ED91FC910190F081E02DC601AE
:102080000995892B79F7C501DF91CF911F910F91A8
:10209000FF90EF90DF90CF90BF90AF900895FC013C
:1020A000538D448D252F30E0842F90E0821B930BBD
:1020B000541710F0CF96089501970895FC01918D63
:1020C000828D981761F0A28DAE0FBF2FB11D5D9666
:1020D0008C91928D9F5F9F73928F90E008958FEF08
:1020E0009FEF0895FC01918D828D981731F0828DBC
:1020F000E80FF11D858D90E008958FEF9FEF089513
:10210000FC01918D228D892F90E0805C9F4F821B76
:1021100091098F739927089585EA93E00E948010B2
:1021200021E0892B09F420E0822F089580E090E0DF
:10213000892B29F00E948C1081110C9400000895C5
:10214000FC01A48DA80FB92FB11DA35ABF4F2C912C
:10215000848D90E001968F739927848FA689B78923
:102160002C93A089B1898C91837080648C93938D1A
:10217000848D981306C00288F389E02D80818F7DBD
:1021800080830895EF92FF920F931F93CF93DF9375
:10219000EC0181E0888F9B8D8C8D98131AC0E889A3
:1021A000F989808185FF15C09FB7F894EE89FF8972
:1021B0006083E889F98980818370806480839FBF10
:1021C00081E090E0DF91CF911F910F91FF90EF9010
:1021D0000895F62E0B8D10E00F5F1F4F0F73112720
:1021E000E02E8C8D8E110CC00FB607FCFACFE8895B
:1021F000F989808185FFF5CFCE010E94A010F1CF33
:10220000EB8DEC0FFD2FF11DE35AFF4FF0829FB7CE
:10221000F8940B8FEA89FB8980818062CFCF682F89
:1022200085EA93E00C94C210CF93DF93EC01888D84
:102230008823B9F0AA89BB89E889F9898C9185FD41
:1022400003C0808186FD0DC00FB607FCF7CF8C91CF
:1022500085FFF2CF808185FFEDCFCE010E94A010D7
:10226000E9CFDF91CF910895FC0101900020E9F7BB
:102270003197AF01481B590BBC0185EA93E00C94E0
:1022800022108F929F92AF92BF920F931F93CF9382
:10229000DF93CDB7DEB7A1970FB6F894DEBF0FBEC0
:1022A000CDBF19A2423008F44AE08E010F5D1F4FE6
:1022B000842E912CB12CA12CA50194010E946A1BA3
:1022C000E62FB901CA01EA30F4F4E05DD801EE93DB
:1022D0008D01232B242B252B79F790E080E010979C
:1022E00019F0CD010E943411A1960FB6F894DEBF0B
:1022F0000FBECDBFDF91CF911F910F91BF90AF90D7
:102300009F908F900895E95CE1CFCF93DF9300D049
:1023100000D0CDB7DEB744E050E0BC01CE0101965D
:102320000E94311869817A818B819C810F900F9076
:102330000F900F90DF91CF9108951F920F920FB6DB
:102340000F9211242F933F938F939F93AF93BF933B
:1023500080919D0390919E03A0919F03B091A00353
:1023600030919C0323E0230F2D3758F50196A11DD2
:10237000B11D20939C0380939D0390939E03A09393
:102380009F03B093A0038091A1039091A203A09119
:10239000A303B091A4030196A11DB11D8093A103D5
:1023A0009093A203A093A303B093A403BF91AF9112
:1023B0009F918F913F912F910F900FBE0F901F9083
:1023C000189526E8230F0296A11DB11DD2CF1F92AA
:1023D0000F920FB60F9211242F933F934F935F9359
:1023E0006F937F938F939F93AF93BF93EF93FF93DD
:1023F00085EA93E00E94A010FF91EF91BF91AF9109
:102400009F918F917F916F915F914F913F912F910C
:102410000F900FBE0F901F9018951F920F920FB63E
:102420000F9211242F938F939F93EF93FF93E0913B
:10243000B503F091B6038081E091BB03F091BC033A
:1024400082FD1BC090818091BE038F5F8F732091AE
:10245000BF03821741F0E091BE03F0E0EB55FC4F63
:10246000958F8093BE03FF91EF919F918F912F9154
:102470000F900FBE0F901F9018958081F4CFCF93CF
:10248000DF93CDB7DEB760970FB6F894DEBF0FBE0F
:10249000CDBF789484B5826084BD84B5816084BDED
:1024A00085B5826085BD85B5816085BD80916E00F2
:1024B000816080936E001092810080918100826023
:1024C0008093810080918100816080938100809160
:1024D00080008160809380008091B100846080934F
:1024E000B1008091B00081608093B00080917A004B
:1024F000846080937A0080917A00826080937A0071
:1025000080917A00816080937A0080917A0080685F
:1025100080937A001092C100E091B503F091B60368
:1025200082E08083E091B103F091B2031082E091E8
:10253000B303F091B40380E180831092BD03E09176
:10254000B903F091BA0386E08083E091B703F0917C
:10255000B803808180618083E091B703F091B80374
:10256000808188608083E091B703F091B803808117
:1025700080688083E091B703F091B80380818F7DFC
:102580008083E0914204F0914304309711F4E6E433
:10259000F4E09E012F5131098DECE217F30710F49E
:1025A0008193FBCF2FB7F89480919D0390919E0368
:1025B000A0919F03B091A0032FBF809391039093AC
:1025C0009203A0939303B093940383E191E00E945C
:1025D00034118AE191E00E9434119E012F5F3F4F38
:1025E0003C832B8385EA93E00E9480109E878D8731
:1025F000892BE9F185EA93E00E945E108C33A9F4FF
:10260000109272039FB7F89440919D0350919E03DE
:1026100060919F037091A0039FBF40932A01509344
:102620002B0160932C0170932D01E0917203EF3E1A
:1026300068F491E09E0F90937203F0E0EE57FD4F27
:102640008083E92FF0E0EE57FD4F10828E3311F0BA
:102650008A3041F66EE370E082E892E00E94B11B9E
:10266000892B09F4BFCF31E030939B03BBCF80911E
:102670007203882301F12FB7F89480919D03909104
:102680009E03A0919F03B091A0032FBF40912A0108
:1026900050912B0160912C0170912D01841B950BA1
:1026A000A60BB70B853F9140A105B10520F0109214
:1026B00072031092820280919B03882309F4FBC36A
:1026C00010929B036CE370E082E892E00E94B11BE1
:1026D0008C016EE370E082E892E00E94B11B01156C
:1026E000110509F4E4C3009709F4E1C308171907B9
:1026F00008F0DDC30F5F1F4F801B910B03970CF495
:10270000D6C36CE270E0C8010E94BC1B7C0100973C
:1027100009F4CDC30817190709F4C9C301960E942B
:1027200013185C01F70110824EE2842E42E0942ED1
:10273000F12CE12C0115110509F4B4C3FAE2EF16EE
:10274000F10409F094C3EEE2F2E060E070E0CB0146
:10275000219131918901330F220B330B600F711FCF
:10276000821F931F22E0E238F20791F724E630E05F
:1027700040E050E00E948C1B8501BB0C220B330B08
:10278000601771078207930709F091C30E94FD0F3C
:102790002B013C0180E990E098878F83EEE2F1E025
:1027A000FE83ED8310E000E02EE232E03A872987D5
:1027B000312C212CC12CD12C7601E985FA8521916F
:1027C0003191FA87E9873C872B87C101800F911FE0
:1027D000880F991F880F991F805F9E4F0E94851157
:1027E0004B015C01EB85FC85BF01FF0F880B990B4A
:1027F0000E949819A50194010E94EA1A9B01AC015C
:10280000C701B6010E9443186B017C01FFEF2F1A2C
:102810003F0A2AE22216310481F68F8198850E94B0
:1028200085119B01AC01C701B6010E9443186B01E1
:102830007C0120E030E0A9010E94AF18ED81FE810B
:1028400087FD46C3C082D182E282F3822D813E8120
:102850002C5F3F4F3E832D838F8198850496988708
:102860008F83065D1F4F003495E0190709F09CCF58
:102870000E94FD0F64197509860997096093830307
:102880007093840380938503909386030E94FD0FC9
:102890004B015C01E0E1F6E1F887EF832EEA31E0DD
:1028A0003E832D83312C212C8EE291E09A878987FB
:1028B00010E000E0C12CD12C7601F101E05BF94E73
:1028C000FC87EB87E985FA85419051906190719082
:1028D000FA87E9878B859C85800F911F0E9485115F
:1028E0009B01AC01C301B2010E94EA1A9B01AC0139
:1028F000C701B6010E9443186B017C010C5F1F4F9A
:1029000000381105F9F68F8198850E9485119B0189
:10291000AC01C701B6010E9443186B017C0120E0A5
:1029200030E0A9010E94AF18ED81FE8187FDD5C27C
:10293000C082D182E282F3822D813E812C5F3F4FA3
:102940003E832D838F819885049698878F8390E8A6
:10295000290E311C2114E8E03E0609F0A5CF0E94A3
:10296000FD0F681979098A099B0960937F037093A9
:10297000800380938103909382030E94FD0F4B019B
:102980005C0120E53EE138872F838EEE91E09E8347
:102990008D839A878987312C212C2EEA31E03C8760
:1029A0002B8710E000E0C12CD12C7601C1018C599D
:1029B000914E988B8F87EB85FC854190519061906B
:1029C0007190FC87EB878F859889800F911F0E94FB
:1029D00085119B01AC01C301B2010E94EA1A9B015F
:1029E000AC01C701B6010E9443186B017C010C5F6A
:1029F0001F4F00341105F9F68F8198850E948511CB
:102A00009B01AC01C701B6010E944318E985FA8514
:102A10006193719381939193FA87E9872F81388528
:102A20002C5F3F4F38872F8330E4230E311C80E426
:102A3000281681E0380609F0B0CF0E94FD0FAB01E7
:102A4000BC01481959096A097B0940937B035093DB
:102A50007C0360937D0370937E0380918303909148
:102A60008403A0918503B091860300917F031091A8
:102A700080032091810330918203800F911FA21F58
:102A8000B31F840F951FA61FB71F809387039093D2
:102A90008803A0938903B0938A030E94FD0F2B0142
:102AA0003C012090EE013090EF01C090F001D090F9
:102AB000F101E2EFF1E0F887EF837F01F701819008
:102AC0009190A190B1907F019101A601C501B4013F
:102AD0000E946F1A181614F4140165012EE232E0F8
:102AE0002E153F0559F70EEE11E0812C912C540163
:102AF000F80161917191819191918F019101A601EC
:102B00000E9442180E942E199B01AC01F8013497D3
:102B10002083318342835383C501B4010E9443184B
:102B20004B015C01E016F10619F7ED81FE81619120
:102B3000719181919191FE83ED837F01F4E0EF1A11
:102B4000F108A50194010E94B418F7016083718314
:102B5000828393832D813E810217130731F70E94F0
:102B6000FD0F6419750986099709609377037093BF
:102B700078038093790390937A0301E010E0EF816A
:102B8000F8856191719181919191F887EF83ED853D
:102B9000FE85EE0FFF1FEE0FFF1FE251FE4F20815B
:102BA0003181428153810E946F1A181614F41E87D6
:102BB0000D870F5F1F4F0530110509F7ED85FE8565
:102BC000EE0FFF1FEE0FFF1FE251FE4F20E030E03F
:102BD00048EC52E460817181828193810E94EA1AFB
:102BE00060937303709374038093750390937603DB
:102BF0008D858F5B8093000180919703909198035E
:102C0000A0919903B0919A030196A11DB11D8093E3
:102C1000970390939803A0939903B0939A03E0913C
:102C20004204F0914304309711F4E6E4F4E0EF3FFE
:102C300028E0F20738F49F012F5F3F4F80818D3CE1
:102C400009F450C18FEF98E08E1B9F0B9093960371
:102C5000809395038FB7F894C0909D03D0909E0306
:102C6000E0909F03F090A0038FBF8091910390911B
:102C70009203A0919303B091940346015701881ADF
:102C8000990AAA0ABB0A38EE831633E09306A10418
:102C9000B10408F444C06091970370919803809147
:102CA000990390919A030E94961920E030E04AE738
:102CB00054E40E94EA1A2B013C01C501B4010E94B0
:102CC00096199B01AC01C301B2010E94B418609334
:102CD0008D0370938E0380938F03909390031092D3
:102CE0009703109298031092990310929A03C0923E
:102CF0009103D0929203E0929303F0929403809117
:102D0000420490914304009711F486E494E0EB812F
:102D1000FC81E81BF90BF0938C03E0938B038BE7AA
:102D20000E940F11809100010E940F118CE20E94FD
:102D30000F116091870370918803809189039091AE
:102D40008A034AE00E9441118CE20E940F116091B7
:102D500083037091840380918503909186034AE0F8
:102D60000E9441118CE20E940F1160917F037091CB
:102D7000800380918103909182034AE00E94411177
:102D80008CE20E940F1160917B0370917C03809113
:102D90007D0390917E034AE00E9441118CE20E94E3
:102DA0000F1160917703709178038091790390916E
:102DB0007A034AE00E9441118CE20E940F11C090F8
:102DC0007303D0907403E0907503F0907603A7012D
:102DD0009601C701B6010E94571B882309F484C0DD
:102DE0008DE191E00E9434118CE20E940F116091FC
:102DF0008D0370918E0380918F03909190030E94B8
:102E000060196B01770FEE08FF084AE0C701B601B1
:102E1000F7FE0BC08DE20E940F1166277727CB01CA
:102E20006C197D098E099F094AE00E9441118CE2CC
:102E30000E940F1160918B0370918C0390E080E0F1
:102E40004AE00E9441118CE20E940F1160919503AB
:102E50007091960390E080E04AE00E9441118DE776
:102E60000E940F118AE191E00E94341120C06CE2AF
:102E700070E0C8010E94B11B6C01009711F0FC01C9
:102E80001082FFEFEF1AFF0AC8010E941318F40125
:102E9000819391934F01C114D10421F086010F5FFA
:102EA0001F4F48CCFAE2EF16F10409F44CCC109213
:102EB00072031092820220E030E0232B09F492CBBF
:102EC0000E948C10882309F48DCB0E9400008ACBCD
:102ED0001082118212821382B9CC10821182128266
:102EE00013822ACDF901A3CE46015701E894B7F821
:102EF0002FEF3FEF4FE75FE7C501B4010E94571B7B
:102F000081110DC02FEF3FEF4FE75FE7C501B4011F
:102F10000E94AF1818161CF481E291E063CF2FEFE6
:102F20003FEF4FE75FE4C701B6010E946F1A181622
:102F30001CF485E291E056CF2FEF3FEF4FE75FECB7
:102F4000C701B6010E94AF1887FDF3CF20E030E043
:102F5000A901C701B6010E94AF1887FF07C08DE223
:102F60000E940F11F7FAF094F7F8F0942DEC3CEC76
:102F70004CE45DE3C701B6010E9443184B015C01BC
:102F80000E9467196B017C010E9496199B01AC019C
:102F9000C501B4010E9442184B015C014AE0C7011F
:102FA000B6010E9441118EE20E940F1120E030E034
:102FB00040E251E4C501B4010E94EA1A0E94671977
:102FC00090E080E04AE00E9441110ECFE5EAF3E094
:102FD0001382128288EE93E0A0E0B0E084839583B0
:102FE000A683B78385E091E09183808385EC90E0B0
:102FF0009587848784EC90E09787868780EC90E0C3
:10300000918B808B81EC90E0938B828B82EC90E0B3
:10301000958B848B86EC90E0978B868B118E128E2D
:10302000138E148E0895FC0188279927E894219126
:103030002032E9F3293010F02E30C8F32B3241F062
:103040002D3239F4689404C00E943A18820F911D01
:10305000219120532A30C0F31EF4909581959F4F03
:103060000895FB01DC0102C005900D9241505040D3
:10307000D8F708957AE0979F902D879F802D910D26
:10308000112408955058BB27AA270E945A180C945F
:10309000351A0E94271A38F00E942E1A20F039F4AF
:1030A0009F3F19F426F40C94FD190EF4E095E7FB0C
:1030B0000C94F719E92F0E94461A58F3BA176207C1
:1030C00073078407950720F079F4A6F50C94681A25
:1030D0000EF4E0950B2EBA2FA02D0B01B901900133
:1030E0000C01CA01A0011124FF27591B99F0593F77
:1030F00050F4503E68F11A16F040A22F232F342FBF
:103100004427585FF3CF469537952795A795F0400C
:103110005395C9F77EF41F16BA0B620B730B840B21
:10312000BAF09150A1F0FF0FBB1F661F771F881FD9
:10313000C2F70EC0BA0F621F731F841F48F4879531
:1031400077956795B795F7959E3F08F0B0CF939523
:10315000880F08F09927EE0F9795879508950E949C
:10316000D31908F481E008950E94C8180C94351A08
:103170000E942E1A58F00E94271A40F029F45F3F4F
:1031800029F00C94F71951110C94691A0C94FD193B
:103190000E94461A68F39923B1F3552391F3951BC6
:1031A000550BBB27AA2762177307840738F09F5F68
:1031B0005F4F220F331F441FAA1FA9F335D00E2ED5
:1031C0003AF0E0E832D091505040E695001CCAF742
:1031D0002BD0FE2F29D0660F771F881FBB1F261705
:1031E00037074807AB07B0E809F0BB0B802DBF01DC
:1031F000FF2793585F4F3AF09E3F510578F00C94AB
:10320000F7190C94691A5F3FE4F3983ED4F386955E
:1032100077956795B795F7959F5FC9F7880F911DCB
:103220009695879597F90895E1E0660F771F881FB7
:10323000BB1F621773078407BA0720F0621B730B6A
:10324000840BBA0BEE1F88F7E095089529F416F069
:103250000C94F7190C94681A0C94FD190E944E1ADC
:10326000A8F39638A0F707F80F92E8942BE33AEA10
:1032700048EB5FE70E94001B0F920F920F924DB731
:103280005EB70F920E94B61AE8E6F0E00E94001ABC
:103290004F915F91EF91FF91E595EE1FFF1F49F070
:1032A000FE57E0684427EE0F441FFA95E1F7419579
:1032B000550B0E94801A0F9007FE0C94741A089503
:1032C0000E9467196894B1110C94691A08950E94BC
:1032D0004E1A88F09F5798F0B92F9927B751B0F040
:1032E000E1F0660F771F881F991F1AF0BA95C9F78A
:1032F00014C0B13091F00E94681AB1E008950C94A6
:10330000681A672F782F8827B85F39F0B93FCCF358
:10331000869577956795B395D9F73EF49095809506
:10332000709561957F4F8F4F9F4F0895E89409C026
:1033300097FB3EF490958095709561957F4F8F4FE8
:103340009F4F9923A9F0F92F96E9BB279395F695FE
:10335000879577956795B795F111F8CFFAF4BB0F7C
:1033600011F460FF1BC06F5F7F4F8F4F9F4F16C0E0
:10337000882311F096E911C0772321F09EE8872F6A
:10338000762F05C0662371F096E8862F70E060E026
:103390002AF09A95660F771F881FDAF7880F96959F
:1033A000879597F90895990F0008550FAA0BE0E843
:1033B000FEEF16161706E807F907C0F012161306F7
:1033C000E407F50798F0621B730B840B950B39F437
:1033D0000A2661F0232B242B252B21F408950A269D
:1033E00009F4A140A6958FEF811D811D089597F9DD
:1033F0009F6780E870E060E008959FEF80EC08959B
:10340000DF93CF931F930F93FF92EF92DF927B0195
:103410008C01689406C0DA2EEF010E94FD1AFE01AD
:10342000E894A5912591359145915591A6F3EF0129
:103430000E945A18FE019701A801DA9469F7DF90FB
:10344000EF90FF900F911F91CF91DF91089500248D
:103450000A941616170618060906089500240A94F9
:1034600012161306140605060895092E0394000C7F
:1034700011F4882352F0BB0F40F4BF2B11F460FF0E
:1034800004C06F5F7F4F8F4F9F4F089557FD905837
:10349000440F551F59F05F3F71F04795880F97FB18
:1034A000991F61F09F3F79F08795089512161306D2
:1034B0001406551FF2CF4695F1DF08C01616170601
:1034C0001806991FF1CF8695710561050894089536
:1034D000E894BB2766277727CB0197F908950E94C8
:1034E000D31908F48FEF08959B01AC0160E070E000
:1034F00080E89FE30C94B4180C94F7190C945C1BAF
:103500000E944E1AD8F39923C9F3940F511DA3F3C7
:103510009150504094F059F0882332F0660F771F95
:10352000881F91505040C1F79E3F51052CF7880FDE
:10353000911D9695879597F908955F3FACF0983E59
:103540009CF0BB27869577956795B79508F4B16091
:103550009395C1F7BB0F58F711F460FFE8CF6F5F89
:103560007F4F8F4F9F4FE3CF0C94691AFA01DC0114
:10357000AA0FBB1F9B01AC01BF5728F4222733279A
:103580004427507820C0B75190F4AB2F00244695C3
:1035900037952795011CA395D2F3002071F0220FD7
:1035A000331F441FB395DAF30ED00C9442186130E8
:1035B0007105A0E88A07B94630F49B01AC01662783
:1035C000772788279078309621F0208331834283B3
:1035D000538308950E94FD1A0C94351A0E94271AED
:1035E00038F00E942E1A20F0952311F00C94F71950
:1035F0000C94FD1911240C94691A0E94461A70F358
:10360000959FC1F3950F50E0551F629FF001729F87
:10361000BB27F00DB11D639FAA27F00DB11DAA1F96
:10362000649F6627B00DA11D661F829F2227B00DE3
:10363000A11D621F739FB00DA11D621F839FA00D6E
:10364000611D221F749F3327A00D611D231F849FBE
:10365000600D211D822F762F6A2F11249F57504015
:103660009AF0F1F088234AF0EE0FFF1FBB1F661F90
:10367000771F881F91505040A9F79E3F510580F059
:103680000C94F7190C94691A5F3FE4F3983ED4F355
:10369000869577956795B795F795E7959F5FC1F7FD
:1036A000FE2B880F911D9695879597F908950E9496
:1036B000D319880B990B08959F3F31F0915020F456
:1036C000879577956795B795880F911D96958795FE
:1036D00097F90895A1E21A2EAA1BBB1BFD010DC08C
:1036E000AA1FBB1FEE1FFF1FA217B307E407F507B2
:1036F00020F0A21BB30BE40BF50B661F771F881F8E
:10370000991F1A9469F760957095809590959B0123
:10371000AC01BD01CF010895052E97FB1EF4009466
:103720000E94A31B57FD07D00E946A1B07FC03D011
:103730004EF40C94A31B50954095309521953F4F26
:103740004F4F5F4F089590958095709561957F4F8D
:103750008F4F9F4F0895EE0FFF1F0590F491E02DBE
:103760000994FC018191861721F08823D9F79927C4
:1037700008953197CF010895FC0181E090E0019018
:10378000061609F4CF010020D1F701970895F894A7
:10379000FFCF3F00000000C21022104F1014118014
:1037A000105E1072107B626F6F747D000D0A006EE8
:0C37B000616E00696E66006F76660000B6
:107800000C94343C0C94513C0C94513C0C94513CE1
:107810000C94513C0C94513C0C94513C0C94513CB4
:107820000C94513C0C94513C0C94513C0C94513CA4
:107830000C94513C0C94513C0C94513C0C94513C94
:107840000C94513C0C94513C0C94513C0C94513C84
:107850000C94513C0C94513C0C94513C0C94513C74
:107860000C94513C0C94513C11241FBECFEFD8E036
:10787000DEBFCDBF11E0A0E0B1E0ECE9FFE702C060
:1078800005900D92A230B107D9F712E0A2E0B1E065
:1078900001C01D92AD30B107E1F70E942D3D0C945F
:1078A000CC3F0C94003C982F959595959595959582
:1078B000905D8F708A307CF0282F295A8091C0000B
:1078C00085FFFCCF9093C6008091C00085FFFCCF60
:1078D0002093C6000895282F205DF0CF982F809127
:1078E000C00085FFFCCF9093C6000895EF92FF92F1
:1078F0000F931F93EE24FF2487018091C00087FD22
:1079000017C00894E11CF11C011D111D81E4E8164B
:1079100082E4F8068FE0080780E0180770F3E09132
:107920000401F091050109958091C00087FFE9CF1E
:107930008091C6001F910F91FF90EF9008950E94D3
:10794000763C982F8091C00085FFFCCF9093C600B5
:1079500091362CF490330CF09053892F089597555D
:10796000892F08951F930E949F3C182F0E949F3CCF
:107970001295107F810F1F9108951F93182F882350
:1079800021F00E94763C1150E1F71F9108951F935A
:10799000182F0E94763C803249F0809103018F5F5E
:1079A000809303018530C1F01F9108958091C0003C
:1079B00085FFFCCF84E18093C6008091C00085FFE5
:1079C000FCCF1093C6008091C00085FFFCCF80E102
:1079D0008093C6001F910895E0910401F091050184
:1079E00009951F9108950E94763C803241F0809164
:1079F00003018F5F80930301853081F008958091AA
:107A0000C00085FFFCCF84E18093C6008091C00058
:107A100085FFFCCF80E18093C6000895E0910401CA
:107A2000F09105010995089540E951E08823A1F0FE
:107A30002D9A28EE33E0FA013197F1F721503040CA
:107A4000D1F72D9828EE33E0FA013197F1F7215064
:107A50003040D1F7815061F708953F924F925F9285
:107A60006F927F928F929F92AF92BF92CF92DF924E
:107A7000EF92FF920F931F93CF93DF93000080E16B
:107A80008093C4001092C50088E18093C10086E015
:107A90008093C2005098589A259A81E00E94143D24
:107AA00024E1F22E9EE1E92E85E9D82E0FE0C02ECA
:107AB00010E1B12EAA24A394B1E49B2EA6E58A2E50
:107AC000F2E57F2EE0E26E2E79E4572E63E5462E36
:107AD00050E5352E0E94763C8033B1F18133B9F107
:107AE000803409F46FC0813409F476C0823409F41B
:107AF00085C0853409F488C0803531F1823521F1A3
:107B0000813511F1853509F485C0863509F48DC0BC
:107B1000843609F496C0843709F403C1853709F423
:107B200072C1863709F466C0809103018F5F80932C
:107B30000301853079F6E0910401F0910501099582
:107B40000E94763C803351F60E94F33CC3CF0E94E2
:107B5000763C803249F78091C00085FFFCCFF092DF
:107B6000C6008091C00085FFFCCF9092C600809136
:107B7000C00085FFFCCF8092C6008091C00085FFC9
:107B8000FCCF7092C6008091C00085FFFCCF609250
:107B9000C6008091C00085FFFCCF5092C600809146
:107BA000C00085FFFCCF4092C6008091C00085FFD9
:107BB000FCCF3092C6008091C00085FFFCCFB09210
:107BC000C60088CF0E94763C863808F4BDCF0E945C
:107BD000763C0E94F33C7ECF0E94763C803809F4CC
:107BE0009CC0813809F40BC1823809F43CC1883942
:107BF00009F48FC080E00E94C73C6CCF84E10E94F2
:107C0000BD3C0E94F33C66CF85E00E94BD3C0E94D3
:107C1000F33C60CF0E94763C809306010E94763C44
:107C2000809307010E94F33C55CF0E94763C80333D
:107C300009F41DC183E00E94BD3C80E00E94C73C66
:107C400049CF0E94763C809309020E94763C809343
:107C5000080280910C028E7F80930C020E94763C79
:107C6000853409F415C18091080290910902892B8D
:107C700089F000E010E00E94763CF801E85FFE4FDA
:107C800080830F5F1F4F80910802909109020817AF
:107C9000190788F30E94763C803209F045CF809125
:107CA0000C0280FF01C16091060170910701660F0F
:107CB000771F7093070160930601A0910802B091AD
:107CC00009021097C9F0E8E0F1E09B01AD014E0F09
:107CD0005F1FF999FECF32BD21BD819180BDFA9A17
:107CE000F99A2F5F3F4FE417F50799F76A0F7B1F4B
:107CF00070930701609306018091C00085FFFCCF5F
:107D0000F092C6008091C00085FFFCCFB092C60003
:107D1000E1CE83E00E94C73CDDCE82E00E94C73CFA
:107D2000D9CE0E94763C809309020E94763C8093D3
:107D300008028091060190910701880F991F909386
:107D40000701809306010E94763C853409F4A6C0A1
:107D500080910C028E7F80930C020E94763C8032D0
:107D600009F0B8CE8091C00085FFFCCFF092C6002C
:107D7000609108027091090261157105B9F140E046
:107D800050E080910C02A82FA170B82FB27011C0E2
:107D9000BB2309F45CC0E0910601F0910701319624
:107DA000F0930701E09306014F5F5F4F46175707B7
:107DB000E8F4AA2369F3F999FECF209106013091E6
:107DC000070132BD21BDF89A90B58091C00085FFB2
:107DD000FCCF9093C6002F5F3F4F30930701209355
:107DE00006014F5F5F4F4617570718F38091C00099
:107DF00085FDE5CE8091C00085FFF8CFE0CE81E023
:107E00000E94C73C67CE0E94763C803209F08CCE3F
:107E10008091C00085FFFCCFF092C6008091C00029
:107E200085FFFCCFE092C6008091C00085FFFCCFAB
:107E3000D092C6008091C00085FFFCCFC092C600E2
:107E40008091C00085FFFCCFB092C60043CEE09188
:107E50000601F091070194918091C00085FFFCCF4D
:107E60009093C6009CCF80E10E94C73C33CE0E9415
:107E7000763C0E94763C182F0E94763C112309F430
:107E800083C0113009F484C08FE00E94C73C22CE29
:107E900080910C02816080930C02E5CE80910C02EF
:107EA000816080930C0259CF809107018823880F4D
:107EB000880B8A2180930B02809106019091070123
:107EC000880F991F90930701809306018091080203
:107ED00080FF09C080910802909109020196909359
:107EE000090280930802F894F999FECF1127E091D6
:107EF0000601F0910701C8E0D1E08091080290915D
:107F00000902103091F40091570001700130D9F34B
:107F100003E000935700E89500915700017001308D
:107F2000D9F301E100935700E89509901990009169
:107F3000570001700130D9F301E000935700E89534
:107F40001395103498F011270091570001700130FB
:107F5000D9F305E000935700E895009157000170B0
:107F60000130D9F301E100935700E895329602976A
:107F700009F0C7CF103011F00296E5CF112480919F
:107F8000C00085FFB9CEBCCE8EE10E94C73CA2CD19
:0E7F900085E90E94C73C9ECDF894FFCF80008B
:00000001FF
