:020000040000FA
:100000000C9405040C942D040C942D040C942D04D4
:100010000C942D040C942D040C942D040C942D049C
:100020000C942D040C942D040C942D040C942D048C
:100030000C942D040C942D040C942D040C942D047C
:100040000C94CF050C942D040C943F060C941906C7
:100050000C942D040C942D040C942D040C942D045C
:100060000C942D040C942D0407634236B79BD8A73B
:100070001A39685618AEBAAB558C1D3CB7CC5763CD
:10008000BD6DEDFD753EF6177231BF000000803F7B
:100090001E8AC23D9BE7883D73668BBE438EADBC16
:1000A0000DDF423C081D143E819884BE0C1E363E76
:1000B0007B323FBEE56397BD0E4FAFBCA25E003EF4
:1000C0001C99C73DB6BB27BE799189BCD46501BEDA
:1000D000ACC5A736BD370637B5FE9637BD370637F0
:1000E000ACC5A736ACC5A736A48C38379C53493766
:1000F0009C53C936ACC5A736ACC5A736ACC5A73628
:10010000A48C38379C5349379C53C936A48C383754
:10011000EDC9640424BE0232048F34619E9F93961D
:1001200036AC0E3C01CF9F31758F8CAF50CFF1E5CF
:10013000D89AD456BAE0902AC55DB4184324FF7FFC
:1001400032C4012A01C5C45EE769BE853271523FDF
:10015000C93997363C6E7EEEDC8FF3D99CA2C40879
:100160003EE7E0B8401C725AE8F6E3115ED336333E
:1001700025468545D9372A43D9CDE92ACDB3940AF6
:1001800029A105CB4DD6BEB764E31943858ACCD8E7
:10019000BABA018060D042B13DB3D735C51C6516EF
:1001A00037D8F5CF8331FD06AF3DAC1FFE36162A9A
:1001B000F673340773712230BDF5B8FB43E1A81C18
:1001C00066F2310670AA2A1725BF163774EE8F091A
:1001D0008411470A460566E072FC83C253054DFD53
:1001E000ADF53CF989FA6CC14D060180FB226C0D1E
:1001F00011197A178DFC7EE625E46DA1391FFC4CA0
:10020000D10A723E872BD011D222BCF97F095B1C28
:100210004D21363D3804CB05E6DE83AA399E3EB338
:10022000976B160EBA4B6FC04D354ECA7A4DDFA094
:10023000BD36F8F0F9F7B82B50F03F4274F3822442
:1002400058155A3B7B3F5F656EC61652DFB72D7A55
:100250007EF82D12569F666E92F9FF7FD9BD367FCC
:10026000C757106276F7239B5DFEA61878A69AB44E
:10027000FC81EDD17E727A16F9F74705F551EF8BC7
:10028000969A4DD45BB4CB43DF5C7A807490018046
:100290009631CA69179A26C3D3292CAAA76FA51E1F
:1002A00069DB8908FA2886D1289AE2006502A7024C
:1002B000D2EC64549BD865EFEA2ECBACFB1CDADFA2
:1002C0007B37ACB71F00BC07E49694A0742B1DD7F6
:1002D000C3450180B0BDA794732DE1F72DE4B4E6CA
:1002E000C299F71E9EFE36A58D2AFDF89082C53E66
:1002F000623EF2E32AA58600DB59F66D1E9D06C319
:10030000DC5C9F38E74844BDE63F0CEB4F0AAD0488
:10031000C41059DBE502F0060180789E12D2532802
:10032000C806D827E0F80ECB540C829E1ED281411D
:1003300046EA34CF46ED55D6CA091C58C5DC90DADA
:10034000471FA5927F3B3795D13AE950851BE006C0
:1003500001EC1511F65B2EF8C87755FE20E9BEEECC
:100360007DF592EE86242EDFF83ACDECEF7543C092
:1003700083EA9EF2A3F1CACD0DEFBB3A1F05671CBD
:10038000EEDC0DF686F4BFF10CD85514C602C1138D
:1003900020CA73DAE613C12B2D14626B45FEFF7F72
:1003A0007EC184D6FFEEAFD265F893446BF8A547C3
:1003B000F196979AAF2DBEFA93CA4A17C0AE009530
:1003C00001804F13ABB77F0EB5317D04A83306E132
:1003D0004E3731EAD5D0DE13E7B018360DFA9CFB64
:1003E000DF359553F5B581DDDDEC36382419C04194
:1003F000A81E33BFF31AE8BDFB2B7A209CAB78E62E
:10040000A5F21F13C984C001703FE344F13BEF0F15
:1004100001801B50B1954FAF75FD18230A47B6E810
:10042000E7B811F2FB2536B6378B6339E8A50BB177
:10043000C16649A16B92065E1ABE2A04327C13C6BD
:10044000F873B460885E611E45C1E74C98A2ECADBC
:100450009CBCA832840CB14DDA4B2E01D543239EAF
:1004600025824C92AE40136E44D8803CD19FDFF57C
:10047000A6FA6DD51CBE9A3532F004E2DC516898BC
:10048000384D39698BAD0180050CC6ADBE2E1E916D
:10049000CF97071C8BDA438B502BD232A30AB44977
:1004A000B0C64B6A7299006C3E58538084F475BA9A
:1004B000347F9BFA264CC46F509C964E8C8F16DD71
:1004C000E0CB17873C865D83009CC4B764D5544855
:1004D00038EB018019A2C75CDB816AC0018B8E45B5
:1004E0005D58500B03BFA9E089072E363C02BAC302
:1004F0004306F60334013B3848CF24088D00933679
:10050000A7DE97BFF3BECDF1DB140DFA9D4AFCB711
:100510002D6E018084D716F8E2D8332EC1D75BD672
:1005200084EE49CD8BCCACF23BDA112AACFAC5068D
:10053000BB196A07800E002BCE2A4EE1EE1559D763
:100540002E37D0ED3CF96D233F3E65FC22448F07EA
:100550002E3940FCBA072DD38E1E1002EC0D40F848
:100560000A1B2B0BB29FFA1FAC323A05DC1CE2D5FA
:10057000C5E51E2D14DC1C9AC805B4CA0027AF1FA0
:1005800097176DDB2BD6FF7FF210B9D200DD30025A
:100590003C0C418FBDF83FCA06CACBFD04F6EEC441
:1005A000B5CF710FA1C4B91F3AA3F7F95D1DCEC92C
:1005B00031B51AF2700FD1EA462C4E3A69288C6593
:1005C00072B9C0A8E1168F094A65025ABB2BC04018
:1005D000D82DAEF9699527C7DD9E5446CBC159A8E1
:1005E000C0ED944AE02B1B212CF5018065BC38A29C
:1005F000FADBAC4B69B35CDDA667AA43070F231097
:10060000F9C6FEC51DD5BC1914C0E03420AE69285A
:10061000CAF1ECF990CA8A1549F285D2FC12CDAD27
:100620004FC9990EF0C64FE095F5A37026F5366ACE
:100630006DFD8604E7FF2DF9851C006D301C0671E9
:100640007FF70D112C44FD2BB764CD7B8546FF7FD2
:10065000EE5F193DEE224C3DF8DD64BE5567F5BDF9
:10066000B807113EA646483E8ECE19BEADC206BEA4
:100670009C53C936BD370637B5FE1637BD3706372A
:1006800030629F37A48C3837BD370637BD37063701
:10069000E88520DA2642C19CB285A08FFD25E0E2E4
:1006A000AC617DEE0303FF7FC910FC92831785F0D8
:1006B000BDAA1A3E280ACD98638CDE360180570CFD
:1006C000FFAEA815D4194B3F0EBB50EF86BA23FAE4
:1006D000B806FA277A3B99AF85D072F128A1D3B733
:1006E0004DB384B77457441EE5C10180D430E3AAEA
:1006F0000180ED8C41475E418201E2832E1F86A07E
:10070000611E9C17AAA65AFC7BA49D5EECD573D2F1
:1007100086D2E919018053F2A20C4EFC881AACA5CE
:100720005BC0A025DFDA06DE7608FD122B25085017
:1007300030D078B792A7882A5DFF04EC5AF690353E
:100740002C23D6311704904F55FF4F561534FF7F99
:1007500059423095B041B59FBEA976A80FCA3697C9
:10076000FE6CA7CC495478735155AE6838080180A7
:10077000DD4ECC8E031DD9C4BC523056E8F4C4CE35
:100780008F5F7AD48C9C7EAC0180905F0861C1DA67
:10079000734A683F1844BC3F98C19E3FD811C1BFFF
:1007A00095D844C0BD370637ACC52737A48C383739
:1007B000B5FE1637BD370637BBFF31C0018069D2A1
:1007C000B30756739A44F288CD59958D80D3023D74
:1007D0009E094CFE0180E6845BF2BC55DF8E1F96BD
:1007E000FF7F37DAE56CC29B5D2C5AE9495DC41086
:1007F000BD7558398718FF7FFF7F5D34E044D037DF
:1008000003101665098D1E5C1E0C11241FBECFEF50
:10081000D8E0DEBFCDBF11E0A0E0B1E0EEE3F0E252
:1008200002C005900D92AA32B107D9F728E0AAE2DA
:10083000B1E001C01D92A63DB207E1F714E0C5E0AA
:10084000D4E004C02197FE010E940110C430D107FA
:10085000C9F70E9471060C941D100C9400003FB75C
:10086000F8948091310890913208A0913308B091AA
:10087000340826B5A89B05C02F3F19F00196A11D8D
:10088000B11D3FBFBA2FA92F982F8827BC01CD01DA
:10089000620F711D811D911D42E0660F771F881F39
:1008A000991F4A95D1F70895AF92BF92CF92DF92E8
:1008B000EF92FF920F931F93CF93DF936C017B0115
:1008C0008B01040F151FEB015E01AE18BF08C017A6
:1008D000D10759F06991D601ED91FC910190F08119
:1008E000E02DC6010995892B79F7C501DF91CF91DC
:1008F0001F910F91FF90EF90DF90CF90BF90AF903E
:100900000895FC01538D448D252F30E0842F90E015
:10091000821B930B541710F0CF96089501970895FA
:10092000FC01918D828D981761F0A28DAE0FBF2FC3
:10093000B11D5D968C91928D9F5F9F73928F90E019
:1009400008958FEF9FEF0895FC01918D828D981788
:1009500031F0828DE80FF11D858D90E008958FEFC5
:100960009FEF0895FC01918D228D892F90E0805C8E
:100970009F4F821B91098F739927089585E398E013
:100980000E94B20421E0892B09F420E0822F08950F
:1009900080E090E0892B29F00E94BE0481110C9424
:1009A00000000895FC01A48DA80FB92FB11DA35A12
:1009B000BF4F2C91848D90E001968F739927848F7F
:1009C000A689B7892C93A089B1898C9183708064A2
:1009D0008C93938D848D981306C00288F389E02D43
:1009E00080818F7D80830895EF92FF920F931F93F4
:1009F000CF93DF93EC0181E0888F9B8D8C8D9813D2
:100A00001AC0E889F989808185FF15C09FB7F894DD
:100A1000EE89FF896083E889F98980818370806429
:100A200080839FBF81E090E0DF91CF911F910F9174
:100A3000FF90EF900895F62E0B8D10E00F5F1F4F83
:100A40000F731127E02E8C8D8E110CC00FB607FC92
:100A5000FACFE889F989808185FFF5CFCE010E9420
:100A6000D204F1CFEB8DEC0FFD2FF11DE35AFF4FB8
:100A7000F0829FB7F8940B8FEA89FB8980818062AE
:100A8000CFCF682F85E398E00C94F404CF93DF93E5
:100A9000EC01888D8823B9F0AA89BB89E889F98996
:100AA0008C9185FD03C0808186FD0DC00FB607FCCB
:100AB000F7CF8C9185FFF2CF808185FFEDCFCE01FE
:100AC0000E94D204E9CFDF91CF910895FC010190FB
:100AD0000020E9F73197AF01481B590BBC0185E3B2
:100AE00098E00C9454048F929F92AF92BF920F9310
:100AF0001F93CF93DF93CDB7DEB7A1970FB6F894CE
:100B0000DEBF0FBECDBF19A2423008F44AE08E010D
:100B10000F5D1F4F842E912CB12CA12CA5019401A7
:100B20000E94A20FE62FB901CA01EA30F4F4E05D99
:100B3000D801EE938D01232B242B252B79F790E000
:100B400080E0109719F0CD010E946605A1960FB6BE
:100B5000F894DEBF0FBECDBFDF91CF911F910F91F3
:100B6000BF90AF909F908F900895E95CE1CFCF93B5
:100B7000DF9300D000D0CDB7DEB744E050E0BC0139
:100B8000CE0101960E94690C69817A818B819C81DA
:100B90000F900F900F900F90DF91CF9108951F92BB
:100BA0000F920FB60F9211242F933F938F939F9321
:100BB000AF93BF9380912D0890912E08A0912F089C
:100BC000B091300830912C0823E0230F2D3758F5D1
:100BD0000196A11DB11D20932C0880932D089093A0
:100BE0002E08A0932F08B09330088091310890917F
:100BF0003208A0913308B09134080196A11DB11DAF
:100C00008093310890933208A0933308B09334084E
:100C1000BF91AF919F918F913F912F910F900FBEF8
:100C20000F901F90189526E8230F0296A11DB11D65
:100C3000D2CF1F920F920FB60F9211242F933F9392
:100C40004F935F936F937F938F939F93AF93BF93D4
:100C5000EF93FF9385E398E00E94D204FF91EF9118
:100C6000BF91AF919F918F917F916F915F914F91C4
:100C70003F912F910F900FBE0F901F9018951F92CC
:100C80000F920FB60F9211242F938F939F93EF9390
:100C9000FF93E0914508F09146088081E0914B0870
:100CA000F0914C0882FD1BC0908180914E088F5FAF
:100CB0008F7320914F08821741F0E0914E08F0E0C9
:100CC000EB5CF74F958F80934E08FF91EF919F91CA
:100CD0008F912F910F900FBE0F901F9018958081CC
:100CE000F4CFCF93DF93CDB7DEB72C970FB6F89440
:100CF000DEBF0FBECDBF789484B5826084BD84B55D
:100D0000816084BD85B5826085BD85B5816085BD06
:100D100080916E00816080936E00109281008091BE
:100D20008100826080938100809181008160809346
:100D30008100809180008160809380008091B1006B
:100D400084608093B1008091B00081608093B00096
:100D500080917A00846080937A0080917A0082602A
:100D600080937A0080917A00816080937A008091EC
:100D70007A00806880937A001092C100E091450863
:100D8000F091460882E08083E0914108F0914208AA
:100D90001082E0914308F091440880E18083109232
:100DA0004D08E0914908F0914A0886E08083E0917F
:100DB0004708F0914808808180618083E09147086E
:100DC000F0914808808188608083E0914708F09125
:100DD0004808808180688083E0914708F091480846
:100DE00080818F7D8083E091D208F091D308309785
:100DF00011F4E6EDF8E09E012F5131098DECE21778
:100E0000F30710F48193FBCF2FB7F89480912D084E
:100E100090912E08A0912F08B09130082FBF809399
:100E2000210890932208A0932308B093240883E11B
:100E300091E00E9466058AE191E00E9466059E01AC
:100E40002F5F3F4F3C832B8385E398E00E94B204E1
:100E50009A878987892BE9F185E398E00E949004BD
:100E60008C33A9F4109202089FB7F89440912D0892
:100E700050912E0860912F08709130089FBF4093C9
:100E80002A0150932B0160932C0170932D01E09166
:100E90000208EF3E68F491E09E0F90930208F0E0A4
:100EA000EE5EF84F8083E92FF0E0EE5EF84F10829F
:100EB0008E3311F08A3041F66EE370E082E197E004
:100EC0000E940710892B09F4BFCF31E030932B0823
:100ED000BBCF80910208882301F12FB7F89480914D
:100EE0002D0890912E08A0912F08B09130082FBFA7
:100EF00040912A0150912B0160912C0170912D019C
:100F0000841B950BA60BB70B853F9140A105B1053E
:100F100020F0109202081092120780912B0888236B
:100F200009F40BC410922B086CE370E082E197E0A7
:100F30000E9407108C016EE370E082E197E00E944E
:100F400007100115110509F4F4C3009709F4F1C362
:100F50000817190708F0EDC30F5F1F4F801B910B97
:100F600003970CF4E6C36CE270E0C8010E94121013
:100F70007C01009709F4DDC30817190709F4D9C3E8
:100F800001960E944B0C5C01D7011C925EEB852EF2
:100F900056E0952EF12CE12C0115110509F4C4C37E
:100FA000BAE2EB16F10409F0A4C34EEB242E46E09E
:100FB000342E60E070E0CB01F101019111911F012D
:100FC000012E000C220B330B600F711F821F931F29
:100FD00022E137E02E173F0779F724E630E040E0C2
:100FE00050E00E94C40F8501BB0C220B330B60172D
:100FF00071078207930709F09CC340E455E060E164
:1010000071E08EE591E00E94690C0E942F044B0173
:101010005C018EE591E098878F839E838D83EEE25D
:10102000F1E0FC87EB8710E000E04D815E81EEEBA4
:10103000F6E0C12CD12C760121913191DA018D910C
:101040009D91AD01DC010E94E30FC60ED71EE81E84
:10105000F91EE215F30581F7C80180539F4F0E94E6
:10106000B7052B013C01C701B6010E94D00DA301B9
:1010700092010E94220F6B017C01C80180579F4F93
:101080000E94B7059B01AC01C701B6010E947B0C11
:101090006B017C0120E030E0A9010E94A70E70E006
:1010A00060E0181684F420E03EEF4FEF56E4C701ED
:1010B000B6010E94E70C6FEF7FE787FF04C0C7010E
:1010C000B6010E94980DEB85FC8561937193FC87B6
:1010D000EB872D813E812C5A3F4F3E832D830C5F41
:1010E0001F4F0034110509F0A0CF0E942F0468198A
:1010F00079098A099B0960931308709314088093F7
:1011000015089093160840E051E060E976E08EE51E
:1011100091E00E94690C0E942F044B015C013EE5A6
:10112000232E31E0332E8EE491E09E838D8310E0F8
:1011300000E0A101EEE2F1E0C12CD12C7601219179
:101140003191DA018D919D91AD01DC010E94E30F97
:10115000C60ED71EE81EF91E2EE431E02E173F07FB
:1011600071F7C8018059994F0E94B7052B013C01C6
:10117000C701B6010E94D00DA30192010E94220F67
:101180006B017C01C801805B994F0E94B7059B01F0
:10119000AC01C701B6010E947B0C6B017C0120E011
:1011A00030E0A9010E94A70E70E060E0181684F4F8
:1011B00020E03EEF4FEF56E4C701B6010E94E70C76
:1011C0006FEF7FE787FF04C0C701B6010E94980D4B
:1011D000AD81BE816D937D93BE83AD83B0E22B0E56
:1011E000311C0C5F1F4F0032110509F0A2CF0E9485
:1011F0002F04681979098A099B0960930F08709375
:101200001008809311089093120840E550E068EBB5
:1012100077E08EE591E00E94690C0E942F042B017B
:101220003C01EEE9F6E0FE83ED831F0110E000E0F3
:101230004F815885EEE4F1E0C12CD12C760121914B
:101240003191DA018D919D91AD01DC010E94E30F96
:10125000C60ED71EE81EF91E2EE531E02E173F07F9
:1012600071F7C8018C55984F0E94B7054B015C017E
:10127000C701B6010E94D00DA50194010E94220F62
:101280006B017C01C8018057984F0E94B7059B01F4
:10129000AC01C701B6010E947B0CD1016D937D9317
:1012A0008D939D931D01EF81F8857096F887EF83EC
:1012B0000C5F1F4F0431110509F0BACF0E942F04B3
:1012C000AB01BC01441955096609770940930B0825
:1012D00050930C0860930D0870930E0880911308CA
:1012E00090911408A0911508B091160800910F086C
:1012F000109110082091110830911208800F911F51
:10130000A21FB31F840F951FA61FB71F8093170836
:1013100090931808A0931908B0931A080E942F04FC
:101320002B013C0120909E0630909F06C090A006A5
:10133000D090A10622EA36E038872F837901D701C1
:101340008D909D90AD90BD907D019101A601C5014C
:10135000B4010E94A70E181614F414016501EEEBF7
:10136000F6E0EE15FF0559F70EE916E0812C912CF9
:101370005401D8016D917D918D919D918D019101C7
:10138000A6010E947A0C0E94660D9B01AC01F80137
:1013900034972083318342835383C501B4010E9473
:1013A0007B0C4B015C01E016F10619F7ED81FE8123
:1013B0006191719181919191FE83ED837F01F4E0C0
:1013C000EF1AF108A50194010E94EC0CD7016D936E
:1013D0007D938D939C931397ED81FE810E171F07CC
:1013E00029F70E942F0464197509860997096093EB
:1013F0000708709308088093090890930A0801E091
:1014000010E0AF81B8856D917D918D919D91B887E8
:10141000AF83E985FA85EE0FFF1FEE0FFF1FE2563F
:10142000F94F20813181428153810E94A70E181605
:1014300014F41A8709870F5F1F4F0530110509F74C
:10144000E985FA85EE0FFF1FEE0FFF1FE256F94FF9
:1014500020E030E048EC52E4608171818281938128
:101460000E94220F6093030870930408809305087C
:101470009093060889858F5B8093000180912708EF
:1014800090912808A0912908B0912A080196A11DE1
:10149000B11D8093270890932808A0932908B09342
:1014A0002A08E091D208F091D308309711F4E6EDC4
:1014B000F8E0EF3FB8E0FB0738F49F012F5F3F4FA4
:1014C00080818D3C09F446C18FEF98E08E1B9F0B05
:1014D00090932608809325088FB7F894C0902D0824
:1014E000D0902E08E0902F08F09030088FBF8091A8
:1014F000210890912208A0912308B0912408460168
:101500005701881A990AAA0ABB0AE8EE8E16E3E088
:101510009E06A104B10408F444C0609127087091AC
:1015200028088091290890912A080E94CE0D20E079
:1015300030E04AE754E40E94220F2B013C01C50130
:10154000B4010E94CE0D9B01AC01C301B2010E9407
:10155000EC0C60931D0870931E0880931F089093F5
:10156000200810922708109228081092290810923B
:101570002A08C0922108D0922208E0922308F09213
:1015800024088091D2089091D308009711F486ED39
:1015900098E02B813C81281B390B30931C08209349
:1015A0001B088BE70E944105809100010E944105C4
:1015B0008CE20E9441056091170870911808809193
:1015C000190890911A084AE00E9473058CE20E9463
:1015D000410560911308709114088091150890914D
:1015E00016084AE00E9473058CE20E944105609152
:1015F0000F087091100880911108909112084AE02C
:101600000E9473058CE20E94410560910B08709165
:101610000C0880910D0890910E084AE00E94730515
:101620008CE20E9441056091070870910808809142
:10163000090890910A084AE00E9473058CE20E9412
:101640004105C0900308D0900408E0900508F09090
:101650000608A7019601C701B6010E948F0F8823D3
:1016600009F47AC08DE191E00E9466058CE20E9447
:10167000410560911D0870911E0880911F0890918E
:1016800020080E94980D6B01770FEE08FF084AE0D2
:10169000C701B601F7FE0BC08DE20E944105662727
:1016A0007727CB016C197D098E099F094AE00E94BA
:1016B00073058CE20E94410560911B0870911C0823
:1016C00090E080E04AE00E9473058CE20E944105B0
:1016D000609125087091260890E080E04AE00E9421
:1016E00073058DE70E9441058AE191E00E9466053D
:1016F00020C06CE270E0C8010E9407106C010097E6
:1017000011F0FC011082FFEFEF1AFF0AC8010E94DE
:101710004B0CD4018D939D934D01C114D10421F044
:1017200086010F5F1F4F38CCBAE2EB16F10409F4C3
:101730003CCC109202081092120780E090E0892BB6
:1017400009F482CB0E94BE04882309F47DCB0E9459
:1017500000007ACBF901ADCE46015701E894B7F805
:101760002FEF3FEF4FE75FE7C501B4010E948F0FF6
:1017700081110DC02FEF3FEF4FE75FE7C501B401C7
:101780000E94E70C18161CF481E291E06DCF2FEF58
:101790003FEF4FE75FE4C701B6010E94A70E18169E
:1017A0001CF485E291E060CF2FEF3FEF4FE75FEC55
:1017B000C701B6010E94E70C87FDF3CF20E030E0BF
:1017C000A901C701B6010E94E70C87FF07C08DE29F
:1017D0000E944105F7FAF094F7F8F0942DEC3CECF8
:1017E0004CE45DE3C701B6010E947B0C4B015C0138
:1017F0000E949F0D6B017C010E94CE0D9B01AC01EC
:10180000C501B4010E947A0C4B015C014AE0C7019A
:10181000B6010E9473058EE20E94410520E030E08F
:1018200040E251E4C501B4010E94220F0E949F0DC5
:1018300090E080E04AE00E94730518CFE5E3F8E00D
:101840001382128288EE93E0A0E0B0E08483958357
:10185000A683B78385E091E09183808385EC90E057
:101860009587848784EC90E09787868780EC90E06A
:10187000918B808B81EC90E0938B828B82EC90E05B
:10188000958B848B86EC90E0978B868B118E128ED5
:10189000138E148E0895FC0188279927E8942191CE
:1018A0002032E9F3293010F02E30C8F32B3241F00A
:1018B0002D3239F4689404C00E94720C820F911D7D
:1018C000219120532A30C0F31EF4909581959F4FAB
:1018D0000895FB01DC0102C005900D92415050407B
:1018E000D8F708957AE0979F902D879F802D910DCE
:1018F000112408955058BB27AA270E94920C0C94DB
:101900006D0E0E945F0E38F00E94660E20F039F4D2
:101910009F3F19F426F40C94350E0EF4E095E7FB86
:101920000C942F0EE92F0E947E0E58F3BA1762070F
:1019300073078407950720F079F4A6F50C94A00EA0
:101940000EF4E0950B2EBA2FA02D0B01B9019001DA
:101950000C01CA01A0011124FF27591B99F0593F1E
:1019600050F4503E68F11A16F040A22F232F342F66
:101970004427585FF3CF469537952795A795F040B4
:101980005395C9F77EF41F16BA0B620B730B840BC9
:10199000BAF09150A1F0FF0FBB1F661F771F881F81
:1019A000C2F70EC0BA0F621F731F841F48F48795D9
:1019B00077956795B795F7959E3F08F0B0CF9395CB
:1019C000880F08F09927EE0F9795879508950E9444
:1019D0000B0E08F481E008950E94000D0C946D0E2A
:1019E0000E94660E58F00E945F0E40F029F45F3F9F
:1019F00029F00C942F0E51110C94A10E0C94350E5D
:101A00000E947E0E68F39923B1F3552391F3951B41
:101A1000550BBB27AA2762177307840738F09F5F0F
:101A20005F4F220F331F441FAA1FA9F335D00E2E7C
:101A30003AF0E0E832D091505040E695001CCAF7E9
:101A40002BD0FE2F29D0660F771F881FBB1F2617AC
:101A500037074807AB07B0E809F0BB0B802DBF0183
:101A6000FF2793585F4F3AF09E3F510578F00C9452
:101A70002F0E0C94A10E5F3FE4F3983ED4F38695AD
:101A800077956795B795F7959F5FC9F7880F911D73
:101A90009695879597F90895E1E0660F771F881F5F
:101AA000BB1F621773078407BA0720F0621B730B12
:101AB000840BBA0BEE1F88F7E095089529F416F011
:101AC0000C942F0E0C94A00E0C94350E0E94860ED2
:101AD000A8F39638A0F707F80F92E8942BE33AEAB8
:101AE00048EB5FE70E94380F0F920F920F924DB7AD
:101AF0005EB70F920E94EE0EE8E6F0E00E94380E0C
:101B00004F915F91EF91FF91E595EE1FFF1F49F017
:101B1000FE57E0684427EE0F441FFA95E1F7419520
:101B2000550B0E94B80E0F9007FE0C94AC0E089552
:101B30000E949F0D6894B1110C94A10E08950E940B
:101B4000860E88F09F5798F0B92F9927B751B0F0BB
:101B5000E1F0660F771F881F991F1AF0BA95C9F731
:101B600014C0B13091F00E94A00EB1E008950C9421
:101B7000A00E672F782F8827B85F39F0B93FCCF3D4
:101B8000869577956795B395D9F73EF490958095AE
:101B9000709561957F4F8F4F9F4F0895E89409C0CE
:101BA00097FB3EF490958095709561957F4F8F4F90
:101BB0009F4F9923A9F0F92F96E9BB279395F695A6
:101BC000879577956795B795F111F8CFFAF4BB0F24
:101BD00011F460FF1BC06F5F7F4F8F4F9F4F16C088
:101BE000882311F096E911C0772321F09EE8872F12
:101BF000762F05C0662371F096E8862F70E060E0CE
:101C00002AF09A95660F771F881FDAF7880F969546
:101C1000879597F90895990F0008550FAA0BE0E8EA
:101C2000FEEF16161706E807F907C0F0121613069E
:101C3000E407F50798F0621B730B840B950B39F4DE
:101C40000A2661F0232B242B252B21F408950A2644
:101C500009F4A140A6958FEF811D811D089597F984
:101C60009F6780E870E060E008959FEF80EC089542
:101C7000DF93CF931F930F93FF92EF92DF927B013D
:101C80008C01689406C0DA2EEF010E94350FFE0128
:101C9000E894A5912591359145915591A6F3EF01D1
:101CA0000E94920CFE019701A801DA9469F7DF9077
:101CB000EF90FF900F911F91CF91DF910895002435
:101CC0000A941616170618060906089500240A94A1
:101CD00012161306140605060895092E0394000C27
:101CE00011F4882352F0BB0F40F4BF2B11F460FFB6
:101CF00004C06F5F7F4F8F4F9F4F089557FD9058DF
:101D0000440F551F59F05F3F71F04795880F97FBBF
:101D1000991F61F09F3F79F0879508951216130679
:101D20001406551FF2CF4695F1DF08C016161706A8
:101D30001806991FF1CF86957105610508940895DD
:101D4000E894BB2766277727CB0197F908950E946F
:101D50000B0E08F48FEF08959B01AC0160E070E07A
:101D600080E89FE30C94EC0C0C942F0E0C94940FD1
:101D70000E94860ED8F39923C9F3940F511DA3F343
:101D80009150504094F059F0882332F0660F771F3D
:101D9000881F91505040C1F79E3F51052CF7880F86
:101DA000911D9695879597F908955F3FACF0983E01
:101DB0009CF0BB27869577956795B79508F4B16039
:101DC0009395C1F7BB0F58F711F460FFE8CF6F5F31
:101DD0007F4F8F4F9F4FE3CF0C94A10EFA01DC0190
:101DE000AA0FBB1F9B01AC01BF5728F42227332742
:101DF0004427507820C0B75190F4AB2F002446956B
:101E000037952795011CA395D2F3002071F0220F7E
:101E1000331F441FB395DAF30ED00C947A0C613063
:101E20007105A0E88A07B94630F49B01AC0166272A
:101E3000772788279078309621F02083318342835A
:101E4000538308950E94350F0C946D0E0E945F0E0F
:101E500038F00E94660E20F0952311F00C942F0E9E
:101E60000C94350E11240C94A10E0E947E0E70F37A
:101E7000959FC1F3950F50E0551F629FF001729F2F
:101E8000BB27F00DB11D639FAA27F00DB11DAA1F3E
:101E9000649F6627B00DA11D661F829F2227B00D8B
:101EA000A11D621F739FB00DA11D621F839FA00D16
:101EB000611D221F749F3327A00D611D231F849F66
:101EC000600D211D822F762F6A2F11249F575040BD
:101ED0009AF0F1F088234AF0EE0FFF1FBB1F661F38
:101EE000771F881F91505040A9F79E3F510580F001
:101EF0000C942F0E0C94A10E5F3FE4F3983ED4F3A4
:101F0000869577956795B795F795E7959F5FC1F7A4
:101F1000FE2B880F911D9695879597F908950E943D
:101F20000B0E880B990B08959F3F31F0915020F4D0
:101F3000879577956795B795880F911D96958795A5
:101F400097F90895A1E21A2EAA1BBB1BFD010DC033
:101F5000AA1FBB1FEE1FFF1FA217B307E407F50759
:101F600020F0A21BB30BE40BF50B661F771F881F35
:101F7000991F1A9469F760957095809590959B01CB
:101F8000AC01BD01CF010895052E97FB1EF400940E
:101F90000E94DB0F57FD07D00E94A20F07FC03D061
:101FA0004EF40C94DB0F50954095309521953F4FA2
:101FB0004F4F5F4F089590958095709561957F4F35
:101FC0008F4F9F4F08950E94EB0F332312F48A1B0B
:101FD0009B0B0C94FC0FA29FB001B39FC001A39F69
:101FE000700D811D1124911DB29F700D811D112452
:101FF000911D08950E94EB0FB7FF0895821B930B6C
:102000000895EE0FFF1F0590F491E02D0994FC0157
:102010008191861721F08823D9F799270895319760
:10202000CF010895FC0181E090E00190061609F4CB
:10203000CF010020D1F701970895F894FFCF3F001A
:10204000000000F404540481044605B2049004A482
:10205000047B626F6F747D000D0A006E616E006913
:082060006E66006F7666000059
:107800000C94343C0C94513C0C94513C0C94513CE1
:107810000C94513C0C94513C0C94513C0C94513CB4
:107820000C94513C0C94513C0C94513C0C94513CA4
:107830000C94513C0C94513C0C94513C0C94513C94
:107840000C94513C0C94513C0C94513C0C94513C84
:107850000C94513C0C94513C0C94513C0C94513C74
:107860000C94513C0C94513C11241FBECFEFD8E036
:10787000DEBFCDBF11E0A0E0B1E0ECE9FFE702C060
:1078800005900D92A230B107D9F712E0A2E0B1E065
:1078900001C01D92AD30B107E1F70E942D3D0C945F
:1078A000CC3F0C94003C982F959595959595959582
:1078B000905D8F708A307CF0282F295A8091C0000B
:1078C00085FFFCCF9093C6008091C00085FFFCCF60
:1078D0002093C6000895282F205DF0CF982F809127
:1078E000C00085FFFCCF9093C6000895EF92FF92F1
:1078F0000F931F93EE24FF2487018091C00087FD22
:1079000017C00894E11CF11C011D111D81E4E8164B
:1079100082E4F8068FE0080780E0180770F3E09132
:107920000401F091050109958091C00087FFE9CF1E
:107930008091C6001F910F91FF90EF9008950E94D3
:10794000763C982F8091C00085FFFCCF9093C600B5
:1079500091362CF490330CF09053892F089597555D
:10796000892F08951F930E949F3C182F0E949F3CCF
:107970001295107F810F1F9108951F93182F882350
:1079800021F00E94763C1150E1F71F9108951F935A
:10799000182F0E94763C803249F0809103018F5F5E
:1079A000809303018530C1F01F9108958091C0003C
:1079B00085FFFCCF84E18093C6008091C00085FFE5
:1079C000FCCF1093C6008091C00085FFFCCF80E102
:1079D0008093C6001F910895E0910401F091050184
:1079E00009951F9108950E94763C803241F0809164
:1079F00003018F5F80930301853081F008958091AA
:107A0000C00085FFFCCF84E18093C6008091C00058
:107A100085FFFCCF80E18093C6000895E0910401CA
:107A2000F09105010995089540E951E08823A1F0FE
:107A30002D9A28EE33E0FA013197F1F721503040CA
:107A4000D1F72D9828EE33E0FA013197F1F7215064
:107A50003040D1F7815061F708953F924F925F9285
:107A60006F927F928F929F92AF92BF92CF92DF924E
:107A7000EF92FF920F931F93CF93DF93000080E16B
:107A80008093C4001092C50088E18093C10086E015
:107A90008093C2005098589A259A81E00E94143D24
:107AA00024E1F22E9EE1E92E85E9D82E0FE0C02ECA
:107AB00010E1B12EAA24A394B1E49B2EA6E58A2E50
:107AC000F2E57F2EE0E26E2E79E4572E63E5462E36
:107AD00050E5352E0E94763C8033B1F18133B9F107
:107AE000803409F46FC0813409F476C0823409F41B
:107AF00085C0853409F488C0803531F1823521F1A3
:107B0000813511F1853509F485C0863509F48DC0BC
:107B1000843609F496C0843709F403C1853709F423
:107B200072C1863709F466C0809103018F5F80932C
:107B30000301853079F6E0910401F0910501099582
:107B40000E94763C803351F60E94F33CC3CF0E94E2
:107B5000763C803249F78091C00085FFFCCFF092DF
:107B6000C6008091C00085FFFCCF9092C600809136
:107B7000C00085FFFCCF8092C6008091C00085FFC9
:107B8000FCCF7092C6008091C00085FFFCCF609250
:107B9000C6008091C00085FFFCCF5092C600809146
:107BA000C00085FFFCCF4092C6008091C00085FFD9
:107BB000FCCF3092C6008091C00085FFFCCFB09210
:107BC000C60088CF0E94763C863808F4BDCF0E945C
:107BD000763C0E94F33C7ECF0E94763C803809F4CC
:107BE0009CC0813809F40BC1823809F43CC1883942
:107BF00009F48FC080E00E94C73C6CCF84E10E94F2
:107C0000BD3C0E94F33C66CF85E00E94BD3C0E94D3
:107C1000F33C60CF0E94763C809306010E94763C44
:107C2000809307010E94F33C55CF0E94763C80333D
:107C300009F41DC183E00E94BD3C80E00E94C73C66
:107C400049CF0E94763C809309020E94763C809343
:107C5000080280910C028E7F80930C020E94763C79
:107C6000853409F415C18091080290910902892B8D
:107C700089F000E010E00E94763CF801E85FFE4FDA
:107C800080830F5F1F4F80910802909109020817AF
:107C9000190788F30E94763C803209F045CF809125
:107CA0000C0280FF01C16091060170910701660F0F
:107CB000771F7093070160930601A0910802B091AD
:107CC00009021097C9F0E8E0F1E09B01AD014E0F09
:107CD0005F1FF999FECF32BD21BD819180BDFA9A17
:107CE000F99A2F5F3F4FE417F50799F76A0F7B1F4B
:107CF00070930701609306018091C00085FFFCCF5F
:107D0000F092C6008091C00085FFFCCFB092C60003
:107D1000E1CE83E00E94C73CDDCE82E00E94C73CFA
:107D2000D9CE0E94763C809309020E94763C8093D3
:107D300008028091060190910701880F991F909386
:107D40000701809306010E94763C853409F4A6C0A1
:107D500080910C028E7F80930C020E94763C8032D0
:107D600009F0B8CE8091C00085FFFCCFF092C6002C
:107D7000609108027091090261157105B9F140E046
:107D800050E080910C02A82FA170B82FB27011C0E2
:107D9000BB2309F45CC0E0910601F0910701319624
:107DA000F0930701E09306014F5F5F4F46175707B7
:107DB000E8F4AA2369F3F999FECF209106013091E6
:107DC000070132BD21BDF89A90B58091C00085FFB2
:107DD000FCCF9093C6002F5F3F4F30930701209355
:107DE00006014F5F5F4F4617570718F38091C00099
:107DF00085FDE5CE8091C00085FFF8CFE0CE81E023
:107E00000E94C73C67CE0E94763C803209F08CCE3F
:107E10008091C00085FFFCCFF092C6008091C00029
:107E200085FFFCCFE092C6008091C00085FFFCCFAB
:107E3000D092C6008091C00085FFFCCFC092C600E2
:107E40008091C00085FFFCCFB092C60043CEE09188
:107E50000601F091070194918091C00085FFFCCF4D
:107E60009093C6009CCF80E10E94C73C33CE0E9415
:107E7000763C0E94763C182F0E94763C112309F430
:107E800083C0113009F484C08FE00E94C73C22CE29
:107E900080910C02816080930C02E5CE80910C02EF
:107EA000816080930C0259CF809107018823880F4D
:107EB000880B8A2180930B02809106019091070123
:107EC000880F991F90930701809306018091080203
:107ED00080FF09C080910802909109020196909359
:107EE000090280930802F894F999FECF1127E091D6
:107EF0000601F0910701C8E0D1E08091080290915D
:107F00000902103091F40091570001700130D9F34B
:107F100003E000935700E89500915700017001308D
:107F2000D9F301E100935700E89509901990009169
:107F3000570001700130D9F301E000935700E89534
:107F40001395103498F011270091570001700130FB
:107F5000D9F305E000935700E895009157000170B0
:107F60000130D9F301E100935700E895329602976A
:107F700009F0C7CF103011F00296E5CF112480919F
:107F8000C00085FFB9CEBCCE8EE10E94C73CA2CD19
:0E7F900085E90E94C73C9ECDF894FFCF80008B
:00000001FF
