:100000000C94240A0C944C0A0C944C0A0C944C0A40
:100010000C944C0A0C944C0A0C944C0A0C944C0A08
:100020000C944C0A0C944C0A0C944C0A0C944C0AF8
:100030000C944C0A0C944C0A0C944C0A0C944C0AE8
:100040000C9403120C944C0A0C9473120C944D12E1
:100050000C944C0A0C944C0A0C944C0A0C944C0AC8
:100060000C94A5120C944C0A07634236B79BD8A790
:100070001A39685618AEBAAB558C1D3CB7CC5763CD
:10008000BD6DEDFD753EF6177231BF000000803F7B
:10009000AEB08180A1A6A83FAD8B32C8D300D58079
:1000A000D91FDA12DB40AF00030C0F30333C3FC0E6
:1000B000C3CCCFF0F3FCFF00000507206000000078
:1000C000000000005F00000007000700147F147F9D
:1000D00014242A7F2A1223130864623649562050BA
:1000E0000008070300001C2241000041221C002AD6
:1000F0001C7F1C2A08083E08080080703000080891
:10010000080808000060600020100804023E514901
:10011000453E00427F400072494949462141494DD0
:10012000331814127F1027454545393C4A49493157
:1001300041211109073649494936464949291E00D6
:100140000014000000403400000008142241141480
:10015000141414004122140802015909063E415D9D
:10016000594E7C1211127C7F494949363E4141412A
:10017000227F4141413E7F494949417F09090901A7
:100180003E414151737F0808087F00417F410020B4
:1001900040413F017F081422417F404040407F02A0
:1001A0001C027F7F0408107F3E4141413E7F0909C8
:1001B00009063E4151215E7F0919294626494949D0
:1001C0003203017F01033F4040403F1F2040201F7A
:1001D0003F4038403F63140814630304780403610C
:1001E00059494D43007F414141020408102000411C
:1001F00041417F04020102044040404040000307A7
:10020000080020545478407F2844443838444444FB
:1002100028384444287F385454541800087E090272
:1002200018A4A49C787F0804047800447D40002032
:1002300040403D007F1028440000417F40007C0486
:100240007804787C080404783844444438FC182442
:10025000241818242418FC7C080404084854545416
:100260002404043F44243C4040207C1C2040201CAB
:100270003C4030403C44281028444C9090907C44B2
:1002800064544C44000836410000007700000041EF
:1002900036080002010204023C2623263C90001787
:1002A000804002DCD834BFAE492FBF56470040D152
:1002B00007E73F014E1BC0000000000000000000E7
:1002C000000000000000000000000000000000002E
:1002D000000000000000000000000000000000001E
:1002E0000000009C53C93682A87B37A48C3837BDE8
:1002F0003706378BE1EA36F6C9650B96415AD501C8
:10030000808126D203F9AC73E4D81527A3E75262A3
:100310006927A3DCBD46C60180C1F5D56C83C62E16
:100320003B452A05D161F445F70B0AE7B5A4174E02
:10033000C5C3EED92020E898052F94F714510A8BF5
:10034000E119F436E8A0D4284937C80180244BE5E8
:10035000C56721250B2BB414F51CCDA741C1E005C1
:100360000E9A2CE599E8AE49FA86592FDFEEDE7039
:10037000E80180F80E094D85926CF6836692093784
:10038000EC622E9BED92F66E9101E10180342AC65B
:10039000EA2C55EDDD043E3EB239BEE529EBBD0346
:1003A00024FA3D4ED5BDBDAE6271BCCDB051BDE7A6
:1003B00038F7BDAC8EBCBD0B631BBECEFA543D50AE
:1003C000FEEE3C2506013E31445EBE55FA493D0C29
:1003D000AD6EBE98A3E7BD00000000000000000065
:1003E000000000000000000000000000000000000D
:1003F00000000000000000000000000000000000FD
:1004000000000000000000000000000000000000EC
:10041000000000000000009C53C936B5FE1637A44A
:100420008C3837B5FE16378BE1EA368BE1EA369C1D
:10043000534937BD370637ACC5A736ACC5A736B567
:10044000FE16378BE1EA36B5FE1637BD3706378B19
:10045000E1EA36ACC52737833D24D7D98FBA303C83
:100460004414EB5129281D066DE245FF7F645DDBD6
:10047000BEEB5CB632A3B7002766F959EBF6D4BCE5
:10048000E430FE3A3CC9D8D3BCBFB50F441994D56B
:1004900087485475E8004152FCC4C2EC0855D7ABFC
:1004A000F6B644CBF78DC71DE122EAEE7C38D52D98
:1004B0000A2506013166FE46400180FE34F2E998C5
:1004C000330CFE5E12E7FA81ED62E006CD83EBBEEF
:1004D0001163CE58603A1BDD31103425FE60D15BCC
:1004E000F10C2391286F0EAEDC018034EF46DBAFB8
:1004F0003345FBC3C5E5FA263562D678FD7F3DE975
:100500002880AD7DE6EFF33C2DDC9A38F3B904107A
:1005100011CFEAEB65C5DF70C1743201800D275F32
:10052000F02E2FF6E53DC27AE7AD0D80227CC41394
:10053000F09A05AFC5FAD496FAD7E44C06B3263044
:10054000C436F6B1C16124BE3FDF48B238A4ED0322
:10055000944FBB6D13F5FE8E0AAFA086AC39D8D789
:100560004FBDF20B25E4BC2838F599FC013118D9B0
:10057000505D4772CCCAD0C2C4652AC6E3CEB8C9A2
:10058000F3CBDBB2F806B2B25DFB8DA614D7240123
:1005900080F227CA14411B70B5B13B3FF898E55370
:1005A0003DE4D66F54EE06B35ADBD01F6061B87AD3
:1005B000048AF554F04A1570A33103BA4844CFD0E9
:1005C00057B264FCFF254D48DEFBD590E31D2BF0B0
:1005D000AFF1B70180700FAFF9CAED5BD41A0021FB
:1005E000FCC802BE19A61EF1F70235A1098AEC93D8
:1005F0002CF9D0DEF677FF34D8B0DADE022AF24FDB
:1006000000C91451F06CF9D421A5C5CCE85D16B130
:10061000C5E9E90180812029E2D0B4ED02A8BD61DD
:1006200041BCBB58D2B75A75E516F21F3E09A796D2
:100630000041486AE7A8868B30A6DF764596AD78FC
:10064000D353F365459C96913BA1BCB4C24C324058
:100650008A641401803C510F8586CD28024B40C727
:1006600084D7F47561BCA1C61D34D31B8869387A60
:100670000075897718ECDC1CB8183FDBC84DC1FF4A
:100680007FBC20F19000A084ADF7B8C5A25B80B11B
:10069000D5359B6E1DA5036E0FEC57F8B707C5D770
:1006A0001A5EC5FD0C238DC95585C60821946F0AB5
:1006B000B3113CA38E10CCAAFB84F281634DAD90A4
:1006C000B26A2C6D026EC8038119E9EB145F94CFF6
:1006D000D5EAB7018098D4B9E05DF21495A2BC9038
:1006E000EFCDFCE11D7EBEDDCB3AD9E18DF4DFF329
:1006F000F867384A8F910235CFFF7F16C4832416DE
:1007000008D30AC9CF5909ECC35D4DCBC5451D8837
:1007100015274A50CD9D36441E63419D0B8717AF68
:100720001D09B460FF69F18C5CA92BDC56A1AA6B92
:100730004C86E3FF7F7C1424BDC79992F3623C147E
:100740005BBC1A043A0F293CC041EF1128EFD69C3C
:100750000D4532E01E4BABC3E6F81794C82DB8A484
:100760001F56302341DC0C234698DA8C0F0937C51D
:10077000D6750F612ABA22FCF28133DADEEE25113A
:100780002F99EA50150180F50D6D5F12423BA9E2E9
:100790000720F61B03DAEA8DBA153E01807036A3F6
:1007A00052B7DB3A25903BCF2527DB75E6A1BCC0CD
:1007B000233EB88D292EE757D060A675402050C241
:1007C00041C92B84B71E08C4F5A2B4661008DC2EFC
:1007D000D4C7FA805DE4E0A41E44550AC052507E9E
:1007E000D39A50F71C58BBEE0C561A039E97BF9332
:1007F0002C92F7D5875F4BB8F6ABFE181994444D91
:10080000BC0180B4AB44AF995091EF49BDF1FB9965
:100810000738AEEA07AEA4B4BFF43060DC732ED75D
:10082000D13C410A282BD63D2FA408FF7F043C6C05
:100830000C84F9EB0A60FB520D33A794E2F0DFBAA7
:1008400023C203EAE6F8068D3802D262EE67FEC8DC
:10085000F068D8580AEEDA1EFF45BD611CDCBC23E7
:10086000A0C2BCAE9E133D0CAD4E3D54FE75BD0303
:100870007B0C3EACAAB73D3DEF86BD842E21BDB3B7
:10088000CD8D3D4BCDFEBD26AA773DDC7E19BEA1A8
:10089000F5303D755AD7BD29931A3ED89C83BCB517
:1008A0003201BEF10EF0BC76A816BE99477EBBE5BC
:1008B0009BED3DB51AB2BDA5F78D3C43C9C43D4B78
:1008C00020853D618D03BE2D073A3DCFF3273C398E
:1008D000EE14BD5B61BABD00000000000000000026
:1008E0000000000000000000000000000000000008
:1008F000000000000000000000000000000000AC4C
:10090000C5A7369C53C9368BE1EA37ACC5A736ACD0
:10091000C5A736ACC5A736ACC5A736ACC5A736AC9F
:10092000C5A736B5FE1637BD370637ACC5A736ACFA
:10093000C5A736ACC5A736ACC52737ACC5A737ACFD
:10094000C5A73682A87B37BD378636ACC5A736BD6E
:10095000378636ACC52737ACC5A736BD370637ACAA
:10096000C5A736ACC52737ACC5A736B5FE16379335
:100970001A5A37ACC5A736931A5A37ACC5A7367F73
:10098000B7EC0C3FF227A31B65700F50D5FA317BF3
:10099000A360528A2C4AC1D77BE0F713AE38C766F2
:1009A00002A480E08CE5AA3EC9967F61998EE2F1AF
:1009B000CAA4A89F15DE436D65BF95CA3D5EA3FF1F
:1009C0007FBC3E4B0883E3C9F7FA8AF4C54DF45E59
:1009D00013F5754842B01121F2E1F6CFAD3CE8CCF9
:1009E000E703A8FEBBDBFFFBBD859A1ADD60FBF5C4
:1009F000616E31F72DAAD785B04144DB1E6A3D8177
:100A0000D5C12AF72436C3A0609F17CCF452E60163
:100A1000EEE1BA7BCFFF7FD5EE76542EB932B05AD5
:100A20005E87A6B2278CB33F0C2B0926F16EFD77AB
:100A3000E459FCA20FB4F2A300D0FE680A6C298628
:100A4000FE252F43FAA90773FF82DFE4F9AF06B151
:100A5000EFD220151BB2A63518018052F5881AEF87
:100A6000F210FD8B0818CA4501C9ABA7FEE914AA0C
:100A7000FD7518650E55E760F72EF332F9E0124464
:100A800029FF6BEFB0D973D094615662ED5CA46A14
:100A9000D9EE16194149E4D9DB7B47B1D9CD678737
:100AA00079A7672AC80B82B8650E3C8A1721910185
:100AB00080C25315A942CE9CE68A3B52DE19424CB5
:100AC0009A64A3253000E7AA16919A67AC657C2D3D
:100AD000903CC3FF7FFBF7CE721CF06C9955258CC0
:100AE0002094743AB2BA8F7EF43D67B57443559B37
:100AF0009FB145B08E39E0938F71B2F882CD212736
:100B00000390E389CCE6ED246D8A612C892DBA7AB5
:100B1000E736BEF96BD76DA16BAAA2E5740F003B57
:100B20003C1F8C35A0284B52CF72BD322C65820001
:100B3000B766089CA2C9A589A672B544B5A918B123
:100B4000E70CF7430DB75730831BF8009A93B5D4E1
:100B5000799F340180155413526438AFF95588BF1A
:100B600094E540E6F87A069D5E87BA81EDDD5F0C7C
:100B7000E2BA9D56EE05F4455A7825F5AC80D7CA01
:100B8000DD97E16654A2C8AB4047590ECA7FF134E5
:100B90002D604101809E7427951AFFBD29C38F8A5D
:100BA00087288A5FFC694F472AD9B023F3A61278B9
:100BB0001009E664BD032A998427AFBA579C5BCC21
:100BC00068A3AB1E1796C4953C7B5EB3F4674BF3EA
:100BD0004727F1C615D5891DF55E1BFB198C0193BE
:100BE000F395669DF452BF8D10090E69C52E55C848
:100BF000AD27AFBA684A8CE8B2F5CE23185857FA39
:100C00006D478521D9B89B56E217C7B1FF7D5601C4
:100C100080369C9BB7613B8BDCDD27824C3A97ABDF
:100C20004BBA3A018009B3B1D104BB5815E35A80DD
:100C30009922853F5F90C438B0AF12FC007B787377
:100C400049266506DC473DF904276993C278A64B1F
:100C5000E514019EB64D23EA9B922E2C1790B50BFE
:100C6000F32454A9DBC8977C42315305BCBA71A365
:100C7000F2D498A1E5F7E2B7FF97FD2A274DE27875
:100C800074AD104B454EAC47E96AEAD1B5FEB38668
:100C90002183C893C5AC389719D851050F5AD74D41
:100CA0000253EB58CAD53BAD14AD24C2B240B6488E
:100CB000F5BEA0C45E90863231751F47E0888DA3D3
:100CC00044E895C95A01808E1E62CAAB2865FBEFC5
:100CD0005D54EBC301ABC1BA8EDCDACE7441DC3FAC
:100CE000563FC8306FE742341B8331341938C8830C
:100CF0004C11124332F7213928C330B6F0B5D12C4C
:100D0000E238FDE9C1D6172DD0F0113A0353FADCD1
:100D1000886E108F8301250180640B90B066813C42
:100D20005821A01146EFC99F36FAC89962CCD43F2A
:100D3000882DD5A0E0C153B2268E3F7A28D445DC59
:100D40003D2D811E50C9379BF7A54C7EAAC11117B6
:100D500011CBC50BC1F0E8088870F670BF815C4408
:100D60008531C5734385F20180B66216BC525FF8C7
:100D70001469413F397D3664972CDBBF170180E948
:100D8000C8BC9D32E3BECE49911E609A09DCA4E83E
:100D9000A3323E29C52C402998A7E909F88E98EC82
:100DA0004781CD4C5D96C379BF4B8DF6EAA207C94A
:100DB0001EF7FB1EE94144DB17FF524209CF87466D
:100DC0003E97EFEFF83DF97B204AF5D13BD4020185
:100DD00080F3AD3FF3895100DA5684849D28AB300F
:100DE000C174A5EE76A9FB6BA9C321B19CBD850298
:100DF0003729C7D042EBA2C958CED323AF230FDB8C
:100E00004BC1578375DB9B27FA275E343754D4D107
:100E10003353B82C907A94FEC6F1C0D42DBEBBC01B
:100E20004D21DA28377FB1FF7F0CCC4B077028D4D7
:100E300009B865130BAA45B5183124E9234ADD44E6
:100E4000164426C701ADFB4FF28DCC390835CD7D58
:100E5000DB9A22D70AF52ADBF9983329DE6981A7C4
:100E6000BC32BC54D633CBD5F9582FE70A02010C5B
:100E7000F85BFF26FAF6FBA0F7490D48E30B01FDEE
:100E8000DE610E19F3E31036E3DCF4FD0281F05766
:100E9000FFFA0F5B043D05201AD19E2DEB018097D0
:100EA000FC64F342FA8B1B1A1B54027001B61FCF6D
:100EB0002144FE6604E7FFF70003FB19015B0521EF
:100EC000C76408F3CEBEC647B0E747DA11A82B487F
:100ED0008BE2F19632C0B62DAAF6B3BDD825DD9CC3
:100EE000AF2090F34D38481445B6DEFCF80CB549F8
:100EF000B73C7787FA7484C28C80B76575F9F0FFC8
:100F00007FA9E392E51B43EB4EA855017E9AF48A34
:100F1000F1BC985D32F8157C0DE112631D352A4C49
:100F200027FF1C8E41063BB7CEEEDC9E00BC0C3F7B
:100F3000BEB00DBABFBB5B80CB9AE876E998DE5DA8
:100F4000DE92AB48E101800D1123F28A0977E5506A
:100F50000C66EEB6E6FEFEDDE58A21AFFD9E117160
:100F6000120309C41982FF269CD9F5632FE48F264A
:100F70001F5FAC79D6B71897023263600E30A9AF05
:100F80005966BC073D19E701800F5914D2E1FC3DB9
:100F9000F916ECC7DD24ADC03DE935C4C113CB065D
:100FA00068F5E0ECB3094F22AE9B0EEED572454BCF
:100FB000B8B19DD28E6C8D24CAAAEDD5660C864F31
:100FC0000B3FE3BC5EE58A0CA8506A0CDB988F549B
:100FD000AC7543F44C198CE7F8EAC7A2398D2DEFB4
:100FE000AC32880180B6DE68FDBE80FAD514D9DD4A
:100FF000B169D5207A45D3CFFAB6808AB101B1D094
:1010000023E16E0FBA70D8DF0EEEADDEF72D37B1EB
:10101000A2B3CE8A8831EE48224B023EFDB19967D9
:1010200094F77FEB2105C4AA4A071244E1D05DD9A9
:10103000CCDDFE143BD5B398026AB21F380180673D
:10104000BF7279A2D539DD96D1B818F548ACA8DCC5
:101050008A8EC6E5D44AC048E5B0F05456DF35FA6A
:101060009E454832047320F710392BAAC9BB348B34
:10107000EB8DF7CE88B56A9A380ACB362CCE1D6F29
:10108000F978CF51DF0DAE8210E5A65FF6E2BC2500
:101090002DB80BB8160180B716F30F1C5113088D2D
:1010A00029B74E51B7C21A6B2E57B57C2CD4E49A8F
:1010B000C8C91CA2CD8F4F1721D89E150CC551B899
:1010C00049923E98184655E36AD81EADE84F36ADB2
:1010D000B69E8DA5B4A22CA5F3BBE76FC8BFDE2CCE
:1010E000DB05C09D9AFC1C2007084B0B4AA65FC677
:1010F000B39CE6B095018052218E6BE8ADAC442ADA
:10110000A85C6488F2B5CC0DCEEEF06435313B2E90
:101110001BD209D611EF600180D015A695CE11B66D
:1011200025FB00343A77E744E0DAF3A5D713CBF395
:101130001A943C9C2320225A1D8E9F70DB4299DE1C
:101140006F58F47D26CB3344CFD0ED3D32F709659F
:10115000F57FB2470E540696CC7CD64AFFB4CE3506
:101160000F5EA42ECEC8F137B7548A43D41AB228E2
:10117000B360A87BFDB6D05A71044C1DABE4CAF233
:10118000C6E0C0C9C3C4905F8DEAA9613DE268BFF3
:1011900045547C82548501BA6F8D3A1FCA8C4587AD
:1011A0004EE4EDD5B2FF7F58F013BC49A728B349F0
:1011B000890984EB01A4DE381641CFE7F6642238B2
:1011C000647B25FF7FC8C838B3AB9F04A6A2D42593
:1011D000153FF481D8C1CD86F2ABEE78E6F1C9E2D5
:1011E000CD6818D4ED2C1BBDF858054C142EEDA974
:1011F000ED07093F327E3554CF3A37F2F482DFE112
:101200002592596E7588428978AE18E990793B9C91
:10121000AB2C1EC210EB3F98480180F5F7701B966F
:101220002A3609FCE42F1E6599F70F1801353B2F6C
:10123000413DB12FC503502DC080259E80B96186E8
:101240008CC7479C4A2138C60A04851711E3A1E0E0
:10125000A8123B90475F8028A04551A415FE2E4A56
:10126000395A23D5E17D1060AE604B018039434E81
:10127000E611EAF4320B273AE75B907D1822C5436A
:1012800012BECCDEE082DD9C06EAE090FAF841C5B1
:1012900039AB01F6D2E8E87C006EC35A12BBE53FD9
:1012A0004180382611FE499CFCACF3FA39B338B8BA
:1012B000C96CD9E8C70FFFA51BABE3D72350C74BB9
:1012C0000A93D09D0946329A0FC2270D1A8ED63D39
:1012D000FAE685E7CF6B14B9F65028033532DFA460
:1012E000088E0DBEC14E1D0BE63E3AF9D6A8630E20
:1012F0002FFF7F830A08170BD3B422D2FA9B215504
:10130000EEE94727E06B7E7B878ADA874AA46CA5E3
:1013100092577323ED49D8F9E523E36D4B38AAE1E1
:10132000FB68C6D4C5716583A09D03EA0D5BCAAC9A
:101330002FDEE0556C84C22A77C64171BDF280BDB4
:101340005B2391B7B869C7428CFF7F478216ACEE2A
:10135000129F3A8BB1CFA1E2F46F0759E3E8F48A08
:10136000E948AC5A1CB9FFAF4B7F9297EBEE404F68
:101370002BBE1143F978122F3DE2CFE2113107B1B4
:1013800026FC4328E5BF44B238018014F4372C58BA
:101390000A0A2DC2FC3D32A5DAA7D4A1E0DAE67331
:1013A000B4B9F6DFE4972905C7710F0DB7787E153C
:1013B00053B1BCF7BAAEBBAAC3E45A1E1722CABCCB
:1013C00092C8A0830F32CF72DE6475A80613A534CD
:1013D000960D9EC70189DEFF66E39F6D8BD34F8E0E
:1013E000CDBFD216D3F494F368E30412CE2834CBE5
:1013F00069E55B630501800B0F9C1167AA566000CD
:10140000000000250028002B000404040404040448
:1014100004020202020202030303030303010204A3
:101420000810204080010204081020010204081066
:101430002000000008000201000003040700000073
:10144000000000000000C41311241FBECFEFD8E03D
:10145000DEBFCDBF11E0A0E0B1E0E2E5FCE302C0F9
:1014600005900D92AE38B107D9F724E0AEE8B1E0AF
:1014700001C01D92AB3FB207E1F71AE0C4E2DAE027
:1014800004C02197FE010E94061EC332D107C9F78E
:101490000E940C140C94271E0C94000090E0FC0198
:1014A000EF5CFB4E2491FC01E35EFB4E3491FC01AA
:1014B000E75FFB4EE491EE23C9F0222339F023309D
:1014C00001F1A8F4213019F1223029F1F0E0EE0FFA
:1014D000FF1FE150FC4EA591B4918FB7F894EC91A9
:1014E000611126C030953E233C938FBF089527306D
:1014F000A9F02830C9F0243049F7809180008F7D11
:1015000003C0809180008F7780938000DFCF84B507
:101510008F7784BDDBCF84B58F7DFBCF8091B0000A
:101520008F778093B000D2CF8091B0008F7DF9CFBC
:101530003E2BDACF3FB7F8948091E6039091E70312
:10154000A091E803B091E90326B5A89B05C02F3F01
:1015500019F00196A11DB11D3FBFBA2FA92F982FD9
:101560008827BC01CD01620F711D811D911D42E0D4
:10157000660F771F881F991F4A95D1F70895089520
:101580000895DC01ED91FC910190F081E02D09942A
:10159000AF92BF92CF92DF92EF92FF920F931F9381
:1015A000CF93DF936C017B018B01040F151FEB01BF
:1015B0005E01AE18BF08C017D10759F06991D60176
:1015C000ED91FC910190F081E02DC6010995892BE8
:1015D00079F7C501DF91CF911F910F91FF90EF90A7
:1015E000DF90CF90BF90AF900895FC01538D448D54
:1015F000252F30E0842F90E0821B930B541710F0BE
:10160000CF96089501970895FC01918D828D9817CA
:1016100061F0A28DAE0FBF2FB11D5D968C91928DA2
:101620009F5F9F73928F90E008958FEF9FEF0895D3
:10163000FC01918D828D981731F0828DE80FF11D9C
:10164000858D90E008958FEF9FEF0895FC01918DB7
:10165000228D892F90E0805C9F4F821B91098F73B0
:10166000992708958AE394E00E94260B21E0892BB4
:1016700009F420E0822F089580E090E0892B29F082
:101680000E94320B81110C9400000895FC01A48D7E
:10169000A80FB92FB11DA35ABF4F2C91848D90E094
:1016A00001968F739927848FA689B7892C93A08977
:1016B000B1898C91837080648C93938D848D981301
:1016C00006C00288F389E02D80818F7D8083089594
:1016D000EF92FF920F931F93CF93DF93EC0181E082
:1016E000888F9B8D8C8D98131AC0E889F989808129
:1016F00085FF15C09FB7F894EE89FF896083E8895C
:10170000F98980818370806480839FBF81E090E04D
:10171000DF91CF911F910F91FF90EF900895F62EDA
:101720000B8D10E00F5F1F4F0F731127E02E8C8D74
:101730008E110CC00FB607FCFACFE889F9898081B9
:1017400085FFF5CFCE010E94460BF1CFEB8DEC0F5C
:10175000FD2FF11DE35AFF4FF0829FB7F8940B8FD6
:10176000EA89FB8980818062CFCFCF93DF93EC0140
:10177000888D8823B9F0AA89BB89E889F9898C9179
:1017800085FD03C0808186FD0DC00FB607FCF7CF35
:101790008C9185FFF2CF808185FFEDCFCE010E9435
:1017A000460BE9CFDF91CF910895CF93DF93EC0102
:1017B0008D85882329F081508D87DF91CF91089501
:1017C0009C818E819817C8F788896827E881F981FC
:1017D0000084F185E02D42E0CE0109958C818F5F78
:1017E0008C83EBCFDC01ED91FC910084F185E02D41
:1017F00040E00994FC0127812695269526956217DD
:1018000038F465832385620F6770606B0C94F20B6C
:1018100008950F931F93CF93FC012681621798F4CC
:10182000C62F8C0164836085C60F6C2F6F700E9479
:10183000F20B6C2F62956F706061C801CF911F91A0
:101840000F910C94F20BCF911F910F910895CF92AD
:10185000DF92EF92FF920F931F93CF93DF93EC01F0
:10186000F62EC42ED22E1D868F818695869586955E
:10187000081710F00FEF080F1D2D6F2DCE01011767
:1018800088F00E94090C612FCE010E94FA0BEF2C08
:10189000CE1430F06889CE010E94D50BE394F8CFC6
:1018A0001F5FEBCF0E94090C6D2DCE01DF91CF9110
:1018B0001F910F91FF90EF90DF90CF900C94FA0B57
:1018C0000F93CF93DF93C3EED4E01B861A8660E4B8
:1018D000CE010E94F20B0F810695069506950150E8
:1018E0004E81415020E060E0CE010E94270CDF9144
:1018F000CF910F9108952F923F924F925F926F92E6
:101900007F928F929F92AF92BF92CF92DF92EF928F
:10191000FF920F931F93CF93DF9300D000D000D09E
:101920001F92CDB7DEB79F838E83DC011E968D910B
:101930009C91009709F477C1FC013296549031963E
:101940002491E22EF12CB7E0EB0EF11C43E0F5946C
:10195000E7944A95E1F7E9823196349131964491C2
:101960006D3001F560E08E819F810E94090C81E05D
:1019700090E027960FB6F894DEBF0FBECDBFDF9183
:10198000CF911F910F91FF90EF90DF90CF90BF907C
:10199000AF909F908F907F906F905F904F903F900F
:1019A0002F9008956A3009F061C060E08E819F81B8
:1019B0000E94090CEE81FF8101890E9DE02C11240B
:1019C00065816E0D8485882349F0278126952695AB
:1019D00026958E2D821B860F18162CF08E819F81E6
:1019E0000E94FA0BC4CFAE81BF811B969C911B97BE
:1019F000890F87701B968C931B972E1915962C9325
:101A000015971E96ED91FC91309771F13396E49104
:101A1000F0E0379633E0F595E7953A95E1F70E9FBC
:101A2000002D1124EFEFE20F0E0FEE81FF814681B2
:101A300041506481CF010E94270CAE81BF811C966A
:101A40008C911C97813009F092CF1B966C911B975B
:101A5000660F660F660F6F731A966C931A97606421
:101A6000CD010E94F20B83CF00E0DCCF631760F161
:101A7000A32FA40FBB27BB1F6A171B062CF5631BE4
:101A8000212C8C010A5F1F4FEE81FF815185318926
:101A9000539F302D11243D83211014C0FC0134913B
:101AA0000196FC018491932F0297A0F45E9C900113
:101AB0005F9C300D1124629FC001639F900D112423
:101AC000080F191F612C28C0603209F0ACC0222415
:101AD0002394D7CF277088E0682E621A211101C0A5
:101AE000612CF80120E090E080E0621731F0349141
:101AF000830F911D2F5F3196F8CFF801E60FF11D8E
:101B00005490E89EF001E99EF00DF89EF00D11242E
:101B1000E40FF11D0E0F1F1FAE81BF811496BC9103
:101B2000BA83EE81FF81F581FB83AE81BF811D9673
:101B3000BC91BC83852C912CAA24A394B12C312C6C
:101B4000E9813E1608F06DC0412CAE81BF815196EF
:101B50008C915197481608F05DC0EC811D96EC936E
:101B6000311002C0442079F0AE81BF811596DC901F
:101B70001597D3946A81CD010E94090C6D2D8E8139
:101B80009F810E94FA0BD12CC12CC514B0F5712C89
:101B9000211004C0F601E00FF11F7490662061F07F
:101BA000EA14FB0449F4E72DF0E0062C02C0F59599
:101BB000E7950A94E2F77E2EEE81FF8181898230DB
:101BC00079F44420B1F072948FE07822E72DF0E0B0
:101BD000E955FF4F7490672D8E819F810E94D50B30
:101BE000672D8E819F810E94D50B3FEFC31AD30AC8
:101BF000CCCFF72DFF707F2EE9CFD12C8D81D81659
:101C000039F060E08E819F810E94D50BD394F6CF8E
:101C100043949BCF3394AFEFAA1ABA0A080D191D4B
:101C20008FCF6B81DBCE90E080E0A3CE2091CF01FF
:101C3000260F3327331F21323105ECF42091100495
:101C4000FC0190E080E0243069F082E00895A091EA
:101C5000CF012191AC0141555E4FA40FB52FB11DAD
:101C60002C930196861798F38091CF01680F6093AB
:101C7000CF0180E0089581E008951092100481E082
:101C800080930F041092EA0361E082E10E944E0A01
:101C900061E083E10E944E0AE9EBF0E080818E7FF3
:101CA000808380818D7F808388E48093B80085E481
:101CB0008093BC000895CF93DF9391E09093AE01A1
:101CC0008823B9F0C091B800D091BA008091BC00CF
:101CD0008A7B8093BC0060E082E10E944E0A60E053
:101CE00083E10E944E0A0E943D0ED093BA00C09339
:101CF000B800DF91CF910895CF92DF92EF92FF92DB
:101D00000F931F93CF93DF93D091390481E0D132A9
:101D100008F09CC0C09138040E949A0A6B017C01B3
:101D20008091100481116CC082E08093100481E0E6
:101D300080930F048FEF80930E0410920D04D093C4
:101D40000C04A8E1B4E0ECEEF3E080E0D8138DC021
:101D50001092EB038091EB03CC0FC82BC093EB03E5
:101D60008091EA03813009F084C01092EA030E9456
:101D70009A0A6B017C018091EB038093BB008091F8
:101D8000120490911304A0911404B0911504892BAE
:101D90008A2B8B2BA1F00E949A0A009112041091B9
:101DA000130420911404309115046C197D098E09D7
:101DB0009F09061717072807390708F442C08091C2
:101DC000BC0083FDD8CF85EC8093BC000E949A0AAA
:101DD0006B017C0180911004823009F44CC0809129
:101DE0000E048F3F09F469C080910E04803209F41B
:101DF00066C080910E04803309F463C084E026C07D
:101E00008091120490911304A0911404B0911504D0
:101E1000892B8A2B8B2B09F483CF0E949A0A00917D
:101E200012041091130420911404309115046C19BC
:101E30007D098E099F09061717072807390708F03B
:101E40006FCF809111040E945B0E85E01092170401
:101E50001092390410921604DF91CF911F910F91C7
:101E6000FF90EF90DF90CF9008959D9191938F5FB9
:101E70006DCF85EEA9CF8091120490911304A091AB
:101E80001404B0911504892B8A2B8B2B09F4A2CF53
:101E90000E949A0A009112041091130420911404D4
:101EA000309115046C197D098E099F0906171707D3
:101EB0002807390708F08ECFC4CF80E0C7CF82E073
:101EC000C5CF83E0C3CF0895E091F7018091F6017B
:101ED000E81730F4F0E0E257FE4F808190E008957B
:101EE0008FEF9FEF08959091F7018091F6012FEF0A
:101EF0003FEF981748F4E92FF0E0E257FE4F2081BA
:101F000030E09F5F9093F701C90108958091F60139
:101F10009091F701891B990B0895CF92DF92EF9270
:101F2000FF920F931F93CF93DF937C01CB018A0124
:101F300020911604222389F0EB016B01C40ED51EFB
:101F4000CC15DD0569F06991D701ED91FC91019007
:101F5000F081E02DC7010995F3CF642F0E94160E82
:101F6000C801DF91CF911F910F91FF90EF90DF900B
:101F7000CF900895CF93DF931F92CDB7DEB76983DB
:101F8000209116042223F9F020913904203258F0D0
:101F900021E030E0FC013383228390E080E00F9069
:101FA000DF91CF91089580911704E82FF0E0E85E6B
:101FB000FB4F998190838F5F80931704809339043E
:101FC00081E090E0ECCF61E0CE0101960E94160E18
:101FD000F7CF0F931F93CF93DF93EC01062F142FAE
:101FE0008B89813120F4882329F0411103C00E949C
:101FF0007C0E1B8A8B89811112C08A8991E0909393
:10200000160480933804109217041092390460E487
:10201000111101C060E087ED94E00E94BA0F602FBB
:1020200087ED94E00E94BA0F123041F48B898F5FE4
:102030008B8BDF91CF911F910F9108950E947C0EA1
:102040001B8AF7CF089590E080E008950E940C1E4F
:10205000FB0101900020E9F73197AF01461B570BB8
:10206000DC01ED91FC910280F381E02D09948F92C7
:102070009F92AF92BF92EF92FF920F931F93CF93D5
:10208000DF93CDB7DEB7A1970FB6F894DEBF0FBED2
:10209000CDBF7C01FA01CB0119A2223008F42AE05D
:1020A0008E010F5D1F4F822E912CB12CA12CBF01F0
:1020B000A50194010E94A71DF901CA016A300CF51F
:1020C000605DD8016E938D01232B242B252B79F78E
:1020D00090E080E0109721F0BD01C7010E94281018
:1020E000A1960FB6F894DEBF0FBECDBFDF91CF91A2
:1020F0001F910F91FF90EF90BF90AF909F908F90A6
:102100000895695CDECFCF92DF92EF92FF920F933A
:102110001F93CF93DF936B01770FEE08FF08F7FE55
:102120001BC0EC016DE20E94C10A8C0144275527B7
:10213000BA014C195D096E097F092AE0CE010E949F
:102140003710800F911FDF91CF911F910F91FF905A
:10215000EF90DF90CF9008952AE0B701A601DF91BC
:10216000CF911F910F91FF90EF90DF90CF900C9443
:1021700037102F923F924F925F926F927F928F9281
:102180009F92AF92BF92CF92DF92EF92FF921F93F6
:10219000CF93DF93EC016A017B01722EAB019601B4
:1021A000CB01B6010E94941D63E371E0811126C04A
:1021B00046015701E894B7F82FEF3FEF4FE75FE78D
:1021C000C501B4010E94941D81110CC02FEF3FEF97
:1021D0004FE75FE7C501B4010E94EC1A67E371E0C5
:1021E000181664F02FEF3FEF4FE75FE4C701B60129
:1021F0000E94AC1C1816B4F46BE371E0CE01DF91C1
:10220000CF911F91FF90EF90DF90CF90BF90AF9054
:102210009F908F907F906F905F904F903F902F9006
:102220000C9428102FEF3FEF4FE75FECC701B6018A
:102230000E94EC1A87FDE0CF20E030E0A901C70141
:10224000B6010E94EC1A312C212C87FF09C06DE2E7
:10225000CE010E94C10A1C01F7FAF094F7F8F0943D
:1022600010E060E070E080E09FE3711641F020E054
:1022700030E040E251E40E94F11A1F5FF6CFA7015F
:1022800096010E94801A2B013C010E94A41B4B0165
:102290005C012AE0BC01A401CE010E9437107C0140
:1022A000E20CF31C1123C1F1C501B4010E94D31B40
:1022B0009B01AC01C301B2010E947F1A4B015C017A
:1022C0006EE2CE010E94C10AE80EF91E115020F103
:1022D00020E030E040E251E4C501B4010E94271D36
:1022E0002B013C010E94A41B4B01B12CA12C2AE024
:1022F000B501A401CE010E943710E80EF91EC501F8
:10230000B4010E94D31B9B01AC01C301B2010E9426
:102310007F1A4B015C01DACFC701DF91CF911F918A
:10232000FF90EF90DF90CF90BF90AF909F908F90F5
:102330007F906F905F904F903F902F9008950F93F4
:102340001F93CF93DF93EC010E9428108C016FE361
:1023500071E0CE010E942810800F911FDF91CF9174
:102360001F910F91089585ED8093BC008091120418
:1023700090911304A0911404B09115040796A11D27
:10238000B11D23E0B695A795979587952A95D1F726
:102390002091BC0024FD03C01092100408954091C8
:1023A0001204509113046091140470911504452B8C
:1023B000462B472B69F30097A105B10541F02AE2AE
:1023C0002A95F1F700C00197A109B109E1CF8091E9
:1023D00011040C945B0ECF93DF9300D000D0CDB7E7
:1023E000DEB744E050E0BC01CE0101960E946E1AB7
:1023F00069817A818B819C810F900F900F900F9053
:10240000DF91CF9108951F920F920FB60F92112472
:102410002F933F938F939F93AF93BF938091E2034A
:102420009091E303A091E403B091E5033091E103BF
:1024300023E0230F2D3758F50196A11DB11D2093E0
:10244000E1038093E2039093E303A093E403B0934A
:10245000E5038091E6039091E703A091E803B09132
:10246000E9030196A11DB11D8093E6039093E70354
:10247000A093E803B093E903BF91AF919F918F912F
:102480003F912F910F900FBE0F901F90189526E847
:10249000230F0296A11DB11DD2CF1F920F920FB62E
:1024A0000F9211242F933F934F935F936F937F93DA
:1024B0008F939F93AF93BF93EF93FF938AE394E03F
:1024C0000E94460BFF91EF91BF91AF919F918F9129
:1024D0007F916F915F914F913F912F910F900FBE20
:1024E0000F901F9018951F920F920FB60F92112404
:1024F0002F938F939F93EF93FF93E0914A04F09172
:102500004B048081E0915004F091510482FD1BC086
:102510009081809153048F5F8F73209154048217B0
:1025200041F0E0915304F0E0E65CFB4F958F80931F
:102530005304FF91EF919F918F912F910F900FBEB8
:102540000F901F9018958081F4CF1F920F920FB6B5
:102550000F9211242F933F934F935F936F937F9329
:102560008F939F93AF93BF93EF93FF938091B900A5
:10257000887F803609F44AC0F0F5883209F4A7C094
:1025800018F5803109F49BC0B8F4882309F4F9C028
:10259000883009F494C0FF91EF91BF91AF919F9162
:1025A0008F917F916F915F914F913F912F910F90FC
:1025B0000FBE0F901F901895883109F488C08032A3
:1025C00051F780930E0414C0803409F49DC040F488
:1025D0008033B9F38833F9F680930E0485ECB0C0EC
:1025E000803509F485C0883509F496C0883499F699
:1025F0000E94B311D0CF883909F48CC038F58837E0
:1026000029F050F4883611F0803729F683E0809362
:1026100010041092F10157C0883809F47BC080394A
:1026200019F0803809F0B7CF8091F101803208F0BD
:1026300071C0E091F10181E08E0F8093F1018091F2
:10264000BB00F0E0EF52FE4F80833DC0803B39F08D
:10265000E0F4803A09F479C0883A09F09CCF84E02C
:10266000809310041092D0011092CF01E091F401F8
:10267000F091F50109958091CF0181110FC081E0A2
:102680008093CF011092AF0109C0803C09F4A6CF1E
:10269000883C09F4A3CF883B09F07DCFE091D001BD
:1026A00081E08E0F8093D001F0E0E155FE4F8081F4
:1026B0008093BB009091D0018091CF0129C080917F
:1026C000EB038093BB0085EC8093BC0064CF9091BA
:1026D0000D0480910C04981758F5E0910D0481E0E9
:1026E0008E0F80930D04F0E0E451FC4F8081E9CF20
:1026F000E0910D0481E08E0F80930D048091BB006A
:10270000F0E0E451FC4F808390910D0480910C0423
:102710009817C8F285E8D8CFE0910D0481E08E0FBC
:1027200080930D048091BB00F0E0E451FC4F808366
:1027300080910F0481115CCF81E08093EA0384EAE9
:102740008093BC001092100426CF85EC8093BC00CF
:10275000109210048091F101803230F4E091F10187
:10276000F0E0EF52FE4F10826091F10170E0E091D5
:10277000F201F091F30181ED91E009951092F101E0
:102780000ACF10920E0434CFEAE3F4E013821282EF
:1027900088EE93E0A0E0B0E084839583A683B783BE
:1027A00025E031E03183208325EC30E03587248734
:1027B00024EC30E03787268720EC30E0318B208B0B
:1027C00021EC30E0338B228B22EC30E0358B248BF4
:1027D00026EC30E0378B268B118E128E138E148EE2
:1027E000E7EDF4E01382128284839583A683B78396
:1027F00087E191E091838083E3EEF4E0138212821B
:102800001486158617861686108A81E0818B89E2E8
:1028100091E0918380830895CF93DF93CDB7DEB7A6
:1028200060970FB6F894DEBF0FBECDBF789484B525
:10283000826084BD84B5816084BD85B5826085BDBC
:1028400085B5816085BD80916E00816080936E004A
:10285000109281008091810082608093810080913C
:1028600081008160809381008091800081608093ED
:1028700080008091B10084608093B1008091B000AD
:1028800081608093B00080917A00846080937A00A8
:1028900080917A00826080937A0080917A008160D2
:1028A00080937A0080917A00806880937A001092F9
:1028B000C100E0914A04F0914B0482E08083E091F2
:1028C0004604F09147041082E0914804F0914904D5
:1028D00080E1808310925204E0914E04F0914F0405
:1028E00086E08083E0914C04F0914D04808180610A
:1028F0008083E0914C04F0914D0480818860808356
:10290000E0914C04F0914D04808180688083E091D7
:102910004C04F0914D0480818F7D80830E949A0A3F
:102920004B015C016CE2C62EDD24D394E12CF12C2A
:102930000E949A0A681979098A099B09683E7340BE
:1029400081059105A8F321E0C21AD108E108F10838
:1029500038EE830E33E0931EA11CB11CC114D104C8
:10296000E104F10429F71092F7011092F601109298
:102970001704109239040E943D0E8FEB9AE0909359
:10298000F5018093F40180EC9AE09093F301809339
:10299000F2018CE08093B8001092F6048CE38093EF
:1029A000F5041092E7041092E804EDE9F2E0859155
:1029B0009491E82EEFE9F2E0F490E0EAF2E0E4919D
:1029C000E093E904E1EAF2E0E491E093EA04E2EA68
:1029D000F2E0E491E093EB048C01802F8E198F15C7
:1029E00048F4F801649183EE94E00E94F20B0F5FCB
:1029F0001F4FF3CF0E94600CE7EBF0E0F093F2047E
:102A0000E093F1048491E8EBF0E0E491F82F319742
:102A100009F077C01092EC0481E08093FC010E94E1
:102A2000600C62E471E083EE94E00E949F1160E527
:102A300071E083EE94E00E949F1160E671E08AE30A
:102A400094E00E949F112FB7F8948091E203909137
:102A5000E303A091E403B091E5032FBF8093D40377
:102A60009093D503A093D603B093D7039E012F5F15
:102A70003F4F3C832B838AE394E00E94260B9A8786
:102A80008987892B09F441C08AE394E00E94040BF2
:102A90008C33A9F41092B5039FB7F8944091E203E8
:102AA0005091E3036091E4037091E5039FBF40936D
:102AB000F8015093F9016093FA017093FB01E091E2
:102AC000B503EF3E68F491E09E0F9093B503F0E0FC
:102AD000EB53FD4F8083E92FF0E0EB53FD4F108265
:102AE0008E3311F08A3039F66EE370E085EC92E0B7
:102AF0000E94111E892B09F4BECF31E03093E00310
:102B0000BACF81E08093EC0487CF8091B50388230E
:102B100001F12FB7F8948091E2039091E303A09123
:102B2000E403B091E5032FBF4091F8015091F90102
:102B30006091FA017091FB01841B950BA60BB70BFA
:102B4000853F9140A105B10520F01092B503109288
:102B5000C5028091E003882309F495C41092E00334
:102B60006CE370E085EC92E00E94111E8C016EE334
:102B700070E085EC92E00E94111E0115110509F428
:102B80007EC4009709F47BC40817190708F077C4BE
:102B90000F5F1F4F801B910B03970CF470C46CE206
:102BA00070E0C8010E941C1E7C01009709F467C4F4
:102BB0000817190709F463C401960E94501A5C01B2
:102BC000F701108251E7852E52E0952EF12CE12C71
:102BD0000115110509F44EC4FAE2EF16F10409F0EB
:102BE0002EC4E1E7F2E060E070E0CB012191319189
:102BF0008901330F220B330B600F711F821F931F4C
:102C000025EC32E02E173F0789F724E630E040E05C
:102C100050E00E94C91D8501BB0C220B330B6017CD
:102C200071078207930709F02AC40E949A0A6D87E8
:102C30007E878F87988B2FEF622E28E0722E37E5E4
:102C4000432E38E0532E4DE1242E42E0342E10E086
:102C500000E091E7E92E92E0F92E50E040E0812C6F
:102C6000912C5401F701A191B1917F01FA01E00F7C
:102C7000F11FEE0FFF1FE158F64F259134910E948E
:102C8000E81D860E971EA81EB91E4F5F5F4F4A3281
:102C9000510541F7C3010E94EB116B017C01C50195
:102CA000B4010E94D51BA70196010E94271D6B014C
:102CB0007C01C2010E94EB119B01AC01C701B6016E
:102CC0000E94801A6B017C0120E030E0A9010E9483
:102CD000AC1C70E060E0181684F420E03EEF4FEF8B
:102CE00056E4C701B6010E94EC1A6FEF7FE787FF39
:102CF00004C0C701B6010E949D1BF101619371934D
:102D00001F01F4E06F0E711C24E0420E511C065DA1
:102D10001F4F003435E0130709F09BCF0E949A0A39
:102D20002D853E854F855889621B730B840B950B4F
:102D30006093C6037093C7038093C8039093C9033D
:102D40000E949A0A4B015C0147E154E058874F8387
:102D500007E913E08DEF91E09E838D83312C212CC8
:102D60007DE1672E72E0772E50E040E0C12CD12C3F
:102D70007601F301A191B1913F01FA01E20DF31D3A
:102D8000EE0FFF1FE95AFB4F259134910E94E81D79
:102D9000C60ED71EE81EF91E4F5F5F4F4032510529
:102DA00041F78F8198850E94EB112B013C01C701EF
:102DB000B6010E94D51BA30192010E94271D6B0141
:102DC0007C01C8010E94EB119B01AC01C701B60157
:102DD0000E94801A6B017C0120E030E0A9010E9472
:102DE000AC1C70E060E0181684F420E03EEF4FEF7A
:102DF00056E4C701B6010E94EC1A6FEF7FE787FF28
:102E000004C0C701B6010E949D1BED81FE81619344
:102E10007193FE83ED832F8138852C5F3F4F388778
:102E20002F830C5F1F4F30E2230E311C211442E030
:102E3000340609F095CF0E949A0A681979098A091F
:102E40009B096093C2037093C3038093C403909360
:102E5000C5030E949A0A4B015C0183EE92E09E83B7
:102E60008D8353EA252E52E0352EEDE5F2E0F8870A
:102E7000EF83FC87EB8710E000E04DEF642E41E02C
:102E8000742E50E040E0C12CD12C7601F301A191C9
:102E9000B1913F01FA01E00FF11FEE0FFF1FE95062
:102EA000FD4F259134910E94E81DC60ED71EE81EE5
:102EB000F91E4F5F5F4F4031510541F78D819E8173
:102EC0000E94EB112B013C01C701B6010E94D51BEA
:102ED000A30192010E94271D6B017C01C1010E9488
:102EE000EB119B01AC01C701B6010E94801AEB8572
:102EF000FC856193719381939193FC87EB872D817E
:102F00003E812C5F3F4F3E832D8334E0230E311CE6
:102F1000005F1F4F0035110509F0AFCF0E949A0ADC
:102F2000681979098A099B096093BE037093BF03EE
:102F30008093C0039093C1030E949A0A2D853E8519
:102F40004F855889621B730B840B950B6093CA03E2
:102F50007093CB038093CC039093CD030E949A0A85
:102F60002B013C0120905D0230905E02C0905F0218
:102F7000D090600241E652E05E834D837A01F70112
:102F800081909190A190B1907F019101A601C5011E
:102F9000B4010E94AC1C181614F41401650121E759
:102FA00032E02E153F0559F70DE512E0812C912CEA
:102FB0005401F80161917191819191918F01910179
:102FC000A6010E947F1A0E946B1B9B01AC01F801B5
:102FD00034972083318342835383C501B4010E9417
:102FE000801A4B015C01E016F10619F7EF81F885B4
:102FF0006191719181919191F887EF837F01F4E064
:10300000EF1AF108A50194010E94F11AF7016083FB
:103010007183828393832F8138850217130731F7D9
:103020000E949A0A64197509860997096093BA0380
:103030007093BB038093BC039093BD0301E010E049
:10304000ED81FE816191719181919191FE83ED837A
:10305000E985FA85EE0FFF1FEE0FFF1FE35AFD4FC4
:1030600020813181428153810E94AC1C181614F4D6
:103070001A8709870F5F1F4F0530110509F7E9858A
:10308000FA85EE0FFF1FEE0FFF1FE35AFD4F20E002
:1030900030E048EC52E460817181828193810E942A
:1030A000271D6093B6037093B7038093B803909382
:1030B000B90389858F5B809300018091DC03909137
:1030C000DD03A091DE03B091DF030196A11DB11DC8
:1030D0008093DC039093DD03A093DE03B093DF03C2
:1030E0008091FC01882309F48DC00E949A0A4B014B
:1030F0005C010E94600C6DE671E083EE94E00E943A
:1031000028106091000183EE94E00E94C10A64E7F8
:1031100071E083EE94E00E9428106091B6037091F4
:10312000B7038091B8039091B9030E949D1B83EE71
:1031300094E00E9483106CE771E083EE94E00E94BB
:103140009F116EE771E083EE94E00E942810609179
:10315000CA037091CB038091CC039091CD030E9460
:10316000D31B20E030E04AE754E40E94F11AAB019F
:10317000BC0121E083EE94E00E94B91064E871E0A4
:1031800083EE94E00E949F1167E871E083EE94E083
:103190000E9428106091D0037091D1038091D203D6
:1031A0009091D3030E949D1B6B01770FEE08FF08DF
:1031B0002AE0B701A601F7FE0DC06DE283EE94E0B0
:1031C0000E94C10A44275527BA014C195D096E09AE
:1031D0007F092AE083EE94E00E9437106FE371E0EC
:1031E00083EE94E00E9428100E949A0A68197909D7
:1031F0008A099B096093D8037093D9038093DA03FB
:103200009093DB038FB7F894C090E203D090E30370
:10321000E090E403F090E5038FBF8091D403909198
:10322000D503A091D603B091D70346015701881A60
:10323000990AAA0ABB0AF8EE8F16F3E09F06A104CA
:10324000B10408F444C06091DC037091DD03809107
:10325000DE039091DF030E94D31B20E030E04AE7B9
:1032600054E40E94271D2B013C01C501B4010E94BA
:10327000D31B9B01AC01C301B2010E94F11A609300
:10328000D0037093D1038093D2039093D303109211
:10329000DC031092DD031092DE031092DF03C09274
:1032A000D403D092D503E092D603F092D703809155
:1032B000F7049091F804009711F48BEF94E02B81C0
:1032C0003C81281B390B3093CF032093CE036BE74F
:1032D0008AE394E00E94C10A609100018AE394E0CD
:1032E0000E94C10A6CE28AE394E00E94C10A409104
:1032F000CA035091CB036091CC037091CD032AE0B7
:103300008AE394E00E9437106CE28AE394E00E9422
:10331000C10A4091C6035091C7036091C8037091E0
:10332000C9032AE08AE394E00E9437106CE28AE342
:1033300094E00E94C10A4091C2035091C30360917E
:10334000C4037091C5032AE08AE394E00E94371019
:103350006CE28AE394E00E94C10A4091BE0350915E
:10336000BF036091C0037091C1032AE08AE394E037
:103370000E9437106CE28AE394E00E94C10A4091F7
:10338000BA035091BB036091BC037091BD032AE066
:103390008AE394E00E9437106CE28AE394E00E9492
:1033A000C10A4091B6035091B7036091B803709180
:1033B000B90321E08AE394E00E94B9106CE28AE349
:1033C00094E00E94C10A6091D0037091D103809172
:1033D000D2039091D3030E949D1B8AE394E00E9444
:1033E00083106CE28AE394E00E94C10A4091CE030C
:1033F0005091CF0370E060E02AE08AE394E00E94FD
:1034000037106CE28AE394E00E94C10A4091D8032D
:103410005091D9036091DA037091DB032AE08AE3CB
:1034200094E00E9437106DE78AE394E00E94C10A9D
:103430006FE371E08AE394E00E94281020C06CE200
:1034400070E0C8010E94111E6C01009711F0FC0190
:103450001082FFEFEF1AFF0AC8010E94501AF40110
:10346000819391934F01C114D10421F086010F5F24
:103470001F4FAECBFAE2EF16F10409F4B2CB109273
:10348000B5031092C50240E050E0452B09F4F3CAA1
:103490000E94320B882309F4EECA0E940000EBCA96
:1034A000FC0188279927E89421912032E9F32930FB
:1034B00010F02E30C8F32B3241F02D3239F46894DD
:1034C00004C00E94771A820F911D219120532A3047
:1034D000C0F31EF4909581959F4F0895FB01DC0188
:1034E00002C005900D9241505040D8F708957AE0FF
:1034F000979F902D879F802D910D112408955058EE
:10350000BB27AA270E94971A0C94721C0E94641C65
:1035100038F00E946B1C20F039F49F3F19F426F418
:103520000C943A1C0EF4E095E7FB0C94341CE92F44
:103530000E94831C58F3BA17620773078407950724
:1035400020F079F4A6F50C94A51C0EF4E0950B2E52
:10355000BA2FA02D0B01B90190010C01CA01A001E5
:103560001124FF27591B99F0593F50F4503E68F140
:103570001A16F040A22F232F342F4427585FF3CF81
:10358000469537952795A795F0405395C9F77EF452
:103590001F16BA0B620B730B840BBAF09150A1F09B
:1035A000FF0FBB1F661F771F881FC2F70EC0BA0F21
:1035B000621F731F841F48F4879577956795B795A9
:1035C000F7959E3F08F0B0CF9395880F08F09927A4
:1035D000EE0F9795879508950E94101C08F481E0DE
:1035E00008950E94051B0C94721C0E946B1C58F0DD
:1035F0000E94641C40F029F45F3F29F00C94341CB5
:1036000051110C94A61C0C943A1C0E94831C68F364
:103610009923B1F3552391F3951B550BBB27AA278B
:1036200062177307840738F09F5F5F4F220F331FC5
:10363000441FAA1FA9F335D00E2E3AF0E0E832D08D
:1036400091505040E695001CCAF72BD0FE2F29D090
:10365000660F771F881FBB1F261737074807AB0762
:10366000B0E809F0BB0B802DBF01FF2793585F4FD7
:103670003AF09E3F510578F00C94341C0C94A61C33
:103680005F3FE4F3983ED4F3869577956795B795B9
:10369000F7959F5FC9F7880F911D9695879597F9C4
:1036A0000895E1E0660F771F881FBB1F621773073D
:1036B0008407BA0720F0621B730B840BBA0BEE1F52
:1036C00088F7E095089529F416F00C94341C0C94B6
:1036D000A51C0C943A1C0E948B1CA8F39638A0F7EA
:1036E00007F80F92E8942BE33AEA48EB5FE70E9471
:1036F0003D1D0F920F920F924DB75EB70F920E9431
:10370000F31CE8E6F0E00E943D1C4F915F91EF91C1
:10371000FF91E595EE1FFF1F49F0FE57E068442733
:10372000EE0F441FFA95E1F74195550B0E94BD1C21
:103730000F9007FE0C94B11C08950E94A41B68947E
:10374000B1110C94A61C08950E948B1C88F09F5701
:1037500098F0B92F9927B751B0F0E1F0660F771FB5
:10376000881F991F1AF0BA95C9F714C0B13091F0AB
:103770000E94A51CB1E008950C94A51C672F782F1A
:103780008827B85F39F0B93FCCF386957795679570
:10379000B395D9F73EF490958095709561957F4FDC
:1037A0008F4F9F4F0895E89409C097FB3EF4909582
:1037B0008095709561957F4F8F4F9F4F9923A9F00A
:1037C000F92F96E9BB279395F69587957795679599
:1037D000B795F111F8CFFAF4BB0F11F460FF1BC0DD
:1037E0006F5F7F4F8F4F9F4F16C0882311F096E970
:1037F00011C0772321F09EE8872F762F05C066231E
:1038000071F096E8862F70E060E02AF09A95660FD6
:10381000771F881FDAF7880F9695879597F908958F
:10382000990F0008550FAA0BE0E8FEEF16161706D1
:10383000E807F907C0F012161306E407F50798F039
:10384000621B730B840B950B39F40A2661F0232B52
:10385000242B252B21F408950A2609F4A140A695CE
:103860008FEF811D811D089597F99F6780E870E0B3
:1038700060E008959FEF80EC0895DF93CF931F934E
:103880000F93FF92EF92DF927B018C01689406C048
:10389000DA2EEF010E943A1DFE01E894A5912591D0
:1038A000359145915591A6F3EF010E94971AFE01BB
:1038B0009701A801DA9469F7DF90EF90FF900F91DC
:1038C0001F91CF91DF91089500240A9416161706D0
:1038D00018060906089500240A9412161306140601
:1038E00005060895092E0394000C11F4882352F064
:1038F000BB0F40F4BF2B11F460FF04C06F5F7F4F1C
:103900008F4F9F4F089557FD9058440F551F59F002
:103910005F3F71F04795880F97FB991F61F09F3FBC
:1039200079F087950895121613061406551FF2CFE5
:103930004695F1DF08C0161617061806991FF1CF35
:1039400086957105610508940895E894BB2766275C
:103950007727CB0197F908950E94101C08F48FEF88
:1039600008959B01AC0160E070E080E89FE30C9457
:10397000F11A0C94341C0C94991D0E948B1CD8F3E2
:103980009923C9F3940F511DA3F39150504094F023
:1039900059F0882332F0660F771F881F91505040EE
:1039A000C1F79E3F51052CF7880F911D969587957D
:1039B00097F908955F3FACF0983E9CF0BB27869541
:1039C00077956795B79508F4B1609395C1F7BB0FEC
:1039D00058F711F460FFE8CF6F5F7F4F8F4F9F4F15
:1039E000E3CF0C94A61CFA01DC01AA0FBB1F9B01BC
:1039F000AC01BF5728F4222733274427507820C032
:103A0000B75190F4AB2F0024469537952795011CAC
:103A1000A395D2F3002071F0220F331F441FB395FA
:103A2000DAF30ED00C947F1A61307105A0E88A0792
:103A3000B94630F49B01AC01662777278827907838
:103A4000309621F0208331834283538308950E946E
:103A50003A1D0C94721C0E94641C38F00E946B1C6E
:103A600020F0952311F00C94341C0C943A1C112472
:103A70000C94A61C0E94831C70F3959FC1F3950FB4
:103A800050E0551F629FF001729FBB27F00DB11DE2
:103A9000639FAA27F00DB11DAA1F649F6627B00D72
:103AA000A11D661F829F2227B00DA11D621F739F5B
:103AB000B00DA11D621F839FA00D611D221F749F69
:103AC0003327A00D611D231F849F600D211D822FB0
:103AD000762F6A2F11249F5750409AF0F1F08823D7
:103AE0004AF0EE0FFF1FBB1F661F771F881F915004
:103AF0005040A9F79E3F510580F00C94341C0C9463
:103B0000A61C5F3FE4F3983ED4F3869577956795BE
:103B1000B795F795E7959F5FC1F7FE2B880F911D2D
:103B20009695879597F908950E94101C880B990B1C
:103B300008959F3F31F0915020F4879577956795D0
:103B4000B795880F911D9695879597F90895A1E2ED
:103B50001A2EAA1BBB1BFD010DC0AA1FBB1FEE1F07
:103B6000FF1FA217B307E407F50720F0A21BB30B52
:103B7000E40BF50B661F771F881F991F1A9469F7CE
:103B800060957095809590959B01AC01BD01CF012A
:103B90000895052E97FB1EF400940E94E01D57FD2A
:103BA00007D00E94A71D07FC03D04EF40C94E01D23
:103BB00050954095309521953F4F4F4F5F4F089559
:103BC00090958095709561957F4F8F4F9F4F089589
:103BD0000E94F01D332312F48A1B9B0B0C94011ED0
:103BE000A29FB001B39FC001A39F700D811D11243E
:103BF000911DB29F700D811D1124911D08950E9489
:103C0000F01DB7FF0895821B930B0895EE0FFF1F61
:103C10000590F491E02D099481E090E0F8940C94E3
:103C2000271EFC018191861721F08823D9F7992757
:103C300008953197CF010895FC0181E090E0019053
:103C4000061609F4CF010020D1F701970895F894E2
:023C5000FFCFA4
:103C52003F00000000680BC80AF50AB50B260B04EA
:103C62000B180B00000000BA0F8D0F2310630F8694
:103C72000F730F640F000000007B0CC80A23102290
:103C820010E90F6E616E00696E66006F7666000D58
:103C92000A005369676E204C616E67204D4C5000DC
:103CA2004F4C4544204F4B202841736369692900DA
:103CB2007B6F6C65642C61736369697D005369670E
:103CC2006E3A200020436F6E663A200025004C6158
:0E3CD200743A20006D73004650533A200000F3
:00000001FF
