:100000000C94E5040C940D050C940D050C940D0551
:100010000C940D050C940D050C940D050C940D0518
:100020000C940D050C940D050C940D050C940D0508
:100030000C940D050C940D050C940D050C940D05F8
:100040000C94AF060C940D050C941F070C94F90644
:100050000C940D050C940D050C940D050C940D05D8
:100060000C940D050C940D0507634236B79BD8A779
:100070001A39685618AEBAAB558C1D3CB7CC5763CD
:10008000BD6DEDFD753EF6177231BF000000803F7B
:100090001EFF45BD611CDCBC23A0C2BCAE9E133D4F
:1000A0000CAD4E3D54FE75BD037B0C3EACAAB73D76
:1000B0003DEF86BD842E21BDB3CD8D3D4BCDFEBD24
:1000C00026AA773DDC7E19BEA1F5303D755AD7BD15
:1000D00029931A3ED89C83BCB53201BEF10EF0BC08
:1000E00076A816BE99477EBBE59BED3DB51AB2BD1D
:1000F000A5F78D3C43C9C43D4B20853D618D03BEB2
:100100002D073A3DCFF3273C39EE14BD5B61BABDF4
:100110006D8C9D3A795DBF3A310BED3B151F9F3ACF
:1001200087FD9E3ADF6A9D3A8CA19C3AFE7F9C3AFD
:1001300075029A3A9580183BD53F083B145CAC3A5F
:10014000151F9F3A98F8A33A2D27213B6F9BA93B97
:100150008CA19C3ADC7E793B4320973AAD889A3A51
:100160004320973A6616213BA27DAC3A1AE0023B47
:10017000AAB69B3A425D243B52499D3AFDD90F3BBA
:100180002BC1623B36069D3A6745543B52499D3A26
:10019000B80DF2A4640FD632A4522CC27BF8AFC8BB
:1001A00002828EACCA7F9AE3CBA9154365973DA422
:1001B0007F3E08E4F88CC6F413754212F2F7AEE8FD
:1001C000E8A9BD00BE9BDDFB61312ED8B1441F3DC7
:1001D000D62A25C46017F5E7EEBBD07FEF54BAB13D
:1001E0005EA727B40C09F1FDE5FC10F301FF0A2915
:1001F000FF2FFA08FFE0FA07F0211BA71881F51A74
:10020000F3FD08CB01ACFF15FE180EE8F7F3F91368
:10021000296BB2739656EEA5DA1741E5DC47DA672B
:100220007967C983653C17928153AACFE73BDF42C8
:100230009BA430E7169BAD7B91C47FF872F09A25A2
:100240002074B391F5667455A04590E090B3842274
:1002500003E4CDEE6C618ABBE8BF6B6D6BA37400E9
:100260003C8DA14BD0BE2C83B808A3A6A7B6B61868
:10027000E8F70D5784F89BB6793481535138FA89E1
:100280009640F9065EBBEE5FE29EEEF45A25AED8CC
:10029000DEE254C94059CAF22D41817496FF29917A
:1002A000888BFC4F2AB1F31310E6BE2A86B0575B49
:1002B00068AC17C53C5EF54B47F1168BF51B1A026F
:1002C000F466F5C0100EC655AEB0688DB4CF1857A1
:1002D0006D86D99DE3C80056819DB83BDD284C98BA
:1002E0004B3A81B4D2BC155A9A865FC5B1130178D6
:1002F0004964DC3D0568C3A7E601B7239D2E17B608
:10030000F353DC994253BD71F39AE6E300FE27E311
:10031000741145ADE9EBB6B521C9C63819510FD8EE
:1003200002EBCB3B1524B3B7F5A15E88311FE18EFC
:1003300044975A811ECB28FB5DEB02C290DB74DD33
:1003400056C96E421B3119C94C1232222830F1D2E3
:10035000E2FDC218D11203FA8A108525810BB18201
:1003600058A146CA36C962D589D6E153263F2845E9
:100370003D824F37F84CAB1211C6C2E989F7C05C19
:1003800086C643F38162BD5F1541393698DB18811B
:10039000C99EE3CF925F0AA6A53EC64099EAF899A6
:1003A00047CE5DC4C08EEB081FFCE9441852098992
:1003B0003EF0F9F920F53B0381AFF351DA859EACAD
:1003C000C2A676FCAA219D8737C842A458D4B00F94
:1003D0004B57759DFA5D37D533B99195C7C12DBC83
:1003E0004DDA37B27FCC07280A650B45192424DE85
:1003F000162602FCF2CD08CEDC220B2BFA33DE826D
:10040000BDBDD7CCFA2F0B01F8FFFAFCF80DE401C3
:10041000DF0EF311E3F503F1FF1004051AA0EB81E1
:10042000FDF3FA1B1B02011F22FE040001FB010564
:10043000C808CFC7B147122B8CF232B7ABB5D9DDA4
:10044000B0914D4845DFF9B6B876FB858EB874F1AA
:100450007FE4E6434E557DF5F29A32160D131D2AC0
:10046000271D413BCFDD010DBF0EC05BCCE9EADFAC
:10047000DFACE28111F209E60CEFE7FFE621FE11A5
:1004800012091A009DF62F911FADD71903620EAA0B
:1004900059BD3DE78158D2FDF9ECDEAE3D35C2CB0A
:1004A00067E1B54EAF0ED645B99E908ECBEE66870E
:1004B0000BE35E8CA969DB90AD434C8DF9C8392DF7
:1004C000AE8981DFFD82D6D9B2D679D4FB82B2B2B1
:1004D000246EBBD90FAFF837A3CF89EE2202FD9A65
:1004E000957F22C44A12E25DCDFF3BB403B338814D
:1004F000C079D6DDD21948A98CC7D5C1E5F15635EA
:10050000A0480420112BCA34ECF88A6A38CB2C1E80
:10051000F9D0E0AF10A8F6BD2D0C178117105008C8
:10052000294EB81B2EB62CE5C91DCE4F21A00C516B
:10053000493E18556A1FE936B78FB52CF4E8C9DF74
:10054000DBC19B1D074A495FB4E79781216BAF442C
:10055000A964F3CDCEF1353B1B0A126081169612C9
:1005600025013AE8E1F4D8CB1B3C23221DA0DC9AFC
:100570006FF42633D0EE320AF5B30E06CDD7FFCF97
:100580000FA5CFF2B88BD5B3B4A9FED1704BACCBCD
:10059000C7C1C4928EAB3D68457B54026F3ACB45D0
:1005A0004EEEB37FF0BDA8B48A8502DF16D0F722E5
:1005B00063257FC9B4A0A7D515F4D9CEF3EFE7CA58
:1005C000CE18EE1BF90514EDEE093235D037F5E003
:1005D000265975427818923BAC1E113F4881F81B92
:1005E0002A09E51E9A10013B41B2C64FC12582611E
:1005F0008D474A380B8611A3AA3B4781A151152F7D
:100600003923E210AF4B8143E7EA3327E79118C65D
:1006100012CDE1DE07E1FB413902D3E900C412E665
:1006200041381149FDF43A38CADAC8FF1BE424C83E
:100630000AD10A320F271AD7FA87D014F72835DFE4
:10064000090DC21DE63AD7632F7F0A17D322FB217B
:10065000EE47E07D88DB4A6C9372EDD9E6E34BAB65
:10066000FCC7C665A1040ECB2FE16BC37641BE82E9
:100670005B92B9C88D7F83AD133AB2A3F507E4F559
:10068000EAAD1C004B93EC402B12F9123DD012073F
:100690002643E5443881F42C0A2DFD32DBD5E1E711
:1006A000B5F7E529C70FB87D52BDBCBCC45A17CBFE
:1006B00094A20FD0DF7407A6979F02DF66A18C4F2C
:1006C000CED3D3966805CE34695B05810F11AB603C
:1006D0003EB239BEE529EBBD0324FA3D4ED5BDBD82
:1006E000AE6271BCCDB051BDE738F7BDAC8EBCBDBC
:1006F0000B631BBECEFA543D50FEEE3C2506013E78
:1007000031445EBE55FA493D0CAD6EBE98A3E7BDBF
:100710001D5BCF3AF7CC123B6C06383BE1D31C3B58
:100720001EA7E83A7CB8E43AF9A1523BD39FFD3AC0
:100730003752B63A6FD8B63ACA341A3B3065E03A07
:1007400058561A3B59190D3BFAEDEB3ADCD52B3BC9
:100750003DD7913044EB291D6C457F5DBF5C32B8BD
:1007600027F9ECD5E5FE3CD9BDB644958954E9405E
:10077000FCC309D8F744F8C8E1EA7CD60A0631FE82
:10078000408135EA33FE12FBEEE1CDEC12CF601B67
:100790003134FED2F123280EDD81EFDC33FBC6FBC2
:1007A00035D7FD3D29AEE7F42D9CF30511EB65E04F
:1007B000C2328127F02FE6C3E80E22C5F006C6D567
:1007C000FBE50626C5F6C2243F4838EE95BC13FF6C
:1007D0000AA1ADD94FF325BD389B02185047CDD1A2
:1007E000C52AE4B9F4DCF9B35D8F14258128151B03
:1007F000B63BF8E63DD754075AD15FB904F6F01579
:10080000A40348D05764004DDFD6E42BB1B9810F63
:10081000FAEED500FC031A1EF8350AED2CD1F7FFCD
:10082000D9DB03F20015F0F922C6E916C6EA8120E9
:10083000E2B503BE41BCD35AE6F23EA80148E888BF
:1008400030E045AED4F345973BBDC3328B148151A4
:1008500086CE024086F561A21ED48938008A18DD52
:10086000B93FC9C27F2092A1AEBAA381D69C1D0414
:100870000F57B9C51BC60D8E55C7216FB43C90CC20
:10088000FCF363AEB32C02C982E91595D6B881D5C5
:10089000E1F296BDF0FD1EBFCCDA8FE0F93890038F
:1008A000D07FC524080BD009C44DC61D154ACE36CD
:1008B0001E410C171DB5FFF25C2B56AB4CE47F14A8
:1008C000BE9BF43C5A1B3A29C1EF28D70E321FAC0D
:1008D000E718C9B91F30410D46DB0F37D70F2A2261
:1008E000F333DF262FEB15810E5F42AA08F603EBE8
:1008F000BB3E813652DC253B26DBE7BD23B929E729
:10090000D1A74050412BB808F6B510DCD5FB5DE10E
:100910001E55C150D4501DBC0D1A9FC02CF8894BD8
:10092000F7FF1944BD81ACB050F0BEFC08AF08A57C
:10093000C031DD2ED24128D62F097F3C0CFA0BFBAB
:100940000DA8E3E02304E70738D2EFFEF1D90ADB74
:10095000DCD834BFAE492FBF56470040D107E73F30
:10096000014E1BC0B796C93A583C753B3317383B0C
:10097000909F0D3B71ADF63ACA0B41D6812604AE6D
:10098000E516A45269A4BEC781F66CC73B2AD1F410
:10099000F70AB617C6EF21E80695150AE2F4E8D57E
:1009A00049C9814BC6210BB5F5CE41E10E2C9BB058
:1009B000FA59DFDFE9810F4C93F66609EC2EEEF76A
:1009C00092E1812AEB55DE3E140D11241FBECFEFBC
:1009D000D8E0DEBFCDBF11E0A0E0B1E0EAE2F2E294
:1009E00002C005900D92AA32B107D9F723E0AAE21E
:1009F000B1E001C01D92A63EB207E1F714E0C5EEDA
:100A0000D4E004C02197FE010E94F710C43ED10734
:100A1000C9F70E9451070C9413110C9400003FB7C2
:100A2000F8948091410390914203A0914303B091C7
:100A3000440326B5A89B05C02F3F19F00196A11DC0
:100A4000B11D3FBFBA2FA92F982F8827BC01CD0118
:100A5000620F711D811D911D42E0660F771F881F77
:100A6000991F4A95D1F70895AF92BF92CF92DF9226
:100A7000EF92FF920F931F93CF93DF936C017B0153
:100A80008B01040F151FEB015E01AE18BF08C017E4
:100A9000D10759F06991D601ED91FC910190F08157
:100AA000E02DC6010995892B79F7C501DF91CF911A
:100AB0001F910F91FF90EF90DF90CF90BF90AF907C
:100AC0000895FC01538D448D252F30E0842F90E054
:100AD000821B930B541710F0CF9608950197089539
:100AE000FC01918D828D981761F0A28DAE0FBF2F02
:100AF000B11D5D968C91928D9F5F9F73928F90E058
:100B000008958FEF9FEF0895FC01918D828D9817C6
:100B100031F0828DE80FF11D858D90E008958FEF03
:100B20009FEF0895FC01918D228D892F90E0805CCC
:100B30009F4F821B91098F739927089585E493E055
:100B40000E94920521E0892B09F420E0822F08956C
:100B500080E090E0892B29F00E949E0581110C9481
:100B600000000895FC01A48DA80FB92FB11DA35A50
:100B7000BF4F2C91848D90E001968F739927848FBD
:100B8000A689B7892C93A089B1898C9183708064E0
:100B90008C93938D848D981306C00288F389E02D81
:100BA00080818F7D80830895EF92FF920F931F9332
:100BB000CF93DF93EC0181E0888F9B8D8C8D981310
:100BC0001AC0E889F989808185FF15C09FB7F8941C
:100BD000EE89FF896083E889F98980818370806468
:100BE00080839FBF81E090E0DF91CF911F910F91B3
:100BF000FF90EF900895F62E0B8D10E00F5F1F4FC2
:100C00000F731127E02E8C8D8E110CC00FB607FCD0
:100C1000FACFE889F989808185FFF5CFCE010E945E
:100C2000B205F1CFEB8DEC0FFD2FF11DE35AFF4F15
:100C3000F0829FB7F8940B8FEA89FB8980818062EC
:100C4000CFCF682F85E493E00C94D405CF93DF9346
:100C5000EC01888D8823B9F0AA89BB89E889F989D4
:100C60008C9185FD03C0808186FD0DC00FB607FC09
:100C7000F7CF8C9185FFF2CF808185FFEDCFCE013C
:100C80000E94B205E9CFDF91CF910895FC01019058
:100C90000020E9F73197AF01481B590BBC0185E4EF
:100CA00093E00C9434058F929F92AF92BF920F9372
:100CB0001F93CF93DF93CDB7DEB7A1970FB6F8940C
:100CC000DEBF0FBECDBF19A2423008F44AE08E014C
:100CD0000F5D1F4F842E912CB12CA12CA5019401E6
:100CE0000E949810E62FB901CA01EA30F4F4E05DE1
:100CF000D801EE938D01232B242B252B79F790E03F
:100D000080E0109719F0CD010E944606A1960FB61B
:100D1000F894DEBF0FBECDBFDF91CF911F910F9131
:100D2000BF90AF909F908F900895E95CE1CFCF93F3
:100D3000DF9300D000D0CDB7DEB744E050E0BC0177
:100D4000CE0101960E945F0D69817A818B819C8121
:100D50000F900F900F900F90DF91CF9108951F92F9
:100D60000F920FB60F9211242F933F938F939F935F
:100D7000AF93BF9380913D0390913E03A0913F03B9
:100D8000B091400330913C0323E0230F2D3758F5F9
:100D90000196A11DB11D20933C0380933D039093C8
:100DA0003E03A0933F03B093400380914103909191
:100DB0004203A0914303B09144030196A11DB11DCC
:100DC0008093410390934203A0934303B093440361
:100DD000BF91AF919F918F913F912F910F900FBE37
:100DE0000F901F90189526E8230F0296A11DB11DA4
:100DF000D2CF1F920F920FB60F9211242F933F93D1
:100E00004F935F936F937F938F939F93AF93BF9312
:100E1000EF93FF9385E493E00E94B205FF91EF9179
:100E2000BF91AF919F918F917F916F915F914F9102
:100E30003F912F910F900FBE0F901F9018951F920A
:100E40000F920FB60F9211242F938F939F93EF93CE
:100E5000FF93E0915503F09156038081E0915B038D
:100E6000F0915C0382FD1BC0908180915E038F5FD7
:100E70008F7320915F03821741F0E0915E03F0E0F1
:100E8000EB5BFC4F958F80935E03FF91EF919F91F9
:100E90008F912F910F900FBE0F901F90189580810A
:100EA000F4CFCF93DF93CDB7DEB72C970FB6F8947E
:100EB000DEBF0FBECDBF789484B5826084BD84B59B
:100EC000816084BD85B5826085BD85B5816085BD45
:100ED00080916E00816080936E00109281008091FD
:100EE0008100826080938100809181008160809385
:100EF0008100809180008160809380008091B100AA
:100F000084608093B1008091B00081608093B000D4
:100F100080917A00846080937A0080917A00826068
:100F200080937A0080917A00816080937A0080912A
:100F30007A00806880937A001092C100E091550396
:100F4000F091560382E08083E0915103F0915203C7
:100F50001082E0915303F091540380E1808310925A
:100F60005D03E0915903F0915A0386E08083E0919C
:100F70005703F0915803808180618083E09157038B
:100F8000F0915803808188608083E0915703F0914D
:100F90005803808180688083E0915703F091580363
:100FA00080818F7D8083E091E203F091E3033097AD
:100FB00011F4E6EEF3E09E012F5131098DECE217BA
:100FC000F30710F48193FBCF2FB7F89480913D0382
:100FD00090913E03A0913F03B09140032FBF8093B7
:100FE000310390933203A0933303B093340383E12E
:100FF00091E00E9446068AE191E00E9446069E0129
:101000002F5F3F4F3C832B8385E493E00E94920542
:101010009A878987892BE9F185E493E00E9470051E
:101020008C33A9F4109212039FB7F89440913D03BA
:1010300050913E0360913F03709140039FBF4093E6
:101040002A0150932B0160932C0170932D01E091A4
:101050001203EF3E68F491E09E0F90931203F0E0CC
:10106000EE5DFD4F8083E92FF0E0EE5DFD4F1082D5
:101070008E3311F08A3041F66EE370E082E292E046
:101080000E94FD10892B09F4BFCF31E030933B0360
:10109000BBCF80911203882301F12FB7F894809180
:1010A0003D0390913E03A0913F03B09140032FBFB9
:1010B00040912A0150912B0160912C0170912D01DA
:1010C000841B950BA60BB70B853F9140A105B1057D
:1010D00020F0109212031092220280913B03882389
:1010E00009F421C410923B036CE370E082E292E0C9
:1010F0000E94FD108C016EE370E082E292E00E949B
:10110000FD100115110509F40AC4009709F407C47C
:101110000817190708F003C40F5F1F4F801B910BBE
:1011200003970CF4FCC36CE270E0C8010E94081144
:101130007C01009709F4F3C30817190709F4EFC3FA
:1011400001960E94410D5C01F70110826EEC862E23
:1011500061E0962EF12CE12C0115110509F4DAC39A
:10116000FAE2EF16F10409F0BAC3EEECF1E060E048
:1011700070E0CB01219131918901330F220B330BA8
:10118000600F711F821F931F22E0E232F20791F776
:1011900024E630E040E050E00E94BA108501BB0C2C
:1011A000220B330B601771078207930709F0B7C34F
:1011B0000E940F054B015C0180E191E09E838D83CD
:1011C00000E910E0EEE2F1E0F887EF83312C212C0A
:1011D0005EEC652E51E0752E50E040E0C12CD12C24
:1011E0007601910120573E4F2901F301A191B19160
:1011F0003F01F201E40FF51F2491022E000C330B86
:101200000E94D910C60ED71EE81EF91E4F5F5F4F11
:101210004A32510551F78D819E810E9497062B011C
:101220003C01C701B6010E94C60EA30192010E94B3
:1012300018106B017C01C8010E9497069B01AC014C
:10124000C701B6010E94710D6B017C0120E030E006
:10125000A9010E949D0F70E060E0181684F420E060
:101260003EEF4FEF56E4C701B6010E94DD0D6FEF70
:101270007FE787FF04C0C701B6010E948E0EEF8191
:10128000F88561937193F887EF832D813E812C5F00
:101290003F4F3E832D830C5F1F4F3AE2230E311CDC
:1012A00080E4281685E0380609F092CF0E940F05E9
:1012B000681979098A099B096093230370932403B1
:1012C00080932503909326030E940F054B015C0138
:1012D000E0E1F7E0FE83ED8300ED16E02EE631E07D
:1012E00038872F83312C212C4EE2642E41E0742E5E
:1012F00050E040E0C12CD12C7601C101805B984FB9
:101300002C01F301A191B1913F01F201E40FF51F0E
:101310002491022E000C330B0E94D910C60ED71E4A
:10132000E81EF91E4F5F5F4F4032510551F78D8126
:101330009E810E9497062B013C01C701B6010E94C5
:10134000C60EA30192010E9418106B017C01C80116
:101350000E9497069B01AC01C701B6010E94710D66
:101360006B017C0120E030E0A9010E949D0F70E03C
:1013700060E0181684F420E03EEF4FEF56E4C7011A
:10138000B6010E94DD0D6FEF7FE787FF04C0C70144
:10139000B6010E948E0EEF81F88561937193F887F4
:1013A000EF832D813E812C5F3F4F3E832D830C5F69
:1013B0001F4F30E2230E311C211482E0380609F061
:1013C00093CF0E940F05681979098A099B096093D8
:1013D0001F037093200380932103909322030E94A4
:1013E0000F054B015C01E4E6F9E0F887EF8300E5C7
:1013F00019E02EE831E03E832D833C872B87312C8A
:10140000212C3EE6632E31E0732E50E040E0C12CEB
:10141000D12C7601F101E858F64F2F01F301A1918B
:10142000B1913F01F201E40FF51F2491022E000C4F
:10143000330B0E94D910C60ED71EE81EF91E4F5F4F
:101440005F4F4031510551F78F8198850E94970673
:101450002B013C01C701B6010E94C60EA3019201F7
:101460000E9418106B017C01C8010E9497069B0125
:10147000AC01C701B6010E94710DEB85FC8561933B
:10148000719381939193FC87EB872F8138852C5F33
:101490003F4F38872F830C5F1F4F30E1230E311CE5
:1014A00080E52816310409F0ACCF0E940F05AB018E
:1014B000BC01481959096A097B0940931B035093E1
:1014C0001C0360931D0370931E038091230390916E
:1014D0002403A0912503B091260300911F031091CE
:1014E00020032091210330912203800F911FA21F1E
:1014F000B31F840F951FA61FB71F809327039093D8
:101500002803A0932903B0932A030E940F052B01FF
:101510003C0120908E0130908F01C0909001D090BE
:101520009101E2E9F1E0F887EF837F01F701819013
:101530009190A190B1907F019101A601C501B401E4
:101540000E949D0F181614F4140165012EEC31E071
:101550002E153F0559F70EE811E0812C912C54010E
:10156000F80161917191819191918F019101A60191
:101570000E94700D0E945C0E9B01AC01F801349733
:101580002083318342835383C501B4010E94710DCE
:101590004B015C01E016F10619F7ED81FE816191C6
:1015A000719181919191FE83ED837F01F4E0EF1AB7
:1015B000F108A50194010E94E20DF7016083718397
:1015C000828393832D813E810217130731F70E9496
:1015D0000F056419750986099709609317037093BD
:1015E00018038093190390931A0301E010E0EF8130
:1015F000F8856191719181919191F887EF83E985E7
:10160000FA85EE0FFF1FEE0FFF1FE257FE4F2081FE
:101610003181428153810E949D0F181614F41A875C
:1016200009870F5F1F4F0530110509F7E985FA8516
:10163000EE0FFF1FEE0FFF1FE257FE4F20E030E0DE
:1016400048EC52E460817181828193810E9418107C
:101650006093130370931403809315039093160300
:1016600089858F5B809300018091370390913803C7
:10167000A0913903B0913A030196A11DB11D809349
:10168000370390933803A0933903B0933A03E09162
:10169000E203F091E303309711F4E6EEF3E0EF3F5D
:1016A00028E0F20738F49F012F5F3F4F80818D3C87
:1016B00009F446C18FEF98E08E1B9F0B9093360381
:1016C000809335038FB7F894C0903D03D0903E03CC
:1016D000E0903F03F09040038FBF809131039091E1
:1016E0003203A0913303B091340346015701881AA5
:1016F000990AAA0ABB0A38EE831633E09306A104BE
:10170000B10408F444C060913703709138038091AC
:10171000390390913A030E94C40E20E030E04AE77A
:1017200054E40E9418102B013C01C501B4010E9431
:10173000C40E9B01AC01C301B2010E94E20D609393
:101740002D0370932E0380932F03909330031092F8
:101750003703109238031092390310923A03C09263
:101760003103D0923203E0923303F092340380913C
:10177000E2039091E303009711F486EE93E0EB818E
:10178000FC81E81BF90BF0932C03E0932B038BE710
:101790000E942106809100010E9421068CE20E9495
:1017A000210660912703709128038091290390916D
:1017B0002A034AE00E9453068CE20E9421066091AF
:1017C00023037091240380912503909126034AE01E
:1017D0000E9453068CE20E94210660911F037091C3
:1017E000200380912103909122034AE00E94530636
:1017F0008CE20E94210660911B0370911C03809172
:101800001D0390911E034AE00E9453068CE20E9441
:10181000210660911703709118038091190390912C
:101820001A034AE00E9453068CE20E942106C090EF
:101830001303D0901403E0901503F0901603A70152
:101840009601C701B6010E948510882309F47AC069
:101850008DE191E00E9446068CE20E942106609193
:101860002D0370912E0380912F03909130030E94DD
:101870008E0E6B01770FEE08FF084AE0C701B60134
:10188000F7FE0BC08DE20E94210666277727CB0169
:101890006C197D098E099F094AE00E9453068CE26B
:1018A0000E94210660912B0370912C0390E080E050
:1018B0004AE00E9453068CE20E94210660913503A3
:1018C0007091360390E080E04AE00E9453068DE775
:1018D0000E9421068AE191E00E94460620C06CE247
:1018E00070E0C8010E94FD106C01009711F0FC012E
:1018F0001082FFEFEF1AFF0AC8010E94410DF401A8
:10190000819391934F01C114D10421F086010F5F9F
:101910001F4F22CCFAE2EF16F10409F426CC109204
:1019200012031092220220E030E0232B09F46CCB4A
:101930000E949E05882309F467CB0E94000064CBB7
:10194000F901ADCE46015701E894B7F82FEF3FEF0C
:101950004FE75FE7C501B4010E94851081110DC0FA
:101960002FEF3FEF4FE75FE7C501B4010E94DD0DA8
:1019700018161CF481E291E06DCF2FEF3FEF4FE797
:101980005FE4C701B6010E949D0F18161CF485E2A2
:1019900091E060CF2FEF3FEF4FE75FECC701B6015B
:1019A0000E94DD0D87FDF3CF20E030E0A901C701E3
:1019B000B6010E94DD0D87FF07C08DE20E9421065F
:1019C000F7FAF094F7F8F0942DEC3CEC4CE45DE37E
:1019D000C701B6010E94710D4B015C010E94950E7A
:1019E0006B017C010E94C40E9B01AC01C501B401D6
:1019F0000E94700D4B015C014AE0C701B6010E94D4
:101A000053068EE20E94210620E030E040E251E4DD
:101A1000C501B4010E9418100E94950E90E080E06C
:101A20004AE00E94530618CFE5E4F3E013821282E5
:101A300088EE93E0A0E0B0E084839583A683B7832B
:101A400085E091E09183808385EC90E095878487A1
:101A500084EC90E09787868780EC90E0918B808B78
:101A600081EC90E0938B828B82EC90E0958B848B61
:101A700086EC90E0978B868B118E128E138E148ECF
:101A80000895FC0188279927E89421912032E9F3F1
:101A9000293010F02E30C8F32B3241F02D3239F4BA
:101AA000689404C00E94680D820F911D21912053FB
:101AB0002A30C0F31EF4909581959F4F0895FB0145
:101AC000DC0102C005900D9241505040D8F70895B6
:101AD0007AE0979F902D879F802D910D1124089576
:101AE0005058BB27AA270E94880D0C94630F0E94B0
:101AF000550F38F00E945C0F20F039F49F3F19F425
:101B000026F40C942B0F0EF4E095E7FB0C94250FB4
:101B1000E92F0E94740F58F3BA17620773078407FE
:101B2000950720F079F4A6F50C94960F0EF4E09545
:101B30000B2EBA2FA02D0B01B90190010C01CA0187
:101B4000A0011124FF27591B99F0593F50F4503E32
:101B500068F11A16F040A22F232F342F4427585F24
:101B6000F3CF469537952795A795F0405395C9F73C
:101B70007EF41F16BA0B620B730B840BBAF09150F4
:101B8000A1F0FF0FBB1F661F771F881FC2F70EC093
:101B9000BA0F621F731F841F48F487957795679566
:101BA000B795F7959E3F08F0B0CF9395880F08F052
:101BB0009927EE0F9795879508950E94010F08F4D5
:101BC00081E008950E94F60D0C94630F0E945C0F53
:101BD00058F00E94550F40F029F45F3F29F00C9413
:101BE000250F51110C94970F0C942B0F0E94740F1A
:101BF00068F39923B1F3552391F3951B550BBB273C
:101C0000AA2762177307840738F09F5F5F4F220F80
:101C1000331F441FAA1FA9F335D00E2E3AF0E0E877
:101C200032D091505040E695001CCAF72BD0FE2FC1
:101C300029D0660F771F881FBB1F26173707480755
:101C4000AB07B0E809F0BB0B802DBF01FF2793580D
:101C50005F4F3AF09E3F510578F00C94250F0C949D
:101C6000970F5F3FE4F3983ED4F386957795679599
:101C7000B795F7959F5FC9F7880F911D9695879542
:101C800097F90895E1E0660F771F881FBB1F621761
:101C900073078407BA0720F0621B730B840BBA0B1F
:101CA000EE1F88F7E095089529F416F00C94250F9F
:101CB0000C94960F0C942B0F0E947C0FA8F396386F
:101CC000A0F707F80F92E8942BE33AEA48EB5FE7B6
:101CD0000E942E100F920F920F924DB75EB70F9287
:101CE0000E94E40FE8E6F0E00E942E0F4F915F9112
:101CF000EF91FF91E595EE1FFF1F49F0FE57E06859
:101D00004427EE0F441FFA95E1F74195550B0E94C9
:101D1000AE0F0F9007FE0C94A20F08950E94950E2F
:101D20006894B1110C94970F08950E947C0F88F06D
:101D30009F5798F0B92F9927B751B0F0E1F0660F8F
:101D4000771F881F991F1AF0BA95C9F714C0B130D0
:101D500091F00E94960FB1E008950C94960F672FB2
:101D6000782F8827B85F39F0B93FCCF386957795FF
:101D70006795B395D9F73EF49095809570956195E8
:101D80007F4F8F4F9F4F0895E89409C097FB3EF413
:101D900090958095709561957F4F8F4F9F4F9923B8
:101DA000A9F0F92F96E9BB279395F6958795779536
:101DB0006795B795F111F8CFFAF4BB0F11F460FFF6
:101DC0001BC06F5F7F4F8F4F9F4F16C0882311F04E
:101DD00096E911C0772321F09EE8872F762F05C062
:101DE000662371F096E8862F70E060E02AF09A95FD
:101DF000660F771F881FDAF7880F9695879597F9F2
:101E00000895990F0008550FAA0BE0E8FEEF16168B
:101E10001706E807F907C0F012161306E407F507DE
:101E200098F0621B730B840B950B39F40A2661F052
:101E3000232B242B252B21F408950A2609F4A140F5
:101E4000A6958FEF811D811D089597F99F6780E802
:101E500070E060E008959FEF80EC0895DF93CF93EA
:101E60001F930F93FF92EF92DF927B018C01689496
:101E700006C0DA2EEF010E942B10FE01E894A59116
:101E80002591359145915591A6F3EF010E94880D5A
:101E9000FE019701A801DA9469F7DF90EF90FF90B7
:101EA0000F911F91CF91DF91089500240A94161687
:101EB000170618060906089500240A941216130638
:101EC000140605060895092E0394000C11F48823C6
:101ED00052F0BB0F40F4BF2B11F460FF04C06F5FE2
:101EE0007F4F8F4F9F4F089557FD9058440F551FB8
:101EF00059F05F3F71F04795880F97FB991F61F08C
:101F00009F3F79F087950895121613061406551F02
:101F1000F2CF4695F1DF08C0161617061806991F6E
:101F2000F1CF86957105610508940895E894BB2763
:101F300066277727CB0197F908950E94010F08F4CF
:101F40008FEF08959B01AC0160E070E080E89FE3B3
:101F50000C94E20D0C94250F0C948A100E947C0FB7
:101F6000D8F39923C9F3940F511DA3F39150504016
:101F700094F059F0882332F0660F771F881F915034
:101F80005040C1F79E3F51052CF7880F911D969543
:101F9000879597F908955F3FACF0983E9CF0BB277A
:101FA000869577956795B79508F4B1609395C1F7D5
:101FB000BB0F58F711F460FFE8CF6F5F7F4F8F4F73
:101FC0009F4FE3CF0C94970FFA01DC01AA0FBB1FC0
:101FD0009B01AC01BF5728F42227332744275078B0
:101FE00020C0B75190F4AB2F002446953795279524
:101FF000011CA395D2F3002071F0220F331F441F60
:10200000B395DAF30ED00C94700D61307105A0E831
:102010008A07B94630F49B01AC01662777278827E9
:102020009078309621F02083318342835383089542
:102030000E942B100C94630F0E94550F38F00E94E1
:102040005C0F20F0952311F00C94250F0C942B0FAE
:1020500011240C94970F0E94740F70F3959FC1F395
:10206000950F50E0551F629FF001729FBB27F00D46
:10207000B11D639FAA27F00DB11DAA1F649F66279B
:10208000B00DA11D661F829F2227B00DA11D621FEA
:10209000739FB00DA11D621F839FA00D611D221FA4
:1020A000749F3327A00D611D231F849F600D211D88
:1020B000822F762F6A2F11249F5750409AF0F1F00B
:1020C00088234AF0EE0FFF1FBB1F661F771F881F74
:1020D00091505040A9F79E3F510580F00C94250F78
:1020E0000C94970F5F3FE4F3983ED4F38695779571
:1020F0006795B795F795E7959F5FC1F7FE2B880F1A
:10210000911D9695879597F908950E94010F880B68
:10211000990B08959F3F31F0915020F48795779562
:102120006795B795880F911D9695879597F90895AE
:10213000A1E21A2EAA1BBB1BFD010DC0AA1FBB1FCB
:10214000EE1FFF1FA217B307E407F50720F0A21B3D
:10215000B30BE40BF50B661F771F881F991F1A94AA
:1021600069F760957095809590959B01AC01BD01D4
:10217000CF010895052E97FB1EF400940E94D11004
:1021800057FD07D00E94981007FC03D04EF40C9422
:10219000D11050954095309521953F4F4F4F5F4F4F
:1021A000089590958095709561957F4F8F4F9F4FC3
:1021B00008950E94E110332312F48A1B9B0B0C94A8
:1021C000F210A29FB001B39FC001A39F700D811DAB
:1021D0001124911DB29F700D811D1124911D089530
:1021E0000E94E110B7FF0895821B930B0895EE0F34
:1021F000FF1F0590F491E02D0994FC018191861751
:1022000021F08823D9F7992708953197CF010895B0
:10221000FC0181E090E00190061609F4CF01002056
:0A222000D1F701970895F894FFCF5D
:10222A003F00000000D405340561052606920570BA
:10223A000584057B626F6F747D000D0A006E616E06
:0A224A0000696E66006F7666000002
:00000001FF
