:100000000C94550E0C947D0E0C947D0E0C947D0E6C
:100010000C947D0E0C947D0E0C947D0E0C947D0E34
:100020000C947D0E0C947D0E0C947D0E0C947D0E24
:100030000C947D0E0C947D0E0C947D0E0C947D0E14
:100040000C941F100C947D0E0C948F100C9469105E
:100050000C947D0E0C947D0E0C947D0E0C947D0EF4
:100060000C947D0E0C947D0E07634236B79BD8A787
:100070001A39685618AEBAAB558C1D3CB7CC5763CD
:10008000BD6DEDFD753EF6177231BF000000803F7B
:10009000840C64BCF81616BE1FF682BD957C8CBD20
:1000A00014980E3D20636EBC42942F3E3B38B8BD81
:1000B0003481623DD42CD0BB948800BE1FBDA13DCD
:1000C0005FD48E3D734AC03C97C8E53DCADED23D41
:1000D000FDA4DABC90C0BFBD5C0406BDDFA3FEBDBD
:1000E000D63946BD72A443BED462703D5052503ED4
:1000F000D029483CD4B7ECBD938D17BE3F5690BD78
:10010000B4032E3C5E67C3BCC5AAC13CA5D8213E42
:10011000BC59133EB4E6073D64B1CDBC807F8A3D37
:10012000CE8C9E3DEB380EBECDABBABD46EE693DE2
:100130009AB594BD312853BB6D1DBCBD817928BED5
:10014000C7B862BCB5A9BABC0A67373D46CF2DBD5A
:10015000B5FE1637A48C3837ACC5A736BD37863701
:10016000ACC5A736ACC5A736931A5A37ACC5A73667
:10017000ACC5A736ACC5A736ACC5A73682A87B37B9
:100180009C534937ACC5A736ACC5A736ACC5A73616
:10019000ACC527379C534937ACC5A736ACC5A73685
:1001A0008BE1EA369C53C936ACC5A7362829B0374F
:1001B000BD378636ACC5A736BD370637ACC5A736C2
:1001C000B5FE16379C53C9369C53C9368BE1EA36C7
:1001D000BD370637BD378636BD378637ACC5A7363F
:1001E000ACC52737BD378636ACC5A736A48C3837A3
:1001F0009C5349379C534937BD3786369C53C93683
:10020000BD378637ACC5A736ACC5A736BD378636F1
:10021000E03B0D3FBCE6443B0AD6A11189928E3BE0
:10022000BBC85FD9A23760EAD12BE7E9461C561458
:10023000F122FA0B9BD931FCF4CFAFBDF4C84B6F60
:1002400008A86AD147E65BCEF5E901801E1CB98C8F
:100250009D188B57C0E8714A2900124650016EF66E
:10026000090D73BC0415AC2A981DAAD93C1D47DAA8
:1002700051FAFC91CBA10180C3E10E5CAC1844247F
:10028000361BE71F9938DCDC6214E5FD5E26C220D0
:10029000871B3FFD4044B1A9CBEFAA06E92CCB3325
:1002A000A32DF9880EC9B1919ADF802DCAF6442E8C
:1002B000D6C85DC1AD0DEDE0B74D9DE14049839CD1
:1002C00062BF0A27121B5ADF534C0C5725A3A4BB4D
:1002D0003F75CBD49BD21A84ACB6FD1F19EF0EA389
:1002E000010389A85E937DB9EF8F78AEFF7F2F1849
:1002F00075279388E7AB61D50614548FD4C858B3DB
:100300005B005BD020F73BA91CA84CB5F4E073D28E
:10031000BA119BF16B0FE3089CCB7F1793E334F585
:10032000E4E5CFCE29156BF70A1836DA6B23B7DC74
:100330005DFABAF1F91B040C962CB0BC2911368B6E
:10034000C2F9B7C9692706E5C7141921BE04593097
:10035000621B85FA29F626FB3BF3AC44D1C6FF7F2E
:10036000DA18F5B225B951F5E2440BDAB0B0A2CEF5
:100370008599672A32610180131A663F6413D7CCCE
:100380001A409240AC2C85E4D4D8A10966E478D414
:100390007F4F666C97EE32DE81FDC0F3251B5F2038
:1003A0005C8425CB226AB92E0FF571AC46AB008672
:1003B000CCD0EB270A52673B458EA0B2B2EB777CDC
:1003C0009D12AEDE3B35FECEB9ACE95D7FC535E6AC
:1003D00001801D567B61E42E49A604818097F25F5F
:1003E000C63D466C67439020BDFE269EC491A787FC
:1003F000AC34D4C01BE6F4B58EE871A5EEABAE2AE2
:10040000C3D96E4FB9D69EA1BDE217D582E615C5F8
:100410004E1D48D86930E803F54228B84E1EE00268
:10042000A418044F840B3203A30B24A9E81626E971
:10043000C2274A37CE38C4D7CAED018075151BCF05
:1004400006FDECDF140791ABA5F87A98FBCDDF062B
:10045000B7193BDD75F6B7C465E08DC33430CAB853
:100460009FACE1F5CFD40AD62B047DE458D3E6C186
:100470007396C16C19CC5E2200D38A0AEB78C13B1B
:100480009B8F7A331D7B1F22F456DE7F20ECEB1A04
:10049000DBA546E50D607D42EEADFF975EA70180CE
:1004A000EC9BEDDF8857B6155A9DF4978640869FE2
:1004B0001BF0ED3D41C4ECF1C3F475E18CBEEC8C56
:1004C000A697E0BAAF7CA5C14FA94B1F9423BB46AA
:1004D0002062E4470180730B334E12F4EEB3127BBB
:1004E000B7CF80B69E8BC4053539941C8719199EE9
:1004F00071874602B6757A4AD6B43EEFD6A0B9C126
:1005000061174C463267E6825052B89EDD2B8869EF
:10051000BFFCD771898BFCC827476FDE28E06EC40B
:100520000455083BCD248BB6CD900D09A4218FBE78
:1005300056D632535305CF00BEDA898401806DBC94
:1005400077B8A323DCD4C6C78B7772281A58B8C0F3
:1005500085C5F52AD1A376A5BBF987D0B29EFD4CFF
:1005600061680E1567E9C687B9D00B21343D97EF56
:10057000AFCC5448A1980952A5CDFD015AE6BD0F54
:10058000C7D8615EA0FC5265CC7CC4C050A1236872
:10059000B665E59CF7F50180C09512198822841B89
:1005A000ADDCBF778F1269B3A7F82C1F811BBAF39C
:1005B000360F3DEBC0DE3AEA563AF82BE74C1041D5
:1005C000FB024FFC0DCFF81156D61FF8CDE30B33CD
:1005D0007701DDF773D048E96ED82EAF6707018049
:1005E000BB17D62BF1FAD0FB11FEE8E134F921ADAF
:1005F000290FC73840FE81F97303A7E1311A61EE74
:10060000081A520CEBDF27D87C087DD59B1F43AB23
:100610005535018022E434D73A2A98EE9B22E6F53C
:100620003204AFB843EFEA2730217AF2D6143E39CC
:10063000CC13B40BBCFD9EF249EE3B3BA91F840CCE
:10064000BCD19D35CEC018133EC7B006A2EC034EF8
:10065000762A5467EA4726624966D9CC0CDDF93A16
:100660007FD62739BDDD88A001313A0F2B36127FA6
:10067000B4550379F20150886F9D21A8838518B87D
:100680004780018046ABF3811CA9942DD86939D3EA
:1006900019D4E64125B9E1BBD64CD686190B697051
:1006A000A611051F4BADFCF832071E20D832B371DE
:1006B0001F9CEC039FBE7D9886F5D28C525B280F61
:1006C0007AB96144298463CD82E6CF90CBACA4EAA9
:1006D00049635C7E4253DEB165AA3172492E7A03CA
:1006E000B511D69650D4F67DBADF70F95A93CDB6CF
:1006F00054FDB8AEC6EF40350180DD26E1AE20C422
:10070000FC283C5B8AD7AFC6F3898BB95F8D9CDC34
:10071000D111CF88BF6358467C805FBE922098DF9E
:100720006AEB66C42A5B83B4515EB00038115D5831
:100730009EE4A2B4CEE4835C929D98140180F838C4
:100740004326BEFE622D1FF98C3CAF979BE6222FFD
:10075000653D082A3CB7841950B82FFCD4B42D133A
:10076000743110425FB8CB26B7CD7F3A32BCB2AD00
:100770008FB6018066F93752A5F92722A315D6BD99
:10078000792DC502C4DEE04662344447A3008426C6
:1007900075255114822A0A63EEFCF85D8212B713A4
:1007A000281E450F1424B71EB309E8C2F2E334E251
:1007B0005BE8EE072005420D83E046038A0710C779
:1007C0009EC5BCEC0F1ACAE420CB8D0D5A138917B5
:1007D000BFD187C9FF15FF7FDC150CFA120805147D
:1007E000ACD5D7CBC51DC5D39DDBB2172C09F4F909
:1007F00041EBFDECF3307AED0401643DE3A65D7D51
:1008000082BF01E113DDE2AB5681C9484B221A8752
:10081000EBAC957F5731CB33C5B269C784EC65E843
:100820008CA7A20AD40CA8EFE511D6CC9821AF3042
:1008300002BC01809143CB1E5ABE667C9FC53A57CD
:100840007D41C793405350897CB87BEA4FA35162E6
:100850007CD38E1C01807830A3C8C99660043E49C1
:100860003751DBAE7DBAAC1153147622C93247CB77
:100870000E2F0245ABD71A3EEC2B403C2FB0CABA24
:10088000ADD266FA443901C1212B43BBDD315AD4C4
:100890009F9153BE5FA144468E9D74E7970174C03B
:1008A000D9EBD08238902990ECB4EACCC1EC65FF4A
:1008B000BF1AFF7FB1FFA9AC9E9A6A00ADC4E1E305
:1008C000162C8BBDC230DF2739FE98ABD243580AB5
:1008D0002EC9C1751A2C9C00A0FFD9CF6BFDC17722
:1008E000A123920F75E2CDE55A406930113A3C0DD3
:1008F000711991320A0DB437E83F5D55C84660D989
:10090000018019F55FB464C35DF470F445463409A1
:1009100048DBB4DE21E0BCF60D5E8D2B6D55F0EAB0
:10092000020696F9CF97B7D799F950CE1F9E703B24
:100930006F321B1B484229BE22EBC025E8DB50C4A6
:10094000B4A66A0E5BBFDCDCFF7F97D79FD6344F1F
:10095000BCCFBAF4957A2ECA14A287B69ADBB5C179
:10096000E0BB08354F16FBD5029AAAD698C847D5E2
:100970009189481C8B9FC299BD94CB36F7B0D0C9E2
:10098000E766B545474B5983DCA171CE746C6E0D9B
:10099000D19DD2000A9A3DE3E7DBA57139F8D9E988
:1009A00085F922EBF50858059619D5E8D033EFFA0A
:1009B000CFEC570D1015C323840C58305213FF7F12
:1009C00023E092F7EAEF9DF55714AAF7B8067C08E2
:1009D000B6F35CD0921A98E49E035AECC90186C41F
:1009E000D80322D46BED1CE004F330D631F8D2E703
:1009F000B3C7A5DB0823EA9267AEF801BF12744AB9
:100A00004EA1082B9F4CDA4A70828FCC208CB1AA61
:100A1000164BDFEB4139DEB07C1476AE64430AC579
:100A200032DE0A8B7200FF7F6F4113B8D00138F1BC
:100A30007993B3692C02641C90C9ECC03A16D73183
:100A40003D1E08BF677568E928AF46C11877D8FB17
:100A5000D7EABBC703DB629256981F45F266537311
:100A600071A18F3F56AE88462E56BB5CFE552A4A72
:100A700046FE5E350ACF5B3298D3BCF9DC8E19DBBB
:100A8000FEB99AD1E1AB388BFD03184DDF6DE74419
:100A9000F0BA0180542BFE41F2B975126734E9FBBC
:100AA0009BC65031D60A3C259BB53925E2C5FF408F
:100AB000F1D531251601430E7CE5A80960DA51B560
:100AC00004D89C2EC6DA0DF62DCF4FFFEB2323184A
:100AD00026CFADB88EF12BB10F240180F71A9343C6
:100AE000ED18630D76ABC12AF0E10086AB7737C213
:100AF00000EE516EFF9CFE9A640C5BE534158F8A04
:100B00001FFB28BD3FB701803D3C98102F893B5FFC
:100B10007A1E210FC8AA7F0A9B746950D891F26D82
:100B200048019135465CDA65BA911269CA9EEA00BD
:100B3000329C76DA3FF146E792E256018A77B94273
:100B40006619D60FAD2CE0EE7503C0FDCBC2B1B770
:100B50007EFF75B5FAF1ECC3D6FC1F02AFDE191BA0
:100B6000C02C40F4C5B454A79AC7ADBC30F80C14DF
:100B700037DBA71B58CF0B2A3AD501806D1863F7D6
:100B8000BB45663B742879A5C0288313A2E7B83219
:100B90000B43A1E576234FC85199C608201F229E1A
:100BA000E42D01802053952EF21979BD582C9B1607
:100BB0004118E516735287A9C9DFDC23A205016934
:100BC00002C43523E916DC10283B75156E900CD055
:100BD00021C64CE42FF0358A4BD423DA28C52845AA
:100BE000F8DB64477F1B108C9705C64190AC39B188
:100BF000E55041403AC38D3213F6C7A6EAEDE10154
:100C000034D03CFCB19A1B1C05424D4237FA9E057C
:100C100036A63FC03FEC84B2A2ABB731D6310180DB
:100C20002C1368194D59E545EB5B75E95638A83426
:100C3000CFA3E7915C0E6B145ACD4E0AEEFDE9147A
:100C400018CB983210382BC3580567078A29F768E4
:100C5000761116DF0449D0CE9ADE21ED85B279F106
:100C600096B97DFE95008CED37AA0180AC1E090671
:100C700051AAE51458B6A406124D2349A6B5271764
:100C8000922E3001DC5849E220E770CFEC06C01804
:100C900032F273C7F6CCD7FFCDB6D8F9BB1E54CF0E
:100CA000014CF9CBE006001DE7AAF46094F30D05B2
:100CB000DFC1B8BCFAA3E82E351157DBC7DDE0D59C
:100CC0001B4CDF011CF76D2F01F7E0CD7A3B83FF52
:100CD000FF7F9FF4BC348A06AE4ED194E9648796B8
:100CE0007D7FE404468633260BE4A18434CE2A0EAD
:100CF000FB6AC6D596513311A104481ADBA5D48DE1
:100D0000D7D40180F2BF520689A506C752E72DF05D
:100D10002DB49A06B8EC4927340669BBB6D06BFEF1
:100D20004BAAC10A4DF64B358220CC6679FB829ADC
:100D3000663D2BA31FED86D3BE029E02452E5C2688
:100D400083101A3A05E3C2242F16BE2D22D62FF7A0
:100D500041DCB9F0D9E629E82FC418EC5709AF01F6
:100D600084CD6CCBA7ECB8F8F0FEFF7F080660DA04
:100D700068047EF43D1EA9CF49E6400E9A0E6FFA34
:100D8000700E59E481475BDC6045EB10D60BF6161C
:100D9000BFF2FE537287C02E88E65736F2FAD3CBE5
:100DA0009DED15410DA218AAAADECBCC202EB65679
:100DB000B9ED5475B2C53BB3D9C1C5A23AA1BE883D
:100DC0005A89241D144A76743F691AF4841472AE49
:100DD0004F2D0180483826131B23B02A61C00F6AAB
:100DE0009005F50BCB10A011934832F7A74EA4D273
:100DF000B74893C3091B473EEF02D1EB27EDCD1354
:100E0000500EF7FC1121C020FFD6041B2EF076CE29
:100E1000CB17A2C56DCC10DF37CA3907C0FE2F47EC
:100E20006508263C4DEB19C36395018080CD3ADE01
:100E3000AA09D21A0F74C81D12CEFB91DA949DA88C
:100E4000202C0A4FFF7FBAD176F48ED477FFF62E8E
:100E5000C9FCC60689127C369DD3C4A88422AEEE96
:100E6000B9BD703D5401B8EA2EB9C1EC9A8348214E
:100E70003202C7587209B20BDA27526FDEBA5757DF
:100E8000C723679EF03243A8CCD69CC1F4A6166750
:100E9000028B7341328A12F0CF070D5DA2D0AD25CF
:100EA0004714044DC8070331EEB00BA5A274A0A0EF
:100EB000B8E92EF0FF7FB6E35A9CD2DE8443DF33DD
:100EC000496C34E5A83DD384A632243C7054F1B477
:100ED0000EDDAB1FFDA2E19714824F07BD08D3F0D2
:100EE00013F52A09E4DDB5F0E51AC6BB276B70A936
:100EF00000F67E9179F601801F017CF39D111B297C
:100F0000E4084A89A816A7AEA2F8DE56591A987ABC
:100F100086B864CA29DE1813850CDE49F9DB48421D
:100F2000C6C89ACA102DE5F29921D10136181C378E
:100F300077020C0BF930F935180032293E9EA713C1
:100F40000180452E70F295D4373610012CEF55D123
:100F5000060167024C0D7FDCD2E685DC2A2D55D1D7
:100F60005506E4281239F5EB0305D6F8C0188A09AE
:100F70007DEA2CEF0639FCF1A8118CF7DB1C3AF066
:100F8000B3FB5910ECD0F7CEEBF38C2AC3345BD70C
:100F90001AFA11E520C48F4CA04944EE413173F98F
:100FA000802761D9F2F2793CA22C6A05AB0DFB1DBA
:100FB000D52E85F2760F6F2C31110708D136F9093D
:100FC00067D83252F4EB70001127A4CD0EF7782CBD
:100FD000EA9C5DFA018008E29585DBD2EC28485F47
:100FE000154BD24AEC3766ACFA949605FF7F97070B
:100FF00068F483A42ABD1898EC6B0AEAEC88760E94
:10100000C80959EF40307D483E81BD9886F9088374
:101010008F850277BFF55CBDC4D1C4963069C6E246
:1010200037B4C699C94E5EEDD7F1DEDCB6D63716B9
:10103000F44BE7CEBD03F8C554CDF86A1EF3FF7F2D
:1010400035EB2EB378C07131ECADBB135A0AE7FD16
:10105000FF2F10D6D82BDD8790CBAB3BA40672FCBC
:1010600069E4FBB8002D56DDDFEBFD14B9374AC843
:101070000CE03E40C438A7C0BAA3A9FF1031DAEE95
:10108000800643CF810146E0DE09B21C3412F41120
:1010900034FA7DE499CD24066BFF42F89E0529645D
:1010A0004AD10361ACF5D0F92119F94DB305FF7FA1
:1010B0007E06D257AED17FEF5EE9FC2B8A06DE1C9E
:1010C000E4E63D13530E5EE82B16AACE37FDDBCCCB
:1010D0008519D8D05B4D17550B8574FCF6E2F6B335
:1010E000A833E7EB376DD2AEEC37ED8CA7BA8304AB
:1010F0002362FA3F2B91070A35AF48019D8F9DD59A
:101100009E54A98401804913710DF1E3EB6C92ADFB
:10111000EDACB79A86E390DAEA4B61F41525C4C5C5
:10112000DF640069828754DA4E936C3614906FC383
:10113000FF7FAC85845ED20A6F66FDBE2454750FB6
:10114000DA096F573C86D298B77B13B3AAA3BDF9CF
:10115000FFD679EE2CAA392EC591600AC14A9D1896
:101160000511BD1279DA99E7FBC977A92DBCA37ED9
:1011700090EAE02C9758FEF516BB35A94ECE2630E6
:10118000668E88EF50330E6E9828AD1A595C553E26
:10119000A32D2DD6D493DDE289E7E8092AF189361B
:1011A000A55950C90180CBBA75BF774CFDA850F343
:1011B00069E321AE253DCFC706F928A165F22B13BF
:1011C00083FA99CD13280DDD37B5869C6DE39180A8
:1011D000F699633EBA12113E151E34BEF7C72B3E78
:1011E00026FF33BEA16432BDD6FFD93D33A585BEEF
:1011F00084BC1EBDCC5F01BE826FDABD7959133E3F
:10120000392510BEF2D007BE05E1CABECD2204BE0C
:101210005E9ECEBC6D7218BEDAC504BE6EDC223E88
:1012200046B3F23D5C59823D46CDB7BEA7EB09BE41
:10123000BD370637ACC5A7368BE1EA368BE1EA3617
:10124000931A5A378BE1EA36399B8E378BE16A372E
:101250008BE16A379C53C9369C53C936ACC52737D6
:101260009C53C9368BE1EA36ACC527379C53C93647
:10127000BD370637A48C3837ACC5A7369C53C93662
:10128000BD370637ACC5A7369C53C9369C53C93603
:10129000770D0A1484360EA08C20E50835F5032559
:1012A0008AB6763F0406D1B8F10117030020932ACD
:1012B00022EAC93BD2F445F5F5154E1A6BD7C4F4B2
:1012C000552E97DF020A0CF0FF11CB3031E26CDCB7
:1012D0006CFD1604619833C1D5232CFD40F286AF16
:1012E0001BB9FF7F49FE372651DC9FF2242A11FEED
:1012F00010DAB0C42C5539FD5247FD450D0E8D2531
:10130000DA22B506E15B3C5BCD1C1DF6D560F1AB86
:101310003E5A161E5A45E2E387AFE206C7D0FF38B1
:10132000303D3B97140336D2DE5C28B5E925D13D2C
:101330003D4AAE67E02520A2FA26E30925020930DE
:10134000CC990180C769C62BEB461A460EBD9ED1CB
:1013500062DBC0FA783BD9E9383D6DFC79C2D6E949
:10136000B135822EA61752BB0180F4D6D52730E1C5
:101370006F4E081CA8E2B824B4C56E01E7E2D5A3FD
:10138000510C1316A9D1DD2E2FD4C7AC04C623DC13
:10139000E8F63DF1812EF4BC461453012E14EE11F3
:1013A000BB36AA0766C1ABE38E11AF1AB300723D1C
:1013B000275277EEA002D90E45F99E3DFAD938257D
:1013C00054CF48C053F0F29A8F2C571667F9AC00EF
:1013D000018033FCB9FAC04B82FB51ED5100C4D9F6
:1013E000E1F307C66BEFB7CD1A5D122874F77BBB2C
:1013F0005D00AFEADD5B79C9B0230CBEB3D783DFF4
:10140000E74831239EB60703DFD7E2BBC709351B88
:10141000DED80180BCFF8DEB24E5FEFEC4F96FF23F
:10142000DD15A4EE42F4780DFF14F42A13FF071C17
:10143000F520A40BB81682D4CDEED4D4CC0D78D63A
:1014400054DE9EEA5ACC0F007BF464DE8C103EE53D
:10145000FAEE9B217431F1FA7C05DFE99E05BEF3BB
:10146000CBB086A64CD66EB79B198E0030EC1FDD34
:10147000F2F6F2E1D8C45C32E5ED0A44A025DEF6CE
:10148000DB0FE121730062CD0180E0CE0BFE42BE96
:10149000C6BB18DB994BF838291E34150FE75513D6
:1014A000C7CA68DC2B0104F297C4C40A291B9DCF6C
:1014B000D24311F7FA45A001C6FD520A44CFDCF928
:1014C000C85C4D177F01ED0A9C3A68E75ED79F0C18
:1014D0007E0D991753F84D06F715C80EA8F5710A39
:1014E000C40143E44F014AEF631C431DBE06601E66
:1014F00007F7C016421D7A062BE357FCE9F62D07C5
:1015000030E182075BEB44F504F195E9D5F5D6E7C8
:1015100094184516ED164BE6F108D8ECBAE51FDB3A
:101520008FEC01803EE096F13137BD118CF241E93C
:1015300077CE018092EFE805110D9DF0FAF632E7C3
:1015400079DFB708FCE9FFF6A4241EED23E4070FBA
:1015500067E6BD0825EDAAFD5D1A74BD6604712617
:10156000F61E6521CDECDEFAFE1F83E1DCDC3BD309
:1015700063F85C1B6B22711F1D1ABA094A241510EF
:10158000D3BB37F0A40D80EE8C1374E83F05031B2A
:10159000CAFFCCC6FFFC971E6615C20601802CEA66
:1015A00005203F1B461754A0F31F7CFA9D1D5B25A9
:1015B0002A0A6AE8CF25F0EBFE223ADF5CF3FA084C
:1015C000F8ED111121D9D9DF4B1F98FAB5FDBEE016
:1015D0009D1DFCF23CFB59F4E8D982E311ED19E6BC
:1015E000130F9605EBF01B02EB1CECF111F260FA05
:1015F000A3C4DB19E2498F12F4579BD618DF5DDADA
:1016000062A057C1C8A3D0C033FC4FE15BBA3C59BC
:101610005FF88D19F94642C8F303AB02CA6236017E
:10162000D949A3B399BCE84DA9E5E7308F12F5D1AC
:10163000FF7F1F591CB702C6EAF5FDCE434A2DDBDA
:101640005FECFCA3C22188A551DDF73A16C10E4D0F
:101650002609C00A6FBCCDB25FA3EC356E58CDE44D
:101660009657F2E02E10730946BE4222B228D5FCEE
:10167000FAE030238D3E2912DFE00F194100DB36FE
:10168000000EEE034AEDF337F4E86B2CC63B2EB7A1
:101690000CEDCFAF01805B12CC1ABBF7CC59E4A79D
:1016A000DEBBF8469300B52D322D7ADB95CE1F08B0
:1016B00098E4FEA01B1F1AE8222FAD2202E139F8A0
:1016C00034D036E2AB137E48BDE25E2D4C08A6FC5A
:1016D0005A323AF90D3696EE3021CDC241E21ED192
:1016E0001A2E6F19650F00C40FF4BDEE56CD050616
:1016F000C5BE67346D04C114AE1220D38C1D0180A9
:101700009AB7683165E7F2EE732B7C083EFACD2B71
:101710006F9F03FB67456EF4A5BE431AF6B220C95E
:10172000F94012E589CC02FA87E731C1DCBB259E7E
:101730007EEECEBEB307DCD4DF8C97BC54B284CA35
:10174000DAFC9EA962A7B04B8BE250D319E863364E
:10175000C89C6ECA0180A7F8BAC642B12246E09D75
:101760006835179A27F23EFC17D3EC5C57BA66FA35
:10177000CE9D11DC3743F80D5C0988D885C2E2059F
:1017800057350DD76ADB72BA11EA140D61C7DE0B4B
:101790000180DBF22B1A83CB31497CB3310FFEC0C1
:1017A000900C544E893BC21C69079133A0FD431134
:1017B00036E3CC45D0FFFFD7679D47D84A1C93F44A
:1017C000D21C50EE971CA74D3040E7287A21FCBC74
:1017D000521FA230732373E030142DE10180E41A0C
:1017E0005D19EF18A8C989C495D6F02EF22E1E15E2
:1017F00096033D1B6B2191DCC611B21BAA2109BEC9
:1018000044298C32EEEA15310A0311B705DE8BFF4D
:1018100031088DEA2C1A3A0F1295E1E56B0008C7E2
:10182000DE31350869DA7BF19A0932E1EA230ED913
:10183000B8D8AC33CEAAF7444BD787E5F1EBC0DB81
:101840007DDA7BAD3E216007CB6BAE45A1540D2305
:10185000FE393C4EDF4FD4B66BF500C9AE03032012
:101860006F54EC0BBEF7DFBF59D720FF4FCC62CDD2
:10187000E31549CD018014476408B9C8761D1137B6
:1018800083A0EB1C3A16D21023362DC3BD3453CCA3
:101890000180551E14DC97F8B1247FC1DFD27F1977
:1018A0004B41F6F4BC3414983ED724CD45478A1DED
:1018B00045968631A8BF1809D0C7B6F989186414AF
:1018C0002E1162C3A0BC89FEA4CB4EBD6B52710425
:1018D000AEC2D82097470CDE9EF38CD1F219C5F624
:1018E000CE451B45C4F0D51153F5F814D4F0730A56
:1018F0008509E73D7DCE76C552DE4933FCC177CF01
:1019000093E4880CF1EF61BDAFFCE5F22C062D03EA
:10191000AF11681A282C8BEAC2CC152078DCC2F9EA
:1019200087F9D1EE8200DB196433EC24ADF5C612E1
:1019300096F8D3DD01807A1B43C81227BF12F7380F
:10194000354BC1282417D2DAB5368CE32CF6C91DE5
:101950005E2E102F5EDFEF2F3BB5CA3F96BF6ED5D0
:101960006D552419B1D40D035FD07D5372A1655913
:101970004849222DB5F7CB415A424651925386C76A
:10198000D73F7F30E6D3AF3148F359D0B5DE8BFE79
:10199000E81628BC331B376718844CBAAAFA01AA88
:1019A000FF7FD6800041D5D6F28948CABEA0B6E8EE
:1019B000E60EDF068F444A5C623ABB2476FCE532D1
:1019C0002EC4C82FAA2C41D633F310B9F2ADED05C1
:1019D00024DBFAE6F81C31EADFA11553BFA46AFE46
:1019E00031484D4601F995AAAEE92EE3FE0AE139E8
:1019F000A298D8BC9183353B6F199D5C2D1376ADB1
:101A0000813DFF7F293A6101AA2CC5C7AC3F4DC17A
:101A1000E4BF64FD1A176A22F6CD84E49A1B1E08FF
:101A2000F62215E095367B0B15151E0B4BE74BE4A4
:101A30006F1B55E9C9D8441C9DE4A028F33F4AED2B
:101A4000E4EF66BE64FDE03C564646F1A8214F43F4
:101A50004FF3B7DE0180951B2739463DE6DCF32BBB
:101A6000728D08E63B2861C826CA882206D72F2334
:101A70009AC196D95DE30180EBF4343476C451CB3E
:101A80006403861326E2638253D98FEE8826255F8E
:101A9000A2F905138F3D59D1BFDA31219A4C00E0EC
:101AA00052ADBA3CEF9A7A3510236B0ACD8E63DAC9
:101AB000A02D5952D09B685F319D78BFABD1541C8B
:101AC00068346E22CAC46BD5C1F25457DEEBA9ABA1
:101AD000ECDB056A511AA6A89B3B4FDF018080E929
:101AE000EB10EB4BA4FB819DCC3CABCEDCF745D39C
:101AF0008C088B2BE81CA6F52D896D9573A3A3C4C8
:101B0000781AC6054F2BAEAC33B0E79215E17110D1
:101B1000FD96AF53F491F5535294C135245625E305
:101B20002193C4CBE1AECBEA56CA0158E7C102D932
:101B3000B7E80180754C2915534E8AA941D8A9E20E
:101B40003F15F0B89424A208F1D077B3A82ED6D9C7
:101B5000164D4F26211BABEE23C78BDEC3B298CAAE
:101B6000D4C72937E6038F32D221D2DC59361DFE85
:101B7000D1ED6A24765A504B72A98B50A0430A7457
:101B8000C254F4E0AB4337397B013BEECD45CE4741
:101B900080D852BCACC993BD64CE533EEAB228BED5
:101BA000189835BEACC5A736ACC527378BE1EA36E9
:101BB0009C534937ACC5A73622E52ED98A828C02C0
:101BC000AFE86A519BCAE0D887073F12F0F701805F
:101BD0005CEA2248A6F2BF48793AF6C00CE4F2303B
:101BE0005018CAA246E20DCB79DAC1F4CBDB15C995
:101BF000E4EBFE42F6B449D301808D0AA0D356DC53
:101C0000F9B0771DEEFC6E0CA9F39A0A5E06A62FBA
:101C1000F0F53609E664E9FDC1BC492087BA64F7EE
:101C200029BBAD30E71CDF9E1CF2672866DAEED5D3
:101C30007DC7CE9A70C0A7C933B70180A1DADBBADD
:101C4000F7E69A1FA30F67BAF84075E821D54AFF57
:101C5000CD2417074FFE8F9F623BE00EDFBF2DF5AF
:101C60001BF1C8BC04D3FDF19026C4BBFD0ED10806
:101C7000C5B60180BB317B0A920F0180F5C5CC51FE
:101C8000F3C61338CE0DAB962803E71D76EE008F12
:101C9000BE86AED20FF0FC227866A3E42BB4826736
:101CA000020C76FBB047CD14821611241FBECFEF75
:101CB000D8E0DEBFCDBF11E0A0E0B1E0E6E0F5E3A3
:101CC00002C005900D92AA32B107D9F724E0AAE22A
:101CD000B1E001C01D92A633B207E1F71EE0C5E5F1
:101CE000DEE004C02197FE010E94651AC435D107C9
:101CF000C9F70E94C1100C94811A0C9400003FB7E0
:101D0000F8948091910390919203A0919303B091E4
:101D1000940326B5A89B05C02F3F19F00196A11D7D
:101D2000B11D3FBFBA2FA92F982F8827BC01CD0125
:101D3000620F711D811D911D42E0660F771F881F84
:101D4000991F4A95D1F70895AF92BF92CF92DF9233
:101D5000EF92FF920F931F93CF93DF936C017B0160
:101D60008B01040F151FEB015E01AE18BF08C017F1
:101D7000D10759F06991D601ED91FC910190F08164
:101D8000E02DC6010995892B79F7C501DF91CF9127
:101D90001F910F91FF90EF90DF90CF90BF90AF9089
:101DA0000895FC01538D448D252F30E0842F90E061
:101DB000821B930B541710F0CF9608950197089546
:101DC000FC01918D828D981761F0A28DAE0FBF2F0F
:101DD000B11D5D968C91928D9F5F9F73928F90E065
:101DE00008958FEF9FEF0895FC01918D828D9817D4
:101DF00031F0828DE80FF11D858D90E008958FEF11
:101E00009FEF0895FC01918D228D892F90E0805CD9
:101E10009F4F821B91098F739927089585E993E05D
:101E20000E94020F21E0892B09F420E0822F0895FF
:101E300080E090E0892B29F00E940E0F81110C9414
:101E400000000895FC01A48DA80FB92FB11DA35A5D
:101E5000BF4F2C91848D90E001968F739927848FCA
:101E6000A689B7892C93A089B1898C9183708064ED
:101E70008C93938D848D981306C00288F389E02D8E
:101E800080818F7D80830895EF92FF920F931F933F
:101E9000CF93DF93EC0181E0888F9B8D8C8D98131D
:101EA0001AC0E889F989808185FF15C09FB7F89429
:101EB000EE89FF896083E889F98980818370806475
:101EC00080839FBF81E090E0DF91CF911F910F91C0
:101ED000FF90EF900895F62E0B8D10E00F5F1F4FCF
:101EE0000F731127E02E8C8D8E110CC00FB607FCDE
:101EF000FACFE889F989808185FFF5CFCE010E946C
:101F0000220FF1CFEB8DEC0FFD2FF11DE35AFF4FA8
:101F1000F0829FB7F8940B8FEA89FB8980818062F9
:101F2000CFCF682F85E993E00C94440FCF93DF93D4
:101F3000EC01888D8823B9F0AA89BB89E889F989E1
:101F40008C9185FD03C0808186FD0DC00FB607FC16
:101F5000F7CF8C9185FFF2CF808185FFEDCFCE0149
:101F60000E94220FE9CFDF91CF910895FC010190EB
:101F70000020E9F73197AF01481B590BBC0185E9F7
:101F800093E00C94A40E8F929F92AF92BF920F9306
:101F90001F93CF93DF93CDB7DEB7A1970FB6F89419
:101FA000DEBF0FBECDBF19A2423008F44AE08E0159
:101FB0000F5D1F4F842E912CB12CA12CA5019401F3
:101FC0000E94061AE62FB901CA01EA30F4F4E05D76
:101FD000D801EE938D01232B242B252B79F790E04C
:101FE00080E0109719F0CD010E94B60FA1960FB6B0
:101FF000F894DEBF0FBECDBFDF91CF911F910F913F
:10200000BF90AF909F908F900895E95CE1CFCF9300
:10201000DF9300D000D0CDB7DEB744E050E0BC0184
:10202000CE0101960E94CD1669817A818B819C81B7
:102030000F900F900F900F90DF91CF9108951F9206
:102040000F920FB60F9211242F933F938F939F936C
:10205000AF93BF9380918D0390918E03A0918F03D6
:10206000B091900330918C0323E0230F2D3758F566
:102070000196A11DB11D20938C0380938D03909335
:102080008E03A0938F03B09390038091910390915E
:102090009203A0919303B09194030196A11DB11DE9
:1020A0008093910390939203A0939303B09394032E
:1020B000BF91AF919F918F913F912F910F900FBE44
:1020C0000F901F90189526E8230F0296A11DB11DB1
:1020D000D2CF1F920F920FB60F9211242F933F93DE
:1020E0004F935F936F937F938F939F93AF93BF9320
:1020F000EF93FF9385E993E00E94220FFF91EF9108
:10210000BF91AF919F918F917F916F915F914F910F
:102110003F912F910F900FBE0F901F9018951F9217
:102120000F920FB60F9211242F938F939F93EF93DB
:10213000FF93E091A503F091A6038081E091AB03AA
:10214000F091AC0382FD1BC090818091AE038F5F44
:102150008F732091AF03821741F0E091AE03F0E05E
:10216000EB56FC4F958F8093AE03FF91EF919F91BB
:102170008F912F910F900FBE0F901F901895808117
:10218000F4CFCF93DF93CDB7DEB72C970FB6F8948B
:10219000DEBF0FBECDBF789484B5826084BD84B5A8
:1021A000816084BD85B5826085BD85B5816085BD52
:1021B00080916E00816080936E001092810080910A
:1021C0008100826080938100809181008160809392
:1021D0008100809180008160809380008091B100B7
:1021E00084608093B1008091B00081608093B000E2
:1021F00080917A00846080937A0080917A00826076
:1022000080937A0080917A00816080937A00809137
:102210007A00806880937A001092C100E091A50353
:10222000F091A60382E08083E091A103F091A203E4
:102230001082E091A303F091A40380E180831092C7
:10224000AD03E091A903F091AA0386E08083E091B9
:10225000A703F091A803808180618083E091A703A8
:10226000F091A803808188608083E091A703F091BA
:10227000A803808180688083E091A703F091A80380
:1022800080818F7D8083E0913204F0913304309718
:1022900011F4E6E3F4E09E012F5131098DECE217D1
:1022A000F30710F48193FBCF2FB7F89480918D033F
:1022B00090918E03A0918F03B09190032FBF8093D4
:1022C000810390938203A0938303B093840383E1FB
:1022D00091E00E94B60F8AE191E00E94B60F9E0144
:1022E0002F5F3F4F3C832B8385E993E00E94020FD1
:1022F0009A878987892BE9F185E993E00E94E00EAE
:102300008C33A9F4109262039FB7F89440918D0327
:1023100050918E0360918F03709190039FBF409303
:102320002A0150932B0160932C0170932D01E091B1
:102330006203EF3E68F491E09E0F90936203F0E039
:10234000EE58FD4F8083E92FF0E0EE58FD4F1082EC
:102350008E3311F08A3041F66EE370E082E792E04E
:102360000E946B1A892B09F4BFCF31E030938B03A5
:10237000BBCF80916203882301F12FB7F89480913D
:102380008D0390918E03A0918F03B09190032FBF86
:1023900040912A0150912B0160912C0170912D01E7
:1023A000841B950BA60BB70B853F9140A105B1058A
:1023B00020F0109262031092720280918B038823A6
:1023C00009F41FC410928B036CE370E082E792E083
:1023D0000E946B1A8C016EE370E082E792E00E942B
:1023E0006B1A0115110509F408C4009709F405C416
:1023F0000817190708F001C40F5F1F4F801B910BCE
:1024000003970CF4FAC36CE270E0C8010E94761ADC
:102410007C01009709F4F1C30817190709F4EDC30B
:1024200001960E94AF165C01F70110823EE1832EF7
:1024300032E0932EF12CE12C0115110509F4D8C3DB
:10244000FAE2EF16F10409F0B8C3EEE1F2E060E061
:1024500070E0CB01219131918901330F220B330BB5
:10246000600F711F821F931F22E0E237F20791F77E
:1024700024E630E040E050E00E94281A8501BB0CC1
:10248000220B330B601771078207930709F0B5C35E
:102490000E947F0E2B013C0120E5222E21E0322EEE
:1024A00080E990E09E838D83EEE2F1E0F887EF8390
:1024B00010E000E09EE1A92E92E0B92E50E040E04D
:1024C000C12CD12C7601F501A191B1915F01FA01E6
:1024D000E00FF11FEE0FFF1FE05FFD4F25913491DC
:1024E0000E94471AC60ED71EE81EF91E4F5F5F4FA7
:1024F0004A32510541F7C1010E9407104B015C01AE
:10250000C701B6010E943418A50194010E948619E2
:102510006B017C018D819E810E9407109B01AC01A3
:10252000C701B6010E94DF166B017C0120E030E09C
:10253000A9010E940B1970E060E0181684F420E0F5
:102540003EEF4FEF56E4C701B6010E944B176FEF05
:102550007FE787FF04C0C701B6010E94FC17EF8127
:10256000F88561937193F887EF83F4E02F0E311CA7
:102570002D813E812C5F3F4F3E832D83065D1F4F93
:10258000003E37E0130709F095CF0E947F0E6419D3
:102590007509860997096093730370937403809398
:1025A0007503909376030E947F0E2B013C01E0E3BC
:1025B0002E2EE2E13E2E80ED91E19E838D83EEE8AA
:1025C000F1E0F887EF8310E000E07EE2A72E71E0F3
:1025D000B72E50E040E0C12CD12C7601F501A1913D
:1025E000B1915F01FA01E00FF11FEE0FFF1FE057FD
:1025F000FD4E259134910E94471AC60ED71EE81E43
:10260000F91E4F5F5F4F4033510541F7C1010E94F2
:1026100007104B015C01C701B6010E943418A501E7
:1026200094010E9486196B017C018D819E810E941C
:1026300007109B01AC01C701B6010E94DF166B01B8
:102640007C0120E030E0A9010E940B1970E060E0FD
:10265000181684F420E03EEF4FEF56E4C701B601B0
:102660000E944B176FEF7FE787FF04C0C701B601D9
:102670000E94FC17EF81F88561937193F887EF83CF
:10268000F4E02F0E311C2D813E812C5F3F4F3E83A5
:102690002D83005D1F4F003834E0130709F095CFFC
:1026A0000E947F0E641975098609970960936F036C
:1026B0007093700380937103909372030E947F0E56
:1026C0002B013C0154EA252E5BE1352E80E99BE18C
:1026D00098878F83EEEBF1E0FE83ED83FC87EB8739
:1026E00010E000E04EE8A42E41E0B42E50E040E0BF
:1026F000C12CD12C7601F501A191B1915F01FA01B4
:10270000E00FF11FEE0FFF1FE854F44E25913491B6
:102710000E94471AC60ED71EE81EF91E4F5F5F4F74
:102720004831510541F7C1010E9407104B015C017E
:10273000C701B6010E943418A50194010E948619B0
:102740006B017C018F8198850E9407109B01AC0171
:10275000C701B6010E94DF16EB85FC85619371937A
:1027600081939193FC87EB87F4E02F0E311C2F812E
:1027700038852C5F3F4F38872F83085E1F4F0837FF
:10278000110509F0AFCF0E947F0EAB01BC014419C7
:1027900055096609770940936B0350936C03609366
:1027A0006D0370936E038091730390917403A091F5
:1027B0007503B091760300916F031091700320911F
:1027C000710330917203800F911FA21FB31F840FFA
:1027D000951FA61FB71F8093770390937803A0934C
:1027E0007903B0937A030E947F0E2B013C01209065
:1027F000BE013090BF01C090C001D090C10182ECF9
:1028000091E098878F837C01F70181909190A1904E
:10281000B1907F019101A601C501B4010E940B197D
:10282000181614F4140165012EE132E02E153F054F
:1028300059F70EEB11E0812C912C5401F8016191B4
:102840007191819191918F019101A6010E94DE16F3
:102850000E94CA179B01AC01F80134972083318391
:1028600042835383C501B4010E94DF164B015C0112
:10287000E016F10619F7ED81FE8161917191819168
:102880009191FE83ED837F01F4E0EF1AF108A50139
:1028900094010E945017F7016083718382839383B0
:1028A0002D813E810217130731F70E947F0E6419B4
:1028B000750986099709609367037093680380938D
:1028C000690390936A0301E010E0EF81F88561915C
:1028D000719181919191F887EF83E985FA85EE0FE7
:1028E000FF1FEE0FFF1FE254FE4F20813181428116
:1028F00053810E940B19181614F41A8709870F5F69
:102900001F4F0530110509F7E985FA85EE0FFF1F06
:10291000EE0FFF1FE254FE4F20E030E048EC52E49F
:1029200060817181828193810E9486196093630323
:1029300070936403809365039093660389858F5B2E
:10294000809300018091870390918803A09189036F
:10295000B0918A030196A11DB11D809387039093C6
:102960008803A0938903B0938A03E0913204F09125
:102970003304309711F4E6E3F4E0EF3F28E0F20788
:1029800038F49F012F5F3F4F80818D3C09F446C191
:102990008FEF98E08E1B9F0B9093860380938503A7
:1029A0008FB7F894C0908D03D0908E03E0908F0382
:1029B000F09090038FBF8091810390918203A0914A
:1029C0008303B091840346015701881A990AAA0A21
:1029D000BB0A38EE831633E09306A104B10408F471
:1029E00044C060918703709188038091890390911E
:1029F0008A030E94321820E030E04AE754E40E9443
:102A000086192B013C01C501B4010E9432189B01BB
:102A1000AC01C301B2010E94501760937D03709313
:102A20007E0380937F03909380031092870310921C
:102A300088031092890310928A03C0928103D09276
:102A40008203E0928303F092840380913204909198
:102A50003304009711F486E394E0EB81FC81E81BDA
:102A6000F90BF0937C03E0937B038BE70E94910FBB
:102A7000809100010E94910F8CE20E94910F609161
:102A80007703709178038091790390917A034AE0FB
:102A90000E94C30F8CE20E94910F609173037091AA
:102AA000740380917503909176034AE00E94C30FEE
:102AB0008CE20E94910F60916F037091700380917E
:102AC0007103909172034AE00E94C30F8CE20E944E
:102AD000910F60916B0370916C0380916D039091E5
:102AE0006E034AE00E94C30F8CE20E94910F609136
:102AF0006703709168038091690390916A034AE0CB
:102B00000E94C30F8CE20E94910FC0906303D0908B
:102B10006403E0906503F0906603A7019601C70186
:102B2000B6010E94F319882309F47AC08DE191E07F
:102B30000E94B60F8CE20E94910F60917D0370910C
:102B40007E0380917F03909180030E94FC176B01AC
:102B5000770FEE08FF084AE0C701B601F7FE0BC089
:102B60008DE20E94910F66277727CB016C197D09B2
:102B70008E099F094AE00E94C30F8CE20E94910FC8
:102B800060917B0370917C0390E080E04AE00E94BA
:102B9000C30F8CE20E94910F6091850370918603B0
:102BA00090E080E04AE00E94C30F8DE70E94910F01
:102BB0008AE191E00E94B60F20C06CE270E0C8018B
:102BC0000E946B1A6C01009711F0FC011082FFEF5C
:102BD000EF1AFF0AC8010E94AF16F4018193919386
:102BE0004F01C114D10421F086010F5F1F4F24CC87
:102BF000FAE2EF16F10409F428CC10926203109265
:102C0000720220E030E0232B09F46ECB0E940E0FFD
:102C1000882309F469CB0E94000066CBF901ADCE90
:102C200046015701E894B7F82FEF3FEF4FE75FE712
:102C3000C501B4010E94F31981110DC02FEF3FEFC0
:102C40004FE75FE7C501B4010E944B1718161CF44B
:102C500081E291E06DCF2FEF3FEF4FE75FE4C701D7
:102C6000B6010E940B1918161CF485E291E060CFA2
:102C70002FEF3FEF4FE75FECC701B6010E944B1704
:102C800087FDF3CF20E030E0A901C701B6010E9423
:102C90004B1787FF07C08DE20E94910FF7FAF0945F
:102CA000F7F8F0942DEC3CEC4CE45DE3C701B60181
:102CB0000E94DF164B015C010E9403186B017C012E
:102CC0000E9432189B01AC01C501B4010E94DE16BE
:102CD0004B015C014AE0C701B6010E94C30F8EE2BE
:102CE0000E94910F20E030E040E251E4C501B401C0
:102CF0000E9486190E94031890E080E04AE00E943A
:102D0000C30F18CFE5E9F3E01382128288EE93E057
:102D1000A0E0B0E084839583A683B78385E091E04B
:102D20009183808385EC90E09587848784EC90E0A4
:102D30009787868780EC90E0918B808B81EC90E088
:102D4000938B828B82EC90E0958B848B86EC90E069
:102D5000978B868B118E128E138E148E0895FC0124
:102D600088279927E89421912032E9F3293010F03F
:102D70002E30C8F32B3241F02D3239F4689404C060
:102D80000E94D616820F911D219120532A30C0F344
:102D90001EF4909581959F4F0895FB01DC0102C0C0
:102DA00005900D9241505040D8F708957AE0979FD2
:102DB000902D879F802D910D112408955058BB2789
:102DC000AA270E94F6160C94D1180E94C31838F056
:102DD0000E94CA1820F039F49F3F19F426F40C948D
:102DE00099180EF4E095E7FB0C949318E92F0E94D4
:102DF000E21858F3BA17620773078407950720F0A3
:102E000079F4A6F50C9404190EF4E0950B2EBA2F64
:102E1000A02D0B01B90190010C01CA01A0011124E0
:102E2000FF27591B99F0593F50F4503E68F11A168C
:102E3000F040A22F232F342F4427585FF3CF46951D
:102E400037952795A795F0405395C9F77EF41F163F
:102E5000BA0B620B730B840BBAF09150A1F0FF0F09
:102E6000BB1F661F771F881FC2F70EC0BA0F621FF5
:102E7000731F841F48F4879577956795B795F795E5
:102E80009E3F08F0B0CF9395880F08F09927EE0F7A
:102E90009795879508950E946F1808F481E008952A
:102EA0000E9464170C94D1180E94CA1858F00E940E
:102EB000C31840F029F45F3F29F00C949318511186
:102EC0000C9405190C9499180E94E21868F3992340
:102ED000B1F3552391F3951B550BBB27AA27621716
:102EE0007307840738F09F5F5F4F220F331F441F23
:102EF000AA1FA9F335D00E2E3AF0E0E832D0915057
:102F00005040E695001CCAF72BD0FE2F29D0660F43
:102F1000771F881FBB1F261737074807AB07B0E886
:102F200009F0BB0B802DBF01FF2793585F4F3AF08C
:102F30009E3F510578F00C9493180C9405195F3F4F
:102F4000E4F3983ED4F3869577956795B795F79512
:102F50009F5FC9F7880F911D9695879597F90895FA
:102F6000E1E0660F771F881FBB1F62177307840796
:102F7000BA0720F0621B730B840BBA0BEE1F88F7A5
:102F8000E095089529F416F00C9493180C94041904
:102F90000C9499180E94EA18A8F39638A0F707F83D
:102FA0000F92E8942BE33AEA48EB5FE70E949C1902
:102FB0000F920F920F924DB75EB70F920E94521967
:102FC000E8E6F0E00E949C184F915F91EF91FF912D
:102FD000E595EE1FFF1F49F0FE57E0684427EE0F0E
:102FE000441FFA95E1F74195550B0E941C190F906B
:102FF00007FE0C94101908950E9403186894B111EB
:103000000C94051908950E94EA1888F09F5798F0CB
:10301000B92F9927B751B0F0E1F0660F771F881FDD
:10302000991F1AF0BA95C9F714C0B13091F00E94F7
:103030000419B1E008950C940419672F782F88279C
:10304000B85F39F0B93FCCF3869577956795B3951E
:10305000D9F73EF490958095709561957F4F8F4F8D
:103060009F4F0895E89409C097FB3EF49095809592
:10307000709561957F4F8F4F9F4F9923A9F0F92F3E
:1030800096E9BB279395F695879577956795B795BC
:10309000F111F8CFFAF4BB0F11F460FF1BC06F5FA2
:1030A0007F4F8F4F9F4F16C0882311F096E911C0B4
:1030B000772321F09EE8872F762F05C0662371F0D5
:1030C00096E8862F70E060E02AF09A95660F771FE9
:1030D000881FDAF7880F9695879597F90895990FC5
:1030E0000008550FAA0BE0E8FEEF16161706E807D2
:1030F000F907C0F012161306E407F50798F0621BF3
:10310000730B840B950B39F40A2661F0232B242BC7
:10311000252B21F408950A2609F4A140A6958FEFE6
:10312000811D811D089597F99F6780E870E060E038
:1031300008959FEF80EC0895DF93CF931F930F9333
:10314000FF92EF92DF927B018C01689406C0DA2E29
:10315000EF010E949919FE01E894A59125913591FE
:1031600045915591A6F3EF010E94F616FE019701D5
:10317000A801DA9469F7DF90EF90FF900F911F910B
:10318000CF91DF91089500240A94161617061806A9
:103190000906089500240A9412161306140605065B
:1031A0000895092E0394000C11F4882352F0BB0FEC
:1031B00040F4BF2B11F460FF04C06F5F7F4F8F4F4F
:1031C0009F4F089557FD9058440F551F59F05F3F8A
:1031D00071F04795880F97FB991F61F09F3F79F039
:1031E00087950895121613061406551FF2CF4695BB
:1031F000F1DF08C0161617061806991FF1CF86953D
:103200007105610508940895E894BB276627772720
:10321000CB0197F908950E946F1808F48FEF089575
:103220009B01AC0160E070E080E89FE30C945017D4
:103230000C9493180C94F8190E94EA18D8F3992367
:10324000C9F3940F511DA3F39150504094F059F0DD
:10325000882332F0660F771F881F91505040C1F7C6
:103260009E3F51052CF7880F911D9695879597F9EC
:1032700008955F3FACF0983E9CF0BB27869577950C
:103280006795B79508F4B1609395C1F7BB0F58F7F0
:1032900011F460FFE8CF6F5F7F4F8F4F9F4FE3CFF9
:1032A0000C940519FA01DC01AA0FBB1F9B01AC01AC
:1032B000BF5728F4222733274427507820C0B7511E
:1032C00090F4AB2F0024469537952795011CA395C4
:1032D000D2F3002071F0220F331F441FB395DAF3AD
:1032E0000ED00C94DE1661307105A0E88A07B9464D
:1032F00030F49B01AC0166277727882790783096B9
:1033000021F0208331834283538308950E949919C9
:103310000C94D1180E94C31838F00E94CA1820F0EB
:10332000952311F00C9493180C94991811240C9473
:1033300005190E94E21870F3959FC1F3950F50E0B4
:10334000551F629FF001729FBB27F00DB11D639F57
:10335000AA27F00DB11DAA1F649F6627B00DA11DFD
:10336000661F829F2227B00DA11D621F739FB00DA3
:10337000A11D621F839FA00D611D221F749F332713
:10338000A00D611D231F849F600D211D822F762FAC
:103390006A2F11249F5750409AF0F1F088234AF089
:1033A000EE0FFF1FBB1F661F771F881F91505040F5
:1033B000A9F79E3F510580F00C9493180C940519C1
:1033C0005F3FE4F3983ED4F3869577956795B7957C
:1033D000F795E7959F5FC1F7FE2B880F911D969596
:1033E000879597F908950E946F18880B990B089597
:1033F0009F3F31F0915020F4879577956795B79569
:10340000880F911D9695879597F90895A1E21A2E38
:10341000AA1BBB1BFD010DC0AA1FBB1FEE1FFF1F78
:10342000A217B307E407F50720F0A21BB30BE40BC8
:10343000F50B661F771F881F991F1A9469F760950F
:103440007095809590959B01AC01BD01CF010895C9
:10345000052E97FB1EF400940E943F1A57FD07D0DB
:103460000E94061A07FC03D04EF40C943F1A5095A4
:103470004095309521953F4F4F4F5F4F0895909560
:103480008095709561957F4F8F4F9F4F08950E9453
:103490004F1A332312F48A1B9B0B0C94601AA29FC1
:1034A000B001B39FC001A39F700D811D1124911D18
:1034B000B29F700D811D1124911D08950E944F1A15
:1034C000B7FF0895821B930B0895EE0FFF1F059021
:1034D000F491E02D0994FC018191861721F0882355
:1034E000D9F7992708953197CF010895FC0181E01C
:1034F00090E00190061609F4CF010020D1F7019762
:063500000895F894FFCFCE
:103506003F00000000440FA40ED10E960F020FE0FC
:103516000EF40E7B626F6F747D000D0A006E616E95
:0A35260000696E66006F7666000013
:00000001FF
