:100000000C94010E0C94290E0C94290E0C94290EBC
:100010000C94290E0C94290E0C94290E0C94290E84
:100020000C94290E0C94290E0C94290E0C94290E74
:100030000C94290E0C94290E0C94290E0C94290E64
:100040000C943A1C0C94290E0C94AA1C0C94841C3D
:100050000C94290E0C94290E0C94290E0C94290E44
:100060000C94DC1C0C94290E07634236B79BD8A76E
:100070001A39685618AEBAAB558C1D3CB7CC5763CD
:10008000BD6DEDFD753EF6177231BF000000803F7B
:1000900000000000003E5B4F5B3E3E6B4F6B3E1C22
:1000A0003E7C3E1C183C7E3C181C577D571C1C5E39
:1000B0007F5E1C00183C1800FFE7C3E7FF00182410
:1000C0001800FFE7DBE7FF30483A060E26297929BA
:1000D00026407F050507407F05253F5A3CE73C5AEF
:1000E0007F3E1C1C08081C1C3E7F14227F22145FCC
:1000F0005F005F5F06097F017F006689956A606027
:1001000060606094A2FFA29408047E040810207E20
:10011000201008082A1C08081C2A08081E101010A5
:10012000100C1E0C1E0C30383E3830060E3E0E06EB
:10013000000000000000005F00000007000700143E
:100140007F147F14242A7F2A1223130864623649FD
:100150005620500008070300001C224100004122E5
:100160001C002A1C7F1C2A08083E080800807030EA
:100170000008080808080000606000201008040259
:100180003E5149453E00427F40007249494946215F
:1001900041494D331814127F1027454545393C4AD3
:1001A00049493141211109073649494936464949EA
:1001B000291E000014000000403400000008142232
:1001C00041141414141400412214080201590906A0
:1001D0003E415D594E7C1211127C7F494949363EA1
:1001E000414141227F4141413E7F494949417F0987
:1001F0000909013E414151737F0808087F00417F92
:1002000041002040413F017F081422417F4040408F
:10021000407F021C027F7F0408107F3E4141413E27
:100220007F090909063E4151215E7F0919294626A9
:100230004949493203017F01033F4040403F1F20AD
:1002400040201F3F4038403F631408146303047884
:1002500004036159494D43007F41414102040810A4
:1002600020004141417F04020102044040404040DF
:10027000000307080020545478407F28444438384D
:1002800044444428384444287F38545454180008BF
:100290007E090218A4A49C787F0804047800447D99
:1002A00040002040403D007F1028440000417F4036
:1002B000007C047804787C0804047838444444388A
:1002C000FC1824241818242418FC7C08040408486A
:1002D0005454542404043F44243C4040207C1C20BB
:1002E00040201C3C4030403C44281028444C909016
:1002F000907C4464544C4400083641000000770070
:1003000000004136080002010204023C2623263C7C
:100310001EA1A161123A4040207A38545455592107
:1003200055557941225454784221555478402054EF
:100330005579400C1E52721239555555593954543D
:10034000545939555454580000457C410002457DAC
:10035000420001457C407D1211127DF0282528F0D5
:100360007C545545002054547C547C0A097F493202
:10037000494949323A4444443A324A4848303A4179
:1003800041217A3A42402078009DA0A07D3D424222
:10039000423D3D4040403D3C24FF2424487E4943AB
:1003A000662B2FFC2F2BFF0929F620C0887E09031E
:1003B00020545479410000447D413048484A323845
:1003C0004040227A007A0A0A727D0D19317D262971
:1003D000292F28262929292630484D402038080869
:1003E000080808080808382F10C8ACBA2F1028349D
:1003F000FA00007B000008142A142222142A140890
:100400005500550055AA55AA55AAFF55FF55FF009E
:100410000000FF00101010FF00141414FF00101053
:10042000FF00FF1010F010F0141414FC001414F767
:1004300000FF0000FF00FF1414F404FC1414171054
:100440001F10101F101F1414141F00101010F000A4
:100450000000001F101010101F10101010F01000DE
:100460000000FF101010101010101010FF100000EE
:1004700000FF140000FF00FF00001F10170000FC29
:1004800004F414141710171414F404F40000FF00FB
:10049000F714141414141414F700F7141414171484
:1004A00010101F101F141414F4141010F010F0008A
:1004B000001F101F0000001F14000000FC140000AB
:1004C000F010F01010FF10FF141414FF141010108F
:1004D0001F00000000F010FFFFFFFFFFF0F0F0F042
:1004E000F0FFFFFF0000000000FFFF0F0F0F0F0FD6
:1004F0003844443844FC4A4A4A347E020206060222
:100500007E027E0263554941633844443C04407E88
:10051000201E2006027E020299A5E7A5991C2A4901
:100520002A1C4C7201724C304A4D4D30304878488C
:1005300030BC625A463D3E494949007E0101017E78
:100540002A2A2A2A2A44445F444440514A444040CB
:10055000444A51400000FF0103E080FF000008080A
:100560006B6B083612362436060F090F060000188A
:10057000180000001010003040FF0101001F0101B1
:100580001E00191D1712003C3C3C3C0000000000FE
:10059000000103070F1F3F7F0080C0E0F0F8FCFE62
:1005A000DB40A4A62EAF2000A1C8D300408DAED55D
:1005B00080A80000600000000000000000000000B3
:1005C000000000E00000000000000000000000004B
:1005D0000001E0000000000000000000000000003A
:1005E00001F0000000000000000000000000000317
:1005F000F00000000000000000000000000007F014
:100600000000000000000000000000000007F800EB
:100610000000000000000000000000000FF80000D3
:100620000003C0007E000001E0007F0FF800000022
:1006300003C000FE000001E000FFEFF8000000032F
:10064000C000FE000001E000FFFFF800000003C052
:1006500000F00000000F007FFE7FC0000003C0001C
:10066000F00000000F003FFE7FF83FF1FBCFFCFEE3
:10067000F3BC3DEFE01FFE7FFF7FFBFFDFFEFEFFD1
:10068000BC3DEFE01FC6FFFF7FFBFFDFFEFEFFBCB0
:100690003DEFE00FE3C7FE787BC3DE1EF0FFBC3DFD
:1006A000EF0007FF87FC787BC3DE1EF0F83C3DEFD0
:1006B0000001FFFFF0007BC3C01EF0F03C3DEF00E7
:1006C00001F37FE03FFBC3CFFEF0F03C3DEF0003C2
:1006D000E33F807FFBC3DFFEF0F03C3DEF0007E728
:1006E0003C00787BC3DE1EF0F03C3DEF0007FFBE10
:1006F00000787BC3DE1EF0F03C3DEF0007FFFE00FC
:10070000787BC3DE1EF0F03C3DEF000FFFFE007F64
:10071000FBFFDFFEF0F03FFDEFE00FFFFF007FFB90
:10072000FFDFFEF0F03FFDEFE00FF9FF003E79F94B
:10073000CF9EF0F01F3DE7E01FF1FF00000000003A
:10074000000000000000001F80FF007FFFFFFFFF90
:10075000FFFFFFFFFFE01C007F007FFFFFFFFEB4F5
:100760006D888D18E000001F007FFFFFFFFE95AD34
:100770007DB577E000000F007FFFFFFFFEA5AD9D78
:100780008D19E0000006007FFFFFFFFEB5ADEDB55F
:100790007EE000000000000180000000000000007A
:1007A0000000038000000000000000000007C000FF
:1007B000000000000000000007C000000000000072
:1007C0000000000FC00000000000000000001FE05B
:1007D0000000000000000000001FE000000000001A
:1007E000000000003FE00000000000000000003FAB
:1007F000F00000000000000000007FF0000000009A
:100800000000001FF87FF0000000000000003FFE25
:100810007FF0000000000000003FFF7FF0000000BC
:10082000000000001FFFFBE0000000000000000FC0
:10083000FFF9FFC00000000000000FFFF9FFF80003
:10084000000000000007FFF1FFFF000000000000B3
:1008500003FC73FFFF80000000000001FE3FFFFF6C
:1008600080000000000000FF1E0FFF0000000000DD
:1008700000007FFE1FFC000000000000003FFFFFA3
:10088000F8000000000000000FDFFFE000000000A3
:100890000000001F19FFC0000000000000003F3CE6
:1008A000FF00000000000000007E7CF80000000057
:1008B000000000007FFE7C0000000000000000FF40
:1008C000FFFC0000000000000000FFFFFE00000031
:1008D0000000000000FFFFFE00000000000000011B
:1008E000FFEFFE0000000000000001FFCFFE00004F
:1008F000000000000003FF07FE00000000000000F1
:1009000003FC07FE0000000000000003F003FE00EF
:10091000000000000000018000FE00000000000058
:10092000000000007E000000000000000000003E0B
:10093000000000000000000000000C0000000000AB
:1009400000078000FC000003C0000000078001FCDD
:10095000000003C0000000078001FC000003C0008D
:100960000000078001E00000001E00000007800179
:10097000E00000001E007FE3F79FF9FDE7787BDFD2
:10098000C0FFF7FFBFFDFDFF787BDFC0FFF7FFBFB4
:10099000FDFDFF787BDFC0F0F787BC3DE1FF787B92
:1009A000DE00F0F787BC3DE1F0787BDE0000F787E2
:1009B000803DE1E0787BDE007FF7879FFDE1E07816
:1009C0007BDE00FFF787BFFDE1E0787BDE00F0F71C
:1009D00087BC3DE1E0787BDE00F0F787BC3DE1E0DD
:1009E000787BDE00F0F787BC3DE1E0787BDE00FF3E
:1009F000F7FFBFFDE1E07FFBDFC0FFF7FFBFFDE1D9
:100A0000E07FFBDFC07CF3F39F3DE1E03E7BCFC0A6
:100A10000000000000000000000000FFFFFFFFFFDB
:100A2000FFFFFFFFFFC0FFFFFFFFFD68DB111A3173
:100A3000C0FFFFFFFFFD2B5AFB6AEFC0FFFFFFFF68
:100A4000FD4B5B3B1A33C0FFFFFFFFFD6B5BDB6AB7
:100A5000FDC0DCD834BFAE492FBF56470040D10798
:100A6000E73F014E1BC00000000000000000000036
:100A70000000000000000000000000000000000076
:100A80000000000000000000000000000000000066
:100A900000009C53C93682A87B37A48C3837BD37F9
:100AA00006378BE1EA36F6C9650B96415AD50180C7
:100AB0008126D203F9AC73E4D81527A3E752626903
:100AC00027A3DCBD46C60180C1F5D56C83C62E3B8D
:100AD000452A05D161F445F70B0AE7B5A4174EC5C1
:100AE000C3EED92020E898052F94F714510A8BE122
:100AF00019F436E8A0D4284937C80180244BE5C54D
:100B00006721250B2BB414F51CCDA741C1E0050EC0
:100B10009A2CE599E8AE49FA86592FDFEEDE70E8A7
:100B20000180F80E094D85926CF68366920937ECC8
:100B3000622E9BED92F66E9101E10180342AC6EAA5
:100B40002C55EDDD043E3EB239BEE529EBBD032454
:100B5000FA3D4ED5BDBDAE6271BCCDB051BDE738DA
:100B6000F7BDAC8EBCBD0B631BBECEFA543D50FE30
:100B7000EE3C2506013E31445EBE55FA493D0CADC2
:100B80006EBE98A3E7BD000000000000000000005A
:100B90000000000000000000000000000000000055
:100BA0000000000000000000000000000000000045
:100BB0000000000000000000000000000000000035
:100BC0000000000000009C53C936B5FE1637A48C07
:100BD0003837B5FE16378BE1EA368BE1EA369C539F
:100BE0004937BD370637ACC5A736ACC5A736B5FE05
:100BF00016378BE1EA36B5FE1637BD3706378BE17F
:100C0000EA36ACC52737833D24D7D98FBA303C4468
:100C100014EB5129281D066DE245FF7F645DDBBEA4
:100C2000EB5CB632A3B7002766F959EBF6D4BCE407
:100C300030FE3A3CC9D8D3BCBFB50F441994D58710
:100C4000485475E8004152FCC4C2EC0855D7ABF6D5
:100C5000B644CBF78DC71DE122EAEE7C38D52D0ACC
:100C60002506013166FE46400180FE34F2E99833E4
:100C70000CFE5E12E7FA81ED62E006CD83EBBE1159
:100C800063CE58603A1BDD31103425FE60D15BF134
:100C90000C2391286F0EAEDC018034EF46DBAF33BE
:100CA00045FBC3C5E5FA263562D678FD7F3DE928C8
:100CB00080AD7DE6EFF33C2DDC9A38F3B9041011DA
:100CC000CFEAEB65C5DF70C1743201800D275FF09C
:100CD0002E2FF6E53DC27AE7AD0D80227CC413F0DD
:100CE0009A05AFC5FAD496FAD7E44C06B32630C4B9
:100CF00036F6B1C16124BE3FDF48B238A4ED03949B
:100D00004FBB6D13F5FE8E0AAFA086AC39D8D74F16
:100D1000BDF20B25E4BC2838F599FC013118D950F7
:100D20005D4772CCCAD0C2C4652AC6E3CEB8C9F347
:100D3000CBDBB2F806B2B25DFB8DA614D7240180DE
:100D4000F227CA14411B70B5B13B3FF898E5533DFB
:100D5000E4D66F54EE06B35ADBD01F6061B87A0454
:100D60008AF554F04A1570A33103BA4844CFD057DE
:100D7000B264FCFF254D48DEFBD590E31D2BF0AFA0
:100D8000F1B70180700FAFF9CAED5BD41A0021FCF6
:100D9000C802BE19A61EF1F70235A1098AEC932CF0
:100DA000F9D0DEF677FF34D8B0DADE022AF24F004F
:100DB000C91451F06CF9D421A5C5CCE85D16B1C5B4
:100DC000E9E90180812029E2D0B4ED02A8BD6141AA
:100DD000BCBB58D2B75A75E516F21F3E09A796005C
:100DE00041486AE7A8868B30A6DF764596AD78D372
:100DF00053F365459C96913BA1BCB4C24C32408AEA
:100E0000641401803C510F8586CD28024B40C78475
:100E1000D7F47561BCA1C61D34D31B8869387A002C
:100E200075897718ECDC1CB8183FDBC84DC1FF7F13
:100E3000BC20F19000A084ADF7B8C5A25B80B1D50D
:100E4000359B6E1DA5036E0FEC57F8B707C5D71A73
:100E50005EC5FD0C238DC95585C60821946F0AB364
:100E6000113CA38E10CCAAFB84F281634DAD90B2ED
:100E70006A2C6D026EC8038119E9EB145F94CFD51B
:100E8000EAB7018098D4B9E05DF21495A2BC90EF66
:100E9000CDFCE11D7EBEDDCB3AD9E18DF4DFF3F868
:100EA00067384A8F910235CFFF7F16C48324160816
:100EB000D30AC9CF5909ECC35D4DCBC5451D881573
:100EC000274A50CD9D36441E63419D0B8717AF1DA9
:100ED00009B460FF69F18C5CA92BDC56A1AA6B4CAC
:100EE00086E3FF7F7C1424BDC79992F3623C145BB8
:100EF000BC1A043A0F293CC041EF1128EFD69C0DD3
:100F00004532E01E4BABC3E6F81794C82DB8A41FBA
:100F100056302341DC0C234698DA8C0F0937C5D6AE
:100F2000750F612ABA22FCF28133DADEEE25112F29
:100F300099EA50150180F50D6D5F12423BA9E20759
:100F400020F61B03DAEA8DBA153E01807036A352F3
:100F5000B7DB3A25903BCF2527DB75E6A1BCC02344
:100F60003EB88D292EE757D060A675402050C2416B
:100F7000C92B84B71E08C4F5A2B4661008DC2ED4B1
:100F8000C7FA805DE4E0A41E44550AC052507ED3E7
:100F90009A50F71C58BBEE0C561A039E97BF932C21
:100FA00092F7D5875F4BB8F6ABFE181994444DBC49
:100FB0000180B4AB44AF995091EF49BDF1FB990763
:100FC00038AEEA07AEA4B4BFF43060DC732ED7D1DC
:100FD0003C410A282BD63D2FA408FF7F043C6C0C13
:100FE00084F9EB0A60FB520D33A794E2F0DFBA23D9
:100FF000C203EAE6F8068D3802D262EE67FEC8F058
:1010000068D8580AEEDA1EFF45BD611CDCBC23A07F
:10101000C2BCAE9E133D0CAD4E3D54FE75BD037B70
:101020000C3EACAAB73D3DEF86BD842E21BDB3CDAD
:101030008D3D4BCDFEBD26AA773DDC7E19BEA1F5C8
:10104000303D755AD7BD29931A3ED89C83BCB53222
:1010500001BEF10EF0BC76A816BE99477EBBE59B9B
:10106000ED3DB51AB2BDA5F78D3C43C9C43D4B203B
:10107000853D618D03BE2D073A3DCFF3273C39EE08
:1010800014BD5B61BABD000000000000000000005C
:101090000000000000000000000000000000000050
:1010A0000000000000000000000000000000ACC5CF
:1010B000A7369C53C9368BE1EA37ACC5A736ACC519
:1010C000A736ACC5A736ACC5A736ACC5A736ACC5E8
:1010D000A736B5FE1637BD370637ACC5A736ACC543
:1010E000A736ACC5A736ACC52737ACC5A737ACC546
:1010F000A73682A87B37BD378636ACC5A736BD3745
:101100008636ACC52737ACC5A736BD370637ACC564
:10111000A736ACC52737ACC5A736B5FE1637931A28
:101120005A37ACC5A736931A5A37ACC5A7367FB71E
:10113000EC0C3FF227A31B65700F50D5FA317BA34F
:1011400060528A2C4AC1D77BE0F713AE38C76602DB
:10115000A480E08CE5AA3EC9967F61998EE2F1CA2F
:10116000A4A89F15DE436D65BF95CA3D5EA3FF7FB2
:10117000BC3E4B0883E3C9F7FA8AF4C54DF45E130D
:10118000F5754842B01121F2E1F6CFAD3CE8CCE76D
:1011900003A8FEBBDBFFFBBD859A1ADD60FBF56192
:1011A0006E31F72DAAD785B04144DB1E6A3D81D54B
:1011B000C12AF72436C3A0609F17CCF452E601EE93
:1011C000E1BA7BCFFF7FD5EE76542EB932B05A5EAE
:1011D00087A6B2278CB33F0C2B0926F16EFD77E46E
:1011E00059FCA20FB4F2A300D0FE680A6C2986FE57
:1011F000252F43FAA90773FF82DFE4F9AF06B1EFA9
:10120000D220151BB2A63518018052F5881AEFF2CC
:1012100010FD8B0818CA4501C9ABA7FEE914AAFD49
:101220007518650E55E760F72EF332F9E012442980
:10123000FF6BEFB0D973D094615662ED5CA46AD9AC
:10124000EE16194149E4D9DB7B47B1D9CD678779DF
:10125000A7672AC80B82B8650E3C8A1721910180C6
:10126000C25315A942CE9CE68A3B52DE19424C9AE3
:1012700064A3253000E7AA16919A67AC657C2D908F
:101280003CC3FF7FFBF7CE721CF06C9955258C2078
:1012900094743AB2BA8F7EF43D67B57443559B9F00
:1012A000B145B08E39E0938F71B2F882CD2127031A
:1012B00090E389CCE6ED246D8A612C892DBA7AE71A
:1012C00036BEF96BD76DA16BAAA2E5740F003B3C4B
:1012D0001F8C35A0284B52CF72BD322C658200B7CF
:1012E00066089CA2C9A589A672B544B5A918B1E73C
:1012F0000CF7430DB75730831BF8009A93B5D47998
:101300009F340180155413526438AFF95588BF9447
:10131000E540E6F87A069D5E87BA81EDDD5F0CE276
:10132000BA9D56EE05F4455A7825F5AC80D7CADD4E
:1013300097E16654A2C8AB4047590ECA7FF1342DDD
:10134000604101809E7427951AFFBD29C38F8A874B
:10135000288A5FFC694F472AD9B023F3A612781078
:1013600009E664BD032A998427AFBA579C5BCC6811
:10137000A3AB1E1796C4953C7B5EB3F4674BF34753
:1013800027F1C615D5891DF55E1BFB198C0193F35A
:1013900095669DF452BF8D10090E69C52E55C8ADD6
:1013A00027AFBA684A8CE8B2F5CE23185857FA6DC1
:1013B000478521D9B89B56E217C7B1FF7D560180FA
:1013C000369C9BB7613B8BDCDD27824C3A97AB4B5D
:1013D000BA3A018009B3B1D104BB5815E35A8099D8
:1013E00022853F5F90C438B0AF12FC007B78734910
:1013F000266506DC473DF904276993C278A64BE5CC
:1014000014019EB64D23EA9B922E2C1790B50BF338
:101410002454A9DBC8977C42315305BCBA71A3F2AE
:10142000D498A1E5F7E2B7FF97FD2A274DE278743B
:10143000AD104B454EAC47E96AEAD1B5FEB3862103
:1014400083C893C5AC389719D851050F5AD74D02A8
:1014500053EB58CAD53BAD14AD24C2B240B648F5E3
:10146000BEA0C45E90863231751F47E0888DA344CC
:10147000E895C95A01808E1E62CAAB2865FBEF5DF4
:1014800054EBC301ABC1BA8EDCDACE7441DC3F56FB
:101490003FC8306FE742341B8331341938C8834C5E
:1014A00011124332F7213928C330B6F0B5D12CE2FE
:1014B00038FDE9C1D6172DD0F0113A0353FADC8874
:1014C0006E108F8301250180640B90B066813C58BB
:1014D00021A01146EFC99F36FAC89962CCD43F8843
:1014E0002DD5A0E0C153B2268E3F7A28D445DC3DED
:1014F0002D811E50C9379BF7A54C7EAAC11117112B
:10150000CBC50BC1F0E8088870F670BF815C4485DC
:1015100031C5734385F20180B66216BC525FF81480
:1015200069413F397D3664972CDBBF170180E9C8DC
:10153000BC9D32E3BECE49911E609A09DCA4E8A3AB
:10154000323E29C52C402998A7E909F88E98EC4726
:1015500081CD4C5D96C379BF4B8DF6EAA207C91EBB
:10156000F7FB1EE94144DB17FF524209CF87463E95
:1015700097EFEFF83DF97B204AF5D13BD40201808B
:10158000F3AD3FF3895100DA5684849D28AB30C116
:1015900074A5EE76A9FB6BA9C321B19CBD8502376A
:1015A00029C7D042EBA2C958CED323AF230FDB4BC0
:1015B000C1578375DB9B27FA275E343754D4D13368
:1015C00053B82C907A94FEC6F1C0D42DBEBBC04D4A
:1015D00021DA28377FB1FF7F0CCC4B077028D40964
:1015E000B865130BAA45B5183124E9234ADD441622
:1015F0004426C701ADFB4FF28DCC390835CD7DDBDC
:101600009A22D70AF52ADBF9983329DE6981A7BC2B
:1016100032BC54D633CBD5F9582FE70A02010CF867
:101620005BFF26FAF6FBA0F7490D48E30B01FDDE50
:10163000610E19F3E31036E3DCF4FD0281F057FF8D
:10164000FA0F5B043D05201AD19E2DEB018097FC1B
:1016500064F342FA8B1B1A1B54027001B61FCF2190
:1016600044FE6604E7FFF70003FB19015B0521C791
:101670006408F3CEBEC647B0E747DA11A82B488B03
:10168000E2F19632C0B62DAAF6B3BDD825DD9CAFE7
:101690002090F34D38481445B6DEFCF80CB549B738
:1016A0003C7787FA7484C28C80B76575F9F0FF7F48
:1016B000A9E392E51B43EB4EA855017E9AF48AF10B
:1016C000BC985D32F8157C0DE112631D352A4C275C
:1016D000FF1C8E41063BB7CEEEDC9E00BC0C3FBE2D
:1016E000B00DBABFBB5B80CB9AE876E998DE5DDED1
:1016F00092AB48E101800D1123F28A0977E5500C85
:1017000066EEB6E6FEFEDDE58A21AFFD9E117112A2
:101710000309C41982FF269CD9F5632FE48F261F85
:101720005FAC79D6B71897023263600E30A9AF5913
:1017300066BC073D19E701800F5914D2E1FC3DF961
:1017400016ECC7DD24ADC03DE935C4C113CB066836
:10175000F5E0ECB3094F22AE9B0EEED572454BB8C7
:10176000B19DD28E6C8D24CAAAEDD5660C864F0B26
:101770003FE3BC5EE58A0CA8506A0CDB988F54AC42
:101780007543F44C198CE7F8EAC7A2398D2DEFACFC
:1017900032880180B6DE68FDBE80FAD514D9DDB18D
:1017A00069D5207A45D3CFFAB6808AB101B1D0236A
:1017B000E16E0FBA70D8DF0EEEADDEF72D37B1A2B5
:1017C000B3CE8A8831EE48224B023EFDB199679430
:1017D000F77FEB2105C4AA4A071244E1D05DD9CCBA
:1017E000DDFE143BD5B398026AB21F38018067BF93
:1017F0007279A2D539DD96D1B818F548ACA8DC8A43
:101800008EC6E5D44AC048E5B0F05456DF35FA9E9E
:10181000454832047320F710392BAAC9BB348BEB2F
:101820008DF7CE88B56A9A380ACB362CCE1D6FF963
:1018300078CF51DF0DAE8210E5A65FF6E2BC252D14
:10184000B80BB8160180B716F30F1C5113088D2979
:10185000B74E51B7C21A6B2E57B57C2CD4E49AC838
:10186000C91CA2CD8F4F1721D89E150CC551B84960
:10187000923E98184655E36AD81EADE84F36ADB68D
:101880009E8DA5B4A22CA5F3BBE76FC8BFDE2CDBF1
:1018900005C09D9AFC1C2007084B0B4AA65FC6B3E7
:1018A0009CE6B095018052218E6BE8ADAC442AA82D
:1018B0005C6488F2B5CC0DCEEEF06435313B2E1B66
:1018C000D209D611EF600180D015A695CE11B625AC
:1018D000FB00343A77E744E0DAF3A5D713CBF31AE9
:1018E000943C9C2320225A1D8E9F70DB4299DE6F10
:1018F00058F47D26CB3344CFD0ED3D32F70965F562
:101900007FB2470E540696CC7CD64AFFB4CE350F34
:101910005EA42ECEC8F137B7548A43D41AB228B386
:1019200060A87BFDB6D05A71044C1DABE4CAF2C668
:10193000E0C0C9C3C4905F8DEAA9613DE268BF45BC
:10194000547C82548501BA6F8D3A1FCA8C45874EEC
:10195000E4EDD5B2FF7F58F013BC49A728B34989FD
:101960000984EB01A4DE381641CFE7F6642238641F
:101970007B25FF7FC8C838B3AB9F04A6A2D425152A
:101980003FF481D8C1CD86F2ABEE78E6F1C9E2CD65
:101990006818D4ED2C1BBDF858054C142EEDA9ED9C
:1019A00007093F327E3554CF3A37F2F482DFE12522
:1019B00092596E7588428978AE18E990793B9CAB54
:1019C0002C1EC210EB3F98480180F5F7701B962A39
:1019D0003609FCE42F1E6599F70F1801353B2F419E
:1019E0003DB12FC503502DC080259E80B961868CE6
:1019F000C7479C4A2138C60A04851711E3A1E0A80D
:101A0000123B90475F8028A04551A415FE2E4A390D
:101A10005A23D5E17D1060AE604B018039434EE61C
:101A200011EAF4320B273AE75B907D1822C5431286
:101A3000BECCDEE082DD9C06EAE090FAF841C539D2
:101A4000AB01F6D2E8E87C006EC35A12BBE53F4119
:101A500080382611FE499CFCACF3FA39B338B8C97A
:101A60006CD9E8C70FFFA51BABE3D72350C74B0AC0
:101A700093D09D0946329A0FC2270D1A8ED63DFA91
:101A8000E685E7CF6B14B9F65028033532DFA4089A
:101A90008E0DBEC14E1D0BE63E3AF9D6A8630E2F41
:101AA000FF7F830A08170BD3B422D2FA9B2155EE8D
:101AB000E94727E06B7E7B878ADA874AA46CA59288
:101AC000577323ED49D8F9E523E36D4B38AAE1FBC1
:101AD00068C6D4C5716583A09D03EA0D5BCAAC2FAF
:101AE000DEE0556C84C22A77C64171BDF280BD5BD1
:101AF0002391B7B869C7428CFF7F478216ACEE12BC
:101B00009F3A8BB1CFA1E2F46F0759E3E8F48AE979
:101B100048AC5A1CB9FFAF4B7F9297EBEE404F2B6E
:101B2000BE1143F978122F3DE2CFE2113107B12601
:101B3000FC4328E5BF44B238018014F4372C580A1E
:101B40000A2DC2FC3D32A5DAA7D4A1E0DAE673B4CF
:101B5000B9F6DFE4972905C7710F0DB7787E1553E5
:101B6000B1BCF7BAAEBBAAC3E45A1E1722CABC92D4
:101B7000C8A0830F32CF72DE6475A80613A5349611
:101B80000D9EC70189DEFF66E39F6D8BD34F8ECD1F
:101B9000BFD216D3F494F368E30412CE2834CB6991
:101BA000E55B630501800B0F9C1167AA566000007E
:101BB000000800020100000304070000000000000C
:101BC000000000000000250028002B00000000009D
:101BD000240027002A00040404040404040402026C
:101BE000020202020303030303030102040810209C
:101BF0004080010204081020010204081020FB1D8F
:101C00005A2611241FBECFEFD8E0DEBFCDBF11E0B2
:101C1000A0E0B1E0E2EFF6E502C005900D92AE362D
:101C2000B107D9F725E0AEE6B1E001C01D92A330BF
:101C3000B207E1F71DE0C0E0DEE004C02197FE013D
:101C40000E94442BCF3FD107C9F70E947E1E0C94FF
:101C50006C2B0C94000090E0FC01E651F44E2491B2
:101C60008A52944EFC018491882399F090E0880F69
:101C7000991FFC01E453F44EA591B491FC01EE537D
:101C8000F44E859194918FB7F894EC91E22BEC93FC
:101C90008FBF0895089590E0FC01E255F44E249121
:101CA000FC01E651F44E3491FC01EA52F44EE49109
:101CB000EE23C9F0222339F0233001F1A8F42130BA
:101CC00019F1223029F1F0E0EE0FFF1FEE53F44E30
:101CD000A591B4918FB7F894EC91611126C030951D
:101CE0003E233C938FBF08952730A9F02830C9F0D8
:101CF000243049F7809180008F7D03C0809180005F
:101D00008F7780938000DFCF84B58F7784BDDBCF62
:101D100084B58F7DFBCF8091B0008F778093B0002A
:101D2000D2CF8091B0008F7DF9CF3E2BDACF3FB775
:101D3000F89480910E0490910F04A0911004B0913A
:101D4000110426B5A89B05C02F3F19F00196A11DCF
:101D5000B11D3FBFBA2FA92F982F8827BC01CD01F5
:101D6000620F711D811D911D42E0660F771F881F54
:101D7000991F4A95D1F708958F929F92AF92BF9283
:101D8000CF92DF92EF92FF924B015C010E94970E7F
:101D90006B017C010E94970E6C197D098E099F09C9
:101DA000683E734081059105A8F321E0821A9108ED
:101DB000A108B10888EEC80E83E0D81EE11CF11C12
:101DC00081149104A104B10429F7FF90EF90DF90F2
:101DD000CF90BF90AF909F908F90089508950895F1
:101DE000AF92BF92CF92DF92EF92FF920F931F9329
:101DF000CF93DF936C017B018B01040F151FEB0167
:101E00005E01AE18BF08C017D10759F06991D6011D
:101E1000ED91FC910190F081E02DC6010995892B8F
:101E200079F7C501DF91CF911F910F91FF90EF904E
:101E3000DF90CF90BF90AF900895FC01538D448DFB
:101E4000252F30E0842F90E0821B930B541710F065
:101E5000CF96089501970895FC01918D828D981772
:101E600061F0A28DAE0FBF2FB11D5D968C91928D4A
:101E70009F5F9F73928F90E008958FEF9FEF08957B
:101E8000FC01918D828D981731F0828DE80FF11D44
:101E9000858D90E008958FEF9FEF0895FC01918D5F
:101EA000228D892F90E0805C9F4F821B91098F7358
:101EB0009927089586E194E00E944E0F21E0892B36
:101EC00009F420E0822F089580E090E0892B29F02A
:101ED0000E945A0F81110C9400000895FC01A48DFA
:101EE000A80FB92FB11DA35ABF4F2C91848D90E03C
:101EF00001968F739927848FA689B7892C93A0891F
:101F0000B1898C91837080648C93938D848D9813A8
:101F100006C00288F389E02D80818F7D808308953B
:101F2000EF92FF920F931F93CF93DF93EC0181E029
:101F3000888F9B8D8C8D98131AC0E889F9898081D0
:101F400085FF15C09FB7F894EE89FF896083E88903
:101F5000F98980818370806480839FBF81E090E0F5
:101F6000DF91CF911F910F91FF90EF900895F62E82
:101F70000B8D10E00F5F1F4F0F731127E02E8C8D1C
:101F80008E110CC00FB607FCFACFE889F989808161
:101F900085FFF5CFCE010E946E0FF1CFEB8DEC0FD8
:101FA000FD2FF11DE35AFF4FF0829FB7F8940B8F7E
:101FB000EA89FB8980818062CFCF682F86E194E037
:101FC0000C94900FCF93DF93EC01888D8823B9F0A8
:101FD000AA89BB89E889F9898C9185FD03C0808134
:101FE00086FD0DC00FB607FCF7CF8C9185FFF2CFB1
:101FF000808185FFEDCFCE010E946E0FE9CFDF918A
:10200000CF910895EF92FF920F931F93CF93DF9399
:10201000EC01EC80FD806E157F050CF070C057FF61
:1020200004C0240F351F50E040E08E819F81FA01EB
:10203000E20FF31F8E179F071CF49C01241B350B26
:10204000121613060CF05BC0922F842F869586958E
:1020500086958E9DD0018F9DB00D11246A0F7B1F38
:10206000AF8DB8A1A60FB71F477049F188E0841B58
:10207000482F682F70E0FB01E856FA4FE4912817CB
:1020800008F063C0621B71092FEF30E002C0359584
:1020900027956A95E2F7E2230130110539F0B0F196
:1020A0000230110561F58C91E82702C08C91E82B74
:1020B000EC93941720F12C813D81A20FB31FE92FDF
:1020C000E41BE83078F00230110521F58E2F9C9149
:1020D00090959C932C813D81A20FB31F885088302E
:1020E000B0F7E770EE2359F0F0E0E057FA4FE491D3
:1020F00001301105F9F010F10230110519F1DF91ED
:10210000CF911F910F91FF90EF900895E0958C91E2
:10211000E823CECF81E00115110509F480E0819517
:102120009E2F8C932C813D81A20FB31F9850983025
:10213000C0F7D7CF8C91E82BEC93E1CFE0958C9151
:10214000E823FACF8C91E827F7CF0130110509F485
:10215000ADCFE0F20230110509F4A5CFAE0DBF1DE1
:10216000AECF0F931F93CF93DF9377FF04C0260F5B
:10217000371F70E060E0DC011496CD91DC91FB012B
:10218000E20FF31FCE17DF071CF49E01261B370B4F
:10219000121613064CF5FA0157FD3796A3E0F59594
:1021A000E795AA95E1F7EC9FD001ED9FB00DFC9F5C
:1021B000B00D11246A0F7B1FDC015F96ED91FC913D
:1021C000E60FF71F4770552781E090E001C0880FA8
:1021D0004A95EAF7482F0130110559F0A8F02E0F63
:1021E0003F1F02301105E1F0DF91CF911F910F9158
:1021F00008952E0F3F1FE217F307B1F38191DF011E
:102200001197842B8C93F7CF80952E0F3F1FE217E9
:10221000F30751F39191DF01119798239C93F7CF26
:10222000E217F30709F38191DF01119784278C935B
:10223000F7CF0F931F93FA01DC0156964C915697F6
:102240004230E9F04330A1F1413061F514964D91EF
:102250005C91DA01AE1BBF0BFD01E21BF30B77FDB6
:102260000BC0DC0116964D915C916417750724F440
:10227000AB01BF010E94B1101F910F9108951496F8
:102280004D915C91DA01A61BB70BBD01615071093C
:10229000DC0116964D915C91DA01AE1BBF0BFD017E
:1022A000E21BF30B77FDE8CFAF010E940210E4CFF1
:1022B00016964D915C91DA01A61BB70BBD016150DA
:1022C0007109CDCF0F931F93FA01DC0156964C9103
:1022D00056974230A9F0433091F1413019F51496E8
:1022E0004D915C91DA01AE1BBF0BFD013197F7FDFB
:1022F00004C0AB01BF010E9402101F910F9108950D
:1023000014964D915C91DA01A61BB70BBD01DC015F
:1023100016964D915C91DA01AE1BBF0BFD01319712
:10232000621B730BF7FDE9CFDC0116964D915C91B2
:10233000E417F50714F7AF010E94B110DECF16962F
:102340004D915C91DA01A61BB70BBD01621B730BAB
:10235000CECFFC0177FD64C0808591856817790731
:102360000CF05EC057FD5CC0828593854817590705
:102370000CF056C086898230B1F0833029F181306B
:1023800041F484819581841B950BAB01BC016150A4
:1023900071092130310509F108F443C022303105BB
:1023A00009F463C0089584819581DC01A61BB70BF5
:1023B000BD016150710986819781DC01A41BB50BB9
:1023C000AD0141505109E5CF86819781861B970B5E
:1023D000BA01AC0141505109DCCFCA0157FD079643
:1023E000A3E095958795AA95E1F7A481B5818A9F89
:1023F00090018B9F300D9A9F300D1124620F731F37
:10240000078CF0A1E02DE60FF71F4770552721E05C
:1024100030E001C0220F4A95EAF78081822B808349
:102420000895CA0157FD079633E0959587953A952B
:10243000E1F7A481B5818A9F90018B9F300D9A9F0F
:10244000300D1124620F731F078CF0A1E02DE60FF1
:10245000F71F4770552781E090E001C0880F4A952B
:10246000EAF7809590818923DACFCA0157FD079654
:1024700023E0959587952A95E1F7A481B5818A9FF8
:1024800090018B9F300D9A9F300D1124620F731FA6
:10249000078CF0A1E02DE60FF71F4770552721E0CC
:1024A00030E001C0220F4A95EAF780818227B7CF3A
:1024B00008958CBD9DBD08950895FC016370668BE1
:1024C0008481958126813781613039F0633029F02C
:1024D0009187808733872287089531872087938764
:1024E000828708952F923F924F925F926F927F92D0
:1024F0008F929F92AF92BF92CF92DF92EF92FF9214
:102500000F931F93CF93DF93CDB7DEB76A970FB6C4
:10251000F894DEBF0FBECDBF9A8F898F7A8369830F
:102520004A01D22E18870F833701BC2CDC01599643
:102530002D913C915A972115310509F015C1189636
:102540008D919C911997681779070CF0D7C11A964D
:102550008D919C91481759070CF0D0C14C2C512CEF
:10256000B6E0CB9E600D711D11247C876B8716161B
:1025700017060CF0C3C1EA2DF0E0FA87E98793E073
:10258000EE0FFF1F9A95E1F7F88BEF87CF01840FCD
:10259000951F181619060CF0B1C1A98DBA8D589661
:1025A0008C91811104C0BFEABD1508F4D394A98DA4
:1025B000BA8DED91FC9111970284F385E02DCD0148
:1025C0000995B5E0DB9EC0011124E981FA81FC8305
:1025D000EB83312C212C9C0120573F4F388F2F8BC0
:1025E0004A2D50E05E8B4D8BEF89F88DE20DF31D87
:1025F00044919E828D82D12CC12C69817A81620D99
:10260000731D7A8B698B842F90E09C8B8B8BE98D6B
:10261000FA8DA081B18140FF82C0F1E0BF126FC08E
:10262000AF126DC01C96ED91FC912F813885A401ED
:102630004C0D5D1D69897A89898D9A8D0995EB8983
:10264000FC89F595E7954E2F5FEFC51AD50A6D8188
:102650007E818D899E89680F791F7E836D8398E0C6
:10266000C916D10481F6AFEF2A1A3A0AEB81FC8130
:10267000E40DF51DFC83EB83F5E02F16310409F022
:10268000B3CF2F81388526153705B9F0A98DBA8DBE
:10269000ED91FC91B1E0BB1257C0AB1255C06981FE
:1026A0007A816B5F7F4F0088F189E02D830128E0FC
:1026B00030E0A401898D9A8D0995A98DBA8DED918F
:1026C000FC9111970688F789E02DCD016A960FB627
:1026D000F894DEBF0FBECDBFDF91CF911F910F9158
:1026E000FF90EF90DF90CF90BF90AF909F908F9032
:1026F0007F906F905F904F903F902F9009941E961F
:10270000ED91FC91EF80F88409851A8592014D8145
:102710005E816B817C81898D9A8D099590CF2F8107
:1027200038852615370509F48ACF31E0B31207C082
:10273000A31205C01C96ED91FC91930178CF1E96D3
:10274000ED91FC917301E0CF6B857C85641975096F
:102750000684F785E02D73010F8518899201A40185
:10276000898D9A8D0995A9CFF90134969491329764
:1027700045915491D91AB7E0DB9E400D511D1124AB
:10278000F901259134913C8B2B8BFA0125903490E3
:10279000FA013296749031963491398B3296649066
:1027A0003196449041E04C1518F04A1508F07FC06E
:1027B000662D062C000C770B7C836B83842D042CF8
:1027C000000C990B9E838D83A98DBA8DED91FC91A0
:1027D00011970284F385E02DCD010995512CD12C60
:1027E000C12CEA2DF0E0FA87E9872B2D30E03C87F9
:1027F0002B87A401440D511D47FC5A95588F4F8BD0
:1028000069817A81660D711D67FC7A957E876D8777
:102810007989C71608F051CF2C2D30E04D815E81AB
:10282000420F531FA985BA854A9FC0014B9F900D47
:102830005A9F900D1124FC01E80DF91DF88BEF87CC
:10284000852D612C4F89588D420F531F5E8B4D8B08
:10285000671408F050C044244394480E877041F434
:10286000C1010196EB89FC89E20DF31DD4901C0196
:10287000D7FE19C0A98DBA8DED91FC91662D70E03F
:10288000B1E0BB1219C0AB1217C02D853E85620F97
:10289000731F0484F585E02D2F8138854D895E896D
:1028A000898D9A8D0995DD0C6394842DD1CF1E827C
:1028B0001D821C821B8288CF4B815C81640F751F37
:1028C000AB85BC856A9FC0016B9F900D7A9F900D70
:1028D000112469817A81680F791F0684F785E02DBC
:1028E000EF80F88409851A859D014F855889898D67
:1028F0009A8D0995D8CF570CC3948ACF6A960FB694
:10290000F894DEBF0FBECDBFDF91CF911F910F9125
:10291000FF90EF90DF90CF90BF90AF909F908F90FF
:102920007F906F905F904F903F902F9008958F927F
:102930009F92AF92CF92EF92FF920F931F93CF93FC
:10294000DF93EC01262F898D9A8D009709F051C0F5
:102950006A30D1F41D861C868D8948E0849F9001E1
:1029600011248E859F85820F931F9F878E8781E01C
:1029700090E0DF91CF911F910F91FF90EF90CF905A
:10298000AF909F908F9008956D3089F3CC88AD887B
:102990008F898823C1F08C859D8536E0C39E800D8C
:1029A000911D1124488559854817590764F44E85AF
:1029B0005F851D861C8638E0A39EC0011124840F0C
:1029C000951F9F878E87EA88FB88088919894E851D
:1029D0005F856C857D85CE010E9472122C898C8565
:1029E0009D8546E0249F800D911D11249D878C8735
:1029F000BECF6A3069F41D861C86FC013896E491CE
:102A00002D898E859F85E29F800D911D1124ADCF6C
:102A10006D3009F4ACCFFC0134963491631708F49F
:102A2000A6CF3296E491E61708F4A1CFFC013296C6
:102A300085909490462F431B342F47E0349F800CA1
:102A4000911C1124F401329634913196E491332390
:102A5000A9F1EE2399F1CC88F4013596E491AD8883
:102A60004F89442301F10E2E000CFF0BE30FF11DE3
:102A7000CE9EA001CF9E500D11246C857D85460F02
:102A8000571F68857985641775076CF44E855F85D7
:102A90001D861C86FC013896E491AE9E400D511DAA
:102AA00011245F874E87EA88FB88088919894E853B
:102AB0005F856C857D85CE010E947212F40134968B
:102AC000E4912C898C859D85E29F800D911D1124B8
:102AD0008DCF6F927F928F929F92AF92BF92CF9243
:102AE000DF92EF92FF920F931F93CF93DF93EC014E
:102AF0006B015A0139014801E881F9810284F385AB
:102B0000E02D0995E881F9810288F389E02D87019C
:102B10009301A501B601CE010995A501480D591DE6
:102B200041505109E881F9810288F389E02D930130
:102B3000B601CE010995E881F9810088F189E02D7F
:102B40009401A501B601CE010995C60CD71CB601AA
:102B500061507109E881F9810088F189E02D9401C3
:102B6000A501CE010995E881F9810688F789E02D54
:102B7000CE01DF91CF911F910F91FF90EF90DF90E9
:102B8000CF90BF90AF909F908F907F906F9009945F
:102B90006F927F928F929F92AF92BF92CF92DF926D
:102BA000EF92FF920F931F93CF93DF935C01EB01A2
:102BB0006A01490138018701DC01ED91FC9162173E
:102BC000730719F5641675062CF0962D872D3A01BA
:102BD000C92ED82E9601261937092F5F3F4F048C36
:102BE000F58DE02DA301BE01C5010995DF91CF91BF
:102BF0001F910F91FF90EF90DF90CF90BF90AF901B
:102C00009F908F907F906F9008954615570591F48F
:102C10002617370724F0892D4B01C22FD82F9E018C
:102C2000281939092F5F3F4F068CF78DE02DA6013B
:102C3000B401DACF0284F385E02D0995D501ED9139
:102C4000FC910488F589E02D83019401A601BE0161
:102C5000C5010995D501ED91FC910688F789E02D14
:102C6000C501DF91CF911F910F91FF90EF90DF9001
:102C7000CF90BF90AF909F908F907F906F9009946E
:102C8000EF92FF920F931F93DC011A960D911C9106
:102C90001B9718962D913C911997ED91FC9100A0EE
:102CA000F1A1E02D7B0150E040E070E060E009958B
:102CB0001F910F91FF90EF9008954F925F926F9246
:102CC0007F928F929F92AF92BF92CF92DF92EF92BC
:102CD000FF920F931F93CF93DF936C012B015A0147
:102CE00039014801DC01ED91FC910284F385E02D6E
:102CF0000995E201640C751CD601ED91FC91C61595
:102D0000D7055CF40088F189E02D87019401A501C5
:102D1000BE01C60109952196EFCF0688F789E02DFF
:102D2000C601DF91CF911F910F91FF90EF90DF903F
:102D3000CF90BF90AF909F908F907F906F905F905B
:102D40004F9009948F929F92AF92BF92CF92DF9251
:102D5000EF92FF920F931F93CF93DF93EC015B01F0
:102D60004A016901E881F9810284F385E02D099522
:102D700095012C0D3D1D21503109E881F981048810
:102D8000F589E02D78018401A401B501CE010995F2
:102D9000E881F9810688F789E02DCE01DF91CF9196
:102DA0001F910F91FF90EF90DF90CF90BF90AF9069
:102DB0009F908F9009948F929F92AF92BF92CF92E3
:102DC000DF92EF92FF920F931F93CF93DF93EC016B
:102DD0005B014A0169017801E881F9810284F38588
:102DE000E02D0995C80CD91C860101501109E88114
:102DF000F9810488F589E02D9501A401B501CE0182
:102E00000995E881F9810688F789E02DCE01DF91E7
:102E1000CF911F910F91FF90EF90DF90CF90BF90D7
:102E2000AF909F908F900994EF92FF920F931F9312
:102E3000DC01ED91FC9100A0F1A1E02D09951F911D
:102E40000F91FF90EF9008950F931F93DC01ED9188
:102E5000FC91068CF78DE02D09951F910F91089537
:102E60000F931F93DC01ED91FC91048CF58DE02D07
:102E700009951F910F910895DC01ED91FC9100845B
:102E8000F185E02D09943F924F925F926F927F926D
:102E90008F929F92AF92BF92CF92DF92EF92FF926A
:102EA0000F931F93CF93DF935C017B014A0169016C
:102EB000390187E0680E711C93E0759467949A95C8
:102EC000E1F72B01400E511E10E000E0312CD0E064
:102ED000C0E0CE0187709927330C892B59F4FE018D
:102EE00083E0F595E7958A95E1F7E00FF11FE80D8E
:102EF000F91D349037FE0AC021E030E0A701B5018A
:102F00006C0F7D1F8FEB94E00E943C172196CC162E
:102F1000DD06F9F68FEFE81AF80A060D171DE4141E
:102F2000F504A9F6DF91CF911F910F91FF90EF90DB
:102F3000DF90CF90BF90AF909F908F907F906F90D9
:102F40005F904F903F9008952F923F924F925F92E3
:102F50006F927F928F929F92AF92BF92CF92DF92A9
:102F6000EF92FF920F931F93CF93DF9300D000D087
:102F700000D0CDB7DEB73C016A013E832D83FC82D1
:102F8000EB825801A41AB50AB7FE03C0B194A1940C
:102F9000B1088D809E80861A970A97FE03C091948F
:102FA000819491088A149B045CF0902F812F0D81ED
:102FB0001E819D838E839C2D8D2D6B01692F782F13
:102FC0000C151D055CF09D818E817E836D83692FBC
:102FD000782F902F812F8601C92ED82E1601201A06
:102FE000310A2B012D813E81421A530A57FE03C03C
:102FF000519441945108710137FE03C03FEFE31A29
:10300000F30AF594E7948D819E81861797075CF506
:10301000A1E0B0E0BA83A983C016D1064CF1D30178
:10302000ED91FC910484F585E02D2B813C81A80174
:103030006D817E818A149B041CF04D815E81B801F4
:10304000C3010995E418F508F7FE0AC02D813E81F9
:1030500089819A81280F391F3E832D83E20CF31C4E
:103060000F5F1F4FD9CF2FEF3FEF3A832983D4CF84
:1030700026960FB6F894DEBF0FBECDBFDF91CF917D
:103080001F910F91FF90EF90DF90CF90BF90AF9086
:103090009F908F907F906F905F904F903F902F9078
:1030A000089508952091D401260F3327331F21322C
:1030B0003105ECF42091F801FC0190E080E024302F
:1030C00069F082E00895A091D4012191AC014C54A3
:1030D0005E4FA40FB52FB11D2C930196861798F360
:1030E0008091D401680F6093D40180E0089581E05D
:1030F00008951092F80181E08093FA011092F9018D
:1031000061E082E10E944B0E61E083E10E944B0E80
:10311000E9EBF0E080818E7F808380818D7F8083EA
:1031200088E48093B80085E48093BC000895CF9331
:10313000DF9391E09093B3018823B9F0C091B80078
:10314000D091BA008091BC008A7B8093BC0060E083
:1031500082E10E944B0E60E083E10E944B0E0E94D0
:103160007918D093BA00C093B800DF91CF91089539
:10317000E091240280912302E81730F4F0E0E25756
:10318000FE4F808190E008958FEF9FEF089590911A
:103190002402809123022FEF3FEF981748F4E92F84
:1031A000F0E0E257FE4F208130E09F5F90932402D1
:1031B000C90108958091230290912402891B990BE3
:1031C0000895CF92DF92EF92FF920F931F93CF93C8
:1031D000DF937C01CB018A0120911504222389F021
:1031E000EB016B01C40ED51ECC15DD0569F06991AC
:1031F000D701ED91FC910190F081E02DC701099577
:10320000F3CF642F0E945218C801DF91CF911F9114
:103210000F91FF90EF90DF90CF900895CF93DF93C1
:103220001F92CDB7DEB76983209115042223F9F0F0
:1032300020911204203258F021E030E0FC01338369
:10324000228390E080E00F90DF91CF9108958091EC
:103250001304E82FF0E0E259FE4F998190838F5FCD
:10326000809313048093120481E090E0ECCF61E03E
:10327000CE0101960E945218F7CFCF92DF92EF92C3
:10328000FF920F931F93CF93DF93D091120481E0AD
:10329000D13208F09CC0C09114040E94970E6B01BB
:1032A0007C018091F80181116CC082E08093F8016B
:1032B00081E08093FA018FEF8093F70110921C0256
:1032C000D0931B02AEE6B1E0EBEFF1E080E0D81363
:1032D0008DC010921D0280911D02CC0FC82BC0938F
:1032E0001D028091F901813009F084C01092F9012A
:1032F0000E94970E6B017C0180911D028093BB00A0
:103300008091AF019091B001A091B101B091B20153
:10331000892B8A2B8B2BA1F00E94970E0091AF0175
:103320001091B0012091B1013091B2016C197D0969
:103330008E099F09061717072807390708F442C0A6
:103340008091BC0083FDD8CF85EC8093BC000E94A7
:10335000970E6B017C018091F801823009F44CC01A
:103360008091F7018F3F09F469C08091F7018032A5
:1033700009F466C08091F701803309F463C084E0EA
:1033800026C08091AF019091B001A091B101B091A0
:10339000B201892B8A2B8B2B09F483CF0E94970EC5
:1033A0000091AF011091B0012091B1013091B201B3
:1033B0006C197D098E099F09061717072807390719
:1033C00008F06FCF8091AE010E94971885E01092AF
:1033D00013041092120410921504DF91CF911F91E3
:1033E0000F91FF90EF90DF90CF9008959D91919372
:1033F0008F5F6DCF85EEA9CF8091AF019091B00125
:10340000A091B101B091B201892B8A2B8B2B09F4C9
:10341000A2CF0E94970E0091AF011091B0012091B0
:10342000B1013091B2016C197D098E099F0906170F
:1034300017072807390708F08ECFC4CF80E0C7CF21
:1034400082E0C5CF83E0C3CFEF92FF920F931F932B
:10345000CF93DF937C01C62F8091DC049091DD0433
:10346000009709F459C02091E00431E0309315042D
:10347000209314041092130410921204DC01ED91B5
:10348000FC910190F081E02D60E009958701EE2428
:10349000E394F12CD1E0C1508091DC049091DD04E3
:1034A000CF3F91F1B0E2EB16F104D8F00E943D1944
:1034B0008091DC049091DD042091E004D093150408
:1034C000209314041092130410921204DC01ED9165
:1034D000FC910190F081E02D60E00995EE24E394E9
:1034E000F12C8091DC049091DD04F8016491DC0101
:1034F000ED91FC910190F081E02D0995BFEFEB1A61
:10350000FB0A0F5F1F4FC7CFDF91CF911F910F9124
:10351000FF90EF900C943D19E091EC04F091ED04D4
:1035200090818091F204809589238083F701C150B6
:1035300008F43AC044918091DA049091DB04892B1D
:1035400041F04EBD00000DB407FEFDCF8EB53196A3
:10355000EECF28E030E090E8A091E804B091E904D3
:103560008091F004542F5923D9F05C91852B8C93D2
:10357000A091EA04B091EB048C915091F104852B59
:103580008C93A091EA04B091EB045C918091F104DA
:10359000809585238C93969521503109E9F6D7CFF4
:1035A0005C9180958523E3CFDF91CF911F910F919F
:1035B000FF90EF9008951F93CF93DF93EC018D8DD3
:1035C0009E8D009721F1162F29A131E0309315042B
:1035D000209314041092130410921204DC01ED9154
:1035E000FC910190F081E02D60E009958D8D9E8D1C
:1035F000DC01ED91FC910190F081E02D612F0995A6
:103600008D8D9E8DDF91CF911F910C943D19ADA5AD
:10361000BEA59C918BA9809589238C938B8D9C8DC5
:10362000892B51F06EBD00000DB407FEFDCF8EB5A5
:10363000DF91CF911F91089528E030E090E8A9A58F
:10364000BAA589A9462F4923A9F04C91842B8C93C4
:10365000ABA5BCA58C914AA9842B8C93ABA5BCA52A
:103660004C918AA9809584238C9396952150310999
:1036700031F7DECF4C9180958423E9CF1F93CF9310
:10368000DF93EC01162F8D8D9E8D892BB1F12DA925
:103690003EA94FA958AD60E074E284EF90E00E942B
:1036A000E52A205131094109510956954795379529
:1036B00027952093B80066EA111167EACE010E94AF
:1036C000DB1A8D8D9E8D892B41F129AD3AAD4BAD25
:1036D0005CAD60E074E284EF90E00E94E52A205146
:1036E00031094109510956954795379527952093FA
:1036F000B800DF91CF911F9108958B8D9C8D892B00
:1037000021F08EAD9FAD0E945912EFA5F8A99081CE
:103710008CA9809589238083CECFEFA5F8A98081DD
:103720009CA9892B8083E5CF90E080E00895FC017F
:1037300001900020E9F73197AF01481B590BBC01FC
:1037400086E194E00C94F00E8F929F92AF92BF921C
:103750000F931F93CF93DF93CDB7DEB7A1970FB62B
:10376000F894DEBF0FBECDBF19A2423008F44AE084
:103770008E010F5D1F4F842E912CB12CA12CA50121
:1037800094010E94E52AE62FB901CA01EA30F4F457
:10379000E05DD801EE938D01232B242B252B79F7A7
:1037A00090E080E0109719F0CD010E94971BA19640
:1037B0000FB6F894DEBF0FBECDBFDF91CF911F9142
:1037C0000F91BF90AF909F908F900895E95CE1CFEB
:1037D0000E944A2B85ED8093BC008091AF019091AF
:1037E000B001A091B101B091B2010796A11DB11D28
:1037F00023E0B695A795979587952A95D1F72091BF
:10380000BC0024FD03C01092F80108954091AF015F
:103810005091B0016091B1017091B201452B462BDE
:10382000472B69F30097A105B10541F02AE22A95DB
:10383000F1F700C00197A109B109E1CF8091AE0174
:103840000C949718CF93DF9300D000D0CDB7DEB79C
:1038500044E050E0BC01CE0101960E94AC27698192
:103860007A818B819C810F900F900F900F90DF9148
:10387000CF9108951F920F920FB60F9211242F939C
:103880003F938F939F93AF93BF9380910A0490913E
:103890000B04A0910C04B0910D043091090423E0B5
:1038A000230F2D3758F50196A11DB11D2093090452
:1038B00080930A0490930B04A0930C04B0930D041E
:1038C00080910E0490910F04A0911004B091110406
:1038D0000196A11DB11D80930E0490930F04A09337
:1038E0001004B0931104BF91AF919F918F913F91BC
:1038F0002F910F900FBE0F901F90189526E8230F61
:103900000296A11DB11DD2CF1F920F920FB60F923A
:1039100011242F933F934F935F936F937F938F93D4
:103920009F93AF93BF93EF93FF9386E194E00E9440
:103930006E0FFF91EF91BF91AF919F918F917F910A
:103940006F915F914F913F912F910F900FBE0F900C
:103950001F9018951F920F920FB60F9211242F935C
:103960008F939F93EF93FF93E0912604F0912704A8
:103970008081E0912C04F0912D0482FD1BC0908188
:1039800080912F048F5F8F7320913004821741F054
:10399000E0912F04F0E0EA5EFB4F958F80932F04B7
:1039A000FF91EF919F918F912F910F900FBE0F90EC
:1039B0001F9018958081F4CF1F920F920FB60F922F
:1039C00011242F933F934F935F936F937F938F9324
:1039D0009F93AF93BF93EF93FF938091B900887F3C
:1039E000803609F44AC0F0F5883209F4A7C018F50A
:1039F000803109F49BC0B8F4882309F4F9C08830F9
:103A000009F494C0FF91EF91BF91AF919F918F9175
:103A10007F916F915F914F913F912F910F900FBECA
:103A20000F901F901895883109F488C0803251F7A3
:103A30008093F70114C0803409F49DC040F48033B2
:103A4000B9F38833F9F68093F70185ECB0C080357F
:103A500009F485C0883509F496C0883499F60E9427
:103A6000EA1BD0CF883909F48CC038F5883729F0A3
:103A700050F4883611F0803729F683E08093F801FE
:103A80001092F60157C0883809F47BC0803919F0CC
:103A9000803809F0B7CF8091F601803208F071C00C
:103AA000E091F60181E08E0F8093F6018091BB00DA
:103AB000F0E0EA52FE4F80833DC0803B39F0E0F4F5
:103AC000803A09F479C0883A09F09CCF84E0809369
:103AD000F8011092D5011092D401E0912102F091E9
:103AE000220209958091D40181110FC081E0809359
:103AF000D4011092B40109C0803C09F4A6CF883CDF
:103B000009F4A3CF883B09F07DCFE091D50181E096
:103B10008E0F8093D501F0E0EC54FE4F80818093AE
:103B2000BB009091D5018091D40129C080911D02E4
:103B30008093BB0085EC8093BC0064CF90911C0205
:103B400080911B02981758F5E0911C0281E08E0FBE
:103B500080931C02F0E0E550FE4F8081E9CFE091B8
:103B60001C0281E08E0F80931C028091BB00F0E06C
:103B7000E550FE4F808390911C0280911B029817A4
:103B8000C8F285E8D8CFE0911C0281E08E0F8093C7
:103B90001C028091BB00F0E0E550FE4F80838091D5
:103BA000FA0181115CCF81E08093F90184EA80936E
:103BB000BC001092F80126CF85EC8093BC001092D7
:103BC000F8018091F601803230F4E091F601F0E0E6
:103BD000EA52FE4F10826091F60170E0E0911F0200
:103BE000F091200286ED91E009951092F6010ACF3E
:103BF0001092F70134CFE6E1F4E01382128248EE2E
:103C000053E060E070E044835583668377838BE004
:103C100091E09183808385EC90E09587848784ECA4
:103C200090E09787868780EC90E0918B808B81EC89
:103C300090E0938B828B82EC90E0958B848B86EC6A
:103C400090E0978B868B118E128E138E148EA3EBC1
:103C5000B4E013961C921E92129714964D935D93A6
:103C60006D937C9317978DE191E011969C938E93C1
:103C7000EFEBF4E01382128220E830E035832483F6
:103C800080E490E0978386833187208793878287BB
:103C9000168A158614861786168681E0858B848B96
:103CA0002FEF3FEF338B228B318B208B878B108E46
:103CB000128E118E8FE291E091838083148E138E89
:103CC000B68FA58F10A2178E8FEF84A385A386A32E
:103CD00087A380A780E89AE1A6E0B0E085AB96AB29
:103CE000A7ABB0AF80EA96E8A1E0B0E081AF92AFB9
:103CF000A3AFB4AF80E586AF17AE0895CF93DF933F
:103D0000CDB7DEB762970FB6F894DEBF0FBECDBF5A
:103D1000789484B5826084BD84B5816084BD85B5A6
:103D2000826085BD85B5816085BD80916E008160B2
:103D300080936E0010928100809181008260809358
:103D4000810080918100816080938100809180005A
:103D50008160809380008091B10084608093B10085
:103D60008091B00081608093B00080917A0084607F
:103D700080937A0080917A00826080937A008091AB
:103D80007A00816080937A0080917A0080688093C5
:103D90007A001092C100E0912604F091270482E09D
:103DA0008083E0912204F09123041082E0912404A6
:103DB000F091250480E1808310922E04E0912A0482
:103DC000F0912B0486E08083E0912804F09129048F
:103DD000808180618083E0912804F09129048081B2
:103DE00088608083E0912804F091290480818068B4
:103DF0008083E0912804F091290480818F7D808365
:103E00008091DE049091DF04892B09F440C0209159
:103E1000C5043091C604C901079697FD079613E0C3
:103E2000959587951A95E1F72091C3043091C404C4
:103E3000829FA001839F500D929F500D112470E02E
:103E400060E08091DE049091DF040E944F2B20916E
:103E5000C5043091C6048091C3049091C4042132FA
:103E600031050CF09BC0B9016052710977FF02C0A7
:103E70006F5F7F4F759567958357910997FD019601
:103E800000E210E023E730E042EB55E09AC02091D9
:103E9000C5043091C604C901079697FD0796B3E0A3
:103EA00095958795BA95E1F72091C3043091C404A4
:103EB000AC01429FC001439F900D529F900D112471
:103EC0000E9469269093DF048093DE04892B09F019
:103ED0009ECF2FB7F89480910A0490910B04A09183
:103EE0000C04B0910D042FBF8093F1029093F20265
:103EF000A093F302B093F40287E591E00E94971B30
:103F00008EE591E00E94971BCE0101969C838B83E6
:103F100086E194E00E944E0F9A878987892B09F4E5
:103F200039C286E194E00E942C0F8C33A9F41092E0
:103F3000E5039FB7F89440910A0450910B046091F7
:103F40000C0470910D049FBF4093250250932602EC
:103F50006093270270932802E091E503EF3E68F436
:103F600091E09E0F9093E503F0E0EB50FD4F8083CE
:103F7000E92FF0E0EB50FD4F10828E3311F08A30C4
:103F800039F66EE370E085EF92E00E94562B892BA4
:103F900009F4BECF91E090930804BACFB901605400
:103FA000710977FF02C06F5F7F4F759567958255E6
:103FB000910997FD019600E410E022E530E042E926
:103FC00057E0959587950E94431782E08093E1041E
:103FD0008091DC049091DD04892B09F4DEC08CE330
:103FE0008093E00410922402109223021092130492
:103FF000109212040E9479188EEE9EE09093220295
:10400000809321028FEE9EE09093200280931F0206
:104010008091E70487FD1DC00E942B0E61E0809116
:10402000E7040E944B0E61E070E080E090E00E94A7
:10403000BC0E60E08091E7040E944B0E6AE070E0E5
:1040400080E090E00E94BC0E61E08091E7040E9455
:104050004B0E8091DC049091DD04892B09F454C14E
:104060002091F4043091F5044091F6045091F70446
:1040700060E074E284EF90E00E94E52A205131096B
:104080004109510956954795379527952093B800D2
:1040900064E08EEA95E00E94241A6091C5046150A4
:1040A0008FEB94E00E94DB1A64E08AEA95E00E94BC
:1040B000241A8091E10460E1813009F064E18FEB22
:1040C00094E00E94DB1A64E086EA95E00E94241ADC
:1040D0008FE88093FC048091C3049091C4048038DD
:1040E000910509F028C18091C5049091C6048034DF
:1040F000910509F030C18091E104813009F03EC1A1
:104100008FE98093FC0412E16AED8FEB94E00E944A
:10411000DB1A612F8FEB94E00E94DB1A61E88FEBD2
:1041200094E00E94DB1A6091FC048FEB94E00E9403
:10413000DB1A69ED8FEB94E00E94DB1A8091E104B9
:1041400062E2813009F061EF8FEB94E00E94DB1AAC
:1041500066E080EA95E00E94241A8091DC04909148
:10416000DD04892B09F40CC12091F8043091F90485
:104170004091FA045091FB0460E074E284EF90E017
:104180000E94E52A20513109410951095695479568
:10419000379527952093B8009CCE8091E5040E9426
:1041A0002B0E8091E6040E942B0E8091E504082ED0
:1041B000000C990BFC01EA52F44EE491F0E0EE0F92
:1041C000FF1FEE53F44E259134913093ED0420936C
:1041D000EC04FC01E651F44EE491E093F20480918A
:1041E000E604082E000C990BFC01EA52F44EE4910F
:1041F000F0E0EE0FFF1FEE53F44EA591B491B09393
:10420000EF04A093EE04FC01E651F44EE491E09338
:10421000F3048C91E82BEC938091DA049091DB0409
:10422000892B89F11FB7F89480911E02811124C057
:10423000E0EEFBE18491E4EFFBE19491E82FF0E004
:10424000EE0FFF1FE453F44EA591B491EC91E923D6
:1042500021F461E08AE00E944B0E8AE00E942B0E5E
:104260008CB580618CBD8CB580648CBD8DE00E9466
:104270002B0E8BE00E942B0E80911E028F5F80938D
:104280001E021FBFC5CE8091E3040E942B0E8091B9
:10429000E4040E942B0E8091E304082E000C990B7D
:1042A000FC01EA52F44EE491F0E0EE0FFF1FEE53F2
:1042B000F44E259134913093E9042093E804FC01F5
:1042C000E651F44EE491E093F0048091E404082E6A
:1042D000000C990BFC01EA52F44EE491F0E0EE0F71
:1042E000FF1FEE53F44EA591B491B093EB04A0934D
:1042F000EA04FC01E651F44EE491E093F1048C9160
:10430000E095E823EC9384CE8091DA049091DB046D
:10431000892B31F08091FD049091FE040E94591286
:10432000E091EE04F091EF0490818091F304809588
:1043300089238083ADCE8036910589F48091C504B0
:104340009091C604409739F48091E104813029F4BA
:1043500080E18093FC0412E0D7CE8FEAFACF80345C
:104360009105C9F78091C5049091C604809799F78B
:104370008091E104813011F480E1C3CE8FECC1CE95
:10438000E091EE04F091EF0480819091F304892B89
:1043900080839FCD8091E503882301F12FB7F894A6
:1043A00080910A0490910B04A0910C04B0910D042B
:1043B0002FBF4091250250912602609127027091F3
:1043C0002802841B950BA60BB70B853F9140A105D6
:1043D000B10520F01092E5031092F50280910804D7
:1043E000882309F483C3109208046CE370E085EF1E
:1043F00092E00E94562B8C016EE370E085EF92E014
:104400000E94562B0115110509F46CC3009709F49D
:1044100069C30817190708F065C30F5F1F4F801B9A
:10442000910B03970CF45EC36CE270E0C8010E942C
:10443000612B7C01009709F455C30817190709F48B
:1044400051C301960E948E275C01F701108279E822
:10445000872E72E0972EF12CE12C0115110509F43D
:104460003CC3FAE2EF16F10409F01CC3E9E8F2E0FC
:1044700060E070E0CB01219131918901330F220B73
:10448000330B600F711F821F931F22E0ED3DF20777
:1044900091F724E630E040E050E00E94072B8501D0
:1044A000BB0C220B330B601771078207930709F0CF
:1044B00019C30E94970E6F87788B898B9A8B4EEA6F
:1044C000642E40E1742E56E0452E50E1552E69E4ED
:1044D000262E62E0362E10E000E039E8E32E32E0CE
:1044E000F32E50E040E0812C912C5401F701A19172
:1044F000B1917F01FA01E00FF11FEE0FFF1FE25DA6
:10450000FE4E259134910E94262B860E971EA81EE2
:10451000B91E4F5F5F4F4A32510541F7C3010E94F8
:10452000221C6B017C01C501B4010E941329A70163
:1045300096010E94652A6B017C01C2010E94221C27
:104540009B01AC01C701B6010E94BE276B017C0133
:1045500020E030E0A9010E94EA2970E060E018162E
:1045600084F420E03EEF4FEF56E4C701B6010E940D
:104570002A286FEF7FE787FF04C0C701B6010E94BA
:10458000DB28F101619371931F01F4E06F0E711C40
:1045900024E0420E511C065D1F4F003435E0130726
:1045A00009F09BCF0E94970E2F85388949895A8937
:1045B000621B730B840B950B6093FC037093FD03DC
:1045C0008093FE039093FF030E94970E4B015C01C2
:1045D00046EC5BE058874F8306E41BE089E292E0FB
:1045E0009E838D83312C212C99E4692E92E0792EC3
:1045F00050E040E0C12CD12C7601F301A191B191A2
:104600003F01FA01E20DF31DEE0FFF1FEA5FF34FCA
:10461000259134910E94262BC60ED71EE81EF91E46
:104620004F5F5F4F4032510541F78F8198850E945F
:10463000221C2B013C01C701B6010E941329A301D2
:1046400092010E94652A6B017C01C8010E94221C14
:104650009B01AC01C701B6010E94BE276B017C0122
:1046600020E030E0A9010E94EA2970E060E018161D
:1046700084F420E03EEF4FEF56E4C701B6010E94FC
:104680002A286FEF7FE787FF04C0C701B6010E94A9
:10469000DB28ED81FE8161937193FE83ED832F8191
:1046A00038852C5F3F4F38872F830C5F1F4F30E2D8
:1046B000230E311C211442E0340609F095CF0E94EC
:1046C000970E681979098A099B096093F80370931A
:1046D000F9038093FA039093FB030E94970E4B011A
:1046E0005C01E2E92E2EEAE03E2E82E59AE09E830E
:1046F0008D83EDEDF2E0F887EF83FC87EB8710E028
:1047000000E079E2672E72E0772E50E040E0C12CA5
:10471000D12C7601F301A191B1913F01FA01E00F93
:10472000F11FEE0FFF1FEA55F54F259134910E94BE
:10473000262BC60ED71EE81EF91E4F5F5F4F403175
:10474000510541F7C1010E94221C2B013C01C70108
:10475000B6010E941329A30192010E94652A6B01F0
:104760007C018D819E810E94221C9B01AC01C701AE
:10477000B6010E94BE27EB85FC85619371938193FE
:104780009193FC87EB87F4E02F0E311C2D813E8145
:104790002C5F3F4F3E832D83005F1F4F0035110577
:1047A00009F0AFCF0E94970E681979098A099B0911
:1047B0006093F4037093F5038093F6039093F703EB
:1047C0000E94970E6B017C012F85388949895A898F
:1047D000C21AD30AE40AF50AC0920004D092010476
:1047E000E0920204F09203040E94970E6B877C878C
:1047F0008D879E872090DD023090DE020091DF02DF
:104800001091E00241EE52E05E834D832A01F201F5
:1048100081909190A190B1902F019101A801C501C3
:10482000B4010E94EA29181614F41401850121EF3D
:1048300032E02415350559F73DED632E32E0732E35
:10484000812C912C5401F30161917191819191918D
:104850003F019101A8010E94BD270E94A9289B0148
:10486000AC01F30134972083318342835383C50124
:10487000B4010E94BE274B015C014614570419F78E
:10488000EF81F8856191719181919191F887EF8322
:104890008F0104501109A50194010E942F28F801ED
:1048A00060837183828393832F81388562167306B8
:1048B00039F70E94970E2B853C854D855E85621BDE
:1048C000730B840B950B6093F0037093F10380934B
:1048D000F2039093F30301E010E0ED81FE8161911A
:1048E000719181919191FE83ED83E985FA85EE0FB7
:1048F000FF1FEE0FFF1FE352FD4F208131814281E8
:1049000053810E94EA29181614F41A8709870F5F49
:104910001F4F0530110509F7E985FA85EE0FFF1FD6
:10492000EE0FFF1FE352FD4F20E030E048EC52E471
:1049300060817181828193810E94652A6093EC037A
:104940007093ED038093EE039093EF0319851F5B43
:10495000109300018091040490910504A091060435
:10496000B09107040196A11DB11D8093040490939A
:104970000504A0930604B09307048BE70E94DD0FA3
:10498000812F0E94DD0F8CE20E94DD0F4AE0C701FB
:10499000B6010E94A41B8CE20E94DD0F6091FC0313
:1049A0007091FD038091FE039091FF034AE00E9405
:1049B000A41B8CE20E94DD0F6091F8037091F90353
:1049C0008091FA039091FB034AE00E94A41B8CE2C1
:1049D0000E94DD0F6091F4037091F5038091F6035E
:1049E0009091F7034AE00E94A41B8CE20E94DD0F25
:1049F0006091F0037091F1038091F2039091F303C1
:104A00004AE00E94A41B8CE20E94DD0FC090EC03E0
:104A1000D090ED03E090EE03F090EF03A701960134
:104A2000C701B6010E94D22A882309F4D1C081E6C9
:104A300091E00E94971B8CE20E94DD0F6091E803D9
:104A40007091E9038091EA039091EB030E94DB28C7
:104A50006B01770FEE08FF084AE0C701B601F7FEC9
:104A60000BC08DE20E94DD0F66277727CB016C1902
:104A70007D098E099F094AE00E94A41B8CE20E94D6
:104A8000DD0F6091E6037091E70390E080E04AE07B
:104A90000E94A41B8DE70E94DD0F8EE591E00E942D
:104AA000971B20C06CE270E0C8010E94562B6C017D
:104AB000009711F0FC011082FFEFEF1AFF0AC80106
:104AC0000E948E27F401819391934F01C114D10468
:104AD00021F086010F5F1F4FC0CCFAE2EF16F10400
:104AE00009F4C4CC1092E5031092F5028FB7F89444
:104AF000C0900A04D0900B04E0900C04F0900D04D8
:104B00008FBF8091F1029091F202A091F302B091D7
:104B1000F40246015701881A990AAA0ABB0AF8EE5C
:104B20008F16F3E09F06A104B10408F444C060911D
:104B300004047091050480910604909107040E947A
:104B4000112920E030E04AE754E40E94652A2B0155
:104B50003C01C501B4010E9411299B01AC01C301B4
:104B6000B2010E942F286093E8037093E9038093B9
:104B7000EA039093EB031092040410920504109240
:104B8000060410920704C092F102D092F202E09261
:104B9000F302F092F4028091FF04909100050097D7
:104BA00011F483E095E02B813C81281B390B309375
:104BB000E7032093E60340E050E0452B09F4A8C941
:104BC0000E945A0F882309F4A3C90E940000A0C9BB
:104BD00046015701E894B7F82FEF3FEF4FE75FE743
:104BE000C501B4010E94D22A81110DC02FEF3FEF01
:104BF0004FE75FE7C501B4010E942A2818161CF48C
:104C000085E691E016CF2FEF3FEF4FE75FE4C70156
:104C1000B6010E94EA2918161CF489E691E009CF32
:104C20002FEF3FEF4FE75FECC701B6010E942A2844
:104C300087FDF3CF20E030E0A901C701B6010E9453
:104C40002A2887FF07C08DE20E94DD0FF7FAF09453
:104C5000F7F8F0942DEC3CEC4CE45DE3C701B601B1
:104C60000E94BE274B015C010E94E2286B017C017F
:104C70000E9411299B01AC01C501B4010E94BD270E
:104C80004B015C014AE0C701B6010E94A41B8EE201
:104C90000E94DD0F20E030E040E251E4C501B401A4
:104CA0000E94652A0E94E22890E080E04AE00E948B
:104CB000A41BC1CE8FE291E09093C0048093BF0407
:104CC0008091DE049091DF04009711F00C94052789
:104CD00008950F931F93CF93DF938230910510F4C3
:104CE00082E090E0E0910105F091020530E020E0E3
:104CF000B0E0A0E0309799F42115310509F44AC0DD
:104D0000281B390B24303105D8F58A819B81611528
:104D1000710589F1FB0193838283FE0111C04081FB
:104D200051810281138148175907E0F0481759074C
:104D300099F4109761F012960C93129713961C93A6
:104D40003296CF01DF91CF911F910F91089500937B
:104D5000010510930205F4CF2115310551F04217DA
:104D6000530738F0A901DB019A01BD01DF01F80109
:104D7000C1CFEF01F9CF9093020580930105CDCF0C
:104D8000FE01E20FF31F8193919322503109398381
:104D90002883D7CF2091FF0430910005232B41F4C5
:104DA0002091030130910401309300052093FF040A
:104DB00020910101309102012115310541F42DB7F7
:104DC0003EB74091050150910601241B350BE0913F
:104DD000FF04F0910005E217F307A0F42E1B3F0B30
:104DE0002817390778F0AC014E5F5F4F241735075D
:104DF00048F04E0F5F1F509300054093FF048193CE
:104E000091939FCFF0E0E0E09CCFCF93DF930097AA
:104E1000E9F0FC01329713821282A0910105B09152
:104E20000205ED0130E020E01097A1F420813181EE
:104E3000820F931F2091FF04309100052817390736
:104E400009F061C0F0930005E093FF04DF91CF917A
:104E50000895EA01CE17DF07E8F54A815B819E01DC
:104E600041155105B1F7E901FB83EA834991599155
:104E7000C40FD51FEC17FD0761F480819181029664
:104E8000840F951FE90199838883828193819B8395
:104E90008A83F0E0E0E012968D919C911397009741
:104EA000B9F52D913C911197CD010296820F931F78
:104EB0002091FF04309100052817390739F6309703
:104EC00051F51092020510920105B0930005A093D0
:104ED000FF04BCCFD383C28340815181840F951FCF
:104EE000C817D90761F44E5F5F4F88819981480FD9
:104EF000591F518340838A819B819383828321152B
:104F0000310509F0B0CFF0930205E09301059ECF83
:104F1000FD01DC01C0CF13821282D7CFFC018827AC
:104F20009927E89421912032E9F3293010F02E30AE
:104F3000C8F32B3241F02D3239F4689404C00E943A
:104F4000B527820F911D219120532A30C0F31EF402
:104F5000909581959F4F0895FB01DC0102C005905B
:104F60000D9241505040D8F708957AE0979F902DC8
:104F7000879F802D910D112408955058BB27AA2793
:104F80000E94D5270C94B0290E94A22938F00E94D3
:104F9000A92920F039F49F3F19F426F40C947829BC
:104FA0000EF4E095E7FB0C947229E92F0E94C129C9
:104FB00058F3BA17620773078407950720F079F44E
:104FC000A6F50C94E3290EF4E0950B2EBA2FA02D34
:104FD0000B01B90190010C01CA01A0011124FF27A6
:104FE000591B99F0593F50F4503E68F11A16F040A1
:104FF000A22F232F342F4427585FF3CF46953795A0
:105000002795A795F0405395C9F77EF41F16BA0B64
:10501000620B730B840BBAF09150A1F0FF0FBB1F12
:10502000661F771F881FC2F70EC0BA0F621F731F5B
:10503000841F48F4879577956795B795F7959E3FB8
:1050400008F0B0CF9395880F08F09927EE0F979549
:10505000879508950E944E2908F481E008950E94E2
:1050600043280C94B0290E94A92958F00E94A22933
:1050700040F029F45F3F29F00C94722951110C94EF
:10508000E4290C9478290E94C12968F39923B1F38B
:10509000552391F3951B550BBB27AA27621773075E
:1050A000840738F09F5F5F4F220F331F441FAA1FF2
:1050B000A9F335D00E2E3AF0E0E832D091505040AE
:1050C000E695001CCAF72BD0FE2F29D0660F771F5C
:1050D000881FBB1F261737074807AB07B0E809F042
:1050E000BB0B802DBF01FF2793585F4F3AF09E3FC7
:1050F000510578F00C9472290C94E4295F3FE4F395
:10510000983ED4F3869577956795B795F7959F5F09
:10511000C9F7880F911D9695879597F90895E1E055
:10512000660F771F881FBB1F621773078407BA07B4
:1051300020F0621B730B840BBA0BEE1F88F7E0950F
:10514000089529F416F00C9472290C94E3290C9418
:1051500078290E94C929A8F39638A0F707F80F927A
:10516000E8942BE33AEA48EB5FE70E947B2A0F9230
:105170000F920F924DB75EB70F920E94312AE8E668
:10518000F0E00E947B294F915F91EF91FF91E595AF
:10519000EE1FFF1F49F0FE57E0684427EE0F441F43
:1051A000FA95E1F74195550B0E94FB290F9007FEF8
:1051B0000C94EF2908950E94E2286894B1110C9490
:1051C000E42908950E94C92988F09F5798F0B92FC3
:1051D0009927B751B0F0E1F0660F771F881F991F2C
:1051E0001AF0BA95C9F714C0B13091F00E94E329C2
:1051F000B1E008950C94E329672F782F8827B85FD2
:1052000039F0B93FCCF3869577956795B395D9F783
:105210003EF490958095709561957F4F8F4F9F4F8D
:105220000895E89409C097FB3EF490958095709599
:1052300061957F4F8F4F9F4F9923A9F0F92F96E9E2
:10524000BB279395F695879577956795B795F11157
:10525000F8CFFAF4BB0F11F460FF1BC06F5F7F4FF4
:105260008F4F9F4F16C0882311F096E911C0772306
:1052700021F09EE8872F762F05C0662371F096E80F
:10528000862F70E060E02AF09A95660F771F881FDE
:10529000DAF7880F9695879597F90895990F000882
:1052A000550FAA0BE0E8FEEF16161706E807F907F8
:1052B000C0F012161306E407F50798F0621B730B93
:1052C000840B950B39F40A2661F0232B242B252B14
:1052D00021F408950A2609F4A140A6958FEF811DB7
:1052E000811D089597F99F6780E870E060E0089558
:1052F0009FEF80EC0895DF93CF931F930F93FF925E
:10530000EF92DF927B018C01689406C0DA2EEF01E8
:105310000E94782AFE01E894A59125913591459146
:105320005591A6F3EF010E94D527FE019701A80130
:10533000DA9469F7DF90EF90FF900F911F91CF9172
:10534000DF91089500240A94161617061806090618
:10535000089500240A9412161306140605060895EB
:10536000092E0394000C11F4882352F0BB0F40F473
:10537000BF2B11F460FF04C06F5F7F4F8F4F9F4FB3
:10538000089557FD9058440F551F59F05F3F71F035
:105390004795880F97FB991F61F09F3F79F087959C
:1053A0000895121613061406551FF2CF4695F1DF25
:1053B00008C0161617061806991FF1CF86957105B5
:1053C000610508940895E894BB2766277727CB01E9
:1053D00097F908950E944E2908F48FEF08959B01D4
:1053E000AC0160E070E080E89FE30C942F280C94FF
:1053F00072290C94D72A0E94C929D8F39923C9F39A
:10540000940F511DA3F39150504094F059F088230C
:1054100032F0660F771F881F91505040C1F79E3FB2
:1054200051052CF7880F911D9695879597F908954A
:105430005F3FACF0983E9CF0BB27869577956795CB
:10544000B79508F4B1609395C1F7BB0F58F711F405
:1054500060FFE8CF6F5F7F4F8F4F9F4FE3CF0C947C
:10546000E429FA01DC01AA0FBB1F9B01AC01BF5765
:1054700028F4222733274427507820C0B75190F4CE
:10548000AB2F0024469537952795011CA395D2F3A1
:10549000002071F0220F331F441FB395DAF30ED0B2
:1054A0000C94BD2761307105A0E88A07B94630F435
:1054B0009B01AC016627772788279078309621F0EA
:1054C000208331834283538308950E94782A0C9469
:1054D000B0290E94A22938F00E94A92920F0952322
:1054E00011F00C9472290C94782911240C94E4295D
:1054F0000E94C12970F3959FC1F3950F50E0551F8D
:10550000629FF001729FBB27F00DB11D639FAA2718
:10551000F00DB11DAA1F649F6627B00DA11D661F67
:10552000829F2227B00DA11D621F739FB00DA11D88
:10553000621F839FA00D611D221F749F3327A00D42
:10554000611D231F849F600D211D822F762F6A2FDE
:1055500011249F5750409AF0F1F088234AF0EE0F43
:10556000FF1FBB1F661F771F881F91505040A9F770
:105570009E3F510580F00C9472290C94E4295F3F02
:10558000E4F3983ED4F3869577956795B795F795AC
:10559000E7959F5FC1F7FE2B880F911D9695879524
:1055A00097F908950E944E29880B990B08959F3F03
:1055B00031F0915020F4879577956795B795880FCE
:1055C000911D9695879597F90895A1E21A2EAA1B29
:1055D000BB1BFD010DC0AA1FBB1FEE1FFF1FA217A3
:1055E000B307E407F50720F0A21BB30BE40BF50BA0
:1055F000661F771F881F991F1A9469F76095709529
:10560000809590959B01AC01BD01CF010895052EB9
:1056100097FB1EF400940E941E2B57FD07D00E949A
:10562000E52A07FC03D04EF40C941E2B50954095B0
:10563000309521953F4F4F4F5F4F0895909580953E
:10564000709561957F4F8F4F9F4F08950E942E2B2D
:10565000332312F48A1B9B0B0C943F2BA29FB001A7
:10566000B39FC001A39F700D811D1124911DB29F96
:10567000700D811D1124911D08950E942E2BB7FFDE
:105680000895821B930B0895EE0FFF1F0590F49170
:10569000E02D099481E090E0F8940C946C2BDC01EF
:1056A00001C06D9341505040E0F70895FC01819195
:1056B000861721F08823D9F7992708953197CF01CC
:1056C0000895FC0181E090E00190061609F4CF01F5
:1056D0000020D1F7019708951EE0C0E0DEE004C08D
:1056E000FE010E94442B2196C130D107C9F7F894DE
:0256F000FFCFEA
:1056F2003F00000305800000000000900FF00E1D27
:105702000FE20F4E0F2C0F400F000000000E19E1A8
:1057120018941B4A0EDA18C718B818000000009730
:1057220014F00E941B5118A9114A0E3C171417308D
:10573200172417A4174A0E5D123E1B191162115D40
:10574200164016C81569157B626F6F747D000D0ACD
:0E575200006E616E00696E66006F7666000084
:00000001FF
