:020000040000FA
:100000000C94FD140C9425150C9425150C942515B1
:100010000C9425150C9425150C9425150C94251578
:100020000C9425150C9425150C9425150C94251568
:100030000C9425150C9425150C9425150C94251558
:100040000C94C7160C9425150C9437170C941117A3
:100050000C9425150C9425150C9425150C94251538
:100060000C9425150C94251507634236B79BD8A729
:100070001A39685618AEBAAB558C1D3CB7CC5763CD
:10008000BD6DEDFD753EF6177231BF000000803F7B
:1000900030DAC3BDD46200BEE1B6063EFB79933DC3
:1000A00045123D3CC6359EBD0EF7113E9BAD3C3C16
:1000B0009ECED53DFC70B0BDCAA892BDE54225BE1E
:1000C000E5D0123EB9C3A63C12F5E2BD32C7F23B01
:1000D0004C37C9BD5A2CC53DEBC8513D59DAA9BDB5
:1000E000F854CE3C2D6052BEB894F33C5262D7BC5B
:1000F000C66CC93C6407153E31CF0A3EEE3E473D13
:100100007DEC0E3E302E153E98F7383DDCB75A3D5B
:10011000E337053E3BE30B3EB665203EEFC9A3BD8A
:10012000D7BFEBBCC5389FBD9BCA623DB361ADBDB7
:100130009BE4C7BC94BC3ABE3734653D118B183D77
:1001400051BFEBBD41BBA33DF931863DDB4F06BE40
:10015000ACE57E3E1B2B013E607223BBE19B26BDBE
:100160008EEB5F3D16F8AABDF0C256BDAD6B943D57
:10017000107775BC17467A3D88DA56BEF7ADF63D66
:100180009DF614BB2EE5DC3DA565E43D35436A3D97
:10019000ACC52737931A5A37ACC5A7368BE1EA3678
:1001A000ACC5A736ACC5A736ACC5A736ACC5A73617
:1001B000ACC5A736ACC5A736ACC5A736B5FE163755
:1001C0008BE1EA36ACC5A736ACC5A736ACC5A736B9
:1001D0009C53C936B5FE1637ACC5A736BD37863633
:1001E000B5FE16378BE1EA36ACC5A736A48C383796
:1001F000BD378636ACC5A736ACC5A736ACC5A73665
:10020000931A5A378BE1EA369C53C936ACC5A736E8
:10021000B5FE1637BD37863620F0C037ACC5A736D9
:10022000BD378637BD378636ACC5A736399B8E3786
:10023000ACC52737ACC52737BD378636B5FE163770
:10024000ACC52737ACC5A736ACC5A736BD37863693
:100250009C534937ACC5A736931A5A37ACC5A73655
:10026000ACC5A736ACC5A736ACC5A736ACC5A73656
:10027000931A5A37BD378636A48C3837ACC5A736A3
:100280009C53C9378BE1EA369C53C936ACC5A736B7
:100290007E158D18B8E52018E9F301E684FDD0F746
:1002A000615B01804716BB11F20CEF09A701FDF954
:1002B000F71A22DEA3C7DA0A70D0030260DD372204
:1002C000A4CFAC105FD1C7D36AF139B6922CB0B6C7
:1002D0001333CF3BADCDA405ACF4801340FC6AC111
:1002E0008210190A9418EF2BA8254DFAAB1CF106C1
:1002F0007DE2D6D1018052F0A3F46E2883264AFD18
:100300005020FBEC422FB1EA190EB1E6ED16BFF119
:10031000690BA20BDA272D0F06EEB1E56D235B19F1
:100320001624FDFB3FBF44F52FDB17221FF1E92EFA
:10033000EEC29EDA2DFC9AE1B74D9DE14049839CC7
:1003400062BF0A27121B5ADF534C0C5725A3A4BBCC
:100350003F75CBD49BD21A84ACB6FD1F19EF0EA308
:10036000010389A85E937DB9EF8F78AEFF7F2F18C8
:1003700075279388E7AB61D50614548FD4C858B35A
:100380005B005BD020F73BA91CA84CB510D394A40C
:10039000344EBFEBE650660546937418B9B83BC2BD
:1003A00070C8B99A29294ECA84261199F03D51DFA7
:1003B0001DF56E09A0357D3EC8450987520AE68BBA
:1003C000F8FBA2A84E46A8ACCF13E73A9BF668B656
:1003D00004452AF7D3DF0180FBF1F3D7BFA73A2604
:1003E00032178AB2BDB82EF4BE425AD94CB078CD7D
:1003F00080990828A55E01806B18FF3CE511A3CB0E
:10040000F53D873FCA2A0BE30DD8B5076BE37AD3D6
:100410003B4D5D698BED46DD54FC8FF28B199B1EC5
:10042000658491CB7B67822CD6F3A2ABD2AAA1863E
:1004300025D0A3250A52673B458EA0B2B2EB777C4C
:100440009D12AEDE3B35FECEB9ACE95D7FC535E62B
:1004500001801D567B61E42E49A604818097F25FDE
:10046000C63D466C67439020BDFE269EC491A7877B
:10047000AC34D4C01BE6F4B58EE871A5EEABAE2A61
:10048000C3D96E4FB9D69EA1F1E4F9BEC9D428856F
:10049000423F3EA5D9379532F351189C285383C06B
:1004A000E627866EE8E8BEF601DEBD918335018061
:1004B000CA462F5A936E54DE28955019733E7180A8
:1004C0003CDEBFB39AEF6BBD47C89BD22C85F85F6B
:1004D000F26126E737ECFCC7698B4A803430CAB832
:1004E0009FACE1F5CFD40AD62B047DE458D3E6C106
:1004F0007396C16C19CC5E2200D38A0AEB78C13B9B
:100500009B8F7A331D7B1F22F456DE7F20ECEB1A83
:10051000DBA546E50D607D42EEADFF975EA701804D
:10052000EC9BEDDF8857B6155A9DF4978640869F61
:100530001BF0ED3D41C4ECF1C3F475E18CBEEC8CD5
:10054000A697E0BAAF7CA5C14FA94B1F9423BB4629
:100550002062E4470180730B334E12F4EEB3127B3A
:10056000B7CF80B69E8BC4053539941C8719199E68
:1005700071874602B6757A4AD6B43EEFD6A0B9C1A5
:1005800061174C463267E6825052B89EDD2B88696F
:10059000BFFCD771898BFCC827476FDE28E06EC48B
:1005A0000455083BCD248BB6CD900D09A4218FBEF8
:1005B00056D632535305CF00BEDA898401806DBC14
:1005C00077B8A323DCD4DCCC8B7772281A58A1BB74
:1005D00085C5F52AD1A376A5BBF987D0B29EFD4C7F
:1005E00061680E1567E9C687B9D00B21343D97EFD6
:1005F000AFCC5448A1980952A5CDFD015AE6BD0FD4
:10060000C7D8615EA0FC5265CC7CC4C050A12368F1
:10061000B665E59CF7F50180C09512198822841B08
:10062000ADDCBF778F1269B3A7F82C1FB20DECBFFA
:10063000F11CF7CE01CCF4B7DA418017B92D130EB7
:10064000E23D3FC6C4DE78D3D6DAD2B9A1E918605C
:10065000212045CD41D00EEBE5C8EB212718FF7FC7
:10066000E3388B243B065DE481028B1540EF86194D
:10067000AD03E41CE0D7408D87E39FB1310AB6E3B8
:10068000742FFD1409A9DDB225DD70D0720C7C93A6
:10069000962C018073BA60A8DE43699CA23C2DF6BB
:1006A0008BF0931BBCF29E2B0E43B8B2F12416F5CF
:1006B000FB14A0ECA80F91D057F727454D3B3EE027
:1006C000E4A605E5C4BD8A349BCBB3E915ED51150D
:1006D0006A4A900ADF44935D78610BD14BE0A838F9
:1006E0001FDAF536E9E04DA7502F7E0F2C34A7789E
:1006F000D951F87200036C906BA478AEE28D7BBD8B
:10070000F5884B886BB1018064AF0D2CCA64E8D6C4
:10071000D7D7E13E76BED4C078491F8F9D0BDF6AE4
:10072000C7115A1E51B37BFA32071E20D832B3715B
:100730001F9CEC039FBE7D9886F5D28C525B280FE0
:100740007AB96144298463CD82E6CF90CBACA4EA28
:1007500049635C7E4253DEB165AA3172492E7A0349
:10076000B511D69650D4F67DBADF70F95A93CDB64E
:1007700054FDB8AEC6EF40350180DD2615ADCCC2C4
:10078000642BF65EFAD8C3C7DB8995BA718D8CDE0F
:10079000D714C385BD68ED497C805ABF26247CE10F
:1007A00095EDA1C2FA5F26B53E6357037514145D3B
:1007B00096E6DAB3F8E6F560349EB7170180FF3CA1
:1007C00095299100123164FBA440FA97D5E8E132F3
:1007D000245C6127D59C444196D0E2D28F83C3D359
:1007E000A630B1EF2EACCD1540C7F3553E8B60CB94
:1007F0000180E4B4DF0FC560E0FE3461DB000E2E43
:10080000B2415C4816B49E5E0832DBCA76BBCAA50C
:1008100030099EA80B22861D7E97601CCAEC6B32A5
:1008200062338A95C65FDA5DE7151EC5FDCD4303C9
:100830005CEC805788307D73C0B0D01AE5D929F0C0
:100840000180E0BA8BEF33A213A66F3995F20C2426
:10085000C5A843F6CBF66E1A521D9B283C08556975
:10086000B2CB900BBA2D8A19A3F0607B233A435682
:1008700066022F14525651EA0401643DE3A65D7DE1
:1008800082BF01E113DDE2AB5681C9484B221A87D2
:10089000EBAC957F5731CB33C5B269C784EC65E8C3
:1008A0008CA7A20AD40CA8EFE511D6CC9821AF30C2
:1008B00002BC01809143CB1E5ABE667C9FC53A574D
:1008C0007D41C793405350897CB87BEA129EC17F1B
:1008D000B8DE9A3001802B49D9CF82937C0E2B3D14
:1008E0005D7061A7C5B60E16361F122E3C45A5DBFE
:1008F000F9452E5F86D6535BEA3C356EC0AA9CB1A3
:10090000AAD29A01744A49ABBE3C81C6F64A23EF8B
:100910006E8264AF7A951B3EBC9C5AEEB9156CAFE3
:1009200000FCDEA403ACFBA7C8C9DFDD96EFA7F28D
:100930005A097140D3FAD7BF4CA84702C0CA38122F
:10094000E51E06157C2C9C22C0FBDEC07033451EC4
:10095000B6D2FF7F9B258A0379FE46CCA7FEE648E8
:10096000B41B763B89ECD5E81836CC1A564306F80A
:10097000D731DA2833FAB31F9524FE474C2AC9DE53
:100980001581FBF842B411E0A8FD71F4A54B600E8F
:10099000B3ECFFCDCEECA0335E4B140FD04FA6E4EA
:1009A000B2095A0F22A711906AF7F8AD7EB5EA3C5A
:1009B0008F297B562124EBF183DE3408DCCB23D254
:1009C00001802A26178E680BFF7F97D79FD6344F5A
:1009D000BCCFBAF4957A2ECA14A287B69ADBB5C1F9
:1009E000E0BB08354F16FBD5029AAAD698C847D562
:1009F0009189481C8B9FC299BD94CB36F7B0D0C962
:100A0000E766B545474B5983DCA171CE746C6E0D1A
:100A1000D19DD2000A9A3DE3E7DBA5716B07CDECCF
:100A20002C054FCEF02324F0F14E9EBEFF7FC7A7CA
:100A3000B0CE7839400BF64484F5F83CFA08E96A00
:100A400091B89A157CCC9D3F5B147948A1FD882A0A
:100A500016E5C0E56B271F0676FCADE8890EF8B9F0
:100A6000A20DA4D4CAEA09E314F5DA95AD064B8CBD
:100A7000B3C7A5DB0823EA9267AEF801BF12744A38
:100A80004EA1082B9F4CDA4A70828FCC208CB1AAE1
:100A9000164BDFEB4139DEB07C1476AE64430AC5F9
:100AA00032DE0A8B7200FF7F6F4113B8D00138F13C
:100AB0007993B3692C02641C90C9ECC03A16D73103
:100AC0003D1E08BF3C71ACE776AE39C0DD72B2F9AD
:100AD00021E9C3C6A2D96092FE97FF411563546F06
:100AE000F1A0ED3CADAD2C439C522D596352A6466E
:100AF00041FC5E32D8CD223139D22AF8B48E89D960
:100B000014B969D02FABF18BC6019849E269B241A3
:100B1000FFB901809528CB3E6A8DC3279265F90104
:100B200002AE5262C730584E22A50C44AAA3A67743
:100B30009DC4B446C613171CF5E67B2F6FC58F8284
:100B400088C98B5DEED8022270CBCF592F46F22692
:100B500066B97A9202FFC0AF83620180EB3293786C
:100B6000B839652520803E7479E4A583267D06C3C7
:100B7000E6EF7F73E79CE09A210F48E73F18F38880
:100B80004FFDFFBDC5B70180244060138888106405
:100B90009821321207AB1C0F037AFA5467911B732A
:100BA000A8039F39FF60606C4791686EB09E7D031B
:100BB000139C1FDC3FF39BE95BE49104F97CE9475C
:100BC000F6159411BB21A4F49807B6FD56F049CD53
:100BD0003B263EBE8DE47AD52CF001EFE4E3EA0C2F
:100BE00060286AA47BC1D2D572D15BFB90003630FD
:100BF0007EF3D353E4D4B32793DCF8C45D204AFFDB
:100C0000FC4BFF7F78117CD21419E813A7FE0C4E21
:100C1000C6417D304E1758D6B7A264FB0200E5B43A
:100C20000B1E0FBA614B0A4B7E02FAD92918D72A3C
:100C3000BE0D5F169D387CC122E1DF197701314A74
:100C4000A4D21EBB7D0901806A262918F6ACF30DDB
:100C5000D6CE53F20BE3D99EA1E6C00EF7DC0E719F
:100C6000BDDA6C49F7F94E0748042C4411ADAEAA21
:100C7000515AE84681CDDD3C480401800DF3EC1A61
:100C8000D1CBEF2016967D4FDE482637FD02B217F6
:100C900012A9A7F2D6ED6FCA64AED3193934089EF3
:100CA000FA184622445B4A24FB5ACED1AE3B693F38
:100CB000A39C1693C415A52777C9A8FA70F1BE1393
:100CC000BFB0023DA350829CD2085EFE013AF355AC
:100CD000B61643DE5B64FACB28CD260FC291630AB9
:100CE0006F9CBE082C045627FB8BA09F4E38E54C0A
:100CF0000180342E3D9AFF082E737255D89EF03A2B
:100D000098388BF0B17AC6B76CE3A2B526116B1395
:100D1000C20F4BEAC4D2750677B29FFC980D6101F1
:100D2000CE38870296EECC06319B2947BDD80DCA36
:100D30008CADD1991DA713172CF8A8C444D313BEAA
:100D4000AF32880E20F4B94629ED79C1402CDBD9A9
:100D50002B729612C743293C1A63E2E49F6FB9CE07
:100D6000FF7FF201468633260BE4A18434CE2A0E9F
:100D7000FB6AC6D596513311A104481ADBA5D48D60
:100D8000D7D40180F2BF520689A506C752E72DF0DD
:100D90002DB49A06B8EC4927340669BBB6D06BFE71
:100DA0004BAAC10A4DF64B358220CC6679FB829A5C
:100DB000663D2BA31FED86D3D5EEBBF3E00A0D09EC
:100DC0007BF9BF21FFE6520F3317C81878DAEA071C
:100DD00057E8C2209BF8ACD7A3E90180C0FA5314AE
:100DE0007BDBAE115AFAAD1EFD024A1D0EF49FF6D2
:100DF00022FF9C182013D734E1EC193286F530031A
:100E00005CFCD716FE2170458C19D244FE09F714FC
:100E10003BF131515887712C2DE5EE3352F9D2CA8E
:100E20002AEC883E9AA18AA96ADDC8CBD32B6F4FE2
:100E300046EC1672C7C48EB2FBC04FA2CAA0BD8ECC
:100E40003A89111B69473B712A6691F28E12D5AD22
:100E5000052B0180D8353411F4206E2887BFF86641
:100E600006FFB804D6006B0678230CF82D29A4D60B
:100E7000CE24EFE02F1D69488110861470053E0EC8
:100E8000E80E67C5671D9F23C7F0F11F5F0260B3BF
:100E9000330D018027E796ED1AEDE02F78FEE0464E
:100EA0006EF73B235AF915E3CAB930D2A6C34AFA02
:100EB0002DE4EB1A0F74C81D12CEFB91DA949DA895
:100EC000202C0A4FFF7FBAD176F48ED477FFF62E0E
:100ED000C9FCC60689127C369DD3C4A88422AEEE16
:100EE000B9BD703D5401B8EA2EB9C1EC9A834821CE
:100EF0003202C7587209B20BDA27526FDEBA57575F
:100F0000C723679EF03243A8CCD69CC1F4A61667CF
:100F1000028B7341328A12F0CF070D5DA2D0AD254E
:100F20004714044DC8070331EEB00BA5A274A0A06E
:100F3000B8E92EF0FF7FB6E35A9CD2DE8443DF335C
:100F4000496C34E5A83DD384A632243C7054F1B4F6
:100F50000EDDAB1FFDA2E19714824F07A30F6401C2
:100F60001F05F0FE5FF7A7E87F19F2CAD64452B218
:100F7000E6FD66DBCAF5B2CEA60427B4F016018002
:100F8000360E06EB00104FFD330153E35D1E57464E
:100F9000D5D7460A1DDF441BA500C30993F07F2562
:100FA000EADCAF06FB08470ABE04A0E1961AC9288E
:100FB0005EFEE10AE1260641C0EA463F258AF429A1
:100FC0000180494891CC9ECA4327092E0DD4C2BD49
:100FD000E9F2D9DEADF607CC5CD401D3223B5EBB8F
:100FE0001313303D433446E9A911BC0DBD3CB8F69E
:100FF000C0FD4DEDED40C1F0782E5F161F451AD1B2
:101000000E1311187DB92ABD90DB9822192369C0EF
:10101000A1E490AD5DACDB075943A0EB493AE0FF9A
:10102000C13D15DD790A9B0B4819E313AD0E0F3A4C
:10103000E442FF7FA525C762A90601FEE840984962
:101040003FEB52752209870D1120BCD457FFCF44C6
:10105000AEB0D418FF93C9399585DBD2EC28485F30
:10106000154BD24AEC3766ACFA949605FF7F97078A
:1010700068F483A42ABD1898EC6B0AEAEC88760E13
:10108000C80959EF40307D483E81BD9886F90883F4
:101090008F850277BFF55CBDC4D1C4963069C6E2C6
:1010A00037B4C699C94E5EEDD7F1DEDC9AD3AD01F7
:1010B000F21DDBD74EE7ACE048BE5D610FDCFF7F81
:1010C000BAE550B344D109258EC5A11141047C0D68
:1010D000F51AF3CB4418D8AC80D99761BEFB8D4E7E
:1010E000A4E987C0D0238BF85EFB2B135A2821007C
:1010F0004FEF7133C233A4F62FCE5926382A8820F9
:1011000045253CC68620FDD33F26E61A560A8E1496
:1011100062C2C7AE23D046F35E1FDC8AF71D3C2BAC
:101120009EBF9774900853E49F36E81A450AFF7FE4
:10113000CC06FC48FDC704DE52C8E2EB5CFCDE1DB9
:101140001AC283D0D41B12FF450A4997E5E13DE658
:101150004917DABA8F4D4D550085A7FCEDE258B41A
:10116000A633DEEC3B6DA3AC0038938EA6BA4C08D8
:101170004262D7402291880A3FAF3903A68FECD94B
:10118000CA543C850180BE13A40D91E5386D7EB034
:101190000CAD419BA7E3EDDA464C8BF57525B3C743
:1011A0003D65C569A987C7DA4E936C3614906FC345
:1011B000FF7FAC85845ED20A6F66FDBE2454750F36
:1011C000DA096F573C86D298B77B13B3AAA3BDF94F
:1011D000FFD679EE2CAA392EC591600AC14A9D1816
:1011E0000511BD1279DA99E7FBC977A92DBCA37E59
:1011F00090EAE02C9758FEF516BB35A94ECE263066
:10120000668E88EF50330E6E9828AD1A595C553EA5
:10121000A32D2DD6D493DDE289E7E8092AF189369A
:10122000A55950C90180CBBA75BF774CFDA850F3C2
:1012300069E321AE253DCFC706F928A165F22B133E
:1012400083FA99CD13280DDD37B5869C6DE3918027
:10125000F2FEBCBF5BE323F6F611DCED945F6AECB3
:10126000B96B01E96FCE9BD3B0F7F5E179085C2E3D
:1012700042D689F014E8B3BDCAF9D9DBD2FEA62C58
:10128000FB008F2563C653DDCD0D441E57F9FF7F4C
:1012900059FF227355DA70D60D1307C39AF2CD4B5E
:1012A0009004917039B1018086F4EFECCE1E0AD91A
:1012B0005E594E04F35427A5BA2CC90ADDBCA139E6
:1012C000B7803B5EFA041F037F34090620306F4C61
:1012D000119A644E8CE8A4DC2114235D95B7B9A95A
:1012E0004648DAC11323CBE75D1D885A70BC62BF44
:1012F000DE379A001AEE288BBA18E9F15EDD16DDAA
:10130000D6D1F40411CDB5125EC87FEF9910A6FCBA
:10131000C3F11215CF1B91F42F126CD97F097705F9
:10132000A80C78F30F1F43F67D020180482766DD85
:101330004823F31A9B1435D313C81ED011F01E177F
:10134000B41616F6E9F04FFE0F046EDB4B2118279A
:101350001D1192430EE33282A437B00308F70180D7
:1013600057B960B34848E845AE377536A8A47EA3A0
:10137000ABB3BFBDA63AD72772453306BD8618E486
:101380009D28903AA40E7CDC9888B7B1052916D622
:10139000981FF11A4ECE8357ECD8D60CCDC119BE8A
:1013A000C31435252CBFFD4E7F8CE18379B080D3EB
:1013B000B3F11EE7C43A008FF6123B020222FF7F10
:1013C0003E4FB5B87D96D4E069BFFA2C2E019067E8
:1013D000943253E86D04D61E06F0E667539BC23E76
:1013E000ECAD328F91E5BF3EFA5A5020DFF4C8F8D9
:1013F000CECB72F40BF7546EE14B4098890041B0AC
:101400006BEBF598B42183A2FF7FEA61C1A6F0855A
:101410000F05CFDB10263CA81335039093BBD7BB39
:10142000BD3E9BFC6683F4B500C4B4879A10332E8E
:1014300036E868CC37FF05990EB10BFD2E7321D825
:101440004440FACC7DDD9484E76CFF7F3DFD8553FD
:10145000856B4B41B343DC827B841B9B1E294D8EE5
:10146000A99B49C0D8862D00F71213B3125619CE86
:10147000FEDA2664DB70ECF0A3A10EBEBD100E4DAB
:101480007141F4C5BB83F68C2ED6A601F5C4109825
:10149000DA0DAA970F9B239561DC1B74212BFEE9C3
:1014A0006E13172CD6F9369250AA6BA2DCF5338551
:1014B000E0E1B9CA9576C9615E431404B4CF431A1A
:1014C000C3A018C371DFF5DB0180492C656279B9CF
:1014D0009D1B91EA7CF4E900F467221147A88CD0A7
:1014E000A8374A21ADFBBEE97BC79ED2C9B5570ECE
:1014F000A41CE62E18122E289D36493B75FA23456A
:1015000070DE95286E1997D5913A4EF8E40C810754
:10151000AAE23B11292E0AEED3D4E1CEF5D7471D1E
:10152000ABBCFF7F02F7D7E29CDB1ED387CB0AF070
:1015300002F41344E82C77D46F14ADC601EA28E412
:10154000100142B0B28189A50F6F604B80CA8AA595
:10155000099830B063C82C513B2CEACB0B5D0AAC28
:10156000E5917F1D7AB57326827216C0B0A1DF3275
:10157000F08595782CC05741889485A4E30E0930F6
:10158000CC6808713AF8A0EE57169BE09A040180E7
:101590000D919D5C06B16E6AB7F450F79727A1D004
:1015A00033F638E46602508B1100619D970EAA4B0A
:1015B0003F021B0FF9049C3146298AACD5DF68FE37
:1015C0006138A641922A93C5F0400180692B0A3CFC
:1015D00023012CFF5E2D4DCDCA2116C249E4D8C28D
:1015E00004BC3D21A1AB26BE36FF2D3457F8469EE4
:1015F00061D7BECFE84950CF62D4C59DA3BC074098
:101600005F4D9D0C12C968766013ABC7C8CC99E7D3
:1016100049373A29D857EAF319650CC5FEBDD6C932
:10162000018092A4548417F2FCFA14D813A1816F9C
:10163000C3CE9B37235474A489E9C4448F7763E9EC
:10164000310A73E394E6180D0FF7F419A808790529
:10165000872A5132BAFD86027EFBCC199E0D0118F5
:10166000E2FA6D291807F4EEBE13B9019BEDF6D628
:1016700028FE01807CEBFEF348E8EE0749079CE773
:101680005204D6CEF0007EE9AAF79F1482F4ECFC57
:10169000BDD63D141331870921B7710654D75F5B5E
:1016A00038E8851FDFE1364EFDD536188E0E328ABA
:1016B00051E30180F3A0D3E633F612D73B2C12B6E8
:1016C0008EB98019A4D74728FF336DC907BB32F301
:1016D000B536CEEC482667F5BB46044A664D7F0E0C
:1016E0006ACFCDE82329634A9BD818536CFD1EF5B9
:1016F0002DE97AE5603EAFF1AA1DF1B5A8B48009E5
:10170000E53E8D3C6600DC84DBE9CE9F279BB60876
:10171000BEABE54114BB96EE662801807A2BA4E9A6
:101720002829BC6639C317E0F33FA61260F2875A36
:101730009BC6771BA82E3E2CB4A321183C9B3AB81D
:10174000FC54C7DCAFBC5E094C20D8ADE0A60180DC
:101750002622B9AA120A71E295A9D4D5689A0BBAC1
:10176000E1FB038F178C0063700C8DC59BFB02623D
:10177000BE91EEB96DA064F674FB0199BC5B829AD0
:10178000647B06A5E3EDB61842C58B79E2A4ADF8FB
:101790004C36FEBD4D4C273E46960CBE1F14143CE5
:1017A0002D41863D36906EBDE6AE653E75202B3DE3
:1017B0004F77FEBD0E2C073D12DC58BEA6483E3CBE
:1017C000E9D6EBBCDE72D5BD4A60F33C9D676C3C4C
:1017D0003D2993BBC05CCBBD4FE61FBD8CD9F2BD8C
:1017E00039ED69BD98DC283D0798393D4031323CE0
:1017F000CAA39BBE97E616BD22725ABE22E1DBBD8C
:101800001765B6BC01198ABEABD0C0BC4F3CA7BDA2
:10181000ACC5A736B5FE1637ACC527379C53C936BD
:10182000ACC5A736ACC5A736BD378636B5FE16376C
:101830009C53C936BD378636ACC5A736BD3706378B
:10184000BD3706378BE1EA36ACC5A7369C53C9369F
:10185000931A5A379C53C936ACC52737ACC5A7373E
:10186000BD370637BD3786368BE1EA36ACC5A736BD
:10187000399B8E37ACC5A7369C53C936ACC5A73645
:10188000B5FE1637A48C38379C53C9368BE1EA363F
:10189000BC50550EED396CC79B5BE3190E35ABE9B7
:1018A0008747DF5252B4C62835AE00BC76AD8A1CDD
:1018B0000EB37CC45ACEBD17F5872FD4B90041D9D9
:1018C00065D3962728C45BAC5CE512C66E3328BD91
:1018D000EADC0629F0A8754C4EB020E595C3B0C5EA
:1018E0003ACB0180C021C7CBEA36A342EC550F1D8D
:1018F0003CF3B656AB45D8A8DBE9BEA0BD031EDD60
:10190000F34F9E0F55E18FB8369F90F1DEC3A4D2FE
:101910001F2F1DDB3CE7C111F81863E0820F0D1C7F
:1019200095CEB807B60C5C16B91E5DDE2A1E0CE516
:1019300008F472334FE5FE08512E60DC60D0770C5E
:101940008330D7FC532A9B13951F75F41D37BF2393
:101950009D545A2730CFB0084CFF5AFA3B128505E8
:10196000E2FB01802EDD1E084AF7F4D0D0360007D6
:101970005DF5A91E040D6EEFE61B7CDD4713AA3151
:10198000E906781B40F4BF0D5405441539F0C30730
:1019900064BEB1B9B3D202CD30E1EC2ED30998D3F5
:1019A000E8E6770B4FF1F8F5B7EF03F4A505E80289
:1019B000E82B0FA86628871716BC8D017EDF55D24D
:1019C00014FA47F062D6A8172A0E7D1558E61F09AB
:1019D0000180BCE067EF23198FA9BF232611B4D77C
:1019E000450CBCFD2C1518E70DEBF8E502F7401B84
:1019F000BB0E262453C48BEA49DE441E73DFCDEBB5
:101A0000F534EE0B48C6F2DE762827245DB36B2A48
:101A10003E46D32E2CF9EC55822A8B50414B24C8DC
:101A200091340E2F85C3C4F5731A94D2970184F9AB
:101A300041E0B69A992E5C5B82DECE1E9CFB84E868
:101A4000D4BACEE71D3058C6B6FCB5F2ABC111EF23
:101A50006A9AADF168E8111DC03E5E21F008D7FF1B
:101A600038E3BA7C9328018031F5ADBF76B5E8FF45
:101A700023296AF2052F74F22DD1CB3A1AAD8912BF
:101A8000A1E7DC3FFD4976B7491519FD82084441BD
:101A90004BC2879AEAABAD270E0575676C15619E40
:101AA000EB19DA5FF840F5044DB130C12147F5B9C3
:101AB000E61794F21A23DB06FA950EBC5D5B14F26E
:101AC0001D3527CBED5294E942C2401577DAE8D5AF
:101AD000A1D605FA6CC4CE2301804D4027617EF665
:101AE00022CD93853131613B163F5709D322606483
:101AF000CBF56ECD32825513CE28175DACCAFE2CC5
:101B0000F2C2F7E5A622FA9FE4323E1676A77435B4
:101B1000B3BB3DE308E7018057F6832D26F511D2CC
:101B2000F5020611F9E593A0E8B6CBF09821F4523E
:101B3000BB0182EAAC3553D7F7C96FF7CA42B8F692
:101B4000EAB7F234E7B2A02E9F0105FF13A534DFF8
:101B500084F6CC4736DC2F5372B3BDC79BD78DDEDE
:101B6000489FDEF560CC4CCC8FA3244C73EE77B647
:101B7000CFE4D4FF5BF5A9DEAE3AD1DF15E4D9E9B5
:101B800054BBBD4AA5CDC6478E0ECBB2D9E7F7D31D
:101B9000291502DFF0220D0A2AAE00B3EC8AEEBF4F
:101BA000FF1F7A012456AFE36D966C9DAC00BB29F4
:101BB000B8CC3C496DDCD861B91EAD071F6848F64A
:101BC00028E479360EA5BB3E01D6E02469B5BAB843
:101BD000FF7F22CE0CE401481A58FC9049013EE5F3
:101BE000192844D1F72E0FFDCB85C798E93B8DD638
:101BF0007098860F0E3412F022F017D9D39C14413E
:101C0000A3E6C1428A4FF440474075F0C93FCB027A
:101C100074F64324E41EFD2D3CCF4231F026AB3553
:101C2000BB1D1AE86229EF1FBFFDA7F9B02AEA2BF6
:101C3000E426ED08F7E392F9B4C62628980D018052
:101C400026F930D62ACF1530FECFAF1967018E00A6
:101C500046AD8C2A8201E729F2226C2586CE6CEDF6
:101C6000AF13B538B3F4C8EF1727EC170ADACADD9B
:101C700050F06002311137EE59F9880F34DC9026AC
:101C8000D92130E085E52DF320F845FA0D0874CB15
:101C900047E66E87F71498F7E7E92E4210BD541B0C
:101CA00055D558EE54B564B436BED421E2E290283E
:101CB000FAD565F46309F9400028F9106415564B0C
:101CC000FC30781F9EE83DEAC11B442ADCFBDF267E
:101CD00031D4B52B9B12A3CA76A9C8C4A40F06B2EF
:101CE000EBC61ADCB0D09D3BEEE29018043831D13F
:101CF000FF7F5BFEAFC2D5DCBD1325107FFD65D92C
:101D00007CFE810B8BE74CF293F7E9DEFDD418C122
:101D1000B75501802665259D9AE56DD3C2C5B026CD
:101D2000113F86B852CD9D231C17801AE438C8D7BE
:101D30009DC39FE828D892B796B24DC9586C2CE73E
:101D4000DC2E9E0EA5B6854E8BD6D3E3AD5892C839
:101D500094DC70A3A31B382BB294BB3CF90B3AB0B4
:101D6000D624E80A3D26CDC19EA874C5E128501DA1
:101D7000B5B90363820EF8BE4C38E0D12622915AE1
:101D8000A583E6C909DA3A104B93269EDEE050F0AF
:101D9000EAE776B8D2122BC78C0AB4FAF3209E3E3B
:101DA00037D278D045281AAC2A2A632A450D2BD879
:101DB000C002C19F75AD6656E283EA8A5CDC68D7D3
:101DC0000315CAD219F783EBC9F50E3E3814FBEDA3
:101DD0000A05EDB572EAACCA48F9E6AE17220380EF
:101DE00071E49FB6B94ECEBA7812C6C27ACEE52259
:101DF000A5DF90B721905AD0671996507A43810198
:101E0000018034AE5DFFD9CCEAB339846F93CD1134
:101E10000DE1A4E588FF85EBE0F3A2FD9A1AB62C4C
:101E2000BB3311CE44CC17DBC206C8219D39B70F96
:101E300088D42E899527BF41D6E74AE7E8C49FB9E1
:101E4000CE2A74E55E2514CEA5614AFC0226231233
:101E5000DFF8DCE1DDC4F9D5B826C2EA7E015FB166
:101E600034C098DB0DCFF115B3C6F8F905CEB12615
:101E700072AFFF099F0151CB9F27D8317CDA200533
:101E80009B1CB032AC22AACC0180DEAED9D7A5F320
:101E900022C98C0864D5E7BCABCF81DB8F3CCF0770
:101EA0002DF5D4EDA5D038090C14C929992C670457
:101EB00047EF46D3173CEDE1223489F368391DBA68
:101EC00061F0B2CC1F08C1D407E10E0AD3273B0052
:101ED0000ECE58CB8BE8C107E9C23E02B5E2C1B3D2
:101EE000D11FF63E6A2BFF7F081716DF74D18429B5
:101EF0005B1B1F324ED898D1463CE7CED2D6C316D4
:101F0000331785EE29CAA7328D9938C6EAE4A43D75
:101F1000A1BC76CA84CEDBD70517F51F491C92BF3A
:101F20006BEF271DA7F9D9D3E2D6DC403FC91ECA03
:101F3000D93113AE56294BDAF0F340DF84388227CB
:101F40004903A4012FE670DBE4C5661634F3FF2DC8
:101F5000A0F5C100E8C9981BD2B4FB0F8B189DE710
:101F60004F0BE1F41CEDEBB763B986223C25D2CBD5
:101F70006037D9E6E435BFD19F386230D625C02E10
:101F8000C9E83017018062F070ED480842CE581F52
:101F9000A31CF5F7D13323C63A307ADD36576BFDF3
:101FA00021FA5DA71D5DEADF5C2E23BEC5ABE3EF22
:101FB00080AFD2285B0115DBEC26DB2A1BA7BAC455
:101FC000E63ADAC26D1330E504CC9AB2D3FC80D97C
:101FD00030FE81CEFBF025418BCA04FF1153591FFF
:101FE000D6070180A0172705C1AFAFA58F0A4F62A2
:101FF000A5C0ACCEB0C2CD8E03C2064F004DEFB52A
:102000008E0D01AE9D073DBBB88B89B996DD464369
:10201000FDF5CCA48F3D77D8FC07BE0503FF6B2EE2
:10202000D62998D6D349A309E7F350432804DB30D7
:102030005ABEA86CE2483BC6A6B60CC077D05F007B
:102040006A2226F64136EE0239E1289B3B09D0A7E9
:1020500040DE4D0BDAED3A179503BE335B300BF0E3
:102060008F8C018061C812DE00BEF9C48516A92ECE
:1020700097D2F5B213E8C504663C5607AD35DFBA12
:102080000B1B13CE439D7D379B1AFD10FFA67F3A95
:10209000861B13093A1D39FAE6F5070B5412A8EC12
:1020A0000E1756F2A9ECAFF93CED32E00C0CA50A84
:1020B000DFFE4AE581E5A4E49BFD7A0BEB0A2E10D6
:1020C000AE1BB5EA25F63FE1C923E6D8B9E4D6F45C
:1020D000522F7C176107F31DB1EDCBEBBEE94F1515
:1020E000F2F4A10921E49CFA53E7E0F864FACD0187
:1020F00001806A1CE9EA1006F3189A0E5F198A1427
:102100004EE1A60719031AEE7BE1E6018BF9A4FE66
:10211000DEB8CC10463578F0E5129D24C7AE78F2D3
:102120007EE1F7D545324D4098263033FCC27D0E16
:102130005DF581B0DD102E1A0BE20C0D7C279B2F74
:10214000C404EE02D3FE5A0B94CB9BD5E9CD50C606
:10215000C698FE3CF7BB5DF975EFA4485325DAB08D
:10216000CF330180B10A4B32EB5FF0EC1DC91D2467
:10217000BA3C28D499E933BB681F8111C528C8E34C
:10218000D9B75DDD0FB330ECDC0788A798E889AFDD
:10219000D6F9120005EF2900C8047C1E2C22B60FC8
:1021A000ACFFB8F4DC212BF43F0B4CCEC8DAE50AC7
:1021B00069E3503B732B161499DC04FB30E8018073
:1021C000F5F5A0E70D00AB2807084106F111D20391
:1021D000894294ED172179EB3AD19E2E562952DA95
:1021E000ED4BF400C80CC904ACE341F04E1F1EF3E4
:1021F000C2ECFFE74C19E207EAF701FF7D0370E24A
:102200000F014CD9C0E0AFF3D60E942345FE06185B
:10221000BAF00608A106A103B3F824FBEAEB090F04
:1022200084109B0B930C51F7CA2C1A08EE08F00887
:10223000F1F4E90174074FECE907E1E531F00180C1
:10224000761397FC950735FA311548FF31F7B4E658
:102250006F202C0439F6CF020FCE3800FE121E1369
:102260007B15F8E259FB1BF5CBE36DF4B8101B07A7
:102270006892E9E7D30724023305FF1334E9140712
:1022800000955112D6FEC10201E62A0E5900BB0488
:10229000BC149ABDEFEDCA135207DF0083398CEFEF
:1022A00055109924B9F34D27A02659198EF0F53908
:1022B00062B37F44B70C2F2969194DFA8ADBF838CD
:1022C000BE15A7CBF0F8FC13D00FA92BCF0AADFA9F
:1022D0006D1F17C4D13950FC5F182212A9FCA52B21
:1022E000018058F5C11B1A254C1CFEC106E0C91E11
:1022F0003D538BC83D01DAEFCE3D3EC2E9F08ADDA9
:102300003DBBA9F5AE08D92DE9EE5AF4A00A570055
:102310001AABC83F6F5E043DCDD8B145E5A7613328
:102320002EF297A823A6698C66F76AD36ECC996AB9
:1023300074D5220F4AEC063EE60E77193D1D7E0449
:10234000F7629AF226B794258CD9BEA319041AE035
:1023500049BA8FCA3C8EA8D262DD2C6C5EBE14CE08
:10236000D380A4C9DA07308BE721939BA3671215AA
:10237000EBE66AD77A20533CC3B6EFE36E5204EB28
:10238000B5FF04DCC6C619EB018034A48907D44C20
:102390006C2965A3471CE3C42A273A464626F1E286
:1023A000EC3B65BA2EF7AEC8B1B613D674CAC113EA
:1023B000E3F9301078EFA03CB9F51C2CAF3B01805D
:1023C000A5CE452C704545C15FD7BEE331450E3DD6
:1023D00027238D270F1CD143C5B3A203AAEC32C912
:1023E000F4BF17CB71F9BCBCA8F6B10C94CC632C2C
:1023F000DBE7B40036C420ABDFF6B4427A456A1A94
:10240000BA15D3D74703D82C0A990AC55803CB0667
:10241000AC8E0180BC4007EDCDFF69A9974ECAC4C0
:10242000E9273BF5EB029B0059EBDFE668478DBFE0
:10243000082F05D012E2F63BA1EE6E900B50DCA9FE
:102440006F4DE3E356576C1A12D2AE0472FF2CD3D1
:102450009B2A193A66FD41544CC2A1D030CF140ECC
:102460004FBDA608FEA88C00E5A7C61FBE483F23A7
:102470005CC3F9ABB6C1BA9D8955D7CFA222E84754
:102480009FAF66B15FDB6AE588192BD5CAD0AE4F26
:102490001FEF372BFBF6F80107045FFA6605F3E937
:1024A0000801D90CC5E5B2E0A4F9A3000CFFDC02D9
:1024B0002304FC0839FD11F273FB040FD5FA13D085
:1024C0004EF73F0F13E8ECF7F2CB23F12C0752E461
:1024D0001D0F68FF6604760F46DBF918FDFA3FAC66
:1024E000012AC71474082304ACE0161A20F686F2F9
:1024F000018089F00E1A9E02310BBC1A63126A0029
:10250000B4DE03108E0F230E37EB17010CF5D00548
:1025100042F724086A0EAA978B25AB36BDCFE2C3DB
:10252000E5C0E9D251F42EFD99F57DE78239E60444
:1025300030CA31D184C94EDF0DADB8EC31B80A06CE
:102540007C3F0FBB18CFC6B6AEF57D036BC63C2EE5
:10255000DC1544ACC2E71BD835D69A3308F6489F41
:102560000F22CF892CE000105F21F2593BEAED1ECB
:102570009CAEF8EDE0C32F0248C30614E12F3A48A1
:1025800042DBAB540180BDE5C40E9F01DA1681C267
:10259000DE2E23A78ACB6AD9ABB546B714BC843DDF
:1025A000C81096E7DBFC358B62A4A5CAFBB5563292
:1025B0003AE5D00B1DBEAC0C21E13AEA0E31B9234D
:1025C00077C95A2B94F347FFBCE57B050241132FD3
:1025D00065A570D1CDA07F189BB9DFBFF5CE018076
:1025E000FA8AE108BD2A1D29E1B29EE028E57F01B3
:1025F000F8AB370B1FC6170C1646EC0CD03782C948
:1026000076E1C2D00FED90E1C3AEF593CDFE3F0A67
:10261000B5CE8883C44AB829FEC31E0A17427BA1DF
:102620000EA83A3707FE2F00B3B60C120342A7E7F5
:10263000DADF4381A4F0113FA3856ED88D4867F19E
:102640003ADBFBE1ADD7EA0B0180D73311C4D6E802
:1026500049F99A37E8AC6EA55D98FDB68BCFF62E9A
:102660003490B8A5DDAE82C36ADA50C30D01A22151
:1026700011EFF12A86F64A40EBFA45567F4A942F2D
:102680009E1858BD949D812A8D040F3A26D3B4ED2F
:10269000CB32950AD23303DAA0EB6302711D9CCFD3
:1026A0008DF016287E0B1D234CEA34DD51DA62DEF4
:1026B000DAC341F2D60E5BDAC6075EE28B140EEC8B
:1026C000372610D93C2801E21F0A84D07D2215DB71
:1026D0005C341AF101802AE8D0B4B9052E270A1516
:1026E0008940ABBD95E3F42F6B0088110133E612EE
:1026F000D60A78EFF8E7AFC411112F306A1BE8FE55
:10270000684A27E69AEB693032ECBC1910C4E8F04D
:102710006516C4AED50BDFF136EE4E1EAC2798FC25
:10272000E0E03EDC4CF52708DF1CF4E0371A4808EF
:1027300002E923D03C1871FDA7CB7BE80B0E7F5D2F
:102740004EF1E7ED73D5631C86FD602E07E1A612FE
:1027500043C1C516ABEA7EDCB7E06311D2E559068A
:102760002EBB86D99BFF50C87D039F0F59F79D2232
:10277000FF7F5102DBBD13FFF92610F535E9D0F5D7
:10278000B5F6B0DF8F019E1271F255D059C90B22F8
:10279000700940EC2EFCD2F63352FA1A82D5F5209D
:1027A00031DEFAFC20C9BBD225E354CCC636B04E8C
:1027B00018B5D9FF25C56CEBB9026FDCD119F2E26F
:1027C0004E5100D84D0CBF08B0F60A054D1DD60578
:1027D000E31C14015FF30A546FAE55DDD93D3BE1B4
:1027E000018087DB71ACC4AEDDEBE12CC3EC1E488D
:1027F00012486F42BB996EBD2F053F45B5F1CC1114
:102800007D0D6DD3B0AE415452E1A509FB817BDF54
:10281000550E949ED216D6B7F3412FDE93FC9FD36C
:10282000F0E1EAC5B1C48AE8A7F20D32ACFFB034DA
:10283000A7F43AFD134192CB04F2EA1A77F08D34F3
:102840007005A0DBDF04D7E3DCFC9EF143E97AE608
:10285000AB4F0122F7FEBFD00180A11FD13270968D
:102860009436E8A2A4DBF6FF3A2A76424D1D91F297
:10287000E0E332E60641090C7131C5C20C0673EA89
:10288000C5E42841A1EA40F428E0EFCC59C4861DF4
:102890004A5F583E431EE13DCB9C8E3D8C64EFBDAC
:1028A0005C8E57BE8BE1EA36BD378637ACC527371D
:1028B000ACC5A736BD37863690FF17E7B226940A17
:1028C0003D441654D100CBEA6176FACA6017D7CAE4
:1028D000271DEF290180AA9744F271CDC6E9FC3D7E
:1028E0007408B81211ED614B5DEBD8B7ED13BD154F
:1028F000E8387D2451E30F8219112E05018097FCE1
:1029000086D03711F2FBE30EFACFE7FD6DC38CE5FD
:10291000A3D90012FFC1E8F4BAFBFAE9F40707F201
:10292000B4F0F1EA3DEC3DFF391008EC0AE7490349
:10293000840FCF9DA912BB0454FC64220180CDB446
:1029400065CD0BDBE00400EE3B2570E1A7153BCF26
:1029500065D2EFBB0318F40CBC2E8BE52FE071B6EB
:10296000D2E45CC9BB188FC957F288D3FAD4C12707
:1029700057F9A3DEBA208A2B781DD42D32BC18DA81
:10298000078B0D42769DA222205FA06569AC78B1CD
:10299000D9D7E33AF5F4BF4D6D48DEB0AA58BEB7BB
:1029A00069CD72AC1213F022ACB31358CFA9AE05A7
:1029B00038F224A4DFE001801F1196E8055C2E4F59
:1029C0007D54A098F096604031BD3CE46D9E480770
:1029D0008F20FCDDB4CD01804F0730DF3C1CBAAA4C
:1029E00024ACF0672DBBFBBCD3C7645B1A5D4C9C69
:1029F000077FB5D74E84BFF22A1D11241FBECFEF2B
:102A0000D8E0DEBFCDBF11E0A0E0B1E0E6E5F2E442
:102A100002C005900D92AA32B107D9F724E0AAE2CC
:102A2000B1E001C01D92A638B207E1F714E1CDEF85
:102A3000D4E104C02197FE010E940D21CC3FD107B3
:102A4000C9F70E9469170C9429210C9400003FB724
:102A5000F8948091E1039091E203A091E303B09197
:102A6000E40326B5A89B05C02F3F19F00196A11DD0
:102A7000B11D3FBFBA2FA92F982F8827BC01CD01C8
:102A8000620F711D811D911D42E0660F771F881F27
:102A9000991F4A95D1F70895AF92BF92CF92DF92D6
:102AA000EF92FF920F931F93CF93DF936C017B0103
:102AB0008B01040F151FEB015E01AE18BF08C01794
:102AC000D10759F06991D601ED91FC910190F08107
:102AD000E02DC6010995892B79F7C501DF91CF91CA
:102AE0001F910F91FF90EF90DF90CF90BF90AF902C
:102AF0000895FC01538D448D252F30E0842F90E004
:102B0000821B930B541710F0CF96089501970895E8
:102B1000FC01918D828D981761F0A28DAE0FBF2FB1
:102B2000B11D5D968C91928D9F5F9F73928F90E007
:102B300008958FEF9FEF0895FC01918D828D981776
:102B400031F0828DE80FF11D858D90E008958FEFB3
:102B50009FEF0895FC01918D228D892F90E0805C7C
:102B60009F4F821B91098F739927089585EE93E0FB
:102B70000E94AA1521E0892B09F420E0822F0895F4
:102B800080E090E0892B29F00E94B61581110C9409
:102B900000000895FC01A48DA80FB92FB11DA35A00
:102BA000BF4F2C91848D90E001968F739927848F6D
:102BB000A689B7892C93A089B1898C918370806490
:102BC0008C93938D848D981306C00288F389E02D31
:102BD00080818F7D80830895EF92FF920F931F93E2
:102BE000CF93DF93EC0181E0888F9B8D8C8D9813C0
:102BF0001AC0E889F989808185FF15C09FB7F894CC
:102C0000EE89FF896083E889F98980818370806417
:102C100080839FBF81E090E0DF91CF911F910F9162
:102C2000FF90EF900895F62E0B8D10E00F5F1F4F71
:102C30000F731127E02E8C8D8E110CC00FB607FC80
:102C4000FACFE889F989808185FFF5CFCE010E940E
:102C5000CA15F1CFEB8DEC0FFD2FF11DE35AFF4F9D
:102C6000F0829FB7F8940B8FEA89FB89808180629C
:102C7000CFCF682F85EE93E00C94EC15CF93DF93C4
:102C8000EC01888D8823B9F0AA89BB89E889F98984
:102C90008C9185FD03C0808186FD0DC00FB607FCB9
:102CA000F7CF8C9185FFF2CF808185FFEDCFCE01EC
:102CB0000E94CA15E9CFDF91CF910895FC010190E0
:102CC0000020E9F73197AF01481B590BBC0185EE95
:102CD00093E00C944C158F929F92AF92BF920F93FA
:102CE0001F93CF93DF93CDB7DEB7A1970FB6F894BC
:102CF000DEBF0FBECDBF19A2423008F44AE08E01FC
:102D00000F5D1F4F842E912CB12CA12CA501940195
:102D10000E94AE20E62FB901CA01EA30F4F4E05D6A
:102D2000D801EE938D01232B242B252B79F790E0EE
:102D300080E0109719F0CD010E945E16A1960FB6A3
:102D4000F894DEBF0FBECDBFDF91CF911F910F91E1
:102D5000BF90AF909F908F900895E95CE1CFCF93A3
:102D6000DF9300D000D0CDB7DEB744E050E0BC0127
:102D7000CE0101960E94751D69817A818B819C81AB
:102D80000F900F900F900F90DF91CF9108951F92A9
:102D90000F920FB60F9211242F933F938F939F930F
:102DA000AF93BF938091DD039091DE03A091DF0389
:102DB000B091E0033091DC0323E0230F2D3758F569
:102DC0000196A11DB11D2093DC038093DD03909338
:102DD000DE03A093DF03B093E0038091E1039091C1
:102DE000E203A091E303B091E4030196A11DB11D9C
:102DF0008093E1039093E203A093E303B093E40391
:102E0000BF91AF919F918F913F912F910F900FBEE6
:102E10000F901F90189526E8230F0296A11DB11D53
:102E2000D2CF1F920F920FB60F9211242F933F9380
:102E30004F935F936F937F938F939F93AF93BF93C2
:102E4000EF93FF9385EE93E00E94CA15FF91EF91F7
:102E5000BF91AF919F918F917F916F915F914F91B2
:102E60003F912F910F900FBE0F901F9018951F92BA
:102E70000F920FB60F9211242F938F939F93EF937E
:102E8000FF93E091F503F091F6038081E091FB035D
:102E9000F091FC0382FD1BC090818091FE038F5F47
:102EA0008F732091FF03821741F0E091FE03F0E061
:102EB000EB51FC4F958F8093FE03FF91EF919F9113
:102EC0008F912F910F900FBE0F901F9018958081BA
:102ED000F4CFCF93DF93CDB7DEB72C970FB6F8942E
:102EE000DEBF0FBECDBF789484B5826084BD84B54B
:102EF000816084BD85B5826085BD85B5816085BDF5
:102F000080916E00816080936E00109281008091AC
:102F10008100826080938100809181008160809334
:102F20008100809180008160809380008091B10059
:102F300084608093B1008091B00081608093B00084
:102F400080917A00846080937A0080917A00826018
:102F500080937A0080917A00816080937A008091DA
:102F60007A00806880937A001092C100E091F503A6
:102F7000F091F60382E08083E091F103F091F20397
:102F80001082E091F303F091F40380E180831092CA
:102F9000FD03E091F903F091FA0386E08083E0916C
:102FA000F703F091F803808180618083E091F7035B
:102FB000F091F803808188608083E091F703F091BD
:102FC000F803808180688083E091F703F091F80333
:102FD00080818F7D8083E0918204F091830430971B
:102FE00011F4E6E8F4E09E012F5131098DECE2176F
:102FF000F30710F48193FBCF2FB7F8948091DD0392
:103000009091DE03A091DF03B091E0032FBF809386
:10301000D1039093D203A093D303B093D40383E15D
:1030200091E00E945E168AE191E00E945E169E0188
:103030002F5F3F4F3C832B8385EE93E00E94AA15C0
:103040009A878987892BE9F185EE93E00E9488159C
:103050008C33A9F41092B2039FB7F8944091DD032A
:103060005091DE036091DF037091E0039FBF4093B6
:103070002A0150932B0160932C0170932D01E09154
:10308000B203EF3E68F491E09E0F9093B203F0E03C
:10309000EE53FD4F8083E92FF0E0EE53FD4F108299
:1030A0008E3311F08A3041F66EE370E082EC92E0EC
:1030B0000E941321892B09F4BFCF31E03093DB0349
:1030C000BBCF8091B203882301F12FB7F894809190
:1030D000DD039091DE03A091DF03B091E0032FBFE9
:1030E00040912A0150912B0160912C0170912D018A
:1030F000841B950BA60BB70B853F9140A105B1052D
:1031000020F01092B2031092C2028091DB03882358
:1031100009F41FC41092DB036CE370E082EC92E0D0
:103120000E9413218C016EE370E082EC92E00E9419
:1031300013210115110509F408C4009709F405C409
:103140000817190708F001C40F5F1F4F801B910B70
:1031500003970CF4FAC36CE270E0C8010E941E21D0
:103160007C01009709F4F1C30817190709F4EDC3AE
:1031700001960E94571D5C01F70110823EE6832EE6
:1031800032E0932EF12CE12C0115110509F4D8C37E
:10319000FAE2EF16F10409F0B8C3EEE6F2E060E0FF
:1031A00070E0CB01219131918901330F220B330B58
:1031B000600F711F821F931F22E0E23CF20791F71C
:1031C00024E630E040E050E00E94D0208501BB0CB6
:1031D000220B330B601771078207930709F0B5C301
:1031E0000E9427152B013C0120E9222E21E0322EDE
:1031F00080E990E09E838D83EEE2F1E0F887EF8333
:1032000010E000E09EE6A92E92E0B92E50E040E0EA
:10321000C12CD12C7601F501A191B1915F01FA0188
:10322000E00FF11FEE0FFF1FE057FD4F2591349186
:103230000E94EF20C60ED71EE81EF91E4F5F5F4F9B
:103240004A32510541F7C1010E94AF164B015C01A2
:10325000C701B6010E94DC1EA50194010E942E2028
:103260006B017C018D819E810E94AF169B01AC0198
:10327000C701B6010E94871D6B017C0120E030E090
:10328000A9010E94B31F70E060E0181684F420E0EA
:103290003EEF4FEF56E4C701B6010E94F31D6FEFFA
:1032A0007FE787FF04C0C701B6010E94A41EEF811B
:1032B000F88561937193F887EF83F4E02F0E311C4A
:1032C0002D813E812C5F3F4F3E832D83065D1F4F36
:1032D00000383AE0130709F095CF0E9427156419CA
:1032E0007509860997096093C3037093C40380939B
:1032F000C5039093C6030E9427152B013C01E0E112
:103300002E2EE8E13E2E80E997E19E838D83EEEA42
:10331000F1E0F887EF8310E000E07EE2A72E71E095
:10332000B72E50E040E0C12CD12C7601F501A191DF
:10333000B1915F01FA01E00FF11FEE0FFF1FE0579F
:10334000F74E259134910E94EF20C60ED71EE81E3D
:10335000F91E4F5F5F4F4034510541F7C1010E9494
:10336000AF164B015C01C701B6010E94DC1EA5012E
:1033700094010E942E206B017C018D819E810E9410
:10338000AF169B01AC01C701B6010E94871D6B01FE
:103390007C0120E030E0A9010E94B31F70E060E0F2
:1033A000181684F420E03EEF4FEF56E4C701B60153
:1033B0000E94F31D6FEF7FE787FF04C0C701B601CE
:1033C0000E94A41EEF81F88561937193F887EF83C3
:1033D000F4E02F0E311C2D813E812C5F3F4F3E8348
:1033E0002D83005C1F4F011538E0130709F095CFBE
:1033F0000E94271564197509860997096093BF0310
:103400007093C0038093C1039093C2030E94271559
:103410002B013C0154EA252E58E2352E80E998E232
:1034200098878F83EEEEF1E0FE83ED83FC87EB87D8
:1034300010E000E04EEAA42E41E0B42E50E040E05F
:10344000C12CD12C7601F501A191B1915F01FA0156
:10345000E00FF11FEE0FFF1FE854F74D2591349157
:103460000E94EF20C60ED71EE81EF91E4F5F5F4F69
:103470004032510541F7C1010E94AF164B015C017A
:10348000C701B6010E94DC1EA50194010E942E20F6
:103490006B017C018F8198850E94AF169B01AC0166
:1034A000C701B6010E94871DEB85FC85619371936E
:1034B00081939193FC87EB87F4E02F0E311C2F81D1
:1034C00038852C5F3F4F38872F83005E1F4F003AAF
:1034D000110509F0AFCF0E942715AB01BC014419BB
:1034E0005509660977094093BB035093BC03609369
:1034F000BD037093BE038091C3039091C403A09158
:10350000C503B091C6030091BF031091C003209181
:10351000C1033091C203800F911FA21FB31F840FFC
:10352000951FA61FB71F8093C7039093C803A0934E
:10353000C903B093CA030E9427152B013C012090B8
:10354000EE013090EF01C090F001D090F10182EFD8
:1035500091E098878F837C01F70181909190A190F1
:10356000B1907F019101A601C501B4010E94B31F72
:10357000181614F4140165012EE632E02E153F05ED
:1035800059F70EEE11E0812C912C5401F801619154
:103590007191819191918F019101A6010E94861DE7
:1035A0000E94721E9B01AC01F80134972083318385
:1035B00042835383C501B4010E94871D4B015C0106
:1035C000E016F10619F7ED81FE816191719181910B
:1035D0009191FE83ED837F01F4E0EF1AF108A501DC
:1035E00094010E94F81DF7016083718382839383A5
:1035F0002D813E810217130731F70E9427156419A8
:103600007509860997096093B7037093B80380938F
:10361000B9039093BA0301E010E0EF81F88561915E
:10362000719181919191F887EF83E985FA85EE0F89
:10363000FF1FEE0FFF1FE251FE4F208131814281BB
:1036400053810E94B31F181614F41A8709870F5F5D
:103650001F4F0530110509F7E985FA85EE0FFF1FA9
:10366000EE0FFF1FE251FE4F20E030E048EC52E445
:1036700060817181828193810E942E206093B303C7
:103680007093B4038093B5039093B60389858F5BE1
:10369000809300018091D7039091D803A091D90322
:1036A000B091DA030196A11DB11D8093D7039093C9
:1036B000D803A093D903B093DA03E0918204F09188
:1036C0008304309711F4E6E8F4E0EF3F28E0F207D6
:1036D00038F49F012F5F3F4F80818D3C09F446C134
:1036E0008FEF98E08E1B9F0B9093D6038093D503AA
:1036F0008FB7F894C090DD03D090DE03E090DF0335
:10370000F090E0038FBF8091D1039091D203A091FC
:10371000D303B091D40346015701881A990AAA0A23
:10372000BB0A38EE831633E09306A104B10408F413
:1037300044C06091D7037091D8038091D9039091D0
:10374000DA030E94DA1E20E030E04AE754E40E94E7
:103750002E202B013C01C501B4010E94DA1E9B0101
:10376000AC01C301B2010E94F81D6093CD037093B8
:10377000CE038093CF039093D0031092D70310927F
:10378000D8031092D9031092DA03C092D103D092D9
:10379000D203E092D303F092D403809182049091FB
:1037A0008304009711F486E894E0EB81FC81E81B28
:1037B000F90BF093CC03E093CB038BE70E9439160F
:1037C000809100010E9439168CE20E9439166091A6
:1037D000C7037091C8038091C9039091CA034AE05E
:1037E0000E946B168CE20E9439166091C30370919F
:1037F000C4038091C5039091C6034AE00E946B16F2
:103800008CE20E9439166091BF037091C0038091D1
:10381000C1039091C2034AE00E946B168CE20E94A1
:1038200039166091BB037091BC038091BD039091E8
:10383000BE034AE00E946B168CE20E94391660912A
:10384000B7037091B8038091B9039091BA034AE02D
:103850000E946B168CE20E943916C090B303D09080
:10386000B403E090B503F090B603A7019601C70139
:10387000B6010E949B20882309F47AC08DE191E073
:103880000E945E168CE20E9439166091CD03709101
:10389000CE038091CF039091D0030E94A41E6B01B0
:1038A000770FEE08FF084AE0C701B601F7FE0BC02C
:1038B0008DE20E94391666277727CB016C197D09A6
:1038C0008E099F094AE00E946B168CE20E9439160D
:1038D0006091CB037091CC0390E080E04AE00E94BD
:1038E0006B168CE20E9439166091D5037091D60355
:1038F00090E080E04AE00E946B168DE70E94391646
:103900008AE191E00E945E1620C06CE270E0C8017E
:103910000E9413216C01009711F0FC011082FFEF4F
:10392000EF1AFF0AC8010E94571DF4018193919379
:103930004F01C114D10421F086010F5F1F4F24CC29
:10394000FAE2EF16F10409F428CC1092B2031092B7
:10395000C20220E030E0232B09F46ECB0E94B615A2
:10396000882309F469CB0E94000066CBF901ADCE33
:1039700046015701E894B7F82FEF3FEF4FE75FE7B5
:10398000C501B4010E949B2081110DC02FEF3FEFB4
:103990004FE75FE7C501B4010E94F31D18161CF440
:1039A00081E291E06DCF2FEF3FEF4FE75FE4C7017A
:1039B000B6010E94B31F18161CF485E291E060CF97
:1039C0002FEF3FEF4FE75FECC701B6010E94F31DF9
:1039D00087FDF3CF20E030E0A901C701B6010E94C6
:1039E000F31D87FF07C08DE20E943916F7FAF094A5
:1039F000F7F8F0942DEC3CEC4CE45DE3C701B60124
:103A00000E94871D4B015C010E94AB1E6B017C0173
:103A10000E94DA1E9B01AC01C501B4010E94861D03
:103A20004B015C014AE0C701B6010E946B168EE2B1
:103A30000E94391620E030E040E251E4C501B401B3
:103A40000E942E200E94AB1E90E080E04AE00E947F
:103A50006B1618CFE5EEF3E01382128288EE93E046
:103A6000A0E0B0E084839583A683B78385E091E0EE
:103A70009183808385EC90E09587848784EC90E047
:103A80009787868780EC90E0918B808B81EC90E02B
:103A9000938B828B82EC90E0958B848B86EC90E00C
:103AA000978B868B118E128E138E148E0895FC01C7
:103AB00088279927E89421912032E9F3293010F0E2
:103AC0002E30C8F32B3241F02D3239F4689404C003
:103AD0000E947E1D820F911D219120532A30C0F338
:103AE0001EF4909581959F4F0895FB01DC0102C063
:103AF00005900D9241505040D8F708957AE0979F75
:103B0000902D879F802D910D112408955058BB272B
:103B1000AA270E949E1D0C94791F0E946B1F38F0EB
:103B20000E94721F20F039F49F3F19F426F40C9480
:103B3000411F0EF4E095E7FB0C943B1FE92F0E9418
:103B40008A1F58F3BA17620773078407950720F096
:103B500079F4A6F50C94AC1F0EF4E0950B2EBA2F59
:103B6000A02D0B01B90190010C01CA01A001112483
:103B7000FF27591B99F0593F50F4503E68F11A162F
:103B8000F040A22F232F342F4427585FF3CF4695C0
:103B900037952795A795F0405395C9F77EF41F16E2
:103BA000BA0B620B730B840BBAF09150A1F0FF0FAC
:103BB000BB1F661F771F881FC2F70EC0BA0F621F98
:103BC000731F841F48F4879577956795B795F79588
:103BD0009E3F08F0B0CF9395880F08F09927EE0F1D
:103BE0009795879508950E94171F08F481E008951E
:103BF0000E940C1E0C94791F0E94721F58F00E94A4
:103C00006B1F40F029F45F3F29F00C943B1F5111CA
:103C10000C94AD1F0C94411F0E948A1F68F39923D6
:103C2000B1F3552391F3951B550BBB27AA276217B8
:103C30007307840738F09F5F5F4F220F331F441FC5
:103C4000AA1FA9F335D00E2E3AF0E0E832D09150F9
:103C50005040E695001CCAF72BD0FE2F29D0660FE6
:103C6000771F881FBB1F261737074807AB07B0E829
:103C700009F0BB0B802DBF01FF2793585F4F3AF02F
:103C80009E3F510578F00C943B1F0C94AD1F5F3F95
:103C9000E4F3983ED4F3869577956795B795F795B5
:103CA0009F5FC9F7880F911D9695879597F908959D
:103CB000E1E0660F771F881FBB1F62177307840739
:103CC000BA0720F0621B730B840BBA0BEE1F88F748
:103CD000E095089529F416F00C943B1F0C94AC1F4A
:103CE0000C94411F0E94921FA8F39638A0F707F882
:103CF0000F92E8942BE33AEA48EB5FE70E944420F6
:103D00000F920F920F924DB75EB70F920E94FA1F5B
:103D1000E8E6F0E00E94441F4F915F91EF91FF9120
:103D2000E595EE1FFF1F49F0FE57E0684427EE0FB0
:103D3000441FFA95E1F74195550B0E94C41F0F905F
:103D400007FE0C94B81F08950E94AB1E6894B11131
:103D50000C94AD1F08950E94921F88F09F5798F011
:103D6000B92F9927B751B0F0E1F0660F771F881F80
:103D7000991F1AF0BA95C9F714C0B13091F00E949A
:103D8000AC1FB1E008950C94AC1F672F782F8827E3
:103D9000B85F39F0B93FCCF3869577956795B395C1
:103DA000D9F73EF490958095709561957F4F8F4F30
:103DB0009F4F0895E89409C097FB3EF49095809535
:103DC000709561957F4F8F4F9F4F9923A9F0F92FE1
:103DD00096E9BB279395F695879577956795B7955F
:103DE000F111F8CFFAF4BB0F11F460FF1BC06F5F45
:103DF0007F4F8F4F9F4F16C0882311F096E911C057
:103E0000772321F09EE8872F762F05C0662371F077
:103E100096E8862F70E060E02AF09A95660F771F8B
:103E2000881FDAF7880F9695879597F90895990F67
:103E30000008550FAA0BE0E8FEEF16161706E80774
:103E4000F907C0F012161306E407F50798F0621B95
:103E5000730B840B950B39F40A2661F0232B242B6A
:103E6000252B21F408950A2609F4A140A6958FEF89
:103E7000811D811D089597F99F6780E870E060E0DB
:103E800008959FEF80EC0895DF93CF931F930F93D6
:103E9000FF92EF92DF927B018C01689406C0DA2ECC
:103EA000EF010E944120FE01E894A59125913591F2
:103EB00045915591A6F3EF010E949E1DFE019701C9
:103EC000A801DA9469F7DF90EF90FF900F911F91AE
:103ED000CF91DF91089500240A941616170618064C
:103EE0000906089500240A941216130614060506FE
:103EF0000895092E0394000C11F4882352F0BB0F8F
:103F000040F4BF2B11F460FF04C06F5F7F4F8F4FF1
:103F10009F4F089557FD9058440F551F59F05F3F2C
:103F200071F04795880F97FB991F61F09F3F79F0DB
:103F300087950895121613061406551FF2CF46955D
:103F4000F1DF08C0161617061806991FF1CF8695DF
:103F50007105610508940895E894BB2766277727C3
:103F6000CB0197F908950E94171F08F48FEF089569
:103F70009B01AC0160E070E080E89FE30C94F81DC9
:103F80000C943B1F0C94A0200E94921FD8F39923FD
:103F9000C9F3940F511DA3F39150504094F059F080
:103FA000882332F0660F771F881F91505040C1F769
:103FB0009E3F51052CF7880F911D9695879597F98F
:103FC00008955F3FACF0983E9CF0BB2786957795AF
:103FD0006795B79508F4B1609395C1F7BB0F58F793
:103FE00011F460FFE8CF6F5F7F4F8F4F9F4FE3CF9C
:103FF0000C94AD1FFA01DC01AA0FBB1F9B01AC01A1
:10400000BF5728F4222733274427507820C0B751C0
:1040100090F4AB2F0024469537952795011CA39566
:10402000D2F3002071F0220F331F441FB395DAF34F
:104030000ED00C94861D61307105A0E88A07B94640
:1040400030F49B01AC01662777278827907830965B
:1040500021F0208331834283538308950E944120BD
:104060000C94791F0E946B1F38F00E94721F20F081
:10407000952311F00C943B1F0C94411F11240C94B8
:10408000AD1F0E948A1F70F3959FC1F3950F50E0FA
:10409000551F629FF001729FBB27F00DB11D639FFA
:1040A000AA27F00DB11DAA1F649F6627B00DA11DA0
:1040B000661F829F2227B00DA11D621F739FB00D46
:1040C000A11D621F839FA00D611D221F749F3327B6
:1040D000A00D611D231F849F600D211D822F762F4F
:1040E0006A2F11249F5750409AF0F1F088234AF02C
:1040F000EE0FFF1FBB1F661F771F881F9150504098
:10410000A9F79E3F510580F00C943B1F0C94AD1F06
:104110005F3FE4F3983ED4F3869577956795B7951E
:10412000F795E7959F5FC1F7FE2B880F911D969538
:10413000879597F908950E94171F880B990B08958A
:104140009F3F31F0915020F4879577956795B7950B
:10415000880F911D9695879597F90895A1E21A2EDB
:10416000AA1BBB1BFD010DC0AA1FBB1FEE1FFF1F1B
:10417000A217B307E407F50720F0A21BB30BE40B6B
:10418000F50B661F771F881F991F1A9469F76095B2
:104190007095809590959B01AC01BD01CF0108956C
:1041A000052E97FB1EF400940E94E72057FD07D0D0
:1041B0000E94AE2007FC03D04EF40C94E7205095EB
:1041C0004095309521953F4F4F4F5F4F0895909503
:1041D0008095709561957F4F8F4F9F4F08950E94F6
:1041E000F720332312F48A1B9B0B0C940821A29F07
:1041F000B001B39FC001A39F700D811D1124911DBB
:10420000B29F700D811D1124911D08950E94F72009
:10421000B7FF0895821B930B0895EE0FFF1F0590C3
:10422000F491E02D0994FC018191861721F08823F7
:10423000D9F7992708953197CF010895FC0181E0BE
:1042400090E00190061609F4CF010020D1F7019704
:104250000895F894FFCF3F00000000EC154C15794D
:10426000153E16AA1588159C157B626F6F747D002C
:104270000D0A006E616E00696E66006F7666000062
:107800000C94343C0C94513C0C94513C0C94513CE1
:107810000C94513C0C94513C0C94513C0C94513CB4
:107820000C94513C0C94513C0C94513C0C94513CA4
:107830000C94513C0C94513C0C94513C0C94513C94
:107840000C94513C0C94513C0C94513C0C94513C84
:107850000C94513C0C94513C0C94513C0C94513C74
:107860000C94513C0C94513C11241FBECFEFD8E036
:10787000DEBFCDBF11E0A0E0B1E0ECE9FFE702C060
:1078800005900D92A230B107D9F712E0A2E0B1E065
:1078900001C01D92AD30B107E1F70E942D3D0C945F
:1078A000CC3F0C94003C982F959595959595959582
:1078B000905D8F708A307CF0282F295A8091C0000B
:1078C00085FFFCCF9093C6008091C00085FFFCCF60
:1078D0002093C6000895282F205DF0CF982F809127
:1078E000C00085FFFCCF9093C6000895EF92FF92F1
:1078F0000F931F93EE24FF2487018091C00087FD22
:1079000017C00894E11CF11C011D111D81E4E8164B
:1079100082E4F8068FE0080780E0180770F3E09132
:107920000401F091050109958091C00087FFE9CF1E
:107930008091C6001F910F91FF90EF9008950E94D3
:10794000763C982F8091C00085FFFCCF9093C600B5
:1079500091362CF490330CF09053892F089597555D
:10796000892F08951F930E949F3C182F0E949F3CCF
:107970001295107F810F1F9108951F93182F882350
:1079800021F00E94763C1150E1F71F9108951F935A
:10799000182F0E94763C803249F0809103018F5F5E
:1079A000809303018530C1F01F9108958091C0003C
:1079B00085FFFCCF84E18093C6008091C00085FFE5
:1079C000FCCF1093C6008091C00085FFFCCF80E102
:1079D0008093C6001F910895E0910401F091050184
:1079E00009951F9108950E94763C803241F0809164
:1079F00003018F5F80930301853081F008958091AA
:107A0000C00085FFFCCF84E18093C6008091C00058
:107A100085FFFCCF80E18093C6000895E0910401CA
:107A2000F09105010995089540E951E08823A1F0FE
:107A30002D9A28EE33E0FA013197F1F721503040CA
:107A4000D1F72D9828EE33E0FA013197F1F7215064
:107A50003040D1F7815061F708953F924F925F9285
:107A60006F927F928F929F92AF92BF92CF92DF924E
:107A7000EF92FF920F931F93CF93DF93000080E16B
:107A80008093C4001092C50088E18093C10086E015
:107A90008093C2005098589A259A81E00E94143D24
:107AA00024E1F22E9EE1E92E85E9D82E0FE0C02ECA
:107AB00010E1B12EAA24A394B1E49B2EA6E58A2E50
:107AC000F2E57F2EE0E26E2E79E4572E63E5462E36
:107AD00050E5352E0E94763C8033B1F18133B9F107
:107AE000803409F46FC0813409F476C0823409F41B
:107AF00085C0853409F488C0803531F1823521F1A3
:107B0000813511F1853509F485C0863509F48DC0BC
:107B1000843609F496C0843709F403C1853709F423
:107B200072C1863709F466C0809103018F5F80932C
:107B30000301853079F6E0910401F0910501099582
:107B40000E94763C803351F60E94F33CC3CF0E94E2
:107B5000763C803249F78091C00085FFFCCFF092DF
:107B6000C6008091C00085FFFCCF9092C600809136
:107B7000C00085FFFCCF8092C6008091C00085FFC9
:107B8000FCCF7092C6008091C00085FFFCCF609250
:107B9000C6008091C00085FFFCCF5092C600809146
:107BA000C00085FFFCCF4092C6008091C00085FFD9
:107BB000FCCF3092C6008091C00085FFFCCFB09210
:107BC000C60088CF0E94763C863808F4BDCF0E945C
:107BD000763C0E94F33C7ECF0E94763C803809F4CC
:107BE0009CC0813809F40BC1823809F43CC1883942
:107BF00009F48FC080E00E94C73C6CCF84E10E94F2
:107C0000BD3C0E94F33C66CF85E00E94BD3C0E94D3
:107C1000F33C60CF0E94763C809306010E94763C44
:107C2000809307010E94F33C55CF0E94763C80333D
:107C300009F41DC183E00E94BD3C80E00E94C73C66
:107C400049CF0E94763C809309020E94763C809343
:107C5000080280910C028E7F80930C020E94763C79
:107C6000853409F415C18091080290910902892B8D
:107C700089F000E010E00E94763CF801E85FFE4FDA
:107C800080830F5F1F4F80910802909109020817AF
:107C9000190788F30E94763C803209F045CF809125
:107CA0000C0280FF01C16091060170910701660F0F
:107CB000771F7093070160930601A0910802B091AD
:107CC00009021097C9F0E8E0F1E09B01AD014E0F09
:107CD0005F1FF999FECF32BD21BD819180BDFA9A17
:107CE000F99A2F5F3F4FE417F50799F76A0F7B1F4B
:107CF00070930701609306018091C00085FFFCCF5F
:107D0000F092C6008091C00085FFFCCFB092C60003
:107D1000E1CE83E00E94C73CDDCE82E00E94C73CFA
:107D2000D9CE0E94763C809309020E94763C8093D3
:107D300008028091060190910701880F991F909386
:107D40000701809306010E94763C853409F4A6C0A1
:107D500080910C028E7F80930C020E94763C8032D0
:107D600009F0B8CE8091C00085FFFCCFF092C6002C
:107D7000609108027091090261157105B9F140E046
:107D800050E080910C02A82FA170B82FB27011C0E2
:107D9000BB2309F45CC0E0910601F0910701319624
:107DA000F0930701E09306014F5F5F4F46175707B7
:107DB000E8F4AA2369F3F999FECF209106013091E6
:107DC000070132BD21BDF89A90B58091C00085FFB2
:107DD000FCCF9093C6002F5F3F4F30930701209355
:107DE00006014F5F5F4F4617570718F38091C00099
:107DF00085FDE5CE8091C00085FFF8CFE0CE81E023
:107E00000E94C73C67CE0E94763C803209F08CCE3F
:107E10008091C00085FFFCCFF092C6008091C00029
:107E200085FFFCCFE092C6008091C00085FFFCCFAB
:107E3000D092C6008091C00085FFFCCFC092C600E2
:107E40008091C00085FFFCCFB092C60043CEE09188
:107E50000601F091070194918091C00085FFFCCF4D
:107E60009093C6009CCF80E10E94C73C33CE0E9415
:107E7000763C0E94763C182F0E94763C112309F430
:107E800083C0113009F484C08FE00E94C73C22CE29
:107E900080910C02816080930C02E5CE80910C02EF
:107EA000816080930C0259CF809107018823880F4D
:107EB000880B8A2180930B02809106019091070123
:107EC000880F991F90930701809306018091080203
:107ED00080FF09C080910802909109020196909359
:107EE000090280930802F894F999FECF1127E091D6
:107EF0000601F0910701C8E0D1E08091080290915D
:107F00000902103091F40091570001700130D9F34B
:107F100003E000935700E89500915700017001308D
:107F2000D9F301E100935700E89509901990009169
:107F3000570001700130D9F301E000935700E89534
:107F40001395103498F011270091570001700130FB
:107F5000D9F305E000935700E895009157000170B0
:107F60000130D9F301E100935700E895329602976A
:107F700009F0C7CF103011F00296E5CF112480919F
:107F8000C00085FFB9CEBCCE8EE10E94C73CA2CD19
:0E7F900085E90E94C73C9ECDF894FFCF80008B
:00000001FF
