:020000040000FA
:100000000C9439060C9461060C9461060C946106FC
:100010000C9461060C9461060C9461060C946106C4
:100020000C9461060C9461060C9461060C946106B4
:100030000C9461060C9461060C9461060C946106A4
:100040000C9403080C9461060C9473080C944D08EE
:100050000C9461060C9461060C9461060C94610684
:100060000C9461060C94610607634236B79BD8A7CF
:100070001A39685618AEBAAB558C1D3CB7CC5763CD
:10008000BD6DEDFD753EF6177231BF000000803F7B
:10009000EA9572BDCF3015BEE63F243DD6AA7DBE9F
:1000A000C7D8C9BD4A96133BAD846E3C5988AE3D56
:1000B0000DFBDDBDB1F9383D289EB33DB83E3C3E59
:1000C000D7DE27BE338D86BD35D107BE49A0E1BD41
:1000D00034F89B3DE547FC3BB136863DF70544BE11
:1000E00020608D3D626855BEF4F89D3DA83A64BD20
:1000F0008BE16A37B5FE1637ACC5A736ACC52737D6
:10010000ACC5A736ACC5A736ACC5A736ACC5A736B7
:10011000ACC5A736ACC5A736ACC5A736931A5A37B7
:10012000ACC5A736ACC5A736ACC5A736ACC5A73697
:10013000ACC5A736B5FE1637ACC5A736ACC5273754
:1001400082A87B37BD370637ACC5A736BD37063723
:10015000AB19991A9AFA0015830958EEC410E5E212
:1001600009467893A80FB7FF810A53F0CB0A5110C4
:10017000372AB83633D36E1D23D27E0B46E6FF7F77
:10018000C1E3BC6AE3D36DED38E89BD05A21F4E4B7
:10019000E73561F867C928FC6FF326E61A0E34D5F7
:1001A000883729DAC4FEA41B491D5DC5FF2171D122
:1001B00045F93BA50180DFD2AE0B7F26B84256E45D
:1001C0004F437730AF5E47EEAC2267C9553DCBF960
:1001D000732C0203F54AB2F32CF0F2D28A47602264
:1001E0003D1DC7EA829AB8F597C111FA45DD6C4703
:1001F000748FF70206C945FCB74D9DE14049839CC9
:1002000062BF0A27121B5ADF534C0C5725A3A4BB0D
:100210003F75CBD49BD21A84ACB6FD1F19EF0EA349
:10022000010389A85E937DB9EF8F78AEFF7F2F1809
:1002300075279388E7AB61D50614548FD4C858B39B
:100240005B005BD020F73BA91CA84CB549CED6B7C4
:100250008D2637EB4527040E46AFC71B36CA16C599
:10026000A2CF1ABF2D1BEFF4E62473A6133C018026
:100270000CEEFFFC701A3D570E3CEBDA91170E03A3
:1002800070F401D83135A2F218227158B814EB502D
:100290005C2C01F787F150E0AD0FE02755E08B5162
:1002A000E118F8B228B957F5EB440FDAB2B0A6CE90
:1002B00086996E2A3C6101801A1A6F3F6A13DACC64
:1002C00023409B40B42C8AE4D7D8A7096AE47CD4A5
:1002D000884F716C9CEE36DE86FDC5F32C1B6720C3
:1002E0005C8428CB2C6AC12E14F573AC48AB008615
:1002F000D0D0572C0A52673B458EA0B2B2EB777C28
:100300009D12AEDE3B35FECEB9ACE95D7FC535E66C
:1003100001801D567B61E42E49A604818097F25F1F
:10032000C63D466C67439020BDFE269EC491A787BC
:10033000AC34D4C01BE6F4B58EE871A5EEABAE2AA2
:10034000C3D96E4FB9D69EA1B5E4BEBEC4D445850F
:10035000583FD6A45B3888327E52459C0A5371C000
:100360003228976E1FE922FA20DEDC9396356280F0
:10037000F7463457F56E2BDE4F95FF14863E01800D
:1003800095DE19B1BFEF69BE2AC868D97B85855F44
:10039000C56146E787EC82C85B8B11833430CAB8ED
:1003A0009FACE1F5CFD40AD62B047DE458D3E6C147
:1003B0007396C16C19CC5E2200D38A0AEB78C13BDC
:1003C0009B8F7A331D7B1F22F456DE7F20ECEB1AC5
:1003D000DBA546E50D607D42EEADFF975EA701808F
:1003E000EC9BEDDF8857B6155A9DF4978640869FA3
:1003F0001BF0ED3D41C4ECF1C3F475E18CBEEC8C17
:10040000A697E0BAAF7CA5C14FA94B1F9423BB466A
:100410002062E4470180730B334E12F4EEB3127B7B
:10042000B7CF80B69E8BC4053539941C8719199EA9
:1004300071874602B6757A4AD6B43EEFD6A0B9C1E6
:1004400061174C46686737834E55039E3B2F68679C
:10045000CBFE386CA6894BC5A94AD2D707E294B720
:10046000CE563E41CF25F1A62492020964239FBEB9
:1004700080D77961E805E21609DC55800180C8B8AB
:1004800083B7CC3623D6A0CADA768B23E65900B7D9
:1004900047C7EB32B5A66898BBF987D0B29EFD4C32
:1004A00061680E1567E9C687B9D00B21343D97EF17
:1004B000AFCC5448A1980952A5CDFD015AE6BD0F15
:1004C000C7D8615EA0FC5265CC7CC4C050A1236833
:1004D000B665E59CF7F50180C09512198822841B4A
:1004E000ADDCBF778F1269B3A7F82C1FBD0901DD02
:1004F000DE047ED35CD923D2DF4008FE2A4C57DCD1
:10050000F700F4249ECD903568D737D7CEE846BEA5
:100510004B067616CEE5202122EF01803A2C339C43
:10052000651BE52B0F08C4FCF916B8DAD020A9E347
:10053000680C3A25DC0385D85E0772B3B82CADE9A8
:100540001C4FFB2851984AB2D2D525DE93F9708A08
:100550007A1521A1C8A400926658608A7B4A9FE957
:1005600072E2CC1F6BE5D54269462B91301E050225
:100570003D0B43E78B127CBE44E1E56F0D41DBE5AB
:100580000180E2E99FA0F058D4A83CEF4FD63B078A
:10059000B76298F734409D572C5B12D22EE0B434EA
:1005A0002CDA16337EE0F2AA8B2B050E0D30217269
:1005B0004A4C036C5401F7939DA7F1B13292EFC0FE
:1005C0007B8D5E8CEBB3018024B24429965E43D8C8
:1005D000ABD87C3993C077C1C6442194E309E56464
:1005E000C50FF01B34B66DFA32071E20D832B37136
:1005F0001F9CEC039FBE7D9886F5D28C525B280F22
:100600007AB96144298463CD82E6CF90CBACA4EA69
:1006100049635C7E4253DEB165AA3172492E7A038A
:10062000B511D69650D4F67DBADF70F95A93CDB68F
:1006300054FDB8AEC6EF40350180DD2675B049C522
:100640006B24E4555BD5D8C4748933B8E58CB4DA2F
:10065000C80E8785465FB6417780C6BC791D85DDAB
:1006600020E9EBBFDD56FDB2005AFFFD6B0E1654BC
:100670006AE2BEB1C7E2CE57F99C8B1101804F35BB
:10068000AF2256FBDE295FF6CE38019792E49A2B13
:100690006870A73596A028559CDDAADECD8A9FE517
:1006A000084EA3091CB2281DBAD154669B8FFBD1FA
:1006B000CF83AFC8621E0A6C9B0C426EF80F693E76
:1006C0003459AD6A89B4AE66574102BF9ABEE3920F
:1006D0009D16539BF72AB11D0D8F471840EEAC2E87
:1006E000773D0180E751174E190865DB85BE482428
:1006F000E0C7F15C8B01FF7F8AB62226FEFE901BCD
:10070000D3A918BFF20951EFBBB194068903800B3E
:1007100020C23FA9B8053E2C3A22E1F7A517271DB4
:1007200015EA88CB5D2307CCDD027E67CD465A52A1
:10073000C50FF3084C37FCFD0401643DE3A65D7D65
:1007400082BF01E113DDE2AB5681C9484B221A8713
:10075000EBAC957F5731CB33C5B269C784EC65E804
:100760008CA7A20AD40CA8EFE511D6CC9821AF3003
:1007700002BC01809143CB1E5ABE667C9FC53A578E
:100780007D41C793405350897CB87BEA5ECFB83631
:100790006FD248190A995427359533BF37AE840272
:1007A000363B9F0CC1EA8D33E21B1309351DECA7C4
:1007B00045276E2C83053729B845164FEBFD018080
:1007C0003011BAF8325186D9BB42E1062D3DB4D67C
:1007D0006EF758F0E3F38B68F2E6580C69FC66FE9E
:1007E000B90C27E7F8D421DBFCDBFCF7C0FFB00F26
:1007F0000725BA2F77EFF6E901C83423C0DF59DEA9
:100800001C100180BB0EF821F8F56604DF0E9E096E
:100810009ED57219F709332276F42C2D9DFCFC5ECF
:10082000F7FCBB5C58F4B5252C16CB56AA0C3953F3
:100830004603774A920C1627A950A9546A54B4006B
:1008400001803A3D678485705A471B0F0A694FF251
:10085000290B4FA9F9058B371566001B9C3D99198B
:100860009FFB82CADFA3293E232C31EDF2AD9817FE
:10087000DAE83D1F4C0213FCCFFD240FC2B5A1FEE8
:100880006D8FB9DBF6980FE6FF7F97D79FD6344F71
:10089000BCCFBAF4957A2ECA14A287B69ADBB5C13A
:1008A000E0BB08354F16FBD5029AAAD698C847D5A3
:1008B0009189481C8B9FC299BD94CB36F7B0D0C9A3
:1008C000E766B545474B5983DCA171CE746C6E0D5C
:1008D000D19DD2000A9A3DE3E7DBA57161EF36CBEB
:1008E0001308C3C5763958D1D246DF9A117F87B62F
:1008F000610A3132025A0B3D8E319A321B44213249
:100900003BC366202CFC36604731B017340DE199AB
:100910007ADD58C3DB3541222AD7B76790DBBFF6B3
:100920003EDCA3A2738D9F060180EB392BA173439C
:10093000B1F732BE23DD4FBC0C79E43DEB901BBD1B
:10094000A5A0FBBD064A7ABEF5130EBE8594AF3E48
:10095000E1459FBDC18D54BD3946A2BEAB760DBDEC
:100960008BE1EA36ACC52737ACC52737BD3706372C
:100970009C53C936BD370637931A5A378BE1EA368E
:100980009C53C93682A87B379C53C9369C53C936C1
:10099000E7C001805C008C3FF234CDC578010AF4D9
:1009A0002FA88755C2010006F3D3F6CCFC115428BA
:1009B000771875BAE869E7CF47A84BBF616BA6DB2C
:1009C00053D20180AEEA84C85FBF9A2F92459C4DF6
:1009D00049C50529A9CD93300036E93A8F3AE0326E
:1009E00095015018E7E2CC925D0677DC37B9FFE25B
:1009F0003FCF0180ABCE55C2080523325C46152D92
:100A0000F5D7BAB64E1DAAFD63C1F5155141AE0426
:100A100075D14D42FD201BB925EEB8253BCBDA0838
:100A2000D70CAF08E012F7328BF1B8267CDB25A794
:100A3000C8DB6E2C2EE70E1A01E837446C387F1B9A
:100A400096D260818D03018017482EC6202A6F2917
:100A500090140453F1869138A9ED6F8AC777CDCCF5
:100A600019F7FF7FC8A817C91D1004F3FB1C329E9D
:100A700081FEFCC325C2F0F8F609C232A095EB6CEA
:100A8000C0086BF779C7B104335F08426AB8E25710
:100A900076075A25C64A3D4BFDB66D4F9DBE200DCB
:100AA0000BBC40F3A0FBBBF99015F0D7F85EFF7FBD
:100AB0005A2498F33A3090F7F404D20CD7C7D2CD29
:100AC000A3074FE6DBFECAD88EF4882857EBE43143
:100AD000682F0180E5CF6E86370CA0BD50FB4D23FB
:100AE00055F6018016D44D6E02D314A97732FDF865
:100AF000F05C897F886F5AB40B4EE2650DC4966F27
:100B0000015B122A883A5AB8AF8FAF6C312430B0EB
:100B10005836268D3077E45B34221CA948489A1752
:100B2000A825DB2B7169112C68E1E61F170F2D67D3
:100B300006BD792BE11968FA1135188B01808CF705
:100B4000D0CF16F7ABF9BB0012F6C8FAEFEF0F32B1
:100B50001DF400237F0DC7FCCD0C272D5DDCC9DC07
:100B600054353A299BE1523429D9EB00180401800D
:100B7000F1D39E601D8F0135366DCD48BD117B2BA5
:100B80007BA0DFC166F3E7EB6FA4B16098590180E9
:100B9000932F0D14697D182496706FE7765C2752A9
:100BA0000180DB874319AB2AFFC1BF0DD2FF961F1F
:100BB000F0BC6446FE521A80360159001328437473
:100BC00099240BC8167072D6A5D26EE4F7A016FA57
:100BD00079C97FBC0709F13DF1F2CC3E082198BEEE
:100BE00060010C3D8BE1EA36DE214538B5FE163753
:100BF000B5FE9637931A5A37FF7F7F114894A8267F
:100C00007503B61E543669DBA60739B7482DD821BF
:100C100084FFA30633FC0FE84E00F2FD018046FC82
:100C20007200B8FB2F087BF870A60BFC110A015567
:100C3000FEABA706680AF0EB1B48C4BA29BF0180C7
:100C4000352FA93A330BCCEC500A0BCC018059F26A
:100C5000FD277EE0BA0DAE29824D01803DDB570AAB
:100C60003A3702E8ECE0EC0EBFF6B5D15A05CDEF0D
:100C7000660E11241FBECFEFD8E0DEBFCDBF11E05E
:100C8000A0E0B1E0EEECF4E202C005900D92AA32D1
:100C9000B107D9F723E0AAE2B1E001C01D92AE3B53
:100CA000B207E1F716E0C9E3D6E004C02197FE01E0
:100CB0000E944912C833D107C9F70E94A5080C94B5
:100CC00065120C9400003FB7F8948091190390913D
:100CD0001A03A0911B03B0911C0326B5A89B05C065
:100CE0002F3F19F00196A11DB11D3FBFBA2FA92FAB
:100CF000982F8827BC01CD01620F711D811D911DA8
:100D000042E0660F771F881F991F4A95D1F7089513
:100D1000AF92BF92CF92DF92EF92FF920F931F9309
:100D2000CF93DF936C017B018B01040F151FEB0147
:100D30005E01AE18BF08C017D10759F06991D601FE
:100D4000ED91FC910190F081E02DC6010995892B70
:100D500079F7C501DF91CF911F910F91FF90EF902F
:100D6000DF90CF90BF90AF900895FC01538D448DDC
:100D7000252F30E0842F90E0821B930B541710F046
:100D8000CF96089501970895FC01918D828D981753
:100D900061F0A28DAE0FBF2FB11D5D968C91928D2B
:100DA0009F5F9F73928F90E008958FEF9FEF08955C
:100DB000FC01918D828D981731F0828DE80FF11D25
:100DC000858D90E008958FEF9FEF0895FC01918D40
:100DD000228D892F90E0805C9F4F821B91098F7339
:100DE000992708958DE193E00E94E60621E0892B82
:100DF00009F420E0822F089580E090E0892B29F00B
:100E00000E94F20681110C9400000895FC01A48D4B
:100E1000A80FB92FB11DA35ABF4F2C91848D90E01C
:100E200001968F739927848FA689B7892C93A089FF
:100E3000B1898C91837080648C93938D848D981389
:100E400006C00288F389E02D80818F7D808308951C
:100E5000EF92FF920F931F93CF93DF93EC0181E00A
:100E6000888F9B8D8C8D98131AC0E889F9898081B1
:100E700085FF15C09FB7F894EE89FF896083E889E4
:100E8000F98980818370806480839FBF81E090E0D6
:100E9000DF91CF911F910F91FF90EF900895F62E63
:100EA0000B8D10E00F5F1F4F0F731127E02E8C8DFD
:100EB0008E110CC00FB607FCFACFE889F989808142
:100EC00085FFF5CFCE010E940607F1CFEB8DEC0F29
:100ED000FD2FF11DE35AFF4FF0829FB7F8940B8F5F
:100EE000EA89FB8980818062CFCF682F8DE193E012
:100EF0000C942807CF93DF93EC01888D8823B9F0F9
:100F0000AA89BB89E889F9898C9185FD03C0808114
:100F100086FD0DC00FB607FCF7CF8C9185FFF2CF91
:100F2000808185FFEDCFCE010E940607E9CFDF91DA
:100F3000CF910895FC0101900020E9F73197AF01AE
:100F4000481B590BBC018DE193E00C9488068F92ED
:100F50009F92AF92BF920F931F93CF93DF93CDB722
:100F6000DEB7A1970FB6F894DEBF0FBECDBF19A2B2
:100F7000423008F44AE08E010F5D1F4F842E912C01
:100F8000B12CA12CA50194010E94EA11E62FB90110
:100F9000CA01EA30F4F4E05DD801EE938D01232B11
:100FA000242B252B79F790E080E0109719F0CD01E4
:100FB0000E949A07A1960FB6F894DEBF0FBECDBF70
:100FC000DF91CF911F910F91BF90AF909F908F9025
:100FD0000895E95CE1CFCF93DF9300D000D0CDB787
:100FE000DEB744E050E0BC01CE0101960E94B10E94
:100FF00069817A818B819C810F900F900F900F9067
:10100000DF91CF9108951F920F920FB60F92112486
:101010002F933F938F939F93AF93BF93809115032B
:1010200090911603A0911703B09118033091140307
:1010300023E0230F2D3758F50196A11DB11D2093F4
:1010400014038093150390931603A0931703B09392
:1010500018038091190390911A03A0911B03B0917A
:101060001C030196A11DB11D8093190390931A03CF
:10107000A0931B03B0931C03BF91AF919F918F91DD
:101080003F912F910F900FBE0F901F90189526E85B
:10109000230F0296A11DB11DD2CF1F920F920FB642
:1010A0000F9211242F933F934F935F936F937F93EE
:1010B0008F939F93AF93BF93EF93FF938DE193E053
:1010C0000E940607FF91EF91BF91AF919F918F9181
:1010D0007F916F915F914F913F912F910F900FBE34
:1010E0000F901F9018951F920F920FB60F92112418
:1010F0002F938F939F93EF93FF93E0912D03F091A4
:101100002E038081E0913303F091340382FD1BC0F4
:101110009081809136038F5F8F7320913703821700
:1011200041F0E0913603F0E0E35EFC4F958F809351
:101130003603FF91EF919F918F912F910F900FBEEA
:101140000F901F9018958081F4CFCF93DF93CDB788
:10115000DEB72C970FB6F894DEBF0FBECDBF7894E4
:1011600084B5826084BD84B5816084BD85B58260AC
:1011700085BD85B5816085BD80916E00816080935D
:101180006E001092810080918100826080938100C6
:1011900080918100816080938100809180008160D6
:1011A000809380008091B10084608093B100809131
:1011B000B00081608093B00080917A008460809359
:1011C0007A0080917A00826080937A0080917A0020
:1011D000816080937A0080917A00806880937A00A1
:1011E0001092C100E0912D03F0912E0382E08083E4
:1011F000E0912903F0912A031082E0912B03F091F2
:101200002C0380E1808310923503E0913103F0914B
:10121000320386E08083E0912F03F09130038081D8
:1012200080618083E0912F03F0913003808188609A
:101230008083E0912F03F091300380818068808368
:10124000E0912F03F091300380818F7D8083E091C6
:10125000BA03F091BB03309711F4EEEBF3E09E017B
:101260002F5131098DECE217F30710F48193FBCF76
:101270002FB7F8948091150390911603A09117034E
:10128000B09118032FBF8093090390930A03A09392
:101290000B03B0930C0383E191E00E949A078AE16B
:1012A00091E00E949A079E012F5F3F4F3C832B8362
:1012B0008DE193E00E94E6069A878987892BE9F100
:1012C0008DE193E00E94C4068C33A9F41092EA02E7
:1012D0009FB7F8944091150350911603609117033E
:1012E000709118039FBF40932A0150932B01609384
:1012F0002C0170932D01E091EA02EF3E68F491E039
:101300009E0F9093EA02F0E0E650FE4F8083E92FB3
:10131000F0E0E650FE4F10828E3311F08A3041F635
:101320006EE370E08AEF91E00E944F12892B09F47E
:10133000BFCF31E030931303BBCF8091EA02882303
:1013400001F12FB7F8948091150390911603A091A5
:101350001703B09118032FBF40912A0150912B0120
:1013600060912C0170912D01841B950BA60BB70B7E
:10137000853F9140A105B10520F01092EA0210923C
:10138000FA0180911303882309F41FC410921303F8
:101390006CE370E08AEF91E00E944F128C016EE3E3
:1013A00070E08AEF91E00E944F120115110509F4D7
:1013B00008C4009709F405C40817190708F001C408
:1013C0000F5F1F4F801B910B03970CF4FAC36CE265
:1013D00070E0C8010E945A127C01009709F4F1C321
:1013E0000817190709F4EDC301960E94930E5C01DA
:1013F000F701108236EA832E31E0932EF12CE12C96
:101400000115110509F4D8C3FAE2EF16F10409F049
:10141000B8C3E6EAF1E060E070E0CB0121913191E0
:101420008901330F220B330B600F711F821F931F33
:1014300021E0EA3FF20791F724E630E040E050E097
:101440000E940C128501BB0C220B330B6017710735
:101450008207930709F0B5C30E9463062B013C0184
:1014600020EF222E20E0322E80E990E09E838D83B3
:10147000EEE2F1E0F887EF8310E000E096EAA92EB3
:1014800091E0B92E50E040E0C12CD12C7601F5015D
:10149000A191B1915F01FA01E00FF11FEE0FFF1F63
:1014A000E05BFE4F259134910E942B12C60ED71E91
:1014B000E81EF91E4F5F5F4F4A32510541F7C101E7
:1014C0000E94EB074B015C01C701B6010E94181096
:1014D000A50194010E946A116B017C018D819E819E
:1014E0000E94EB079B01AC01C701B6010E94C30E2D
:1014F0006B017C0120E030E0A9010E94EF1070E058
:1015000060E0181684F420E03EEF4FEF56E4C70188
:10151000B6010E942F0F6FEF7FE787FF04C0C7015E
:10152000B6010E94E00FEF81F88561937193F8870F
:10153000EF83F4E02F0E311C2D813E812C5F3F4F55
:101540003E832D83065D1F4F003F33E0130709F0F4
:1015500095CF0E94630664197509860997096093FF
:10156000FB027093FC028093FD029093FE020E94A6
:1015700063062B013C01E0E62E2EE9E03E2E80E3DF
:1015800099E09E838D83EEE5F1E0F887EF8310E02C
:1015900000E07EE2A72E71E0B72E50E040E0C12CC3
:1015A000D12C7601F501A191B1915F01FA01E00F13
:1015B000F11FEE0FFF1FE057F64F259134910E9467
:1015C0002B12C60ED71EE81EF91E4F5F5F4F483123
:1015D000510541F7C1010E94EB074B015C01C701B6
:1015E000B6010E941810A50194010E946A116B01B6
:1015F0007C018D819E810E94EB079B01AC01C7019C
:10160000B6010E94C30E6B017C0120E030E0A9010D
:101610000E94EF1070E060E0181684F420E03EEFC6
:101620004FEF56E4C701B6010E942F0F6FEF7FE71F
:1016300087FF04C0C701B6010E94E00FEF81F88563
:1016400061937193F887EF83F4E02F0E311C2D81A5
:101650003E812C5F3F4F3E832D83085E1F4F00323B
:1016600031E0130709F095CF0E94630664197509EC
:10167000860997096093F7027093F8028093F90244
:101680009093FA020E9463062B013C0154EE252E32
:101690005BE0352E80ED9BE098878F83E6E7F1E0F5
:1016A000FE83ED83FC87EB8710E000E04EE5A42E7F
:1016B00041E0B42E50E040E0C12CD12C7601F50180
:1016C000A191B1915F01FA01E00FF11FEE0FFF1F31
:1016D000E850F44F259134910E942B12C60ED71E6C
:1016E000E81EF91E4F5F5F4F4C30510541F7C101B5
:1016F0000E94EB074B015C01C701B6010E94181064
:10170000A50194010E946A116B017C018F8198856B
:101710000E94EB079B01AC01C701B6010E94C30EFA
:10172000EB85FC856193719381939193FC87EB87A3
:10173000F4E02F0E311C2F8138852C5F3F4F388706
:101740002F83045F1F4F0C33110509F0AFCF0E94A8
:101750006306AB01BC01441955096609770940933A
:10176000F3025093F4026093F5027093F6028091B5
:10177000FB029091FC02A091FD02B091FE0200914B
:10178000F7021091F8022091F9023091FA02800FCD
:10179000911FA21FB31F840F951FA61FB71F809311
:1017A000FF0290930003A0930103B09302030E94F1
:1017B00063062B013C012090760130907701C090A8
:1017C0007801D09079018AE791E098878F837C0136
:1017D000F70181909190A190B1907F019101A601B4
:1017E000C501B4010E94EF10181614F4140165012C
:1017F00026EA31E02E153F0559F706E711E0812C66
:10180000912C5401F80161917191819191918F0115
:101810009101A6010E94C20E0E94AE0F9B01AC0175
:10182000F80134972083318342835383C501B40187
:101830000E94C30E4B015C01E016F10619F7ED8121
:10184000FE816191719181919191FE83ED837F0180
:10185000F4E0EF1AF108A50194010E94340FF7019A
:1018600060837183828393832D813E8102171307E6
:1018700031F70E9463066419750986099709609318
:10188000EF027093F0028093F1029093F20201E074
:1018900010E0EF81F8856191719181919191F887C4
:1018A000EF83E985FA85EE0FFF1FEE0FFF1FEA5861
:1018B000FE4F20813181428153810E94EF10181622
:1018C00014F41A8709870F5F1F4F0530110509F7B8
:1018D000E985FA85EE0FFF1FEE0FFF1FEA58FE4F56
:1018E00020E030E048EC52E4608171818281938194
:1018F0000E946A116093EB027093EC028093ED02F8
:101900009093EE0289858F5B8093000180910F0395
:1019100090911003A0911103B09112030196A11DA3
:10192000B11D80930F0390931003A0931103B09304
:101930001203E091BA03F091BB03309711F4EEEB80
:10194000F3E0EF3F28E0F20738F49F012F5F3F4FAD
:1019500080818D3C09F446C18FEF98E08E1B9F0B70
:1019600090930E0380930D038FB7F894C0901503E6
:10197000D0901603E0901703F09018038FBF80916A
:10198000090390910A03A0910B03B0910C03460147
:101990005701881A990AAA0ABB0A38EE831633E05F
:1019A0009306A104B10408F444C060910F03709140
:1019B000100380911103909112030E94161020E0F1
:1019C00030E04AE754E40E946A112B013C01C50152
:1019D000B4010E9416109B01AC01C301B2010E9428
:1019E000340F60930503709306038093070390936D
:1019F000080310920F03109210031092110310921B
:101A00001203C0920903D0920A03E0920B03F092F2
:101A10000C038091BA039091BB03009711F48EEBF5
:101A200093E0EB81FC81E81BF90BF0930403E09356
:101A300003038BE70E947507809100010E947507E0
:101A40008CE20E9475076091FF0270910003809103
:101A50000103909102034AE00E94A7078CE20E94D2
:101A600075076091FB027091FC028091FD029091DC
:101A7000FE024AE00E94A7078CE20E94750760916F
:101A8000F7027091F8028091F9029091FA024AE00F
:101A90000E94A7078CE20E9475076091F302709183
:101AA000F4028091F5029091F6024AE00E94A707A5
:101AB0008CE20E9475076091EF027091F0028091B4
:101AC000F1029091F2024AE00E94A7078CE20E9484
:101AD0007507C090EB02D090EC02E090ED02F09020
:101AE000EE02A7019601C701B6010E94D711882313
:101AF00009F47AC08DE191E00E949A078CE20E947D
:101B0000750760910503709106038091070390911A
:101B100008030E94E00F6B01770FEE08FF084AE010
:101B2000C701B601F7FE0BC08DE20E94750766275C
:101B30007727CB016C197D098E099F094AE00E9425
:101B4000A7078CE20E94750760910303709104035C
:101B500090E080E04AE00E94A7078CE20E947507AF
:101B600060910D0370910E0390E080E04AE00E94C6
:101B7000A7078DE70E9475078AE191E00E949A0706
:101B800020C06CE270E0C8010E944F126C01009707
:101B900011F0FC011082FFEFEF1AFF0AC8010E944A
:101BA000930EF401819391934F01C114D10421F05C
:101BB00086010F5F1F4F24CCFAE2EF16F10409F4FF
:101BC00028CC1092EA021092FA0120E030E0232B98
:101BD00009F46ECB0E94F206882309F469CB0E94B7
:101BE000000066CBF901ADCE46015701E894B7F885
:101BF0002FEF3FEF4FE75FE7C501B4010E94D71118
:101C000081110DC02FEF3FEF4FE75FE7C501B40132
:101C10000E942F0F18161CF481E291E06DCF2FEF78
:101C20003FEF4FE75FE4C701B6010E94EF101816BF
:101C30001CF485E291E060CF2FEF3FEF4FE75FECC0
:101C4000C701B6010E942F0F87FDF3CF20E030E0DF
:101C5000A901C701B6010E942F0F87FF07C08DE2BF
:101C60000E947507F7FAF094F7F8F0942DEC3CEC2D
:101C70004CE45DE3C701B6010E94C30E4B015C0159
:101C80000E94E70F6B017C010E9416109B01AC01C2
:101C9000C501B4010E94C20E4B015C014AE0C701BC
:101CA000B6010E94A7078EE20E94750720E030E08F
:101CB00040E251E4C501B4010E946A110E94E70F9D
:101CC00090E080E04AE00E94A70718CFEDE1F3E042
:101CD0001382128288EE93E0A0E0B0E084839583C3
:101CE000A683B78385E091E09183808385EC90E0C3
:101CF0009587848784EC90E09787868780EC90E0D6
:101D0000918B808B81EC90E0938B828B82EC90E0C6
:101D1000958B848B86EC90E0978B868B118E128E40
:101D2000138E148E0895FC0188279927E894219139
:101D30002032E9F3293010F02E30C8F32B3241F075
:101D40002D3239F4689404C00E94BA0E820F911D9E
:101D5000219120532A30C0F31EF4909581959F4F16
:101D60000895FB01DC0102C005900D9241505040E6
:101D7000D8F708957AE0979F902D879F802D910D39
:101D8000112408955058BB27AA270E94DA0E0C94FC
:101D9000B5100E94A71038F00E94AE1020F039F460
:101DA0009F3F19F426F40C947D100EF4E095E7FBA8
:101DB0000C947710E92F0E94C61058F3BA176207E7
:101DC00073078407950720F079F4A6F50C94E810C2
:101DD0000EF4E0950B2EBA2FA02D0B01B901900146
:101DE0000C01CA01A0011124FF27591B99F0593F8A
:101DF00050F4503E68F11A16F040A22F232F342FD2
:101E00004427585FF3CF469537952795A795F0401F
:101E10005395C9F77EF41F16BA0B620B730B840B34
:101E2000BAF09150A1F0FF0FBB1F661F771F881FEC
:101E3000C2F70EC0BA0F621F731F841F48F4879544
:101E400077956795B795F7959E3F08F0B0CF939536
:101E5000880F08F09927EE0F9795879508950E94AF
:101E6000531008F481E008950E94480F0C94B510B7
:101E70000E94AE1058F00E94A71040F029F45F3F76
:101E800029F00C94771051110C94E9100C947D10EA
:101E90000E94C61068F39923B1F3552391F3951B63
:101EA000550BBB27AA2762177307840738F09F5F7B
:101EB0005F4F220F331F441FAA1FA9F335D00E2EE8
:101EC0003AF0E0E832D091505040E695001CCAF755
:101ED0002BD0FE2F29D0660F771F881FBB1F261718
:101EE00037074807AB07B0E809F0BB0B802DBF01EF
:101EF000FF2793585F4F3AF09E3F510578F00C94BE
:101F000077100C94E9105F3FE4F3983ED4F3869584
:101F100077956795B795F7959F5FC9F7880F911DDE
:101F20009695879597F90895E1E0660F771F881FCA
:101F3000BB1F621773078407BA0720F0621B730B7D
:101F4000840BBA0BEE1F88F7E095089529F416F07C
:101F50000C9477100C94E8100C947D100E94CE1015
:101F6000A8F39638A0F707F80F92E8942BE33AEA23
:101F700048EB5FE70E9480110F920F920F924DB7CE
:101F80005EB70F920E943611E8E6F0E00E948010E2
:101F90004F915F91EF91FF91E595EE1FFF1F49F083
:101FA000FE57E0684427EE0F441FFA95E1F741958C
:101FB000550B0E9400110F9007FE0C94F410089529
:101FC0000E94E70F6894B1110C94E91008950E94E3
:101FD000CE1088F09F5798F0B92F9927B751B0F0DD
:101FE000E1F0660F771F881F991F1AF0BA95C9F79D
:101FF00014C0B13091F00E94E810B1E008950C9443
:10200000E810672F782F8827B85F39F0B93FCCF3F5
:10201000869577956795B395D9F73EF49095809519
:10202000709561957F4F8F4F9F4F0895E89409C039
:1020300097FB3EF490958095709561957F4F8F4FFB
:102040009F4F9923A9F0F92F96E9BB279395F69511
:10205000879577956795B795F111F8CFFAF4BB0F8F
:1020600011F460FF1BC06F5F7F4F8F4F9F4F16C0F3
:10207000882311F096E911C0772321F09EE8872F7D
:10208000762F05C0662371F096E8862F70E060E039
:102090002AF09A95660F771F881FDAF7880F9695B2
:1020A000879597F90895990F0008550FAA0BE0E856
:1020B000FEEF16161706E807F907C0F0121613060A
:1020C000E407F50798F0621B730B840B950B39F44A
:1020D0000A2661F0232B242B252B21F408950A26B0
:1020E00009F4A140A6958FEF811D811D089597F9F0
:1020F0009F6780E870E060E008959FEF80EC0895AE
:10210000DF93CF931F930F93FF92EF92DF927B01A8
:102110008C01689406C0DA2EEF010E947D11FE0149
:10212000E894A5912591359145915591A6F3EF013C
:102130000E94DA0EFE019701A801DA9469F7DF9098
:10214000EF90FF900F911F91CF91DF9108950024A0
:102150000A941616170618060906089500240A940C
:1021600012161306140605060895092E0394000C92
:1021700011F4882352F0BB0F40F4BF2B11F460FF21
:1021800004C06F5F7F4F8F4F9F4F089557FD90584A
:10219000440F551F59F05F3F71F04795880F97FB2B
:1021A000991F61F09F3F79F08795089512161306E5
:1021B0001406551FF2CF4695F1DF08C01616170614
:1021C0001806991FF1CF8695710561050894089549
:1021D000E894BB2766277727CB0197F908950E94DB
:1021E000531008F48FEF08959B01AC0160E070E09C
:1021F00080E89FE30C94340F0C9477100C94DC115E
:102200000E94CE10D8F39923C9F3940F511DA3F364
:102210009150504094F059F0882332F0660F771FA8
:10222000881F91505040C1F79E3F51052CF7880FF1
:10223000911D9695879597F908955F3FACF0983E6C
:102240009CF0BB27869577956795B79508F4B160A4
:102250009395C1F7BB0F58F711F460FFE8CF6F5F9C
:102260007F4F8F4F9F4FE3CF0C94E910FA01DC01B1
:10227000AA0FBB1F9B01AC01BF5728F422273327AD
:102280004427507820C0B75190F4AB2F00244695D6
:1022900037952795011CA395D2F3002071F0220FEA
:1022A000331F441FB395DAF30ED00C94C20E613085
:1022B0007105A0E88A07B94630F49B01AC01662796
:1022C000772788279078309621F0208331834283C6
:1022D000538308950E947D110C94B5100E94A7109D
:1022E00038F00E94AE1020F0952311F00C94771076
:1022F0000C947D1011240C94E9100E94C61070F308
:10230000959FC1F3950F50E0551F629FF001729F9A
:10231000BB27F00DB11D639FAA27F00DB11DAA1FA9
:10232000649F6627B00DA11D661F829F2227B00DF6
:10233000A11D621F739FB00DA11D621F839FA00D81
:10234000611D221F749F3327A00D611D231F849FD1
:10235000600D211D822F762F6A2F11249F57504028
:102360009AF0F1F088234AF0EE0FFF1FBB1F661FA3
:10237000771F881F91505040A9F79E3F510580F06C
:102380000C9477100C94E9105F3FE4F3983ED4F37B
:10239000869577956795B795F795E7959F5FC1F710
:1023A000FE2B880F911D9695879597F908950E94A9
:1023B0005310880B990B08959F3F31F0915020F4F2
:1023C000879577956795B795880F911D9695879511
:1023D00097F90895A1E21A2EAA1BBB1BFD010DC09F
:1023E000AA1FBB1FEE1FFF1FA217B307E407F507C5
:1023F00020F0A21BB30BE40BF50B661F771F881FA1
:10240000991F1A9469F760957095809590959B0136
:10241000AC01BD01CF010895052E97FB1EF4009479
:102420000E94231257FD07D00E94EA1107FC03D037
:102430004EF40C94231250954095309521953F4FC2
:102440004F4F5F4F089590958095709561957F4FA0
:102450008F4F9F4F08950E943312332312F48A1B2B
:102460009B0B0C944412A29FB001B39FC001A39F89
:10247000700D811D1124911DB29F700D811D1124BD
:10248000911D08950E943312B7FF0895821B930B8C
:102490000895EE0FFF1F0590F491E02D0994FC01C3
:1024A0008191861721F08823D9F7992708953197CC
:1024B000CF010895FC0181E090E00190061609F437
:1024C000CF010020D1F701970895F894FFCF3F0086
:1024D00000000028078806B5067A07E606C406D875
:1024E000067B626F6F747D000D0A006E616E00697D
:0824F0006E66006F76660000C5
:107800000C94343C0C94513C0C94513C0C94513CE1
:107810000C94513C0C94513C0C94513C0C94513CB4
:107820000C94513C0C94513C0C94513C0C94513CA4
:107830000C94513C0C94513C0C94513C0C94513C94
:107840000C94513C0C94513C0C94513C0C94513C84
:107850000C94513C0C94513C0C94513C0C94513C74
:107860000C94513C0C94513C11241FBECFEFD8E036
:10787000DEBFCDBF11E0A0E0B1E0ECE9FFE702C060
:1078800005900D92A230B107D9F712E0A2E0B1E065
:1078900001C01D92AD30B107E1F70E942D3D0C945F
:1078A000CC3F0C94003C982F959595959595959582
:1078B000905D8F708A307CF0282F295A8091C0000B
:1078C00085FFFCCF9093C6008091C00085FFFCCF60
:1078D0002093C6000895282F205DF0CF982F809127
:1078E000C00085FFFCCF9093C6000895EF92FF92F1
:1078F0000F931F93EE24FF2487018091C00087FD22
:1079000017C00894E11CF11C011D111D81E4E8164B
:1079100082E4F8068FE0080780E0180770F3E09132
:107920000401F091050109958091C00087FFE9CF1E
:107930008091C6001F910F91FF90EF9008950E94D3
:10794000763C982F8091C00085FFFCCF9093C600B5
:1079500091362CF490330CF09053892F089597555D
:10796000892F08951F930E949F3C182F0E949F3CCF
:107970001295107F810F1F9108951F93182F882350
:1079800021F00E94763C1150E1F71F9108951F935A
:10799000182F0E94763C803249F0809103018F5F5E
:1079A000809303018530C1F01F9108958091C0003C
:1079B00085FFFCCF84E18093C6008091C00085FFE5
:1079C000FCCF1093C6008091C00085FFFCCF80E102
:1079D0008093C6001F910895E0910401F091050184
:1079E00009951F9108950E94763C803241F0809164
:1079F00003018F5F80930301853081F008958091AA
:107A0000C00085FFFCCF84E18093C6008091C00058
:107A100085FFFCCF80E18093C6000895E0910401CA
:107A2000F09105010995089540E951E08823A1F0FE
:107A30002D9A28EE33E0FA013197F1F721503040CA
:107A4000D1F72D9828EE33E0FA013197F1F7215064
:107A50003040D1F7815061F708953F924F925F9285
:107A60006F927F928F929F92AF92BF92CF92DF924E
:107A7000EF92FF920F931F93CF93DF93000080E16B
:107A80008093C4001092C50088E18093C10086E015
:107A90008093C2005098589A259A81E00E94143D24
:107AA00024E1F22E9EE1E92E85E9D82E0FE0C02ECA
:107AB00010E1B12EAA24A394B1E49B2EA6E58A2E50
:107AC000F2E57F2EE0E26E2E79E4572E63E5462E36
:107AD00050E5352E0E94763C8033B1F18133B9F107
:107AE000803409F46FC0813409F476C0823409F41B
:107AF00085C0853409F488C0803531F1823521F1A3
:107B0000813511F1853509F485C0863509F48DC0BC
:107B1000843609F496C0843709F403C1853709F423
:107B200072C1863709F466C0809103018F5F80932C
:107B30000301853079F6E0910401F0910501099582
:107B40000E94763C803351F60E94F33CC3CF0E94E2
:107B5000763C803249F78091C00085FFFCCFF092DF
:107B6000C6008091C00085FFFCCF9092C600809136
:107B7000C00085FFFCCF8092C6008091C00085FFC9
:107B8000FCCF7092C6008091C00085FFFCCF609250
:107B9000C6008091C00085FFFCCF5092C600809146
:107BA000C00085FFFCCF4092C6008091C00085FFD9
:107BB000FCCF3092C6008091C00085FFFCCFB09210
:107BC000C60088CF0E94763C863808F4BDCF0E945C
:107BD000763C0E94F33C7ECF0E94763C803809F4CC
:107BE0009CC0813809F40BC1823809F43CC1883942
:107BF00009F48FC080E00E94C73C6CCF84E10E94F2
:107C0000BD3C0E94F33C66CF85E00E94BD3C0E94D3
:107C1000F33C60CF0E94763C809306010E94763C44
:107C2000809307010E94F33C55CF0E94763C80333D
:107C300009F41DC183E00E94BD3C80E00E94C73C66
:107C400049CF0E94763C809309020E94763C809343
:107C5000080280910C028E7F80930C020E94763C79
:107C6000853409F415C18091080290910902892B8D
:107C700089F000E010E00E94763CF801E85FFE4FDA
:107C800080830F5F1F4F80910802909109020817AF
:107C9000190788F30E94763C803209F045CF809125
:107CA0000C0280FF01C16091060170910701660F0F
:107CB000771F7093070160930601A0910802B091AD
:107CC00009021097C9F0E8E0F1E09B01AD014E0F09
:107CD0005F1FF999FECF32BD21BD819180BDFA9A17
:107CE000F99A2F5F3F4FE417F50799F76A0F7B1F4B
:107CF00070930701609306018091C00085FFFCCF5F
:107D0000F092C6008091C00085FFFCCFB092C60003
:107D1000E1CE83E00E94C73CDDCE82E00E94C73CFA
:107D2000D9CE0E94763C809309020E94763C8093D3
:107D300008028091060190910701880F991F909386
:107D40000701809306010E94763C853409F4A6C0A1
:107D500080910C028E7F80930C020E94763C8032D0
:107D600009F0B8CE8091C00085FFFCCFF092C6002C
:107D7000609108027091090261157105B9F140E046
:107D800050E080910C02A82FA170B82FB27011C0E2
:107D9000BB2309F45CC0E0910601F0910701319624
:107DA000F0930701E09306014F5F5F4F46175707B7
:107DB000E8F4AA2369F3F999FECF209106013091E6
:107DC000070132BD21BDF89A90B58091C00085FFB2
:107DD000FCCF9093C6002F5F3F4F30930701209355
:107DE00006014F5F5F4F4617570718F38091C00099
:107DF00085FDE5CE8091C00085FFF8CFE0CE81E023
:107E00000E94C73C67CE0E94763C803209F08CCE3F
:107E10008091C00085FFFCCFF092C6008091C00029
:107E200085FFFCCFE092C6008091C00085FFFCCFAB
:107E3000D092C6008091C00085FFFCCFC092C600E2
:107E40008091C00085FFFCCFB092C60043CEE09188
:107E50000601F091070194918091C00085FFFCCF4D
:107E60009093C6009CCF80E10E94C73C33CE0E9415
:107E7000763C0E94763C182F0E94763C112309F430
:107E800083C0113009F484C08FE00E94C73C22CE29
:107E900080910C02816080930C02E5CE80910C02EF
:107EA000816080930C0259CF809107018823880F4D
:107EB000880B8A2180930B02809106019091070123
:107EC000880F991F90930701809306018091080203
:107ED00080FF09C080910802909109020196909359
:107EE000090280930802F894F999FECF1127E091D6
:107EF0000601F0910701C8E0D1E08091080290915D
:107F00000902103091F40091570001700130D9F34B
:107F100003E000935700E89500915700017001308D
:107F2000D9F301E100935700E89509901990009169
:107F3000570001700130D9F301E000935700E89534
:107F40001395103498F011270091570001700130FB
:107F5000D9F305E000935700E895009157000170B0
:107F60000130D9F301E100935700E895329602976A
:107F700009F0C7CF103011F00296E5CF112480919F
:107F8000C00085FFB9CEBCCE8EE10E94C73CA2CD19
:0E7F900085E90E94C73C9ECDF894FFCF80008B
:00000001FF
