:020000040000FA
:100000000C9405040C942D040C942D040C942D04D4
:100010000C942D040C942D040C942D040C942D049C
:100020000C942D040C942D040C942D040C942D048C
:100030000C942D040C942D040C942D040C942D047C
:100040000C94CF050C942D040C943F060C941906C7
:100050000C942D040C942D040C942D040C942D045C
:100060000C942D040C942D0407634236B79BD8A73B
:100070001A39685618AEBAAB558C1D3CB7CC5763CD
:10008000BD6DEDFD753EF6177231BF000000803F7B
:100090001E8AC23D9BE7883D73668BBE438EADBC16
:1000A0000DDF423C081D143E819884BE0C1E363E76
:1000B0007B323FBEE56397BD0E4FAFBCA25E003EF4
:1000C0001C99C73DB6BB27BE799189BCD46501BEDA
:1000D000ACC5A736BD370637B5FE9637BD370637F0
:1000E000ACC5A736ACC5A736A48C38379C53493766
:1000F0009C53C936ACC5A736ACC5A736ACC5A73628
:10010000A48C38379C5349379C53C936A48C383754
:10011000EDC9640424BE0232048F34619E9F93961D
:1001200036AC0E3C01CF9F31758F8CAF50CFF1E5CF
:10013000D89AD456BAE0902AC55DB4184324FF7FFC
:1001400032C4012A01C5C45EE769BE853271523FDF
:10015000C93997363C6E7EEEDC8FF3D99CA2C40879
:100160003EE7E0B8401C725AE8F6E3115ED336333E
:1001700025468545D9372A43D9CDE92ACDB3940AF6
:1001800029A105CB4DD6BEB764E31943858ACCD8E7
:10019000BABA018060D042B13DB3D735C51C6516EF
:1001A00037D8F5CF8331FD06AF3DAC1FFE36162A9A
:1001B000F673340773712230BDF5B8FB43E1A81C18
:1001C00066F2310670AA2A1725BF163774EE8F091A
:1001D0008411470A460566E072FC83C253054DFD53
:1001E000ADF53CF989FA6CC14D060180FB226C0D1E
:1001F00011197A178DFC7EE625E46DA1391FFC4CA0
:10020000D10A723E872BD011D222BCF97F095B1C28
:100210004D21363D3804CB05E6DE83AA399E3EB338
:10022000976B160EBA4B6FC04D354ECA7A4DDFA094
:10023000BD36F8F0F9F7B82B50F03F4274F3822442
:1002400058155A3B7B3F5F656EC61652DFB72D7A55
:100250007EF82D12569F666E92F9FF7FD9BD367FCC
:10026000C757106276F7239B5DFEA61878A69AB44E
:10027000FC81EDD17E727A16F9F74705F551EF8BC7
:10028000969A4DD45BB4CB43DF5C7A807490018046
:100290009631CA69179A26C3D3292CAAA76FA51E1F
:1002A00069DB8908FA2886D1289AE2006502A7024C
:1002B000D2EC64549BD865EFEA2ECBACFB1CDADFA2
:1002C0007B37ACB71F00BC07E49694A0742B1DD7F6
:1002D000C3450180B0BDA794732DE1F72DE4B4E6CA
:1002E000C299F71E9EFE36A58D2AFDF89082C53E66
:1002F000623EF2E32AA58600DB59F66D1E9D06C319
:10030000DC5C9F38E74844BDE63F0CEB4F0AAD0488
:10031000C41059DBE502F0060180789E12D2532802
:10032000C806D827E0F80ECB540C829E1ED281411D
:1003300046EA34CF46ED55D6CA091C58C5DC90DADA
:10034000471FA5927F3B3795D13AE950851BE006C0
:1003500001EC1511F65B2EF8C87755FE20E9BEEECC
:100360007DF592EE86242EDFF83ACDECEF7543C092
:1003700083EA9EF2A3F1CACD0DEFBB3A1F05671CBD
:10038000EEDC0DF686F4BFF10CD85514C602C1138D
:1003900020CA73DAE613C12B2D14626B45FEFF7F72
:1003A0007EC184D6FFEEAFD265F893446BF8A547C3
:1003B000F196979AAF2DBEFA93CA4A17C0AE009530
:1003C00001804F13ABB77F0EB5317D04A83306E132
:1003D0004E3731EAD5D0DE13E7B018360DFA9CFB64
:1003E000DF359553F5B581DDDDEC36382419C04194
:1003F000A81E33BFF31AE8BDFB2B7A209CAB78E62E
:10040000A5F21F13C984C001703FE344F13BEF0F15
:1004100001801B50B1954FAF75FD18230A47B6E810
:10042000E7B811F2FB2536B6378B6339E8A50BB177
:10043000C16649A16B92065E1ABE2A04327C13C6BD
:10044000F873B460885E611E45C1E74C98A2ECADBC
:100450009CBCA832840CB14DDA4B2E01D543239EAF
:1004600025824C92AE40136E44D8803CD19FDFF57C
:10047000A6FA6DD51CBE9A3532F004E2DC516898BC
:10048000384D39698BAD0180050CC6ADBE2E1E916D
:10049000CF97071C8BDA438B502BD232A30AB44977
:1004A000B0C64B6A7299006C3E58538084F475BA9A
:1004B000347F9BFA264CC46F509C964E8C8F16DD71
:1004C000E0CB17873C865D83009CC4B764D5544855
:1004D00038EB018019A2C75CDB816AC0018B8E45B5
:1004E0005D58500B03BFA9E089072E363C02BAC302
:1004F0004306F60334013B3848CF24088D00933679
:10050000A7DE97BFF3BECDF1DB140DFA9D4AFCB711
:100510002D6E018084D716F8E2D8332EC1D75BD672
:1005200084EE49CD8BCCACF23BDA112AACFAC5068D
:10053000BB196A07800E002BCE2A4EE1EE1559D763
:100540002E37D0ED3CF96D233F3E65FC22448F07EA
:100550002E3940FCBA072DD38E1E1002EC0D40F848
:100560000A1B2B0BB29FFA1FAC323A05DC1CE2D5FA
:10057000C5E51E2D14DC1C9AC805B4CA0027AF1FA0
:1005800097176DDB2BD6FF7FF210B9D200DD30025A
:100590003C0C418FBDF83FCA06CACBFD04F6EEC441
:1005A000B5CF710FA1C4B91F3AA3F7F95D1DCEC92C
:1005B00031B51AF2700FD1EA462C4E3A69288C6593
:1005C00072B9C0A8E1168F094A65025ABB2BC04018
:1005D000D82DAEF9699527C7DD9E5446CBC159A8E1
:1005E000C0ED944AE02B1B212CF5018065BC38A29C
:1005F000FADBAC4B69B35CDDA667AA43070F231097
:10060000F9C6FEC51DD5BC1914C0E03420AE69285A
:10061000CAF1ECF990CA8A1549F285D2FC12CDAD27
:100620004FC9990EF0C64FE095F5A37026F5366ACE
:100630006DFD8604E7FF2DF9851C006D301C0671E9
:100640007FF70D112C44FD2BB764CD7B8546FF7FD2
:10065000EE5F193DEE224C3DF8DD64BE5567F5BDF9
:10066000B807113EA646483E8ECE19BEADC206BEA4
:100670009C53C936BD370637B5FE1637BD3706372A
:1006800030629F37A48C3837BD370637BD37063701
:10069000E88520DA2642C19CB285A08FFD25E0E2E4
:1006A000AC617DEE0303FF7FC910FC92831785F0D8
:1006B000BDAA1A3E280ACD98638CDE360180570CFD
:1006C000FFAEA815D4194B3F0EBB50EF86BA23FAE4
:1006D000B806FA277A3B99AF85D072F128A1D3B733
:1006E0004DB384B77457441EE5C10180D430E3AAEA
:1006F0000180ED8C41475E418201E2832E1F86A07E
:10070000611E9C17AAA65AFC7BA49D5EECD573D2F1
:1007100086D2E919018053F2A20C4EFC881AACA5CE
:100720005BC0A025DFDA06DE7608FD122B25085017
:1007300030D078B792A7882A5DFF04EC5AF690353E
:100740002C23D6311704904F55FF4F561534FF7F99
:1007500059423095B041B59FBEA976A80FCA3697C9
:10076000FE6CA7CC495478735155AE6838080180A7
:10077000DD4ECC8E031DD9C4BC523056E8F4C4CE35
:100780008F5F7AD48C9C7EAC0180905F0861C1DA67
:10079000734A683F1844BC3F98C19E3FD811C1BFFF
:1007A00095D844C0BD370637ACC52737A48C383739
:1007B000B5FE1637BD370637BBFF31C0018069D2A1
:1007C000B30756739A44F288CD59958D80D3023D74
:1007D0009E094CFE0180E6845BF2BC55DF8E1F96BD
:1007E000FF7F37DAE56CC29B5D2C5AE9495DC41086
:1007F000BD7558398718FF7FFF7F5D34E044D037DF
:1008000003101665098D1E5C310C11241FBECFEF3D
:10081000D8E0DEBFCDBF11E0A0E0B1E0E4E6F0E259
:1008200002C005900D92AA32B107D9F723E0AAE2DF
:10083000B1E001C01D92A639B207E1F714E0C5E0AE
:10084000D4E004C02197FE010E941410C430D107E7
:10085000C9F70E9471060C9430100C9400003FB749
:10086000F8948091F1029091F202A091F302B0917C
:10087000F40226B5A89B05C02F3F19F00196A11DD3
:10088000B11D3FBFBA2FA92F982F8827BC01CD01DA
:10089000620F711D811D911D42E0660F771F881F39
:1008A000991F4A95D1F70895AF92BF92CF92DF92E8
:1008B000EF92FF920F931F93CF93DF936C017B0115
:1008C0008B01040F151FEB015E01AE18BF08C017A6
:1008D000D10759F06991D601ED91FC910190F08119
:1008E000E02DC6010995892B79F7C501DF91CF91DC
:1008F0001F910F91FF90EF90DF90CF90BF90AF903E
:100900000895FC01538D448D252F30E0842F90E015
:10091000821B930B541710F0CF96089501970895FA
:10092000FC01918D828D981761F0A28DAE0FBF2FC3
:10093000B11D5D968C91928D9F5F9F73928F90E019
:1009400008958FEF9FEF0895FC01918D828D981788
:1009500031F0828DE80FF11D858D90E008958FEFC5
:100960009FEF0895FC01918D228D892F90E0805C8E
:100970009F4F821B91098F739927089585EF92E00D
:100980000E94B20421E0892B09F420E0822F08950F
:1009900080E090E0892B29F00E94BE0481110C9424
:1009A00000000895FC01A48DA80FB92FB11DA35A12
:1009B000BF4F2C91848D90E001968F739927848F7F
:1009C000A689B7892C93A089B1898C9183708064A2
:1009D0008C93938D848D981306C00288F389E02D43
:1009E00080818F7D80830895EF92FF920F931F93F4
:1009F000CF93DF93EC0181E0888F9B8D8C8D9813D2
:100A00001AC0E889F989808185FF15C09FB7F894DD
:100A1000EE89FF896083E889F98980818370806429
:100A200080839FBF81E090E0DF91CF911F910F9174
:100A3000FF90EF900895F62E0B8D10E00F5F1F4F83
:100A40000F731127E02E8C8D8E110CC00FB607FC92
:100A5000FACFE889F989808185FFF5CFCE010E9420
:100A6000D204F1CFEB8DEC0FFD2FF11DE35AFF4FB8
:100A7000F0829FB7F8940B8FEA89FB8980818062AE
:100A8000CFCF682F85EF92E00C94F404CF93DF93DF
:100A9000EC01888D8823B9F0AA89BB89E889F98996
:100AA0008C9185FD03C0808186FD0DC00FB607FCCB
:100AB000F7CF8C9185FFF2CF808185FFEDCFCE01FE
:100AC0000E94D204E9CFDF91CF910895FC010190FB
:100AD0000020E9F73197AF01481B590BBC0185EFA6
:100AE00092E00C9454048F929F92AF92BF920F9316
:100AF0001F93CF93DF93CDB7DEB7A1970FB6F894CE
:100B0000DEBF0FBECDBF19A2423008F44AE08E010D
:100B10000F5D1F4F842E912CB12CA12CA5019401A7
:100B20000E94B50FE62FB901CA01EA30F4F4E05D86
:100B3000D801EE938D01232B242B252B79F790E000
:100B400080E0109719F0CD010E946605A1960FB6BE
:100B5000F894DEBF0FBECDBFDF91CF911F910F91F3
:100B6000BF90AF909F908F900895E95CE1CFCF93B5
:100B7000DF9300D000D0CDB7DEB744E050E0BC0139
:100B8000CE0101960E947C0C69817A818B819C81C7
:100B90000F900F900F900F90DF91CF9108951F92BB
:100BA0000F920FB60F9211242F933F938F939F9321
:100BB000AF93BF938091ED029091EE02A091EF026E
:100BC000B091F0023091EC0223E0230F2D3758F55D
:100BD0000196A11DB11D2093EC028093ED0290932C
:100BE000EE02A093EF02B093F0028091F102909197
:100BF000F202A091F302B091F4020196A11DB11D81
:100C00008093F1029093F202A093F302B093F40266
:100C1000BF91AF919F918F913F912F910F900FBEF8
:100C20000F901F90189526E8230F0296A11DB11D65
:100C3000D2CF1F920F920FB60F9211242F933F9392
:100C40004F935F936F937F938F939F93AF93BF93D4
:100C5000EF93FF9385EF92E00E94D204FF91EF9112
:100C6000BF91AF919F918F917F916F915F914F91C4
:100C70003F912F910F900FBE0F901F9018951F92CC
:100C80000F920FB60F9211242F938F939F93EF9390
:100C9000FF93E0910503F09106038081E0910B033F
:100CA000F0910C0382FD1BC0908180910E038F5F39
:100CB0008F7320910F03821741F0E0910E03F0E053
:100CC000EB50FD4F958F80930E03FF91EF919F9115
:100CD0008F912F910F900FBE0F901F9018958081CC
:100CE000F4CFCF93DF93CDB7DEB72C970FB6F89440
:100CF000DEBF0FBECDBF789484B5826084BD84B55D
:100D0000816084BD85B5826085BD85B5816085BD06
:100D100080916E00816080936E00109281008091BE
:100D20008100826080938100809181008160809346
:100D30008100809180008160809380008091B1006B
:100D400084608093B1008091B00081608093B00096
:100D500080917A00846080937A0080917A0082602A
:100D600080937A0080917A00816080937A008091EC
:100D70007A00806880937A001092C100E0910503A8
:100D8000F091060382E08083E0910103F091020379
:100D90001082E0910303F091040380E180831092BC
:100DA0000D03E0910903F0910A0386E08083E0914E
:100DB0000703F0910803808180618083E09107033D
:100DC000F0910803808188608083E0910703F091AF
:100DD0000803808180688083E0910703F091080315
:100DE00080818F7D8083E0919203F091930330970F
:100DF00011F4E6E9F3E09E012F5131098DECE21781
:100E0000F30710F48193FBCF2FB7F8948091ED0294
:100E10009091EE02A091EF02B091F0022FBF80936B
:100E2000E1029093E202A093E302B093E40283E133
:100E300091E00E9466058AE191E00E9466059E01AC
:100E40002F5F3F4F3C832B8385EF92E00E94B204DB
:100E50009A878987892BE9F185EF92E00E949004B7
:100E60008C33A9F41092C2029FB7F8944091ED021E
:100E70005091EE026091EF027091F0029FBF40939B
:100E80002A0150932B0160932C0170932D01E09166
:100E9000C202EF3E68F491E09E0F9093C202F0E030
:100EA000EE52FE4F8083E92FF0E0EE52FE4F1082AB
:100EB0008E3311F08A3041F66EE370E082ED91E0FE
:100EC0000E941A10892B09F4BFCF31E03093EB0256
:100ED000BBCF8091C202882301F12FB7F894809193
:100EE000ED029091EE02A091EF02B091F0022FBFBF
:100EF00040912A0150912B0160912C0170912D019C
:100F0000841B950BA60BB70B853F9140A105B1053E
:100F100020F01092C2021092D2018091EB0288233D
:100F200009F41EC41092EB026CE370E082ED91E0D4
:100F30000E941A108C016EE370E082ED91E00E9435
:100F40001A100115110509F407C4009709F404C427
:100F50000817190708F000C40F5F1F4F801B910B83
:100F600003970CF4F9C36CE270E0C8010E942510ED
:100F70007C01009709F4F0C30817190709F4ECC3C2
:100F800001960E945E0C5C01F70110823EE7832E01
:100F900031E0932EF12CE12C0115110509F4D7C392
:100FA000FAE2EF16F10409F0B7C3EEE7F1E060E012
:100FB00070E0CB01219131918901330F220B330B6A
:100FC000600F711F821F931F21E0E23DF20791F72E
:100FD00024E630E040E050E00E94D70F8501BB0CD2
:100FE000220B330B601771078207930709F0B4C314
:100FF0000E942F042B013C0120ED222E20E0322EF6
:1010000080E990E09E838D83EEE2F1E0F887EF8344
:1010100010E000E09EE7A92E91E0B92E50E040E0FC
:10102000C12CD12C7601F501A191B1915F01FA019A
:10103000E00FF11FEE0FFF1FE05FFE4F259134918F
:101040000E94F60FC60ED71EE81EF91E4F5F5F4FB7
:101050004A32510541F7C1010E94B7054B015C01BD
:10106000C701B6010E94E30DA50194010E94350F4E
:101070006B017C018D819E810E94B7059B01AC01B3
:10108000C701B6010E948E0C6B017C0120E030E0AC
:10109000A9010E94BA0E70E060E0181684F420E006
:1010A0003EEF4FEF56E4C701B6010E94FA0C6FEF16
:1010B0007FE787FF04C0C701B6010E94AB0DEF8137
:1010C000F88561937193F887EF83F4E02F0E311C5C
:1010D0002D813E812C5F3F4F3E832D83065D1F4F48
:1010E000003A32E0130709F095CF0E942F046419EB
:1010F0007509860997096093D3027093D40280938F
:10110000D5029093D6020E942F042B013C01E0E708
:101110002E2EE6E03E2E80E596E09E838D83EEE463
:10112000F1E0F887EF8310E000E07EE2A72E71E0A7
:10113000B72E50E040E0C12CD12C7601F501A191F1
:10114000B1915F01FA01E00FF11FEE0FFF1FE057B1
:10115000F94F259134910E94F60FC60ED71EE81E56
:10116000F91E4F5F5F4F4031510541F7C1010E94A9
:10117000B7054B015C01C701B6010E94E30DA50153
:1011800094010E94350F6B017C018D819E810E942C
:10119000B7059B01AC01C701B6010E948E0C6B0123
:1011A0007C0120E030E0A9010E94BA0E70E060E00E
:1011B000181684F420E03EEF4FEF56E4C701B60165
:1011C0000E94FA0C6FEF7FE787FF04C0C701B601EA
:1011D0000E94AB0DEF81F88561937193F887EF83DF
:1011E000F4E02F0E311C2D813E812C5F3F4F3E835A
:1011F0002D83005F1F4F0038110509F096CF0E9424
:101200002F0464197509860997096093CF027093BA
:10121000D0028093D1029093D2020E942F042B011E
:101220003C0154EA252E57E0352E80E997E0988757
:101230008F83EEE5F1E0FE83ED83FC87EB8710E022
:1012400000E04EE4A42E41E0B42E50E040E0C12C7A
:10125000D12C7601F501A191B1915F01FA01E00F66
:10126000F11FEE0FFF1FE854F84F259134910E94B3
:10127000F60FC60ED71EE81EF91E4F5F5F4F4830AF
:10128000510541F7C1010E94B7054B015C01C7013F
:10129000B6010E94E30DA50194010E94350F6B0178
:1012A0007C018F8198850E94B7059B01AC01C70125
:1012B000B6010E948E0CEB85FC856193719381933E
:1012C0009193FC87EB87F4E02F0E311C2F8138853A
:1012D0002C5F3F4F38872F83085F1F4F083211055F
:1012E00009F0AFCF0E942F04AB01BC01441955098E
:1012F000660977094093CB025093CC026093CD02EC
:101300007093CE028091D3029091D402A091D50225
:10131000B091D6020091CF021091D0022091D1025B
:101320003091D202800F911FA21FB31F840F951F0F
:10133000A61FB71F8093D7029093D802A093D9021B
:10134000B093DA020E942F042B013C0120905E0131
:1013500030905F01C0906001D090610182E691E021
:1013600098878F837C01F70181909190A190B19033
:101370007F019101A601C501B4010E94BA0E1816A1
:1013800014F4140165012EE731E02E153F0559F7DD
:101390000EE511E0812C912C5401F80161917191BD
:1013A000819191918F019101A6010E948D0C0E9463
:1013B000790D9B01AC01F80134972083318342837E
:1013C0005383C501B4010E948E0C4B015C01E016F1
:1013D000F10619F7ED81FE816191719181919191F1
:1013E000FE83ED837F01F4E0EF1AF108A50194017B
:1013F0000E94FF0CF70160837183828393832D81A8
:101400003E810217130731F70E942F0464197509F2
:10141000860997096093C7027093C8028093C90236
:101420009093CA0201E010E0EF81F885619171911B
:1014300081919191F887EF83E985FA85EE0FFF1F7F
:10144000EE0FFF1FE25AFE4F20813181428153810E
:101450000E94BA0E181614F41A8709870F5F1F4FDF
:101460000530110509F7E985FA85EE0FFF1FEE0F2C
:10147000FF1FE25AFE4F20E030E048EC52E460816A
:101480007181828193810E94350F6093C3027093B2
:10149000C4028093C5029093C60289858F5B8093B6
:1014A00000018091E7029091E802A091E902B091D9
:1014B000EA020196A11DB11D8093E7029093E80214
:1014C000A093E902B093EA02E0919203F0919303B2
:1014D000309711F4E6E9F3E0EF3F28E0F20738F443
:1014E0009F012F5F3F4F80818D3C09F446C18FEFF4
:1014F00098E08E1B9F0B9093E6028093E5028FB7D6
:10150000F894C090ED02D090EE02E090EF02F090DF
:10151000F0028FBF8091E1029091E202A091E3027C
:10152000B091E40246015701881A990AAA0ABB0A37
:1015300038EE831633E09306A104B10408F444C0E6
:101540006091E7027091E8028091E9029091EA02CD
:101550000E94E10D20E030E04AE754E40E94350F9C
:101560002B013C01C501B4010E94E10D9B01AC01BE
:10157000C301B2010E94FF0C6093DD027093DE0292
:101580008093DF029093E0021092E7021092E8024B
:101590001092E9021092EA02C092E102D092E202B5
:1015A000E092E302F092E40280919203909193031F
:1015B000009711F486E993E0EB81FC81E81BF90BBD
:1015C000F093DC02E093DB028BE70E9441058091FF
:1015D00000010E9441058CE20E9441056091D70202
:1015E0007091D8028091D9029091DA024AE00E946B
:1015F00073058CE20E9441056091D3027091D40280
:101600008091D5029091D6024AE00E9473058CE247
:101610000E9441056091CF027091D0028091D10269
:101620009091D2024AE00E9473058CE20E9441052B
:101630006091CB027091CC028091CD029091CE024C
:101640004AE00E9473058CE20E9441056091C70246
:101650007091C8028091C9029091CA024AE00E942A
:1016600073058CE20E944105C090C302D090C40271
:10167000E090C502F090C602A7019601C701B6012D
:101680000E94A20F882309F47AC08DE191E00E94A4
:1016900066058CE20E9441056091DD027091DE02D8
:1016A0008091DF029091E0020E94AB0D6B01770FF9
:1016B000EE08FF084AE0C701B601F7FE0BC08DE255
:1016C0000E94410566277727CB016C197D098E0999
:1016D0009F094AE00E9473058CE20E9441056091D7
:1016E000DB027091DC0290E080E04AE00E9473052A
:1016F0008CE20E9441056091E5027091E60290E063
:1017000080E04AE00E9473058DE70E9441058AE16E
:1017100091E00E94660520C06CE270E0C8010E9462
:101720001A106C01009711F0FC011082FFEFEF1A04
:10173000FF0AC8010E945E0CF401819391934F014E
:10174000C114D10421F086010F5F1F4F25CCFAE2AE
:10175000EF16F10409F429CC1092C2021092D201C2
:1017600020E030E0232B09F46FCB0E94BE048823D5
:1017700009F46ACB0E94000067CBF901ADCE4601A7
:101780005701E894B7F82FEF3FEF4FE75FE7C50148
:10179000B4010E94A20F81110DC02FEF3FEF4FE760
:1017A0005FE7C501B4010E94FA0C18161CF481E22F
:1017B00091E06DCF2FEF3FEF4FE75FE4C701B60138
:1017C0000E94BA0E18161CF485E291E060CF2FEF4C
:1017D0003FEF4FE75FECC701B6010E94FA0C87FDAF
:1017E000F3CF20E030E0A901C701B6010E94FA0C56
:1017F00087FF07C08DE20E944105F7FAF094F7F8E1
:10180000F0942DEC3CEC4CE45DE3C701B6010E9482
:101810008E0C4B015C010E94B20D6B017C010E9499
:10182000E10D9B01AC01C501B4010E948D0C4B017F
:101830005C014AE0C701B6010E9473058EE20E9476
:10184000410520E030E040E251E4C501B4010E94CE
:10185000350F0E94B20D90E080E04AE00E947305CF
:1018600018CFE5EFF2E01382128288EE93E0A0E059
:10187000B0E084839583A683B78385E091E091836C
:10188000808385EC90E09587848784EC90E097874F
:10189000868780EC90E0918B808B81EC90E0938B3D
:1018A000828B82EC90E0958B848B86EC90E0978B1A
:1018B000868B118E128E138E148E0895FC0188274C
:1018C0009927E89421912032E9F3293010F02E3045
:1018D000C8F32B3241F02D3239F4689404C00E94D1
:1018E000850C820F911D219120532A30C0F31EF4E4
:1018F000909581959F4F0895FB01DC0102C00590F2
:101900000D9241505040D8F708957AE0979F902D5E
:10191000879F802D910D112408955058BB27AA2729
:101920000E94A50C0C94800E0E94720E38F00E944A
:10193000790E20F039F49F3F19F426F40C94480EE8
:101940000EF4E095E7FB0C94420EE92F0E94910EF5
:1019500058F3BA17620773078407950720F079F4E4
:10196000A6F50C94B30E0EF4E0950B2EBA2FA02D15
:101970000B01B90190010C01CA01A0011124FF273C
:10198000591B99F0593F50F4503E68F11A16F04037
:10199000A22F232F342F4427585FF3CF4695379536
:1019A0002795A795F0405395C9F77EF41F16BA0BFB
:1019B000620B730B840BBAF09150A1F0FF0FBB1FA9
:1019C000661F771F881FC2F70EC0BA0F621F731FF2
:1019D000841F48F4879577956795B795F7959E3F4F
:1019E00008F0B0CF9395880F08F09927EE0F9795E0
:1019F000879508950E941E0E08F481E008950E94C4
:101A0000130D0C94800E0E94790E58F00E94720EF5
:101A100040F029F45F3F29F00C94420E51110C94D0
:101A2000B40E0C94480E0E94910E68F39923B1F302
:101A3000552391F3951B550BBB27AA2762177307F4
:101A4000840738F09F5F5F4F220F331F441FAA1F88
:101A5000A9F335D00E2E3AF0E0E832D09150504044
:101A6000E695001CCAF72BD0FE2F29D0660F771FF2
:101A7000881FBB1F261737074807AB07B0E809F0D8
:101A8000BB0B802DBF01FF2793585F4F3AF09E3F5D
:101A9000510578F00C94420E0C94B40E5F3FE4F3C1
:101AA000983ED4F3869577956795B795F7959F5FA0
:101AB000C9F7880F911D9695879597F90895E1E0EC
:101AC000660F771F881FBB1F621773078407BA074B
:101AD00020F0621B730B840BBA0BEE1F88F7E095A6
:101AE000089529F416F00C94420E0C94B30E0C9445
:101AF000480E0E94990EA8F39638A0F707F80F92A7
:101B0000E8942BE33AEA48EB5FE70E944B0F0F9211
:101B10000F920F924DB75EB70F920E94010FE8E649
:101B2000F0E00E944B0E4F915F91EF91FF91E59590
:101B3000EE1FFF1F49F0FE57E0684427EE0F441FD9
:101B4000FA95E1F74195550B0E94CB0E0F9007FED9
:101B50000C94BF0E08950E94B20D6894B1110C94BC
:101B6000B40E08950E94990E88F09F5798F0B92FEF
:101B70009927B751B0F0E1F0660F771F881F991FC2
:101B80001AF0BA95C9F714C0B13091F00E94B30EA3
:101B9000B1E008950C94B30E672F782F8827B85FB3
:101BA00039F0B93FCCF3869577956795B395D9F71A
:101BB0003EF490958095709561957F4F8F4F9F4F24
:101BC0000895E89409C097FB3EF490958095709530
:101BD00061957F4F8F4F9F4F9923A9F0F92F96E979
:101BE000BB279395F695879577956795B795F111EE
:101BF000F8CFFAF4BB0F11F460FF1BC06F5F7F4F8B
:101C00008F4F9F4F16C0882311F096E911C077239C
:101C100021F09EE8872F762F05C0662371F096E8A5
:101C2000862F70E060E02AF09A95660F771F881F74
:101C3000DAF7880F9695879597F90895990F000818
:101C4000550FAA0BE0E8FEEF16161706E807F9078E
:101C5000C0F012161306E407F50798F0621B730B29
:101C6000840B950B39F40A2661F0232B242B252BAA
:101C700021F408950A2609F4A140A6958FEF811D4D
:101C8000811D089597F99F6780E870E060E00895EE
:101C90009FEF80EC0895DF93CF931F930F93FF92F4
:101CA000EF92DF927B018C01689406C0DA2EEF017F
:101CB0000E94480FFE01E894A59125913591459128
:101CC0005591A6F3EF010E94A50CFE019701A80112
:101CD000DA9469F7DF90EF90FF900F911F91CF9109
:101CE000DF91089500240A941616170618060906AF
:101CF000089500240A941216130614060506089582
:101D0000092E0394000C11F4882352F0BB0F40F409
:101D1000BF2B11F460FF04C06F5F7F4F8F4F9F4F49
:101D2000089557FD9058440F551F59F05F3F71F0CB
:101D30004795880F97FB991F61F09F3F79F0879532
:101D40000895121613061406551FF2CF4695F1DFBB
:101D500008C0161617061806991FF1CF869571054B
:101D6000610508940895E894BB2766277727CB017F
:101D700097F908950E941E0E08F48FEF08959B01B5
:101D8000AC0160E070E080E89FE30C94FF0C0C94E1
:101D9000420E0C94A70F0E94990ED8F39923C9F311
:101DA000940F511DA3F39150504094F059F08823A3
:101DB00032F0660F771F881F91505040C1F79E3F49
:101DC00051052CF7880F911D9695879597F90895E1
:101DD0005F3FACF0983E9CF0BB2786957795679562
:101DE000B79508F4B1609395C1F7BB0F58F711F49C
:101DF00060FFE8CF6F5F7F4F8F4F9F4FE3CF0C9413
:101E0000B40EFA01DC01AA0FBB1F9B01AC01BF5746
:101E100028F4222733274427507820C0B75190F464
:101E2000AB2F0024469537952795011CA395D2F337
:101E3000002071F0220F331F441FB395DAF30ED048
:101E40000C948D0C61307105A0E88A07B94630F416
:101E50009B01AC016627772788279078309621F080
:101E6000208331834283538308950E94480F0C944A
:101E7000800E0E94720E38F00E94790E20F0952399
:101E800011F00C94420E0C94480E11240C94B40ED4
:101E90000E94910E70F3959FC1F3950F50E0551F6E
:101EA000629FF001729FBB27F00DB11D639FAA27AF
:101EB000F00DB11DAA1F649F6627B00DA11D661FFE
:101EC000829F2227B00DA11D621F739FB00DA11D1F
:101ED000621F839FA00D611D221F749F3327A00DD9
:101EE000611D231F849F600D211D822F762F6A2F75
:101EF00011249F5750409AF0F1F088234AF0EE0FDA
:101F0000FF1FBB1F661F771F881F91505040A9F706
:101F10009E3F510580F00C94420E0C94B40E5F3F2E
:101F2000E4F3983ED4F3869577956795B795F79542
:101F3000E7959F5FC1F7FE2B880F911D96958795BA
:101F400097F908950E941E0E880B990B08959F3FE4
:101F500031F0915020F4879577956795B795880F64
:101F6000911D9695879597F90895A1E21A2EAA1BBF
:101F7000BB1BFD010DC0AA1FBB1FEE1FFF1FA21739
:101F8000B307E407F50720F0A21BB30BE40BF50B36
:101F9000661F771F881F991F1A9469F760957095BF
:101FA000809590959B01AC01BD01CF010895052E50
:101FB00097FB1EF400940E94EE0F57FD07D00E947D
:101FC000B50F07FC03D04EF40C94EE0F50954095DE
:101FD000309521953F4F4F4F5F4F089590958095D5
:101FE000709561957F4F8F4F9F4F08950E94FE0F10
:101FF000332312F48A1B9B0B0C940F10A29FB00189
:10200000B39FC001A39F700D811D1124911DB29F2C
:10201000700D811D1124911D08950E94FE0FB7FFC0
:102020000895821B930B0895EE0FFF1F0590F49106
:10203000E02D0994FC018191861721F08823D9F7BE
:10204000992708953197CF010895FC0181E090E030
:102050000190061609F4CF010020D1F701970895E9
:10206000F894FFCF3F00000000F4045404810446BC
:1020700005B2049004A4047B626F6F747D000D0AA6
:0E208000006E616E00696E66006F766600008D
:107800000C94343C0C94513C0C94513C0C94513CE1
:107810000C94513C0C94513C0C94513C0C94513CB4
:107820000C94513C0C94513C0C94513C0C94513CA4
:107830000C94513C0C94513C0C94513C0C94513C94
:107840000C94513C0C94513C0C94513C0C94513C84
:107850000C94513C0C94513C0C94513C0C94513C74
:107860000C94513C0C94513C11241FBECFEFD8E036
:10787000DEBFCDBF11E0A0E0B1E0ECE9FFE702C060
:1078800005900D92A230B107D9F712E0A2E0B1E065
:1078900001C01D92AD30B107E1F70E942D3D0C945F
:1078A000CC3F0C94003C982F959595959595959582
:1078B000905D8F708A307CF0282F295A8091C0000B
:1078C00085FFFCCF9093C6008091C00085FFFCCF60
:1078D0002093C6000895282F205DF0CF982F809127
:1078E000C00085FFFCCF9093C6000895EF92FF92F1
:1078F0000F931F93EE24FF2487018091C00087FD22
:1079000017C00894E11CF11C011D111D81E4E8164B
:1079100082E4F8068FE0080780E0180770F3E09132
:107920000401F091050109958091C00087FFE9CF1E
:107930008091C6001F910F91FF90EF9008950E94D3
:10794000763C982F8091C00085FFFCCF9093C600B5
:1079500091362CF490330CF09053892F089597555D
:10796000892F08951F930E949F3C182F0E949F3CCF
:107970001295107F810F1F9108951F93182F882350
:1079800021F00E94763C1150E1F71F9108951F935A
:10799000182F0E94763C803249F0809103018F5F5E
:1079A000809303018530C1F01F9108958091C0003C
:1079B00085FFFCCF84E18093C6008091C00085FFE5
:1079C000FCCF1093C6008091C00085FFFCCF80E102
:1079D0008093C6001F910895E0910401F091050184
:1079E00009951F9108950E94763C803241F0809164
:1079F00003018F5F80930301853081F008958091AA
:107A0000C00085FFFCCF84E18093C6008091C00058
:107A100085FFFCCF80E18093C6000895E0910401CA
:107A2000F09105010995089540E951E08823A1F0FE
:107A30002D9A28EE33E0FA013197F1F721503040CA
:107A4000D1F72D9828EE33E0FA013197F1F7215064
:107A50003040D1F7815061F708953F924F925F9285
:107A60006F927F928F929F92AF92BF92CF92DF924E
:107A7000EF92FF920F931F93CF93DF93000080E16B
:107A80008093C4001092C50088E18093C10086E015
:107A90008093C2005098589A259A81E00E94143D24
:107AA00024E1F22E9EE1E92E85E9D82E0FE0C02ECA
:107AB00010E1B12EAA24A394B1E49B2EA6E58A2E50
:107AC000F2E57F2EE0E26E2E79E4572E63E5462E36
:107AD00050E5352E0E94763C8033B1F18133B9F107
:107AE000803409F46FC0813409F476C0823409F41B
:107AF00085C0853409F488C0803531F1823521F1A3
:107B0000813511F1853509F485C0863509F48DC0BC
:107B1000843609F496C0843709F403C1853709F423
:107B200072C1863709F466C0809103018F5F80932C
:107B30000301853079F6E0910401F0910501099582
:107B40000E94763C803351F60E94F33CC3CF0E94E2
:107B5000763C803249F78091C00085FFFCCFF092DF
:107B6000C6008091C00085FFFCCF9092C600809136
:107B7000C00085FFFCCF8092C6008091C00085FFC9
:107B8000FCCF7092C6008091C00085FFFCCF609250
:107B9000C6008091C00085FFFCCF5092C600809146
:107BA000C00085FFFCCF4092C6008091C00085FFD9
:107BB000FCCF3092C6008091C00085FFFCCFB09210
:107BC000C60088CF0E94763C863808F4BDCF0E945C
:107BD000763C0E94F33C7ECF0E94763C803809F4CC
:107BE0009CC0813809F40BC1823809F43CC1883942
:107BF00009F48FC080E00E94C73C6CCF84E10E94F2
:107C0000BD3C0E94F33C66CF85E00E94BD3C0E94D3
:107C1000F33C60CF0E94763C809306010E94763C44
:107C2000809307010E94F33C55CF0E94763C80333D
:107C300009F41DC183E00E94BD3C80E00E94C73C66
:107C400049CF0E94763C809309020E94763C809343
:107C5000080280910C028E7F80930C020E94763C79
:107C6000853409F415C18091080290910902892B8D
:107C700089F000E010E00E94763CF801E85FFE4FDA
:107C800080830F5F1F4F80910802909109020817AF
:107C9000190788F30E94763C803209F045CF809125
:107CA0000C0280FF01C16091060170910701660F0F
:107CB000771F7093070160930601A0910802B091AD
:107CC00009021097C9F0E8E0F1E09B01AD014E0F09
:107CD0005F1FF999FECF32BD21BD819180BDFA9A17
:107CE000F99A2F5F3F4FE417F50799F76A0F7B1F4B
:107CF00070930701609306018091C00085FFFCCF5F
:107D0000F092C6008091C00085FFFCCFB092C60003
:107D1000E1CE83E00E94C73CDDCE82E00E94C73CFA
:107D2000D9CE0E94763C809309020E94763C8093D3
:107D300008028091060190910701880F991F909386
:107D40000701809306010E94763C853409F4A6C0A1
:107D500080910C028E7F80930C020E94763C8032D0
:107D600009F0B8CE8091C00085FFFCCFF092C6002C
:107D7000609108027091090261157105B9F140E046
:107D800050E080910C02A82FA170B82FB27011C0E2
:107D9000BB2309F45CC0E0910601F0910701319624
:107DA000F0930701E09306014F5F5F4F46175707B7
:107DB000E8F4AA2369F3F999FECF209106013091E6
:107DC000070132BD21BDF89A90B58091C00085FFB2
:107DD000FCCF9093C6002F5F3F4F30930701209355
:107DE00006014F5F5F4F4617570718F38091C00099
:107DF00085FDE5CE8091C00085FFF8CFE0CE81E023
:107E00000E94C73C67CE0E94763C803209F08CCE3F
:107E10008091C00085FFFCCFF092C6008091C00029
:107E200085FFFCCFE092C6008091C00085FFFCCFAB
:107E3000D092C6008091C00085FFFCCFC092C600E2
:107E40008091C00085FFFCCFB092C60043CEE09188
:107E50000601F091070194918091C00085FFFCCF4D
:107E60009093C6009CCF80E10E94C73C33CE0E9415
:107E7000763C0E94763C182F0E94763C112309F430
:107E800083C0113009F484C08FE00E94C73C22CE29
:107E900080910C02816080930C02E5CE80910C02EF
:107EA000816080930C0259CF809107018823880F4D
:107EB000880B8A2180930B02809106019091070123
:107EC000880F991F90930701809306018091080203
:107ED00080FF09C080910802909109020196909359
:107EE000090280930802F894F999FECF1127E091D6
:107EF0000601F0910701C8E0D1E08091080290915D
:107F00000902103091F40091570001700130D9F34B
:107F100003E000935700E89500915700017001308D
:107F2000D9F301E100935700E89509901990009169
:107F3000570001700130D9F301E000935700E89534
:107F40001395103498F011270091570001700130FB
:107F5000D9F305E000935700E895009157000170B0
:107F60000130D9F301E100935700E895329602976A
:107F700009F0C7CF103011F00296E5CF112480919F
:107F8000C00085FFB9CEBCCE8EE10E94C73CA2CD19
:0E7F900085E90E94C73C9ECDF894FFCF80008B
:00000001FF
